:020000040000FA
:06000000020A4B0201B3ED
:03002B0002088642
:0300330002062B97
:0300430002073B76
:030053000200E4C4
:03006B0002060585
:100083000201480101FF01010503010F10FEFF3BBF
:10009300133B133B133B13F711F1113B130A2000DE
:1000A300000000CE20000000000C0000000C000146
:1000B300FFFF0102008805000000FB056400020247
:1000C30000080000050207051E02051E020A0A03B6
:1000D300B80B02803E0102FFFF1496511800020282
:1000E30006C0E074F21203CCA2AFE433FED2AFE554
:1000F300A7FFE5A1F5085F54106006121AD975A190
:10010300EFE5085F54086008121ADF75A1F7802B2A
:10011300EFA2E0C0D0E508A2E092F01209881581B1
:1001230082F05017906198E0F8900AD8E0C398A243
:10013300D265D0335002E8F075A1FEEEA2E092AF93
:100143007F0102042BC0E074F21203CCA2AFE433AC
:10015300FED2AF9061A4E0F8759B00E59158540876
:1001630060087591F7121B27802AE5915854106097
:10017300087591EF121B2D801BE8A2E0C0D0E5911A
:10018300A2E092F0120988158182F05007E0C2E0E4
:10019300F0121C719061A3E0F8E5E9585404600E75
:1001A300121C4775E9FB906193E0A2E640F2808B55
:1001B300C0E074F21203CCA2AFE433FED2AF90617D
:1001C300A5E0F8E5BF585404600675BFFB121C890F
:1001D30002013EC3E498F8E499F91202178026C39A
:1001E300E49AFAE49BFBE920E7E9120217E498F8A2
:1001F300E499F922C3E498F8E499F9120217E49810
:10020300F8E499F9C3E49AFAE49BFB22EB20E7CFE5
:10021300E920E7E0B90010BB0008E88AF084F8AAF7
:10022300F022E4FBC8FA22EB70227B10C833C8C962
:1002330033C9335007C39AC3DBF280069A50012AAD
:10024300DBEAC833F4C8C933F4C9FA2275F008E409
:10025300C833C8C933C933C99AC99B5004C92AC909
:100263003BD5F0ECFBC833F4C8E4C9FA220808080C
:10027300EAC0E0EBC0E086F0E7A4FA180986F0E7ED
:10028300A42AFA180986F0E7A42AFA180986F0E7DF
:10029300A42AFA1986F0E7A4FBE5F02AFA190886DE
:1002A300F0E7A42BFBE5F03AFA190886F0E7A42B54
:1002B300FBE5F03AFA18180986F0E7A4C5F02BFB22
:1002C300E43AFA1908E7C5F0C6A426F6E5F03BFBC5
:1002D300E43AFA1886F0E7A4F6E5F00826F6E43BDC
:1002E30008F6E43A08F6D0E0FBD0E0FA22E4CFC007
:1002F300E0E4CEC0E0E4CDC0E0E4CCC0E075F020A3
:10030300C3E633F608E633F608E633F608E633F6D3
:10031300181818EC33FCED33FDEE33FEEF33FFC357
:10032300EC9709ED9709EE9709EF97191919400F03
:10033300FFEC97FC09ED97FD09EE97FE191906D519
:10034300F0BEECF709EDF709EEF709EFF719191904
:10035300D0E0FCD0E0FDD0E0FED0E0FF222518C5C0
:1003630082C0E0E51934FFC583C0E0E518C3958278
:1003730024F810AF088583198582188008858319AE
:10038300858218D2AFCEF0A3E520F0A37808E60863
:10039300F0A3DEFAEFF0A3E58124FAF8E608F0A370
:1003A300E608F0A3E608F0A30808E608F0A3E608C9
:1003B300F0A315811581D0E0FED0E0F815811581F9
:1003C3001581E8C0E0EEC0E022C0D02518C582C088
:1003D300E0E51934FFC583C0E0E518C3958224F333
:1003E30010AF088583198582188008858319858253
:1003F30018D2AFC8F0A3E9F0A3EAF0A3EBF0A37916
:1004030008E709F0A3D8FAECF0A3EDF0A3EEF0A30C
:10041300EFF0A3D0E0F0A3D0E0F0A3D0E0F0A3E5A9
:1004230020F0A3E5F0F0A322851983851882E0C0AC
:10043300E0A3E0F9A3E0FAA3E0FBA37808E0F60861
:10044300A3DFFAE0FCA3E0FDA3E0FEA3E0FFA3E04B
:10045300C0E0A3E0C0E0A3E0F5D0A3E0F520A3E073
:10046300A3F5F010AF08858319858218800885836A
:1004730019858218D2AFD082D083D0E0F8D0E03291
:10048300120AADB900030204C5E4900301789F7911
:100493000E8002F0A3D8FCD9FA90109FAA82AB83F6
:1004A300900086785F79018015E493A3AC82AD83D5
:1004B3008A828B83F0A3AA82AB838C828D83D8E953
:1004C300D9E775821F7583F274031207FE758211D3
:1004D30075831F74001207FE0975F0108E1A8F1BA7
:1004E30085821F85831E851882851983E0CEA3E04C
:1004F300CF851F82851E83EBC9EAC8EDCBECCAC347
:10050300E833C8E933C9EA33CAEB33CBC3EA9EF510
:100513001DEB9FF51CB35004AB1CAA1DEC33CCEDB3
:1005230033CDD5F0DAAE1AAF1B22D083D082ECC024
:10053300E0EDC0E0E493A3FCE493A3FDED4C600D78
:10054300120649EC24FFFCED34FFFD80EFE493A396
:10055300FCE493A3FDED4C600D1206E6EC24FFFCD6
:10056300ED34FFFD80EFD0E0FDD0E0FCE493A3C0C9
:10057300E0E493C0E022851983851882E0A3FEE0BE
:10058300A3F5207808E0A3F608DFFAE0A3FFE0A3D1
:10059300C0E0E0A3C0E0E0A3C0E0E0A3C0E0E0A3CC
:1005A300C0E010AF088582188583198008858218FA
:1005B300858319D2AFD083D082020804D083D0823E
:1005C300E9C0E0E493A3C386F0C5F095F0F908E42D
:1005D30093A386F0C5F095F0700BE493A3C3994001
:1005E30005E9048002A3E475F002A42582F582E5FF
:1005F300F03583F583D0E0F9E493A3C0E0E493C03E
:10060300E022C0E074F21203CCA2AFE433FED2AF17
:10061300E589A2E550031219EF758900C2C5EEA260
:10062300E092AF7F0102042BC0E074F21203CCA26C
:10063300AFE433FED2AFE58BA2E050031219EF759E
:100643008B00C2E880D8C0E0C3E49396087401939A
:100653009618400FE4936670080874019366187047
:10066300007019A3A3C3E49396087401939618A387
:10067300A3400DD0E0D0E0D0E0020569A3A3A3A37B
:10068300A3A3D0E0227404800474028000CCC0E0F1
:10069300EDC0E0E518C39CCCAD1950011D10AF06A9
:1006A3008C188D1980068C188D19D2AF120780D043
:1006B300E0FDD0E0FC2274028000CCC0E0EDC0E09D
:1006C300E518C39CCCAD1950011D10AF068C188DD5
:1006D3001980068C188D19D2AF12075ED0E0FDD0B9
:1006E300E0FC22C0E0C0F088F0E493667008087470
:1006F300019366187000A8F0A3A3700BD0F0D0E0AC
:10070300D0E0D0E0020569A3A3D0F0D0E022D083EB
:10071300D082CCC0E0E493A360061207C01470FA41
:10072300E493A360061208D01470FAD0E0FCE493BB
:10073300A3C0E0E493C0E022C0E074F21203CCA2B1
:10074300AFE433FED2AFC2C0E5D1A2E45003121A24
:100753004FEEA2E092AF7F0102042BCAC0E0E49304
:10076300A3C582CCC582C583CDC583F0A3C582CC86
:10077300C582C583CDC583DAE5D0E0CA22CAC0E00D
:10078300E0A3C582CCC582C583CDC583F0A3C58252
:10079300CCC582C583CDC583DAE6D0E0CA22700911
:1007A300080808226016181818C6C333C608C633CB
:1007B300C608C633C608C633C6D5E0EA22C0E0E49D
:1007C30093A3D39C5010E493A3C39C400AD0E0D0DE
:1007D300E0D0E002072EA3A3A3D0E022C008C3E029
:1007E30096F50808A3E096420808A3E09642080895
:1007F300A3E09645087001D3D00822C09FF59FE47B
:1008030073D09F22D083D082C09FE493C0E0740151
:1008130093C0E0740293F59F227404800A740380EA
:1008230006740280027401C0E0F404120837D0E0B9
:10083300120A88222518F58210AF08F51840021510
:10084300198008F51840021519D2AF85198322BB08
:100853000102E722C082C08389828A83BB0003E04E
:100863008002E493D083D08222C0D0251810AF0831
:10087300F518500205198008F51850020519D2AF72
:10088300D0D022C0E0C0D0E8C0E0E5A8D2AFC2C754
:10089300A2E792AFD0E0F8D0D0D0E03260160808DB
:1008A30008C6C313C618C613C618C613C618C6137C
:1008B300C6D5E0EA22C3E0C696F608A3E0C696F6DC
:1008C30008A3E0C696F608A3E0C696F622C0E0E4C5
:1008D30093A36C7009D0E0D0E0D0E002072EA3A36D
:1008E300D0E022251810AF08F5184002151980082A
:1008F300F51840021519D2AF22C3E09608A3E0967B
:1009030008A3E09608A3E096A2D265D03322E0665E
:10091300701008A3E066700A08A3E066700408A3D9
:10092300E06622E76670100809E766700A0809E7BF
:100933006670040809E76622C3E096F008A3E09610
:10094300F008A3E096F008A3E096F022E026F00872
:10095300A3E036F008A3E036F008A3E036F022E681
:1009630027F60809E637F60809E637F60809E637F1
:10097300F622E026F608A3E036F608A3E036F608EA
:10098300A3E036F622C0E0E8C0E0E58124FCF8E607
:10099300A2E7D0E0F8D0E022700422600D18C6C3AD
:1009A30033C608C633C6D5E0F41822E657F608095D
:1009B300E657F60809E657F60809E657F622E05621
:1009C300F608A3E056F608A3E056F608A3E056F6A9
:1009D30022E056F008A3E056F008A3E056F008A37F
:1009E300E056F022E647F60809E647F60809E64727
:1009F300F60809E647F622E4C396F608E496F608F5
:100A0300E496F608E496F622C3E7960809E7960803
:100A130009E7960809E79622C6F4C608C6F4C6088D
:100A2300C6F4C608C6F4C622600D08C6A2E713C6FC
:100A330018C613C6D5E0F322C3E09608A3E09608D0
:100A4300A3E09608A3E0962275D00075814075183F
:100A53000175190300020483E0F608A3E0F608A376
:100A6300E0F608A3E0F622600C08C6C313C618C656
:100A730013C6D5E0F422E6F008A3E6F008A3E6F0F7
:100A830008A3E6F022CAC0E0E6F0A308DAFAD0E051
:100A9300FA22E0FAA3E0FBA3E0FCA3E0FD22EAF0E4
:100AA300A3EBF0A3ECF0A3EDF022E5C754F8440167
:100AB300F5C77901222518F582E43519F58322C299
:100AC300AF75D69F02000022120807DEDF0212086C
:100AD30007C0E00212080775E102120807CAE30221
:100AE30012080717E502120807BAE50212080709F8
:100AF300E70212080727E7021208071E230012085D
:100B030007532300120807792300120807B32300B1
:100B1300120807C5230012080717240012080778D4
:100B23002400120807022500120807A62500120850
:100B330007EE25001208072826001208074526009D
:100B43001208076A2600120807BC2600120807D5F8
:100B53002600120807FB2600120807362700120892
:100B6300077A2700120807A12700120807F22700B7
:100B7300120807A228001208075A290012080722A0
:100B83002A00120807E22A00120807262B0012087F
:100B9300074B2B001208078E2B00120807DB2B00D4
:100BA300120807332D00120807B92D00120807D7C2
:100BB3002D00120807012E001208071B2E00120831
:100BC300072A2E00120807352E00120807F52E00FB
:100BD3001208074E2F0012080710300012080718DA
:100BE30030001208079C3000120807E23000120898
:100BF30007233100120807B332001208076B3300D2
:100C0300120807D733001208070235001208072716
:100C130035001208079D35001208072F3600120809
:100C230007EF36001208070E37001208071D3800B9
:100C33001208072F38001208079F3800120807C947
:100C430038001208075F39001208079839001208A4
:100C530007E43900120807003B00120807493D006A
:100C6300120807543D001208075F3D001208076A87
:100C73003D00120807743D001208077F3D0012086B
:100C830007993D00120807A33D00120807AD3D0078
:100C9300120807B83D00120807E03D001208073BA1
:100CA3003E00120807453E00120807693E0012087D
:100CB300078D3E00120807EB3E001208072F3F0086
:100CC3001208074B3F00120807C23F00120807FA39
:100CD3003F00120807464000120807A3400012080D
:100CE300075D41001208074143001208079A4300B9
:100CF300120807CA4400120807F0440012080779D3
:100D03004600120807F54900120807C74B001208EE
:100D130007904D001208073D4E00120807A84F0028
:100D2300120807475000120807945000120807FEE4
:100D330050001208070D51001208079453001208BF
:100D430007465500120807B35500120807925600CC
:100D5300120807AB57001208072859001208074763
:100D630059001208079C5900120807A15A001208DB
:100D730007C95A00120807215B00120807005C002C
:100D8300120807445C001208078F5C00120807FA78
:100D93005C001208073B5E001208079F5E00120802
:100DA30007ED5F001208074D62001208077E62001C
:100DB3001208073664001208078B64001208078FB5
:100DC30065001208072C66001208078566001208E2
:100DD30007386700120807DA67001208077A680005
:100DE3001208071F69001208079E8001120807DD19
:100DF30080011208072483011208076E8301120879
:100E030007898401120807F1840112080726850166
:100E13001208079A86011208071D8901120807465E
:100E23008A01120807DC8A01120807E493011208F9
:100E33000779940112080760970112080753980174
:100E4300120807C19801120807079A01120807E957
:100E53009A01120807CE9C01120807DF9E011208AF
:100E630007499F011208071BA00112080749A001A7
:100E730012080706A101120807DDA101120807A441
:100E8300A20112080748A30112080771A30112085F
:100E93000793A301120807E9A501120807C1A601D8
:100EA30012080705A7011208076DA70112080725F5
:100EB300A80112080757A8011208079BA8011208E6
:100EC30007D1A8011208071DA90112080772A90179
:100ED30012080777A901120807CAA901120807EF28
:100EE300A901120807FEAA0112080762AB01120842
:100EF30007D2AB011208075EAC011208072BAF0142
:100F03001208070FB00112080792B101120807C8AF
:100F1300B30112080776B40112080726B5011208B7
:100F23000767B7011208070AB80112080751B80189
:100F3300120807FDB90112080711BA011208071BAD
:100F4300BA0112080743BA011208074FBA0112087F
:100F5300076EBA0112080762BC01120807BDBC0183
:100F630012080707BD011208070FBE011208076622
:100F7300BE01120807B5BF01120807F9BF01120825
:100F830007A1C00112080784C1011208072FC2017B
:100F93001208077BC30112080779C4011208071F4F
:100FA300C501120807AFC501120807C6C50112081B
:100FB30007FDC50112080707C60112080712C6017B
:100FC30012080730C60112080774C601120807D1B8
:100FD300C601120807F6C60112080710C701120856
:100FE300079CC701120807B9C80112080726C901DF
:100FF3001208070DCA0112080734CA01120807A80C
:10100300CA0112080723CB0112080727CC011208D3
:10101300071DCD01120807CCCD01120807DFCE0151
:101023001208077BCF0112080708D001120807E650
:10103300D0011208071ED10112080776D101120848
:10104300073FD20112080760D201120807E7D20155
:101053001208070BD3011208072DD30112080776D4
:10106300D3011208078CD50112080773D6011208A1
:101073000724D7011208075AD901120807AAD90170
:10108300120807EAD9011208072CDA0112080788A7
:10109300DA01120807B6DA01120807DADA011208D0
:1010A300072DDB011208075BDB0112080794DB0144
:1010B300120807E9DB011208074FDC01120807A336
:1010C300DD01120807C6DF0112080733E001120829
:1010D300075CE001120807E7E0011208074EE1018F
:1010E30012080799E101120807BDE101120807E19F
:1010F300E1011208073CE20112080757E201120856
:101103000710E3011208075083041208078F8304B2
:10111300120807788002120807BE80021208079E91
:101123008102120807A08202120807A38302120891
:10113300072F85021208078D85021208074A8602C7
:10114300120807688702120807D9870212080715D1
:1011530088021208076388021208076D88021208C2
:1011630007B188021208070D8902120807A889022D
:10117300120807258A02120807F48A021208078D4B
:101183008B02120807AD8B02120807E38B021208C9
:1011930007148C02120807D58C02120807E58C028B
:1011A300120807398D02120807548D0212080766C8
:1011B3008D021208076F8D02120807C98D021208EB
:1011C30007258E02120807718E021208078C8E0201
:1011D300120807BD8E02120807DA8E02120807E60C
:1011E3008E021208075A900212080773900212081F
:1011F30007DA9002120807ED9002120807FB90022B
:10120300120807AF91021208079392021208079976
:1012130093021208072394021208072D940212085E
:10122300079A9402120807B19402120807E3940282
:101233001208071C9502120807469502120807A711
:101243009502120807C79502120807E595021208CE
:10125300072B96021208075197021208079E97025E
:10126300120807CD97021208074398021208076B6A
:101273009802120807A49802120807B298021208EB
:10128300070A990212080759990212080798990246
:10129300120807C89902120807F49902120807FFF7
:1012A30099021208071D9A02120807DF9A02120810
:1012B30007E99A021208072A9B021208077F9B027A
:1012C300120807939B02120807A19C02120807B495
:1012D3009C02120807C99C021208076B9D021208A0
:1012E30007EE9D02120807AC9E02120807B79E0282
:1012F300120807E39F02120807FF9F021208075113
:10130300A00212080790A002120807A5A002120863
:101313000707A10212080796A102120807E1A1021A
:1013230012080732A402120807B0A4021208072504
:10133300A50212080747A7021208075FA7021208AF
:101343000762A7021208076EA70212080782A70204
:101353001208078AA702120807BDA7021208076D21
:10136300A802120807E3A80212080756A9021208E6
:10137300070AAA02120807BFAA02120807DEAA0276
:1013830012080784AB02120807AFAB02120807B2B8
:10139300AB021208071CAC0212080744AD02120884
:1013A300071CAE02120807A7AE02120807C0AF025D
:1013B3001208077DB002120807B6B002120807E749
:1013C300B002120807A5B102120807D5B10212082C
:1013D30007B0B20212080749B302120807D4B302D6
:1013E30012080785B40212080708B5021208073A63
:1013F300B5021208077BB502120807D19903120838
:1014030007369A03120807739A03120807C29A034E
:10141300120807D89C03120807BB9E03120807256E
:10142300A20312080760A20312080782A20312088C
:1014330007E5A20312080719A303120807C0D7027E
:1014430012080769A303120807C5A3031208070CB0
:101453008E031208078A8E03120807C08E03120830
:10146300072C8F031208079F9003120807BB9003F2
:101473001208070091031208078E9103120807E769
:101483009103120807149303120807269403120802
:1014930007839403120807A9DF0212080750950374
:1014A3001208079195031208073E96031208075086
:1014B30097031208077B9703120807C697031208BE
:1014C300070D98031208079F98031208075A9903F8
:1014D30012080740CE03120807D5CE03120807658A
:1014E300D103120807DCE60312080738E7031208E2
:1014F30007C8E9031208079BE303120807F7E3038E
:1015030012080787E6031208071DEA031208077982
:10151300EA0312080707ED031208075AE00312084B
:1015230007B6E00312080746E3031208074FB403A4
:101533001208079BB40312080709B5031208072A08
:10154300B503120807DAB503120807E3B503120857
:101553000736B6031208075FB603120807C6B603B9
:1015630012080757B70312080799B703120807E3CE
:10157300B70312080742B8031208076EB80312082C
:1015830007FFB8031208073EB9031208077DB90322
:10159300120807B2B903120807C4B903120807D621
:1015A300B903120807F5B903120807FEB9031208B5
:1015B30007B4BA03120807F4BA0312080718FF02A4
:1015C3001208078F7F00120807ABFD01120807E11D
:1015D300FD011208072AFE011208077AFF0112080B
:1015E300076B6900120807AA6A00120807E66A0077
:1015F300120807A56C00120807CE6C0012080761D9
:101603006F00120807A56F001208072E7100120859
:1016130007C671001208072E7200120807CF720066
:10162300120807117300120807517300120807DC30
:1016330074001208074C760012080771780012082C
:10164300079F7800120807C67800120807CF7800B2
:10165300120807567900120807747C00120807461F
:1016630084041208075C8404120807F5DC031208DB
:101673000708DD03120807A5DD03120807E0DD03F1
:10168300120807FBDD0312080720DE0312080765B3
:10169300DE0312080796DE03120807C7DE031208EB
:1016A300074DE003120807CB8004120807088104E2
:1016B3001208074A81041208075A810412080764B2
:1016C30081041208070080031208075580031208DB
:1016D300074E81031208071E820312080733820391
:1016E3001208077D8203120807DA8203120807ED46
:1016F30082031208073783031208074B8303120878
:10170300077D83031208077B8403120807C484033D
:10171300120807D384031208072285031208073827
:1017230085031208074F85031208077E85031208F5
:10173300079785031208073086031208078A860372
:10174300120807D88603120807FA860312080771DE
:101753008903120807A68903120807398A031208A6
:1017630007B18A03120807BD8A03120807F98A031F
:101773001208074F8B031208073E8C0312080763F6
:101783008C031208076D8C031208077C8C03120864
:1017930007058D03120807208D03120807428D03E6
:1017A3001208077D8D031208078C8D031208079713
:1017B3008D03120807D38D0312080703830412084D
:1017C300071B8304120807D4F70212080723F80241
:1017D300120807C5F90212080781FB02120807C99C
:1017E300FB02120807B1FC02120807E2FD0212080D
:1017F3000704FE0212080760FE02120807E4FE0255
:101803001208074AE3011208076BE301120807E80D
:10181300E3011208076DE401120807E9E401120865
:101823000752E5011208079EE5011208071DE601AC
:10183300120807AFE6011208073FE7011208078104
:10184300E701120807CAEB011208074AED01120863
:101853000720EE011208074FEE011208073AF001C4
:10186300120807BAF20112080773F301120807906E
:10187300F401120807E7F701120807F7F701120846
:101883000758F901120807E4F901120807F5FA01EC
:101893001208078EFB0112080791FC0112080713B7
:1018A300FD011208074EE70212080708E8021208B2
:1018B300077AE8021208070EE90212080715EA027E
:1018C30012080785EA021208073EED0212080715FF
:1018D300EE0212080782EE02120807FFEF02120857
:1018E30007C9F00212080734F10212080734F202A2
:1018F3001208070EF40212080721F502120807BAAC
:10190300F50212080780F60212080766AD031208F3
:1019130007BAAD0312080706AE0312080751AE0358
:1019230012080791AE03120807E1AE031208075726
:10193300B0031208070AB1031208074DB1031208D6
:101943000763B103120807BBB10312080709B20307
:1019530012080730B2031208079BB2031208079E4E
:10196300B3031208073CF4031208076DF4031208CB
:101973000727F5031208078DF503120807B0F203D2
:10198300120807008004120807118004120807B127
:10199300800412080716F60312080724F603120838
:1019A30007EBFF021208071C82041208072C8204AB
:1019B300120807478204120807A882041208072D99
:1019C300FE03120807B2FE0312080716FF031208EC
:1019D30007D5F703120807F7F7031208075DF803A3
:1019E3001208077DF803120807BBF803120807164D
:1019F300F9031208072FFF0312080747FF03120812
:101A03000777FF03120807F2FF03120807EBD5035A
:101A1300120807F9D50312080773D60312080757EC
:101A2300D70312080710D903120807DDFF011208B4
:101A3300071DBB0312080789BB0312080748BC0331
:101A430012080752BD03120807ABBE0312080706AC
:101A5300BF031208075BBF0312080764BF03120822
:101A63000776BF03120807E0BF03120807F4BF039A
:101A7300120807FEBF03120807CFC4031208072486
:101A8300C50312080720C70312080752C703120829
:101A93000774C7031208078DC703120807A6C703F5
:101AA300120807B0C8031208074BC9031208074DF1
:101AB300F90312080771F9031208078AF9031208D8
:101AC30007BDF903120807EEF9031208071CFA030E
:101AD3001208077EFA031208078DFA031208079704
:101AE300FA03120807A4FA03120807FF7C0012087E
:101AF30007257D00120807627D00120807717D002B
:101B0300120807907D00120807F87D0012080701EC
:101B13007E00120807607E00120807847E00120808
:101B230007437F00120807507F00120807617F00F8
:101B3300120807DD8304120807FA8304120807C298
:101B4300C90312080720CB031208072DCB03120881
:101B53000740CB031208075FCB0312080775CB03BB
:101B630012080789CB03120807FECB031208076389
:101B7300CC0312080713CD03120807E8CD0312089C
:101B830007F8CD0312080707CE0312080783810461
:101B9300120807A78104120807CF8104120807F768
:101BA30081041208075CED0312080783ED03120892
:101BB30007A4ED0312080709EE03120807C2EF0397
:101BC300120807DBEF03120807E7EF03120807FB0E
:101BD300EF0312080719F00312080723F003120892
:101BE300072DF00312080740F00312080793F003D0
:101BF300120807CCF003120807FBF0031208074989
:101C0300F10312080798F103120807B3F10312084E
:101C130007BDF103120807CEF10312080714F203FC
:101C2300120807B2820412080711A4031208073B23
:101C3300A40312080757A4031208076AA40312088F
:101C43000780A403120807DDA40312080710A503E5
:101C53001208074CA90312080772AA03120807A562
:101C6300AA03120807F1AA031208071DAC031208FE
:101C73000745AC031208075AAC031208076AAC0302
:101C8300120807AEAC031208070FAD031208071FB3
:101C9300AD03120807E7FB0312080702FC0312084F
:101CA300072BFC0312080745FC031208076AFC0311
:101CB30012080789FC03120807A1FC03120807CFC7
:101CC300FC03120807E9FC031208079983041208AE
:101CD3000775D9031208077CD90312080788DA03AA
:101CE300120807B8DA03120807DEDA03120807013D
:101CF300DB0312080723DB031208075DDB0312086B
:101D030007C3DB03120807FCDB0312080748DC03E5
:101D130012080775DC0312080795DC03120807AEE7
:101D2300FA03120807C6FA03120807E1FB031208B5
:101D330007E4FB031208071AFD031208078CFD03CF
:101D4300120807CAFD031208070BFE031208073720
:101D5300D20312080756D203120807A5D2031208AA
:101D630007C1D203120807F2D203120807FFD203F6
:101D73001208070CD303120807F8D3031208073617
:101D8300D40312080746D50312080751D5031208D6
:101D93000763D5031208076CD50312080776D5032A
:101DA30012080712C00312080757C4031208076575
:101DB300C40312080719840412080789D6021208FB
:101DC30007DDD50212080723D402120807D3D10274
:101DD3001208075AD10212080701D102120807910B
:101DE300D00212080768D00212080748CE02120870
:101DF3000714CE02120807E1CD02120807C5CD026F
:101E0300120807DECC0212080796CC02120807E17B
:101E1300CA0212080761CA021208075ECA02120840
:101E2300075BC90212080729C90212080766C8021C
:101E330012080791C60212080722C6021208077584
:101E4300DF0212080759DF02120807F9DE0212083F
:101E530007B1DE02120807FFDD02120807F4C5020C
:101E6300120807F1C502120807DEC5021208078926
:101E7300C50212080771DD0212080778C5021208AD
:101E8300076AC40212080734C402120807E2C30235
:101E930012080764DD02120807EF94031208078390
:101EA300C30212080752C3021208071AC00212081B
:101EB30007DABF02120807CEBF021208072EBF02BD
:101EC3001208076EBE02120807F0BB021208078150
:101ED300B9021208073FB90212080713B802120821
:101EE30007C8B70212080704B702120807D7B602D9
:101EF3001208071AB602120807B0B502120807EA59
:101F0300B5021208075EDA021208073CA3030000B9
:101F13000080FBE473000136360101000102010079
:101F23000103010001040106060502000007010088
:101F3300340801000F090401010D0100FF0E080020
:101F43000017020000190100FF1A0100011B010024
:101F5300FE1C0100081D0200001F010001200100FA
:101F630001210200002301000F24020000260100CA
:101F73000127010008280200FF2A0100072B0102A4
:101F8300402C0100002D0100012E0100012F010052
:101F9300FF30010B1C310800003A0100083B01002F
:101FA3000F2F010000030271023001600211027061
:101FB300020102020202028002100261023A00419F
:101FC30000630273027202620243020002130238C8
:101FD30000000200020402120200020002000200DA
:101FE3000204020402370037003C024402000239B3
:101FF30000000200026502000235028102000205B0
:1020030002820283020002030071003001600011AA
:1020130000700031022003500480001000610000B2
:102023000014006300730072006200430000001399
:102033000006000000000004001200000000000081
:1020430000000004000400370037003C0244000095
:102053000000000000000065000000350081000062
:102063000005000000830000000304710402046003
:102073000411047004020402040104020410046144
:10208300040004140463047304720462044304002C
:1020930004130406040004000404041204000400EE
:1020A3000400040004510464000004000400044418
:1020B30004000400040004000465040004350481E2
:1020C3000464000504000483040004010371030194
:1020D30003010301030103010322030203010310AC
:1020E3000300030003000300030003000300034293
:1020F3000300032403060300030003040312032560
:102103000323032503230304030403000300030041
:102113000344030003000323030003650321003585
:10212300038103000305030003000300030101719E
:1021330001010101011101010131010101010180CD
:1021430001100161013B001400630173017201621C
:102153000143010001130106013D01350004011291
:1021630001000100010001000104010401330133F6
:10217300013C014401320136000001000165010008
:10218300013500810100010501820183010001364F
:10219300000100060000000F000000000000000026
:1021A300000000000003FFFF00000403FFFF000026
:1021B300FFFF0FF4010005C4040320000100000B1E
:1021C300000000000000000003010F0000C318130B
:1021D3000057180100C31802002118030027180430
:1021E300002D180500331806003F18FFFF000001FB
:1021F300310E06610E085B0E0B6D0E10AD0D02372E
:102203000E054F0E073D0E0C130E0D250EFF00009D
:1022130003EAF5E5D5D5C5B5A595958585757565A8
:102223006555554545353525251515055112811239
:1022330057125D127B126F12691287128D1293125D
:102243009F1263124B12451200160F00000B150B61
:10225300020002220F320000063B134D1353131BDF
:102263001259131512211255114F118B119111850A
:10227300113D119513B313B9139B13A713A1133076
:102283003016181920231A1C1E300C0E020B040BD7
:102293000A0708000F00383C3E363B3B352B432CE6
:1022A300303017181921301B1D1F30000119161863
:1022B30016161523030000034948424D1817250538
:1022C3000289135F13651371136B1375129912ADA2
:1022D30013A512AB120204020101010109026111EB
:1022E30067115B1197110000000000006D117F1151
:1022F30000BE040A0E00150004007F00E8030C0072
:102303002800000000000308100C0A030809000459
:102313000001FF1E1E0C05040F100874F612036063
:1023230074FF1208E6851882851983E4F085820814
:10233300858309780812082475080175090078084F
:10234300120824122372740412086C7401023957A0
:1023530074F61203608C088D097808120824750836
:102363000B750900780812082412237202395512DA
:10237300239B1216532274F61203608C088D09787E
:102383000812082475080B7509007808120824122E
:10239300239B121659023955EA75F00BA4FAA8F0DB
:1023A30075F00BEBA428FBEAFCEBFD7A237B002200
:1023B300C082C0838A828B83E0D2E7F01217850242
:1023C300387BC082C08379001229411258F7C0823A
:1023D300C083900334124675D083D082C3E09CA39C
:1023E300E09D500C125FCBFAA3E01223F6600109C3
:1023F30002387BFBEA75F00BA4FAA8F075F00BEB3F
:10240300A428FB900336E02AF8A3E03B8882F583F7
:10241300E0540F2274F7120360890812294112292C
:10242300E7ACF075F00BE9A42CF9900336E028FE35
:10243300A3E039FF74016508600674026508702023
:102443008A828B831229D312394F74026508701B59
:10245300122892122A1A70138E828F83E4F0800B53
:10246300EA2403FCEB1229B51229C1EEFAEFFB12A1
:102473000B0D0238B374F41203601268F279008E04
:10248300828F83E06076890A890B8065E50A75F09F
:102493000BA4FAA8F075F00BE50B1224037046E5C4
:1024A3000A75F00BA4F8AAF075F00BE50B1229F9E5
:1024B3008E828F83E0850882850983122ADB850853
:1024C30082850983A312394FEE2403FCEF1229BE40
:1024D300123882125371AA08AB09120B0D790190BD
:1024E3000334124D7EE50A2401F50AE50B3400F5A9
:1024F3000B12289AE50A9AE50B9B4090023AFB746B
:10250300F5120360EAFEEBFF740B120AB812388768
:10251300750A01EC4D602BEC12690EED1258F7129F
:1025230039477901120B19E5084509606F8508825F
:10253300850983A31268FC7902AA08AB09120B1957
:10254300805AE5084509602B1258FB123FBD12382B
:1025530083122A04700CEEFAEFFB120B1FE9F50A43
:1025630080CBEE2403FA12293C70317903EEFAEFA3
:10257300FB80CA8E828F83A3E064FE7003A3E0F422
:10258300700BEE24030A0A0A12293C700CEEFAEFD0
:10259300FB120B1FE9F50A8003750A00A90A7F03E2
:1025A30002057974F71203609003341238C3EA4BBF
:1025B300602FEA75F00BA4FAA8F075F00BEBA428D2
:1025C300FBEAFEEBFF1215D59003361238C39003D6
:1025D30036124BC36012EEFCEFFD79001215398001
:1025E30007900336E4F0A3F00238B374F6120360E5
:1025F300E4F508F5097808120824900334124675A7
:10260300EC75F00BA4FCA8F075F00BEDA428FD7A93
:10261300237B0012164D740212086CE9FE6003124C
:102623000B37025B0A74F71203607E007F00800A97
:10263300EEFAEFFB120AFB1234C01226B040F1028D
:1026430038B374F71203607E007F00801212291FD3
:10265300FCA3E039FDEEFAEFFB120B071234C012B4
:1026630026B040E90238B374F71203607E007F009E
:102673008033EEF8EFF9E875F00BA4F8AAF075F0E3
:102683000BE9A42AF990033612508C88828983E0DF
:10269300A2E7500EC2E7F0AC82AD83EEFAEFFB1275
:1026A3000B011234C01226B040C80238B390033471
:1026B30012432DC3EE98EF9922C082C083EC4D6084
:1026C30005121D4980097C087D0079001215390225
:1026D300387B74F61203607900EA4B60187800883F
:1026E30008125C3EEB125FC760047901780808E8C2
:1026F300C3940840EA02395A74F712036074F31260
:1027030008E6ECFEEDFF851882851983E4F00412D8
:102713000AB8EAF0A3EB1250F77403120AB8AC82BA
:10272300AD83EEFAEFFB120B49EEFAEFFB120B4F00
:102733000238AE74F712036074F31208E6ECFEED90
:10274300FF851882851983E4F0EAFCEBFD7403121C
:102753000AB8122AD47401120AB81239438E828F2E
:102763008312394F74FE68700374FF696004790142
:10277300800279000238AE74F7120360EAFEEBFFC1
:102783001227D870141227E38E828F83E0F4F88A1D
:10279300828B83E058F0120B0DA9080238B374F74B
:1027A300120360EAFEEBFF7508008E828F83E06000
:1027B300221227D8701D1227E38A828B83E08F832E
:1027C3008E82F8E058700CE0F88A828B83E048F040
:1027D300120B0D80C4120B13E9F50874016508226E
:1027E3001269071229EB12292DFAA3E039FB22748F
:1027F300F41203608A088B097C007D001228921270
:1028030029C11229521268F9790085088285098342
:10281300A3E064FE7003A3E0F460717E007F008098
:1028230062EEFAEF1223F66057EEFAEFFBEA75F069
:102833000BA4FAA8F075F00BEBA428FB900336E089
:102843002AF50AA3E03BF50B850882850983A312C9
:10285300503D850A82850B83A3E06A7003A3E06B76
:10286300701EE50A2403FAE50B12293D700AE50AF6
:102873002403FCE50B1229BE122946790112590DD6
:102883001234C012289AEE9AEF9B4095023AFBEA63
:1028930024030A0A0AEB229003341254E4C3227479
:1028A300F31203608A088B098A828B83A31268FC64
:1028B3001229411268F9750C0012289212293D70F1
:1028C300547E007F00804912291FFAA3E0398A82CF
:1028D300F583E0540F603612291FF50AA3E039F59A
:1028E3000BE50A2403FCE50B1229C83400FB121D77
:1028F30043E964017017850A82850B83A31255A5EA
:10290300A312394F122946750C0112590D1234C006
:102913001226B040B2A90C7F05020579EEF8EFF953
:10292300E875F00BA4F812292D22AAF075F00BE933
:10293300A42AF9900336E02822EF122A14221269FE
:102943000DEB22122952125908EEF0A3EFF022E503
:102953000812690EE5092274F5120360EAFEEBFF23
:102963008E828F83A31268FC7C007D00EE24030A11
:102973000A0AEF1229C1EEFAEFFB120B13E9F50A6B
:102983007401650A70291269071229E7AAF075F024
:102993000BE91229F9850882F5831229D3122A0437
:1029A300700DE5082403FCE5091229B51229C102BB
:1029B300259F3400FDEE2403FAEF221229C83400C8
:1029C300FB120B49223400FDE5082403FAE5092232
:1029D300A31229D8221229DC22E0F8A3E0F98E827F
:1029E3008F83A3221229EB223400F583124331E8AB
:1029F30075F00BA4F822122933F508A3E039F50981
:102A030022E8F0A3E9F0E5082403FAE509122A1401
:102A130022122A1A6401223400FB120B4FE922749A
:102A2300F312036074E61208E61268F2750C01757E
:102A33000800750900750A00750B00851882851951
:102A430083E4F0EE2403FCEF3400FD7403120AB8B0
:102A5300122AD4E964017023740B120AB81239479D
:102A63007401120AB81250417003A3E069605185E2
:102A73001882851983858208858309740D120AB823
:102A8300E4122ADB740E120AB812394F740D120ABB
:102A9300B8AA82AB83120B6DE96401700B740D123B
:102AA3000AB885820A85830B780A120824AC08AD1C
:102AB30009EEFAEFFB120B25740212086CE9F50C10
:102AC300EEFAEFFB120B67A90C741A12086C0229B9
:102AD3001A122DA7120B73221238BE12432D22C0D5
:102AE30082C083780079008003122BD212289AE8DF
:102AF3009AE99B5029E8FAE9FBEA75F00BA4FAACD2
:102B0300F075F00BEBA42CFB900336E02AFCA3E05A
:102B13003B8C82F583E0540F70CF790080027901FA
:102B230002387BC082C0839022F9124383EC75F094
:102B330012A4FCA8F075F012EDA428FD79FF7A47E2
:102B43007B0B12153902387B74F7120360E9FEEA36
:102B5300FF7A007B00780079008028E8FCE9FDEC2F
:102B630075F012A4FC85F00875F012EDA425081287
:102B73002FE7C39E400AE0FCEFC39C40031233954A
:102B8300122BD2122FDB40D30238B3C082C083781A
:102B93000079008003122BD2122BC6501F122FEB89
:102BA300F470F2E875F012A4F8AAF075F012E9A433
:102BB3002AF9744728FA740B39FB80047A007B00E6
:102BC30002387B9022F912326DC3E89AE99B22E81E
:102BD300240108E93400F92274F012036074F3123B
:102BE30008E68A0A8B0B8C0C8D0D8908EC450D6069
:102BF30016AA0CAB0D120BC18A0E8B0FAE0EAF0FC4
:102C0300EE4F6003022C99120B978A0E8B0FA80EBE
:102C1300A90FE8FEE9FFE849607C902307122CFB2B
:102C230060227403650860067404650870167A04EC
:102C33007903120B91902307122D1240077A007B20
:102C430000022CF8902305122CFB601B740165080D
:102C5300600674026508700F7A027901120B919075
:102C63002305122D1250D68518828519837401F01D
:102C7300120AB8125371AC0CAD0D7403120AB812D8
:102C83002DA0740B120AB812388F123D31E412537F
:102C9300591210958004EE4F604A780074FF25089E
:102CA300C39404500278048E828F831253718E82F0
:102CB3008F83A3A3A3A3E508F0E88E828F83A3A346
:102CC300A3A3A312537912020F12328A8E828F8327
:102CD300A3A3A3A3A3A3A3F0123281120A951258AC
:102CE300F1120AA1122D0040059010A3E4F0120F77
:102CF3006FEEFAEFFB02433712549349227A0479B9
:102D030000120B919022F9125FADEA98EB9922120F
:102D13002D2B7583227582F9E493C398F8A3E4936A
:102D230099F9C3EA98EB9922E493F8740193F92291
:102D330074F212036074F31208E68A088B09ECFE3E
:102D4300EDFF750A00EEFAEFFB120BC18A0C8B0D37
:102D5300A80CA90DE849603E88828983E065087064
:102D630004A3E06509602F88828983A3A3A3A3E05A
:102D7300C39405502112579F8518828519837401C6
:102D8300F0120AB81257A3EEFCEFFD7403120AB84F
:102D9300122DA0750A01A90A740D024E35122DA732
:102DA300120B7F22AA82AB83120B498518828519E5
:102DB30083AA82AB832274F6120360122DF5600F8F
:102DC300A3A3A3A3E014C39404500479018002795C
:102DD3000002395A74F6120360122DF5600FA3A393
:102DE300A3A3E014C3940250047901800279000282
:102DF300395A120BBB8A828B83E58245832274F690
:102E0300120360122DF5600BA3A3A3A3E070047952
:102E1300018002790002395AC082C083EAFCEBFDCB
:102E23007A007B00023878C082C0837C007D000278
:102E3300387874F412036074F31208E6EAFEEBFFC9
:102E43008C0A8D0BC3EC94F8ED94FF4007EE4F70A2
:102E530003022EEE750800750900802E8518828501
:102E630019837401F01234E8120AB81234F66013AD
:102E73007403120AB8AC82AD83EEFAEFFB121D4362
:102E8300E97049E50824011230879022F9E41254CD
:102E93009BE50898E509995052E50875F012A4F8E6
:102EA300AAF075F012E509A42AF9125FE060D4EEE6
:102EB3004F70A974FF650A700474FF650B60C41238
:102EC30034D8650A7004A3E0650B70B7E50875F0A4
:102ED30012A4F508A8F075F012E509A428F5097401
:102EE300472508FA740B3509FB80047A007B00023E
:102EF3003AF674F412036074F31208E675080012CC
:102F03000BC18A0A8B0BAE0AAF0BEE4F602A8518F2
:102F13008285198374011238B8F8A3E0F9740B128F
:102F23000AB81239D4120B617C127D0079FFEEFAD4
:102F3300EFFB121539750801122D0050099010A3EB
:102F43007401F0120F6FA908023AF674F7120360C6
:102F5300E9FE74FE6A700374FF6B780079007005F4
:102F63008052122BD2122FDB504AE8FCE9FDEC759C
:102F7300F012A4FCAFF075F012EDA42F122FE7F4BA
:102F830060E0E8FCE9FDEC75F012A4FC75F012EDCD
:102F9300A42FFD74472CF582740B3DF583E06A7012
:102FA30003A3E06B70BC8009122FEB14C39404409D
:102FB30017122BD2122BC65018EE70EC122FEB64A3
:102FC300016005E0640370E91234C9FAA3E0FB80F1
:102FD300047AFE7BFF0238B39022F9124387C3E8D9
:102FE3009CE99D221233CA22E8FAE9FBEA75F01242
:102FF300A4FAACF075F012EBA42CFB744B2AF58207
:10300300740B3BF583E022120BD302387BC082C0E2
:1030130083790180F274F01203608A0A8B0B7A04BD
:103023007901120B918A0C8B0DEA450D603EEAC3C0
:1030330033FAEB33FB1215D58A088B09AE08AF09B7
:10304300EE4F60237AFE7BFF120BD974FE6A700386
:1030530074FF6B601B8508828509831238C3E508FA
:10306300240212308780E1750C0080047E007F000B
:10307300850A82850B83E50CF0EEFAEFFB02433CF5
:10308300E5082407F508E5093400F509229022F93B
:10309300124387C3EA9CEB9D2274F6120360E4F5A6
:1030A30008F50978081208249022F9E493F50874C6
:1030B3000193F5097403780812099B1230D3121691
:1030C3004D740212086CE9FE6003120BEB025B0AFB
:1030D300E5082402FCE5093400FD7A227B00227412
:1030E300F612036074FE1208E6851882851983E4DC
:1030F300F0A31239358582088583097808120824DC
:1031030075080275090078081208247C007D007A8E
:10311300227B00121653740412086C74020239578E
:1031230074F112036074DF1208E68518828519832F
:1031330085820885830978081208247508027509B1
:103143000078081208247C007D007A227B00121686
:1031530059740412086CE9600302325B9022F9127D
:10316300326D12393DC3EA98EB99500302325B7515
:103173000800023250740F120AB885820A85830B45
:10318300780A120824750A08750B00780A120824B5
:1031930085080A7403780A12099BE50A2402FCE5F0
:1031A3000B1230DA121659740412086CE960030228
:1031B300324E7411120AB8E0F47003A3E0F4700302
:1031C30002324E7402120AB87401F07411120AB872
:1031D300123943740D120AB812394F7402120AB825
:1031E300AA82AB83120B79E960619003751246756D
:1031F300740F120AB812503D121095E50875F012BB
:10320300A4F8A9F0744728FE740B39FF740F120A4F
:10321300B8A982AA83890C8A0D750E00780C12084E
:10322300207C0812327512086C12537E12020F12A0
:10323300328A123281120A951258F1120AA1122D02
:103243000040059010A3E4F0120F6F050885080AEB
:10325300125FA15003023178851882851983E0F942
:10326300742112086C7F07020579E493FA740193C1
:10327300FB227D00EEFAEFFB12152D740322125987
:1032830002E4F090808322E88E828F83A3A3A3A31A
:10329300A3A3A3A31232AC74011232ACA3F0EE24A5
:1032A30010125905E4F0A3F022123D3DA3A3A3227B
:1032B30074F412036074FE1208E68518828519837C
:1032C300E4F0A3F0FE8067EEF8EFF9E875F012A4DE
:1032D300F8AAF075F012E9A42AF9744728F50A74DC
:1032E3000B39F50B780A120824750808750900785C
:1032F300081208248E088F097403780812099B1298
:1033030030D3121653740412086C850A82850B831A
:10331300A3A3A3A3E0F4600F851882851983E02497
:1033230001F0A3E03400F0EE24010EEF3400FF902F
:1033330022F9126587409085188285198385820852
:10334300858309780812082475080275090078082E
:103353001208247C007D007A227B00121653740429
:1033630012086C7402023AF8C082C0837A007B00B0
:1033730080041912339512309050101233B4C39451
:103383000550F0E970EC12339E80047A007B000252
:10339300387BEA24010AEB3400FB22EA75F012A41D
:1033A300FA75F012EBA428FB74472AFA740B3BFB63
:1033B30022EAFCEBFDEC75F012A4FCA8F075F01208
:1033C300EDA4281233CA22FD744B2CF582740B3DF5
:1033D300F583E02274F712036074F31208E67E00AB
:1033E3007F0002347CE50875F017A4F8A9F0126297
:1033F30041FAA3E0FBEEF8EFF9E875F012A4F8AC9C
:10340300F075F012E9A42C1234D76A7003A3E06BB1
:10341300603FE50875F017A4F8AAF0EA126240F8D5
:10342300A3E0F97401120AB8E0687003A3E06960CD
:1034330020E50875F017A4F8EAF974C328FC740CA6
:1034430039FD7403120AB8AA82AB83121D43E960E3
:1034530014E50875F017A4F8A9F074C128FA740CE0
:1034630039FB1210A1050890230BE493F8E508C378
:103473009850030233E81234C09022F91265875042
:1034830039EEF8EFF91234C9F47003A3E0F460E6FF
:103493008518828519837401F0EEF8EFF9E875F069
:1034A30012A4F875F012E9A42AF91234E8120AB842
:1034B3001234F660C175080080AD0238AEEE240107
:1034C3000EEF3400FF22E875F012A4F8AAF075F0AD
:1034D30012E9A42AF91234DC22744728F582740B0A
:1034E30039F583E022744928F582740B3912432B92
:1034F300740B22E8F0A3E91239DC120B79E922C03C
:1035030082C08390033D7449F0A3740EF090033F8F
:103513007443F0A3740EF09003437463F0A3740C2C
:10352300F002387B74F7120360EAFEEBFF90037737
:10353300E06408601BE0640460168E828F83E054AD
:103543000364017048123882123E32E06406703D13
:103553008E828F83A3A3E064FE7003A3E0F4602D47
:103563008E828F83A3A3123943900368E0687003AC
:10357300A3E069700BEE2415F582EF125FC76008B4
:10358300120EF7E9F5088008120EFD80F67508C2E1
:10359300EEFAEFFB1215DB02279C74F41203608A28
:1035A300088B098A828B83E0F8A3E0FAE82AFAE41D
:1035B3003400FB1215D58A0A8B0BAE0AAF0BEE4F04
:1035C3006063850882850983E0FC7D00790012151C
:1035D300398E828F83A3A31268FC120F398E828FD8
:1035E30083A3A3A3A31238C3850882850983E0F8C4
:1035F300EE28F8EF340012394B850882850983A33E
:10360300E0C0E0EE240D1258F4D0E0F0120F4BEEC0
:10361300240E1258F4E9124F9EE0C0E0EE2411127A
:1036230058F4D0E0F0EEFAEFFB023AFB74F6120323
:103633006074EB1208E6EAFEEBFF124BC060030274
:1036430036D37A077B001215D59003391238C3128B
:103653004BC060788E828F83120A9590033A123E94
:1036630035120AA11267C0C0E01236DFD0E0F0EED7
:103673002405FAEF3400FB8A088B098A82F583E07C
:10368300C0E01236DAD0E0123AF2E0C0E01236DAE5
:10369300A3D0E012392F120A958518828519831257
:1036A3000AA188828983E0C0E07405120AB8D0E0D9
:1036B300F0850882850983E0C0E07404120AB8D05B
:1036C300E0F07407120AB8123815800679108002E8
:1036D300790174150239571236DFA322900339E0BA
:1036E300FAA3E0F5838A82A3A3A3A322C082C083A3
:1036F300124BC0600D9003391254D2900339E4F099
:10370300A3F0120E6712104102387B74F0120360AB
:1037130074EB1208E6ECFEEDFF89087425120AB873
:10372300780C120A5B7429120AB8E0F9742A120A97
:10373300B8E0FC742B120AB8E0FD740F69700574CD
:103743000F6C60129010E8E06402700579C10238D2
:1037530010E9C39C40F6900378780C120A79E508C7
:1037630090037EF0E990037CF0ECA3F0ED90037FEF
:10377300F074FF6A700374FF6B701D9010F3E0F434
:103783007003A3E0F47005121545800C9010F3123A
:103793003898E8F0A3E98007900375EAF0A3EBF00B
:1037A300EE4F6017EEFAEFFB121101E96401700BA3
:1037B300EEFCEFFD7A897B03121D49900368E4F068
:1037C300A3F090036BF0A3F0900388F09010E8E06F
:1037D3006402700890037C740FF0A3F09003777475
:1037E30005F014120AB8E4F0900378120A958518CC
:1037F30082851983120AA190037EE0C0E07405124A
:103803000AB8D0E0F07407120AB81238157415021A
:103813004339E41239DC121D7322C082C083900342
:1038230038E07003121851120C33804CC082C083ED
:10383300900338E09010A27004E4F0802D7401F03E
:10384300900338E0F460237C41E0C394415002E0EC
:10385300FCECF8E0C398F0EC75F0E8A4CCA8F075A4
:10386300F003A428FD7A8012438F7AA27B1079415A
:10387300121D618003120BC7D083D082020804EEAD
:1038830012590322E0F508A3E0F509221238932226
:103893001229DCA32212432D9003752274F712031D
:1038A30060EB90037FF0120E558005740D12086CC7
:1038B3007F010205791238BEA3E02212392FA32219
:1038C300EAF0A3EBF02274F712036074F81208E62F
:1038D300EAFEEBFF7900900377E0640870448518F3
:1038E3008285198374FDF0A374FFF0120F33740201
:1038F300120AB81238C37405120AB8E41238BEE0CB
:10390300C0E07404120AB8D0E012392AC0E0740689
:10391300120AB8D0E0F07407120AB8E41239D812C8
:103923000F8D74080238B012392FE022F08E828F87
:103933008322F0851882851983228518828519834D
:1039430012432D22E0F8A3E0F9125902E8F0A3E9AB
:10395300F022740412086C7F02020579C082C083CE
:1039630090034974F3F0A3740CF09003EF74E7F041
:10397300A3740FF090034D7429F0A3740DF090031A
:103983004F74F3F0A3740CF0900351742FF0A374ED
:103993000DF002387B74F412036074F91208E68A9E
:1039A300088B098C0A8D0B85188285198378081278
:1039B3000A797404120AB8E9F07405120AB8E4F03B
:1039C3007406120AB8E41239D8120C1B7407023AAF
:1039D300F8E8F0A3E91239DC22123935AA82AB8365
:1039E3002274F41203608A088B098A828B8312592A
:1039F30010EE4F7003023AF0900312124BC360159E
:103A03008A828B83A3A3E0F9EEFAEFFB90031312F0
:103A13003E35121F168E828F83A3A3A3A3A3A3A352
:103A2300A3A3E0640270748E828F83A3A3A3A3A3D2
:103A3300A3E054027003023AC2850882850983A376
:103A4300A3E064E960798E828F83A3A3A3A3A3A3D6
:103A5300A3A3A3A3E070149010EBE0048E828F83E2
:103A6300A3A3A3A3A3A3A3A3A3A3F08E828F83A340
:103A7300A3A3A3A3A3A3A3A3A3E014123AF2A3A310
:103A8300A37404F09010EC12534BE8F0A3E9126412
:103A9300248B0BEA450B7003125E028E828F83A385
:103AA300A3A3A3A3A3A3A3A3E0640260128E828FA4
:103AB30083A3A3A3A3A3A3A3A3A3E06406702E8E4F
:103AC300828F83A3A3A3A3A3A3E0A2E0501F85082F
:103AD30082850983A3A3E0F9EEFAEFFB121DF78EAB
:103AE300828F83A3A3A3A3A3A3E054FEF0800912B0
:103AF3003D3922740D12086C7F0402057974EC12AF
:103B0300036074DD1208E6EAFEEBFF8C088D09748E
:103B130037120AB8780C120A5B750A007405120A88
:103B2300B8AC82AD83120AD77412120AB8E07008D7
:103B33007415120AB8E060207405120AB8E0A2E610
:103B4300501E8E828F83A3A3A3A3A3A3A3A3A31215
:103B5300503D120FC3E960087903121D31023D1F66
:103B63007405120AB8E0540C64047005750B0180E7
:103B730003750B00E0A2E55035750A01E50BA2E0E1
:103B8300402C120F398A108B11A810A911123882F8
:103B9300E0687003A3E06960157405120AB812693E
:103BA30003125039121E03E96004790480AC7405D2
:103BB300120AB8E0A2E650227406120AB8E05403CF
:103BC30070187405120AB8E0540C640C600CE054CD
:103BD3000C640860057510018003751000740512EC
:103BE3000AB8E05403F8740268700C1269031250A7
:103BF30039120AE9023D1F740168703AE510A2E028
:103C03005003123D277405120AB8A882A9837403CE
:103C1300120AB8E8F0A3E9124321851882851983B3
:103C2300123D31E0C0E07402120AB8D0E01239D874
:103C3300121EE7023D1FE86003023D1F90035FE091
:103C4300640170108E828F83A3A3A3A3A3A3E07048
:103C530003023BAD7422120AB87402124321741A90
:103C6300120AB812394FE510A2E050087405120A7F
:103C7300B8123D27E50BA2E0506AEE240FF582EF60
:103C8300125FC7C0E07417120AB8D0E0F0900314B3
:103C9300124BC37003023D1F120F398A128B13A8F4
:103CA30012A913741A120AB8E0687003A3E06970CA
:103CB3006B780C12081C780A12082878081208245A
:103CC300A910740C120AB8AC82AD837421120AB81D
:103CD300AA82AB83900314123E32121F167407128A
:103CE300086C8038780C12081C780A1208287808A7
:103CF30012082490037512068CEE2412F582EF123B
:103D03005CF57423120AB8AC82AD83740E120AB840
:103D1300AA82AB83121DEB740912086C7423120878
:103D23006C0263EF1269031254E0120ADD22E8F019
:103D3300A3E9123D3922123D3D22F08E828F83A3E7
:103D4300A3A3A3A3A32274F712036012173D02389F
:103D5300B374F71203601217430238B374F71203F4
:103D63006012174F0238B3C082C08312174902385A
:103D73007B74F71203601217550238B374F71203FA
:103D8300607409120AB8E0F50878081208281217B7
:103D93006174010238B0C082C08312176D02387B90
:103DA300C082C08312177302387B74F71203601248
:103DB30017790238B374F7120360EAFEEBFF890840
:103DC3007401650870147900120D6B902316E49347
:103DD300FC7900EEFAEFFB120CE10238B374F41233
:103DE300036074F91208E6E9FE8A088B098C0A8DD0
:103DF3000B7413120AB812503D9005BB124BC360EB
:103E030027EE851882851983F07401120AB87808A1
:103E1300120A79EAF8EBF97405120AB81239D49048
:103E230005BB123E32121F160239CFFB90034BE043
:103E3300F8A3E0F583888222C082C0831217A90207
:103E4300387B74F71203609010A5E0F97E00800BB5
:103E5300125FB3540D64017001190E12403F5003F9
:103E6300E970ED0238B374F71203609010A6E0F91D
:103E73007E00800B125FB3548D64817001190E12A2
:103E8300403F5003E970ED0238B374F212036089C6
:103E93000BE975F006A4240CF508E5F012308B8AC3
:103EA3000CE508250CFAE5093400FB1215D58A0C3C
:103EB3008B0DAE0CAF0DEE4F6027AC08AD0979004A
:103EC300121539123882E50BF0EE2508F8EF3509A3
:103ED300F98E828F83A3A3A3A3A3A3A3A3A31239BE
:103EE3004FEEFAEFFB024E3874F6120360EAFEEB74
:103EF300FF120CBD9010A4E0F8E9C39840099003A9
:103F03004512503D120CC3EE2402F8EF12565590A1
:103F1300034712550F900347E004F0EEFAEFFB124C
:103F23000CC9850882850983E0025B0BC082C083CC
:103F3300790090034580010912503D8A828B83E505
:103F430082458370F202387B74F7120360EAFEEB5A
:103F5300FFEE4F6056900345124BC3604E88828933
:103F6300837A007B00EE65827003EF6583600FAA9E
:103F730082AB83123FB1E5824583602F80E79003D4
:103F830045123FBD687002EF698E828F83700812FD
:103F93003943900345800312640112394FEEFAEF5F
:103FA300FB121EB7EEFAEFFB1215DB0238B3123F1A
:103FB300B522124331888289832212432DEE22C017
:103FC30082C083900345800488828983124BC36037
:103FD3000B88828983124675EC4D70EC8A828B8341
:103FE300E4F0A3F0E84960068882898380039003A4
:103FF300451238C302387B74F7120360900345807F
:10400300048A828B8312403A4B60257E0080010E26
:1040130012403F50ECEE75F006A4FCADF0EA2CFC28
:10402300EB3DFDEC2410F582ED12408F70E180042E
:104033007A007B000238B31254E4EA22124098EE6D
:10404300C3982274F71203607D0080010D1240941F
:10405300EDC3985034ED75F006A4FEA8F0E8FFEA2E
:104063002EFEEB3FFFEE2410F582EF12408F70DC43
:10407300ED75F006A4FEE8FFEA2EFAEB3FFBEA2417
:1040830011F582EB125FC74CF00238B3125FD369AC
:10409300221240982212690DEB3400F583E0F822D6
:1040A30074F6120360120DE37A007B008025EAF8B0
:1040B300EBF9E875F006A4F8ACF075F006E9A42C6A
:1040C3001254B91267CEA3E41255AFF0A31267D40A
:1040D30012694B902301122D0A40D37A007B008092
:1040E3001C8A088B097403780812099B124F65A375
:1040F30074FEF0A30412538FA3E412694B90230AB6
:1041030012414240DC7A007B00801D8A088B0974CF
:1041130003780812099B74E9125C3F740F126486DA
:1041230074FEF0A30412694B90231012414240DB4A
:10413300902314E493900353F012414C02395AE450
:1041430093F8C3EA98EB9400227CE87D037A107B12
:10415300009003C2E0F91216892274F0120360740E
:10416300F51208E68A088B09890A8C0BE9A2E0504C
:10417300147508FC7509FFA2E15005D2E402421F41
:10418300D2E302421F124E247003A3E06970057943
:10419300000242ECAC0A7902AA08AB09120DBFE98E
:1041A30060EDE50AF50C780C12082879027CFE7D97
:1041B300FFAA08AB09124B9F12086CE96003024285
:1041C300EAE50AC2E5F50A9003B5E07051E50AA2F3
:1041D300E6404B7403120AB8AC82AD83AA08AB095C
:1041E300120B55E970321244C08A0C8B0DA80CA92E
:1041F3000DE8FEE9FFE8496025EE24020A0AEF1202
:104203002A1A601AEE2402FCEF3400FD7403120A2A
:10421300B8AA82AB83121D49E50AD2E5F50A9003D9
:1042230048E0F50C900368E0F50EA3E0F50F780E77
:104233001208247D017C00900348E0F9AA0EAB0F1D
:10424300120D77740212086CE9F8900348E004F049
:10425300E860030242EAE50AA2E55004740E800214
:104263007406C0E07401120AB8D0E01259218A0E14
:104273008B0FAE0EAF0FEE4F606912430A1243214C
:10428300888289837401F07478550AA3126913E54F
:104293000C126913A3E508F0E5091242F9E4F0E50D
:1042A3000AA2E5500F7403120AB8AC82AD83E82466
:1042B300061242F08E828F83A3A374FDF0A374FFD2
:1042C300F0E50B6015902317E493F8E50BC39850C2
:1042D30009EE24131258F4E50BF0EEFAEFFB120C7F
:1042E3000F80067910800279C7740B8049FAE9348C
:1042F30000FB121D492288828983A3A3A3A312432F
:104303000522125688A322EE24171259057401F0D0
:10431300120F33EE241A125905EAF0A3EB22F0121E
:104323006907340012432B22F58312433122E0F84C
:10433300A3E0F922740D12086C7F0802057974F664
:104343001203607A007B10125E0F60089003D4742E
:1043530001F0802990065CE064019010E97006E0AA
:10436300FC79018004E0FC79037A007B00120CE104
:104373009022FF1243837A007B1012439102395A31
:1043830012438722E493FC740193FD227B00900384
:10439300C2E0F91216832274EC1203608A088B09B7
:1043A3008C0C8D0D890E7414120AB8124D7E74167E
:1043B300120AB8E0F510A3E0F511120FC3E9600784
:1043C3007AFF7BFF0244BD9010E8E06402600302C1
:1043D30044B07900AA08AB09120DC5A90E120DB994
:1043E3008A128B13AE12AF13EE4F70030244988EF2
:1043F300828F83A3A3A3A3A3E064018E828F83A3ED
:10440300A3706912503D8E828F83A3A3A3A3A3A39A
:10441300E054186043902315E4938E828F83A3A303
:10442300A3A3F0EA650C7003EB650D6014EA650A5B
:104433007003EB650B600AEA65107003EB6511709E
:104443001F7810120824AC0AAD0BAA0CAB0D121086
:10445300BF740212086C8008900367125DF9A3F021
:1044630074FE6A700374FF6B601D804EA3A3A3E008
:10447300640360298E828F83A3A3A3A3A3E06404B0
:1044830070057AFE0243C58E828F83A3A3A3A3A3E1
:10449300E0640270089003B4E0640270101244C038
:1044A3008B0BEA450B6006AA08AB09800DAA08AB83
:1044B30009900349123E32121F160263EF900375EF
:1044C300124BA51210832274F7120360EAFEEBFF6E
:1044D300120BA9E9700AEEFAEFFB120BB5E96006BD
:1044E300EEFAEFFB80047AFE7BFF0238B374F0121E
:1044F30003608A0A8B0B8C0E8D0F890975080012D5
:104503000FC3E979006003024667AA0AAB0B120DD9
:10451300C5A909120DB98A0C8B0DAE0CAF0DEE4F68
:1045230060198E828F83A3A3A3A3A3E064027055B3
:104533009003B4E064027003024665AA0AAB0B90D1
:10454300034F123E32121F16120BBB8A0C8B0DA89F
:104553000CA90DE849700302466588828983A3A3E9
:10456300A3A3A3E0A2E04003024665750C01A2E108
:1045730050687901AC0AAD0BAA0EAB0F120D11E90D
:1045830070640246658E828F83A3A3A3A3A3E06412
:10459300037005750C0280528E828F83A3A3A3A39D
:1045A300A3E0640160030246659003751246758EAD
:1045B300828F831249CA8A0C8B0DA80CA90DE84976
:1045C30060D190230EE493FA88828983E0C39A50E2
:1045D300C2A3E0600302466580B988828983A3A3EE
:1045E300A3A3A3D2E1F0EE4F603A8E828F83A3A3FD
:1045F300A3A3A3A3E05418602B7508018E828F83B5
:10460300A3A312068C750CFE750DFF780C120824FB
:104613007900AC0AAD0BAA0EAB0F120DD7740412BE
:10462300086C803E900368E0650E7004A3E0650F9C
:104633007014902316E493FCA909AA0AAB0B120C7D
:10464300E1750801801CA90CAC0AAD0BAA0EAB0FD7
:10465300120D11E9700C750801A909AA0AAB0B1216
:104663000D6BA90802433CE50C2415F582E50D12F8
:1046730059081253652274EA12036074F01208E6B3
:104683008A0C8B0D8C088D097426120AB8E0F51478
:10469300A3E0F5157512069003F5124BC360239042
:1046A3000375124675AA08AB091210AD8A108B1157
:1046B300EA4511600D8A828B83A3E07005790002BD
:1046C30049B2E50C241DF50EE50D3400F50F850EFA
:1046D30082124BAFF51388828983A3A3A3E0FA88E0
:1046E300828983A3A3A3A3E0F9EA2400FEE439FFAC
:1046F300AA08AB09120D71850E82850F831249ED4D
:10470300E029F50BE50AA2E5500375120E748755EF
:104713000A70177418550A6418600FE50C2417F50E
:1047230082E50D125FC7651260077901121D3180A2
:104733008C530A78C3EE94F8EF94FF501D7900EE82
:10474300FAEFFB1249BC601288828983A3A3A3A357
:10475300A3A3E0541860030246C078081208247D1E
:10476300001249E012086CE9F8740368700302460A
:10477300C0E8600302482B7418550A70030248E02E
:10478300E50AD2E0F50AA2E45004D2E1F50AA90A47
:104793001250361249BC605388828983A3A3A3A312
:1047A300A3A3E05418604488828983A3A3A3A3A38B
:1047B300E064017036E510451160309003751246D0
:1047C30075888289831249CA8A0E8B0FA80EA90F96
:1047D300E849601788828983A3E0600F851082858A
:1047E3001183A3125B1650030246C0E50AF50E7847
:1047F3000E1208281249D312086CE9702B7C007D35
:104803000085148285158374FFF0A3F0850C8285DF
:104813000D83A3A3A3A3A3A3A3A3E0600312466AE8
:10482300A90B125036121767851482851583E0F49D
:104833007003A3E0F460399003B4E06402700302F0
:1048430046C0124D6FE0FAA3E0123E2E121F16EA85
:1048530065087003EB650960030246C0EEFAEF12C8
:104863003E2E121F16851482851583EAF0A3EBF002
:1048730078081208247D011249E012086CA90AEE97
:10488300FAEFFB120DC58A088B09A808A909900342
:1048930068E0687003A3E06960030249A3EEFAEFDE
:1048A300FB120BBB8A088B09A808A909E849606EAB
:1048B30088828983A3A3A3A3E06401600D8882890E
:1048C30083A3A3A3A3E0640270548518828519838C
:1048D300AC82AD83EEFAEFFB120B5580559003616A
:1048E300E0600FE50AF50E780E1208281249D3127C
:1048F300086CE50AF50E780E12082879027CFE7D15
:10490300FFEEFAEFFB124B9F12086CE960030248BB
:104913002B85148285158374FFF0A3024872120F4E
:1049230033EAFCEBFD851882851983AA82AB8312D7
:104933001D49850C82850D83A3A3A3A3A3A3A3A3CE
:10494300E06401700F12466A7408120AB8AA82ABB7
:1049530083121D49124B7912578D4430F50878089C
:104963001208287401120AB8858208858309780819
:10497300120824740B120AB8858208858309780803
:10498300120824E513F50878081208287900EEFCCC
:10499300EFFD125036120D0B740612086C0246C05E
:1049A300124B791258F71249EDE50BF0120F4B74C5
:1049B3001012086C7F0E020579120DB98A0E8B0F47
:1049C300A80EA90FE84922A3A31254E41210AD22A2
:1049D3007901AC08AD091254D9124B9F22AC0BA933
:1049E300131254D9120D77740222125795A3A3A35D
:1049F300A32274F012036074F01208E68A0C8B0D84
:104A0300ECFAEDFB750F089003F5124BC36014121B
:104A13005B0F8A828B83E58245836007A3E0700383
:104A2300024B74124B793400124BAFF50B88828919
:104A330083124B82E0FBEC2400FEE43BFF88828977
:104A430083A3A3124B82A3A3E0FBECF508E43BF59D
:104A53000988828983A3A3A3A3A3A3A3E0F50EE5F7
:104A63000AA2E45003750F10A2E550067408250F3F
:104A7300F50F748F550A700FE50C2417F582E50DB9
:104A8300125FC7650F60087901121D31024B745321
:104A93000A707800E50AA2E45022124B79125FC72C
:104AA3002408FCA3E03400FD7408120AB8AA82AB00
:104AB30083121D497808E50AC2E4F50AE50AA2E56E
:104AC3005028124B79125FC728F8A3E03400F9E8A5
:104AD3002408FCE93400FD851882851983AA82AB7A
:104AE30083121D49E50AC2E5F50AAC0EA90BEEFADD
:104AF300EFFB120D7DE9F87403686075900368E0BD
:104B03006E7003A3E06F605EE87054E50AF50F78FA
:104B13000F120828124B9012086CE97054780A128D
:104B230008287401120AB885820C85830D780C124B
:104B33000824740B120AB885820C85830D780C1235
:104B43000824E50BF50A780A120828A90EAC08AD6B
:104B530009EEFAEFFB120D0B740612086C80127447
:104B63000468700D80B7780A120828124B90120857
:104B73006C7410024339E50C241DF582E50D22A364
:104B8300A3A3E0FC88828983A3A3A3A322790112B0
:104B93004D76125908124BA5124B9F22120D3574F4
:104BA3000122E0FCA3E0FDAA08AB0922F583123F32
:104BB300B5A3E0F50A88828983A3A3E02290033991
:104BC3001255402274E812036074F51208E6EAFEF7
:104BD300EBFF8C088D0989147423120AB8E0F50FD2
:104BE3007424120AB8E0F512A3E0F5137426120A2E
:104BF300B8E0F516A3E0F5177428120AB8E0F50E2D
:104C0300A90F120D838A108B117401120AB874084C
:104C1300F0E50EA2E450037410F0E50EA2E5500493
:104C2300E02408F0851882851983AA82AB83120FCA
:104C3300AB8A0C8B0DEA450D7003024D56EA24171F
:104C4300F582EB124D68120F33E50C241AF582E559
:104C53000D1258F71238C37403120AB8AC82AD832D
:104C6300AA10AB11120B55E9601D124D60740312AB
:104C73000AB8A882A983E50C2418F582E50D125819
:104C8300F7E8F0A3E98024E50EA2E4501FE5106ED7
:104C93007003E5116F7015124D60E50C2418F58251
:104CA300E50D1258F7E512F0A3E513F0124D6F125C
:104CB3004D7E850A82F5837402F0A3E50E124D86BC
:104CC300E50FF0EE850A82850B83A3A3A3F0EF859E
:104CD3000A82850B83A3A3A3A3124D86A3A3A3E5F3
:104CE30008F0E509850A82850B83A3A3A3A3A3A3E5
:104CF300F0AA10AB11120D71E92514850A82850BF8
:104D030083A3A3A3A3A3A3A3F0750800E50EA2E4C2
:104D13005011AC12AD13E50A2408FAE50B1242F266
:104D2300750808E50EA2E55014AC16AD17E50A2583
:104D330008F8E50B3400F9E824081242F0850C82E8
:104D4300850D83A3A3E510F0A3E511F0AA0CAB0D29
:104D5300120C0F740B12086C7F10020579E50C24FA
:104D630016F582E50D1259087401F022124D7612E0
:104D7300590822E50C12690EE50D22E0F50AA3E0BD
:104D8300F50B22F0850A82850B83A3A32274F2120A
:104D930003608A088B09ECFEEDFF890A7900124E45
:104DA300247003A3E069700479018073750B01908B
:104DB3000368E065087004A3E06509601F750B00D4
:104DC300780B120828A90AEEFCEFFDAA08AB09121A
:104DD3000FFF740112086CE9F50B80417900EEFABC
:104DE300EFFB120DB9EA4B602B8A828B83A3A3A33B
:104DF300A3A3A3E05418601C7508FE7509FF780887
:104E03001208248A828B83A3A312068C12672312AF
:104E1300086C80097901EEFAEFFB120C93A90B8061
:104E230014120DC58A0C8B0DA80CA90D900368E014
:104E3300682212086C7F0602057974F41203607508
:104E4300083175090E7A1012642B8B0BEA450B702F
:104E53000312414C900353E014F0700C902314E4BC
:104E630093900353F0120DD17E007F00806C850870
:104E730082850983A3A3A3A3E06059F46056E508E0
:104E83002404F582E509125DF370498508828509DA
:104E930083A3A3A3A3A3E064037019790285088203
:104EA300850983124675850882850983A3A3125059
:104EB3003D120D11850882850983A3A3A3A3A3E053
:104EC3006401601085088285098374FEF0A30412CF
:104ED3004F97E4F01234C012308390230312658796
:104EE300408C7E007F008039120ED98E088F0974A2
:104EF30003780812099B74A92508FC740F3509FD72
:104F03007A1D7B0D120EC7EA4B70DD8E088F097474
:104F130003780812099B124F651267CEE4F012342E
:104F2300C090230AE493F8C3EE98EF9400501B8ECD
:104F3300088F097403780812099B124F6DE8240740
:104F4300F582E9125DF370D680A17E007F00800AAE
:104F5300124F78600214F01234C012658440F102DB
:104F63003AFB124F6D888289832274A92508F8744D
:104F73000F3509F922EEF8EFF9E875F006A4F8AA5F
:104F8300F075F006E9A42AF9744928F582740F39FB
:104F9300F583E022124F9EA3A3A322F08508828506
:104FA3000983A3A32274F712036074E11208E6ECE9
:104FB300FEEDFF750800EE4F60728A828B83E0245A
:104FC3001C125E24124BC360638A828B8312503D92
:104FD300851882851983AC82AD83EA241BF582EBA5
:104FE300125CF5EA241CF582EB125039120F1B7484
:104FF3000B120AB81250417003A3E069702E7402B9
:10500300120AB8E064017024741D120AB8123E3209
:10501300E064017017741D120AB8123E34A3A3E0B2
:10502300F88E828F83E0687003750801A908741FE6
:105033000238B0124D763400F5831254E42212295B
:10504300D8E0682274F4120360E9702479009003B5
:105053004D123E32121F168A0A8B0BAE0AAF0B7427
:10506300FE6E700374FF6F701A902311E493601344
:10507300790190034D123E32121F168A0A8B0BAE32
:105083000AAF0B120F6F023628E028F8A3E039F9B4
:105093002274F612036074F31208E61215458A08A7
:1050A3008B09AE08AF09900368E06E7003A3E06F4D
:1050B30060E9120F3FEA6E7002EB6F60DEEEFAEF0B
:1050C300FB120FC3E970D4EE4F60D08518828519A7
:1050D30083E4F004120AB8EEF0A3EF1250F7E9707C
:1050E300BA74FE6E700374FF6F60B0EEFAEFFB7478
:1050F3000D0239571239DC120B6D22C082C08312A4
:105103000F6F02387B7F0A02057974F2120360EA9B
:10511300FEEBFF8C0A8D0B8908740E120AB8E0F5BA
:105123000974FC6E700374FF6F70057900024E38CA
:105133007900120DC58A0C8B0DAE0CAF0D90036870
:10514300E06E7003A3E06F7006E509A2E650DCA9E8
:1051530009126611706179007AFE7BFF1266117085
:10516300567418550970030252447800790080037D
:10517300122BD2902303122BC94003025244E8FAA4
:10518300E9FBEA75F007A4FAACF075F007EBA42C81
:10519300FB74372AF582740E3BF583E0541870D004
:1051A300E875F007A4F8AAF075F007E9A42AF974E2
:1051B3003128F8740E39F988828983A3A3A3A3A3A2
:1051C300A3E05418600974185509700302512E881E
:1051D300828983EEF0A3EFF074FE650A700474FF16
:1051E300650B600312536B88828983A3A3A3A3A3D4
:1051F300A3E509F0A2E0500D88828983A3A3A3A3AA
:10520300A3A3D2E2F07401650888828983A3A3A3D0
:10521300A3A37038740112538FE0541860289023AD
:1052230015E49388828983A3A3A3A312535912106D
:10523300AD8B0DEA450D600302512E780079008095
:10524300397902025130900367E080D7E06401703E
:105253000302512E88828983A3A3A3A3A3A3E054AB
:10526300186007902315E4938004900366E01242CC
:10527300F9E508F002512E122BD290230BE493FA96
:10528300C3E89AE99400400302512E7A007B008020
:105293004BEAFCEBFDEC75F007A4FCAEF075F007F0
:1052A300EDA42EFD74332CF582740E3DF583125953
:1052B30010E8FCE9FDEC75F017A4FC85F00975F026
:1052C30017EDA42509FD74C12CF582740C3DF583FB
:1052D300E06E7003A3E06F609E1233959023031278
:1052E300309340AD124383EC6A7002ED6B7088E833
:1052F30075F017A4F8AAF075F017E9A42AF974C198
:1053030028FE740C39FF7C177D007900EEFAEFFB61
:105313001215398E828F8312537190037512534B7A
:10532300A3A3A3A3A3A3E8F0A3E91253517401F029
:10533300EE240E1258F4740112537912020FEE2464
:105343000D1258F4E8025276123893A3A322F0EE1A
:10535300240F12590522F0125362AA0AAB0B2290B2
:105363000375E0FCA3E0FD2288828983A3A3E50AF9
:10537300F0A3E50BF022F012537E2290230EE49368
:105383002401F8E43400F97A027B0022124305A3D6
:105393002274ED1203608A088B09890E1254C240ED
:1053A3000579050254901217AFAA08AB0912559458
:1053B300902301125493650A7003E9650B70077A11
:1053C300FE7BFF125594902301E412549BE50A9847
:1053D300E50B99400302548E12549F6012E50A753F
:1053E300F006A4F875F006E50B1254EA1215DBE596
:1053F3000E6018E50A75F006A4F8AAF075F006E544
:105403000B125516701A7901025490E50A75F006CD
:10541300A4F8AAF075F006E50B1254F7E4F0A3F034
:10542300E50A75F006A4F8AAF075F006E50B125428
:10543300B7A31257A388828983A3AA82AB83125589
:10544300058A828B83E0603F12549F603A8E108FEF
:10545300117512007810120820E50EC333FCE433F3
:10546300FDE50A75F006A4F50AA8F075F006E50B4C
:10547300A428F50B744D250AF582740F350B1250D1
:105483003B12327B12086C7900800279070266278F
:10549300122D2BE8229022F9125FAE22E50A75F055
:1054A30006A4F8AAF075F006E50B1254F2F8A3E08F
:1054B300F9E84922A42A12564B88828983A322EC55
:1054C300FEEDFF90230CE493F8E9C39822F58312D1
:1054D30054E41215DB22E50C12690EE50D3400F5D8
:1054E30083E0FAA3E0FB221254F2FAA3E0FB2212B8
:1054F30054F7E022A42AF9744D28F582740F39F584
:105503008322E50EF09010EA12550F22E08882897B
:1055130083F02212566FF50CE93400F50DE50EC346
:1055230033FAE433FB1215D5850C82850D83EAF03B
:10553300A3EBF0850C82850D831255402212433173
:10554300E8492274F4120360ECFEEDFF740C120AB6
:10555300B812394388088909125594AC0AAD0BEC8B
:10556300F8EDF990230112559C5021E875F006A43B
:10557300F8AAF075F006E91254B7E08E828F831211
:1055830055AF1255A512394F790080027904023ABA
:10559300FB120D478A0A8B0B2212326DC3EC9AED74
:1055A3009B2212432D850882850983221256842269
:1055B30074F61203607E007F008028EEF8EFF9E8AE
:1055C30075F006A4F8ACF075F006E9A42CF9744B59
:1055D30028F582740F1262326A7003A3E06B60577E
:1055E3001234C012658440D312657F7002E96F7074
:1055F3004674FE6A700374FF6B703C7E007F00800C
:10560300031234C0126584502E124F7870F3EEF8F3
:10561300EFF9E875F006A4F81256411256766017B2
:1056230012565DF8E912565588821254D0850882C5
:10563300850983E4F0A3F0EEFAEFFB02395A75F023
:1056430006E912564922A42AF9744928F8740F3935
:10565300F9223400F98808890922EEF8EFF9E87590
:10566300F006A4F875F006E912566F22125649E8BF
:10567300240422A3A374FE12568112554022F0A3E0
:105683000412568822F088828983A3A3A3A32274D9
:10569300F6120360EA241DF582EB12578DF9604B75
:1056A300EA241DF582EB125FC72402FCA3E0340059
:1056B300FD1254C64003025780780080298C828DE6
:1056C30083E0F508A3E0FFE5082400E43FF509E8DB
:1056D30033FEE433FF74912EF582740F3FF583128A
:1056E30057A312578308E8C39940D28A828B83A3B6
:1056F300A3A3A3A3A3A3A3A3124675900368E06C7B
:105703007003A3E06D700F7C917D0F12294112503D
:1057130039120D3B8067EA2411F582EB125FC760F3
:105723005CFC74FF2CF075080178081208287508D2
:105733009175090F7808120824E9F508780812080A
:1057430028EA2412F582EB125FC7F50878081208DD
:1057530028EA2415F582EB1258F712068CECF9129D
:1057630029411246728A828B83A3A3A3A3A3A3A373
:10577300A3A312503D120D53740712086C02395A39
:10578300EC24020C0CED3400FD221259081257953B
:10579300E022E0F8A3E0F5838882A322888289834C
:1057A300E508F0A3E509F02274EA12036074FD1220
:1057B30008E68A148B158C0E8D0F890D7419120A45
:1057C300B8125910741B120AB8E0F511741C120AAE
:1057D300B8E0F50C741D120AB8124D7E741F120A3C
:1057E300B8E0F5106008E50CC333240480027402AA
:1057F300C0E07401120AB8D0E01259218A088B095B
:10580300EA450970030258EC8A828B83A3A3E5144B
:10581300F0A3E51512641AE50EF0A3E50FF0EA24F0
:1058230013F582EB1258F7E50DF0EA2414F582EB39
:105833001258F7E511F0EA2417F582EB125FC764FB
:10584300017040120F398A0E8B0FA80EA90F85081D
:1058530082850983A3A3A3A3E0687003A3E069601F
:1058630022EE4F6011E508241AF582E5091258F774
:10587300EEF0A3EF800CE5082417F582E509125832
:10588300F7E4F01258FB1259108E828F837405F0DF
:10589300A3E5107004E50C80487401250C12591A15
:1058A3007A008028850A82850B83E0125916850ABF
:1058B30082850B83A3E08E828F83F0E50A2402F5B1
:1058C3000AE50B3400F50BA30EAF830AEAC3950C6C
:1058D30040D2120F39EA125916120F39EB8E828F0A
:1058E30083F0AA08AB09120C0F74030249B4EE2427
:1058F3000CF582EF1259082212295212590822EE8E
:10590300240BF582EF3400F58322900334E0FEA3E9
:10591300E0FF228E828F83F0A3AE82AF83221239FF
:10592300DC120FAB22C082C083E9C333FCE433FD36
:10593300EA2CFAEB3DFBEA24FEF582EB34FF12502E
:105943003B02387B74F212036089098A0A1254C23B
:1059530040047900804075080080020508E508C30B
:105963009509502AE508C333F8E433F9EE28F582A4
:10597300EF39F583C082C083120F398A0C8B0DD0A7
:1059830083D082E0650C7004A3E0650D70CDE50A59
:10599300650870BE7901024E3874F012036074F327
:1059A3001208E68A088B098C0A8D0B890C750D0089
:1059B300120FC3E979006003025A9EAA08AB0912C9
:1059C3000DC5A90C120DB98A0E8B0FAE0EAF0FEEDB
:1059D3004F7003025A9C8E828F83A3A3A3A3A3A316
:1059E300E0A2E24003025A9C120F39EA650A7003EF
:1059F300EB650B7011780D120828E4F50EF50F789E
:105A03000E1208248044AA0AAB0B120BAFE96401FF
:105A130070688518828519837404F07401120AB8BA
:105A2300125371851882851983AA82AB83120B6D79
:105A3300E964017045750D01780D120828E4F50E2F
:105A4300F50F780E120824750D00780D12082878CA
:105A53000D1208287408120AB885820E85830F7800
:105A63000E120824902317E493F9AC0AAD0BAA088D
:105A7300AB09120D53740712086C8E828F83A3A394
:105A8300A3A3A3A3E0A2E1400D8E828F83A3A3A3CC
:105A9300A3A3A3C2E2F0750D01A90D02433774F667
:105AA300120360E9FE7900120DC5EEF9120DB98AF1
:105AB300088B09A808A909E8496006126955F98005
:105AC30002790402395A74F61203607E0790035C6C
:105AD300E07034125B0F8A088B09A808A909E8490A
:105AE3006025900361E0640188828983A3A3700B1E
:105AF300125B16888289835001A3A3E0F91210CBAD
:105B0300E9FEEE70027E07EEF902395A1253621271
:105B130010AD22E0FA88828983A3E0C39A2274EE4F
:105B2300120360EAFEEBFF890A8C0C8D0B741212D0
