:020000040000FA
:060000000209FB0201B63B
:03002B000207CBFE
:030033000205BA09
:030053000200E4C4
:03006B00020591FA
:1000830002014B010101FF050301C70FC70FC70F92
:10009300C70F7D0E770EC70F941B00000000F61BE1
:1000A300000000000C0000000C000104FFFF010130
:1000B3000100F7040000004805E80364006400B889
:1000C30001020200080000050207051E02051E0AC0
:1000D30003B80B020102FFFF029651180002020649
:1000E30012C0E074F212043AA2AFE433FED2AFE5D9
:1000F300A7FFE5A1F5085F5410600612166F75A1FE
:10010300EFE5085F5408600812167575A1F7802B98
:10011300EFA2E0C0D0E508A2E092F012094B1581EE
:1001230082F05017906198E0F8900615E0C398A20A
:10013300D265D0335002E8F075A1FE751A00EEA225
:10014300E092AF7F01020499C0E074F212043AA274
:10015300AFE433FED2AF9061A4E0F8759B00E59164
:1001630058540860087591F71216BD802AE5915816
:10017300541060087591EF1216C3801BE8A2E0C00B
:10018300D0E591A2E092F012094B158182F050075D
:10019300E0C2E0F01218139061A3E0F8E5E95854C7
:1001A30004600E1217E975E9FB906193E0A2E64043
:1001B300F28088C0E074F212043AA2AFE433FED2B4
:1001C300AF9061A5E0F8E5BF585404600675BFFB26
:1001D30012182B02013EC3E498F8E499F912021AAB
:1001E3008026C3E49AFAE49BFBE920E7E912021AAA
:1001F300E498F8E499F922C3E498F8E499F912022F
:100203001AE498F8E499F9C3E49AFAE49BFB22EB25
:1002130020E7CFE920E7E0B90010BB0008E88AF047
:1002230084F8AAF022E4FBC8FA22EB70227B10C800
:1002330033C8C933C9335007C39AC3DBF280069A64
:1002430050012ADBEAC833F4C8C933F4C9FA22756A
:10025300F008E4C833C8C933C933C99AC99B5004E9
:10026300C92AC93BD5F0ECFBC833F4C8E4C9FA2268
:10027300080808EAC0E0EBC0E086F0E7A4FA180932
:1002830086F0E7A42AFA180986F0E7A42AFA1809DF
:1002930086F0E7A42AFA1986F0E7A4FBE5F02AFA28
:1002A300190886F0E7A42BFBE5F03AFA190886F063
:1002B300E7A42BFBE5F03AFA18180986F0E7A4C582
:1002C300F02BFBE43AFA1908E7C5F0C6A426F6E5D5
:1002D300F03BFBE43AFA1886F0E7A4F6E5F00826CB
:1002E300F6E43B08F6E43A08F6D0E0FBD0E0FA2265
:1002F300E4CFC0E0E4CEC0E0E4CDC0E0E4CCC0E0B5
:1003030075F020C3E633F608E633F608E633F6085D
:10031300E633F6181818EC33FCED33FDEE33FEEF3D
:1003230033FFC3EC9709ED9709EE9709EF97191976
:1003330019400FFFEC97FC09ED97FD09EE97FE19A5
:100343001906D5F0BEECF709EDF709EEF709EFF75B
:10035300191919D0E0FCD0E0FDD0E0FED0E0FF2277
:100363002518C582C0E0E51934FFC583C0E0E51850
:10037300C3958224F810AF088583198582188008F5
:10038300858319858218D2AFCEF0A3E520F0A37838
:1003930008E608F0A3DEFAEFF0A3E58124FAF8E615
:1003A30008F0A3E608F0A3E608F0A30808E608F0BF
:1003B300A3E608F0A315811581D0E0FED0E0F8157F
:1003C3008115811581E8C0E0EEC0E022120A5DB913
:1003D3000003020424E4900301786C79088002F09E
:1003E300A3D8FCD9FA781A9000867A01BA00028061
:1003F30007E493A3F608DAF9900A6CAA82AB839018
:100403000087785E79018015E493A3AC82AD838A7B
:10041300828B83F0A3AA82AB838C828D83D8E9D9A4
:10042300E77582E87583E474021207AD75829B75E4
:10043300831A74001207ADC0D02518C582C0E0E549
:100443001934FFC583C0E0E518C3958224F310AFC8
:10045300088583198582188008858319858218D2B7
:10046300AFC8F0A3E9F0A3EAF0A3EBF0A37908E7A0
:1004730009F0A3D8FAECF0A3EDF0A3EEF0A3EFF0AC
:10048300A3D0E0F0A3D0E0F0A3D0E0F0A3E520F008
:10049300A3E5F0F0A322851983851882E0C0E0A3C9
:1004A300E0F9A3E0FAA3E0FBA37808E0F608A3DFF2
:1004B300FAE0FCA3E0FDA3E0FEA3E0FFA3E0C0E0BD
:1004C300A3E0C0E0A3E0F5D0A3E0F520A3E0A3F50B
:1004D300F010AF08858319858218800885831985F4
:1004E3008218D2AFD082D083D0E0F8D0E032E803D4
:1004F3000875F0108E218F22858226858325851825
:1005030082851983E0CEA3E0CF852682852583EB00
:10051300C9EAC8EDCBECCAC3E833C8E933C9EA3347
:10052300CAEB33CBC3EA9EF524EB9FF523B3500408
:10053300AB23AA24EC33CCED33CDD5F0DAAE21AF27
:100543002222D083D082ECC0E0EDC0E0E493A3FC90
:10055300E493A3FDED4C600D120664EC24FFFCED67
:1005630034FFFD80EFE493A3FCE493A3FDED4C6023
:100573000D120701EC24FFFCED34FFFD80EFD0E00A
:10058300FDD0E0FCE493A3C0E0E493C0E022C0E02C
:1005930074F212043AA2AFE433FED2AFE589A2E5C6
:1005A3005003121597758900C2C5751A00EEA2E0B3
:1005B30092AF7F01020499C0E074F212043AA2AF31
:1005C300E433FED2AFE58BA2E05003121597758B8F
:1005D30000C2E880D5851983851882E0A3FEE0A3D5
:1005E300F5207808E0A3F608DFFAE0A3FFE0A3C054
:1005F300E0E0A3C0E0E0A3C0E0E0A3C0E0E0A3C06C
:10060300E010AF08858218858319800885821885D4
:100613008319D2AFD083D0820207B3D083D082E9CB
:10062300C0E0E493A3C386F0C5F095F0F908E49322
:10063300A386F0C5F095F0700BE493A3C39940052E
:10064300E9048002A3E475F002A42582F582E5F0B3
:100653003583F583D0E0F9E493A3C0E0E493C0E0ED
:1006630022C0E0C3E49396087401939618400FE404
:100673009366700808740193661870007019A3A339
:10068300C3E49396087401939618A3A3400DD0E096
:10069300D0E0D0E0020581A3A3A3A3A3A3D0E022CB
:1006A3007404800474028000CCC0E0EDC0E0E5185F
:1006B300C39CCCAD1950011D10AF068C188D198049
:1006C300068C188D19D2AF12074ED0E0FDD0E0FC96
:1006D3002274028000CCC0E0EDC0E0E518C39CCCDE
:1006E300AD1950011D10AF068C188D1980068C189A
:1006F3008D19D2AF12072CD0E0FDD0E0FC22C0E070
:10070300C0F088F0E493667008087401936618706B
:1007130000A8F0A3A3700BD0F0D0E0D0E0D0E002AB
:100723000581A3A3D0F0D0E022CAC0E0E493A3C51F
:1007330082CCC582C583CDC583F0A3C582CCC582D7
:10074300C583CDC583DAE5D0E0CA22CAC0E0E0A301
:10075300C582CCC582C583CDC583F0A3C582CCC574
:1007630082C583CDC583DAE6D0E0CA22C008C3E0E0
:1007730096F50808A3E096420808A3E09642080805
:10078300A3E09645087001D3D00822700908080831
:10079300226016181818C6C333C608C633C608C65F
:1007A30033C608C633C6D5E0EA22C09FF59FE4737B
:1007B300D09F22D083D082C09FE493C0E074019382
:1007C300C0E0740293F59F22C0E0C0D0E8C0E0E52A
:1007D300A8D2AFC2C7751A00A2E792AFD0E0F8D093
:1007E300D0D0E0322518F58210AF08F51840021575
:1007F300198008F51840021519D2AF8519832274A0
:1008030004800A74038006740280027401C0E0F459
:10081300041207E7D0E0120A3822BB0102E722C024
:1008230082C08389828A83BB0003E08002E493D081
:1008330083D08222C0D0251810AF08F518500205C6
:10084300198008F51850020519D2AFD0D0226016CE
:10085300080808C6C313C618C613C618C613C61895
:10086300C613C6D5E0EA22C3E0C696F608A3E0C6DF
:1008730096F608A3E0C696F608A3E0C696F62225E8
:100883001810AF08F518400215198008F518400232
:100893001519D2AF22E066701008A3E066700A084B
:1008A300A3E066700408A3E06622C3E09608A3E011
:1008B3009608A3E09608A3E096A2D265D03322E778
:1008C3006670100809E766700A0809E7667004088D
:1008D30009E76622C3E096F008A3E096F008A3E0D8
:1008E30096F008A3E096F022C3E697F60809E69788
:1008F300F60809E697F60809E697F622E627F608CA
:1009030009E637F60809E637F60809E637F622E07E
:1009130026F608A3E036F608A3E036F608A3E03689
:10092300F622E657F60809E657F60809E657F608E9
:1009330009E657F622700422600D18C6C333C608B1
:10094300C633C6D5E0F41822C0E0E8C0E0E5812450
:10095300FCF8E6A2E7D0E0F8D0E022E056F608A3E0
:10096300E056F608A3E056F608A3E056F622E05652
:10097300F008A3E056F008A3E056F008A3E056F011
:1009830022E647F60809E647F60809E647F60809A6
:10099300E647F622E026F008A3E036F008A3E036A7
:1009A300F008A3E036F022E4C396F608E496F608CE
:1009B300E496F608E496F622600D08C6A2E713C68D
:1009C30018C613C6D5E0F322C6F4C608C6F4C60893
:1009D300C6F4C608C6F4C622C3E7960809E7960814
:1009E30009E7960809E79622C3E09608A3E096086C
:1009F300A3E09608A3E0962275D000758140751890
:100A030001751903000203CFE0F608A3E0F608A37B
:100A1300E0F608A3E0F622600C08C6C313C618C6A6
:100A230013C6D5E0F422E6F008A3E6F008A3E6F047
:100A330008A3E6F022CAC0E0E6F0A308DAFAD0E0A1
:100A4300FA22E0FAA3E0FBA3E0FCA3E0FD22EAF034
:100A5300A3EBF0A3ECF0A3EDF022E5C754F84401B7
:100A6300F5C77901222518F582E43519F58322C2E9
:100A7300AF75D69F020000221207B626AA011207FD
:100A8300B695AA011207B6E4AC011207B637AE0158
:100A93001207B6DAAE011207B612B0011207B6306A
:100AA300B0011207B661B0011207B673B0011207A5
:100AB300B6C5B0011207B626B1011207B6B0B1012F
:100AC3001207B654B2011207B6A8B2011207B6C193
:100AD300B2011207B6E7B2011207B622B301120739
:100AE300B666B3011207B68DB3011207B6DEB301C2
:100AF3001207B68EB4011207B646B5011207B60E39
:100B0300B6011207B6EBB6011207B671B7011207A9
:100B1300B680B7011207B68BB7011207B694B801B6
:100B23001207B6A5B8011207B61BB9011207B6AD75
:100B3300B9011207B605BA011207B6CBBA011207FB
:100B4300B6FCBA011207B641BB011207B64EBB0190
:100B53001207B6E2BC011207B645BE011207B66121
:100B6300BF011207B6CBC1011207B6D6C1011207E6
:100B7300B6E0C1011207B6EBC1011207B6F5C10118
:100B83001207B6FFC1011207B60AC2011207B61552
:100B9300C2011207B646C2011207B66AC2011207A2
:100BA300B68EC2011207B6F3C2011207B637C301EC
:100BB3001207B653C3011207B6CAC3011207B6021E
:100BC300C4011207B64EC4011207B6ABC401120723
:100BD300B68DC6011207B613C7011207B6E4C701E3
:100BE3001207B6F4CA011207B649CB011207B6754C
:100BF300CB011207B6C1CC011207B611CD01120702
:100C0300B666CD011207B667CE011207B6FFCE0155
:100C13001207B681CF011207B621D0011207B6140D
:100C23001E001207B64D1E001207B627200012073A
:100C3300B66620001207B6B020001207B655210091
:100C43001207B6B421001207B6E821001207B65501
:100C530022001207B67223001207B67A2400120785
:100C6300B61025001207B65728001207B600290050
:100C73001207B6DC29001207B63D2A001207B65A3E
:100C83002B001207B6842D001207B63B2E00120765
:100C9300B6452E001207B6782E001207B63F2F0076
:100CA3001207B6DA2F001207B63F30001207B668F4
:100CB30030001207B68A30001207B6B932001207A5
:100CC300B69033001207B6D433001207B64134008E
:100CD3001207B6FC34001207B62E35001207B6729F
:100CE30035001207B6A535001207B6FA350012070C
:100CF300B64F36001207B6E336001207B645370083
:100D03001207B6AD37001207B65639001207B63EC2
:100D13003A001207B6803B001207B6AE3D00120739
:100D2300B66E3E001207B69D40001207B640410062
:100D33001207B67E41001207B62A43001207B63ED9
:100D430043001207B64843001207B6724300120766
:100D5300B67E43001207B69D43001207B654440003
:100D63001207B69344001207B69D44001207B6510A
:100D730045001207B65046001207B649470012074E
:100D8300B6E647001207B68848001207B69F480028
:100D93001207B6D648001207B6F448001207B63851
:100DA30049001207B65D49001207B6434A0012070D
:100DB300B6AF4A001207B6294B001207B6384C00EB
:100DC3001207B6774D001207B6D94D001207B69336
:100DD3004E001207B6B64E001207B68A4F0012072E
:100DE300B6D54F001207B61750001207B66E500063
:100DF3001207B6A550001207B6D350001207B60C5F
:100E030051001207B63151001207B6B9510012074B
:100E1300B6DC53001207B63B54001207B6CF54009A
:100E23001207B63B55001207B68F55001207B69D41
:100E3300F9021207B6DCF9021207B6E156001207EF
:100E4300B63B57001207B69757001207B6E3570091
:100E53001207B6FE57001207B62F58001207B64CFA
:100E630058001207B65858001207B6CC590012079B
:100E7300B6E559001207B64C5A001207B65F5A007E
:100E83001207B66D5A001207B6215B001207B605AA
:100E93005C001207B60B5D001207B6915D001207E6
:100EA300B69B5D001207B6085E001207B61F5E0010
:100EB3001207B6515E001207B68A5E001207B6B477
:100EC3005E001207B6155F001207B6355F00120702
:100ED300B6535F001207B6995F001207B6BF6000F2
:100EE3001207B60C61001207B63B61001207B6B1D8
:100EF30061001207B6D961001207B6126200120729
:100F0300B62062001207B67862001207B6C7620005
:100F13001207B60663001207B63663001207B662FD
:100F230063001207B66D63001207B68B63001207E6
:100F3300B64D64001207B65764001207B6926400F8
:100F43001207B6A864001207B6B164001207B6060A
:100F530065001207B61A65001207B6286600120765
:100F6300B63B66001207B65266001207B667660004
:100F73001207B60967001207B68C67001207B64A54
:100F830068001207B65568001207B67B690012079E
:100F9300B69769001207B6E969001207B6286A0016
:100FA3001207B63D6A001207B67F6A001207B6CC75
:100FB3006C001207B64A6D001207B6BD6D0012072A
:100FC300B6DF6F001207B6F76F001207B6FA6F00AD
:100FD3001207B60670001207B61A70001207B6227F
:100FE30070001207B65570001207B605710012079C
:100FF300B67B71001207B6EE71001207B6A272003B
:101003001207B65773001207B67673001207B616A7
:1010130074001207B62274001207B64D740012074B
:10102300B65074001207B67F74001207B6947400AA
:101033001207B6FE74001207B62676001207B6FE34
:1010430076001207B68977001207B6A27800120756
:10105300B65F79001207B69879001207B6C979000E
:101063001207B6697A001207B6997A001207B674A6
:101073007B001207B60D7C001207B6987C0012079E
:10108300B6497D001207B6CB7D001207B6FD7D0081
:101093001207B63E7E001207B6737E001207B6A093
:1010A300F4011207B605F5011207B642F50112075E
:1010B300B691F5011207B6A7F7011207B68AF9012F
:1010C3001207B6F4FC011207B62FFD011207B65141
:1010D300FD011207B6B4FD011207B6E8FD011207C0
:1010E300B60BFE011207B638FE011207B694FE01D5
:1010F3001207B6F39C021207B6719D021207B6A738
:101103009D021207B6139E021207B6869F021207AC
:10111300B6A29F021207B6E79F021207B675A00296
:101123001207B6CEA0021207B6FBA1021207B60D34
:10113300A3021207B66AA3021207B6D6A3021207C6
:10114300B637A4021207B678A4021207B625A50281
:101153001207B637A6021207B662A6021207B6AD89
:10116300A6021207B6F4A6021207B686A702120752
:10117300B641A8021207B674EC021207B6A4EC0239
:101183001207B6F9EC021207B690CE021207B6F9AF
:10119300CE021207B6F4B1021207B640B20212072A
:1011A300B6AEB2021207B6CFB2021207B67FB302CF
:1011B3001207B688B3021207B6DBB3021207B604EE
:1011C300B4021207B66BB4021207B6FCB4021207DC
:1011D300B63EB5021207B688B5021207B6E7B502E6
:1011E3001207B64F9D011207B6B7B6021207B6F63D
:1011F300B6021207B62BB7021207B63DB7021207A3
:10120300B64FB7021207B66EB7021207B677B70228
:101213001207B644B8021207B64DF3021207B6E638
:10122300F9021207B6B6E2021207B6ECE20212079F
:10123300B635E3021207B685E4021207B6D4D0012D
:101243001207B6DEA9011207B64FD2011207B60E76
:10125300D4011207B637D4011207B6CAD601120752
:10126300B60ED7011207B697D8011207B62FD901C8
:101273001207B697D9011207B638DA011207B67A00
:10128300DA011207B6BADA011207B645DC01120712
:10129300B6B5DD011207B6DADF011207B608E001C1
:1012A3001207B62FE0011207B638E0011207B6BFE6
:1012B300E0011207B6DDE3011207B64FF902120788
:1012C300B665F9021207B674F9021207B6F2CA023A
:1012D3001207B605CB021207B6A2CB021207B6DE7F
:1012E300CB021207B6F5CB021207B61ACC021207CD
:1012F300B65CCC021207B68DCC021207B6C8CC027C
:101303001207B642CE021207B683CE021207B6BC4C
:10131300F5021207B6F2F5021207B60EF60212072D
:10132300B650F6021207B660F6021207B66AF60264
:101333001207B60080021207B65880021207B610D1
:1013430081021207B6AB81021207B6F581021207BA
:10135300B64E82021207B66282021207B62C8402CC
:101363001207B6A784021207B6D184021207B6ABDE
:1013730086021207B6C686021207B615870212073F
:10138300B62B87021207B63887021207B66C87029C
:101393001207B68287021207B60D88021207B667D4
:1013A30088021207B6B588021207B6BF8902120770
:1013B300B6418C021207B6DB8C021207B61D8D02F2
:1013C3001207B6B28D021207B6CF8D021207B6D23C
:1013D3008D021207B6D58D021207B6488E02120788
:1013E300B6638E021207B68F8E021207B6CA8E023A
:1013F3001207B6CD8E021207B66FF8021207B67B3C
:10140300F8021207B6B5F8021207B65EE401120736
:10141300B689E4011207B64BE5011207B6D0E50120
:101423001207B639E6011207B685E6011207B604BC
:10143300E7011207B696E7011207B626E80112077D
:10144300B668E8011207B6B1EC011207B631EE0136
:101453001207B670EE011207B639EF011207B6EDA7
:10146300EF011207B69DF1011207B629F201120727
:10147300B62BF3011207B6068F021207B6C08F020E
:101483001207B63290021207B6C690021207B6D000
:1014930091021207B64092021207B6749302120722
:1014A300B65094021207B6C194021207B63E9602D2
:1014B3001207B60097021207B69B97021207B6F6F9
:1014C30097021207B66198021207B6429A021207F0
:1014D300B6E19A021207B69E9B021207B6C2D80261
:1014E3001207B616D9021207B66ED9021207B6B999
:1014F300D9021207B61BDA021207B6B4DA021207D0
:10150300B61CDB021207B628DB021207B6D4E802C8
:101513001207B605E9021207B6BFE9021207B6259C
:10152300EA021207B66CE5021207B6F1F4021207DB
:10153300B602F5021207B6A2F5021207B6AEEA0228
:101543001207B6BCEA021207B6E47F001207B6D44C
:10155300F7021207B6E4F7021207B6FCF702120706
:10156300B669F8021207B64BF2021207B6D0F202BE
:101573001207B634F3021207B629EE021207B64B6E
:10158300EE021207B6B1EE021207B6D1EE0212074F
:10159300B60FEF021207B66AEF021207B6A1EF0207
:1015A3001207B6A4EF021207B620F4021207B638E8
:1015B300F4021207B668F4021207B6E3F402120744
:1015C300B6F3C6021207B601C7021207B67BC702FB
:1015D3001207B65FC8021207B618CA021207B67D11
:1015E300CA021207B6DECA021207B6F87F00120754
:1015F300B6F8E6021207B61AE7021207B64DE8027A
:101603001207B6D1E8021207B684BD021207B6D993
:10161300BD021207B6D5BF021207B607C0021207F2
:10162300B629C0021207B642C0021207B65BC00257
:101633001207B665C1021207B600C2021207B6ADA1
:10164300EF021207B6D1EF021207B6EAEF02120752
:10165300B61DF0021207B64EF0021207B67CF00276
:101663001207B686F0021207B6E8F0021207B6F7C1
:10167300F0021207B601F1021207B60EF1021207C9
:10168300B663DB021207B689DB021207B6C6DB02BA
:101693001207B6D5DB021207B6F4DB021207B65CFB
:1016A300DC021207B665DC021207B6C4DC021207BD
:1016B300B6E8DC021207B6A7DD021207B6B4DD02F4
:1016C3001207B6C5DD021207B62CFA021207B64995
:1016D300FA021207B6A5B8021207B603BA02120736
:1016E300B610BA021207B623BA021207B642BA02FA
:1016F3001207B658BA021207B66CBA021207B6E15D
:10170300BA021207B646BB021207B6CEBB021207D5
:10171300B657BC021207B62CBD021207B63CBD0277
:101723001207B64BBD021207B63BF7021207B65FAC
:10173300F7021207B687F7021207B6AFF7021207CE
:10174300B6F3DD021207B61ADE021207B63BDE025B
:101753001207B6A0DE021207B659E0021207B672EC
:10176300E0021207B67EE0021207B692E002120709
:10177300B6B0E0021207B6BAE0021207B6C4E0023E
:101783001207B6D7E0021207B62AE1021207B663C0
:10179300E1021207B692E1021207B6E0E102120774
:1017A300B62FE2021207B64AE2021207B654E20269
:1017B3001207B665E2021207B6ABE2021207B6F2EF
:1017C300F8021207B643F9021207B6B8A8021207C5
:1017D300B6E2A8021207B6FEA8021207B611A902C2
:1017E3001207B627A9021207B684A9021207B6B7D1
:1017F300A9021207B6F3AD021207B619AF02120718
:10180300B64CAF021207B698AF021207B6C4B002C5
:101813001207B6ECB0021207B601B1021207B611F5
:10182300B1021207B655B1021207B6B6B1021207DA
:10183300B6C6B1021207B618F1021207B633F102A7
:101843001207B65CF1021207B676F1021207B69BD5
:10185300F1021207B6BAF1021207B6D2F102120769
:10186300B600F2021207B61AF2021207B682F602A5
:101873001207B6C6F6021207B622D2021207B6291B
:10188300D2021207B635D3021207B665D302120786
:10189300B68BD3021207B6AED3021207B6D0D30269
:1018A3001207B60AD4021207B670D4021207B6A9F9
:1018B300D4021207B6F5D4021207B622D5021207D4
:1018C300B642D5021207B6E0FE011207B6F2FE01D8
:1018D3001207B6DDFF011207B6E0FF011207B6D10A
:1018E3007E001207B6437F001207B6817F001207FE
:1018F300B6C27F001207B6A2D5021207B6BED50242
:101903001207B60DD6021207B629D6021207B65A27
:10191300D6021207B66AD6021207B656D7021207C4
:10192300B660D7021207B66DD7021207B67DD8028A
:101933001207B691D8021207B69AD8021207B63F19
:10194300C2021207B684C6021207B689C60212077C
:10195300B668FA021207B6F69C011207B68A9C0112
:101963001207B6619C011207B6549A011207B620FA
:101973009A011207B6ED99011207B6D19901120720
:10198300B6F798011207B6AF98011207B6E49601AD
:101993001207B66496011207B66196011207B66C78
:1019A30095011207B63A95011207B677940112070B
:1019B300B6A292011207B63392011207B60592013D
:1019C3001207B60292011207B6EF91011207B6870A
:1019D30091011207B67691011207B65790011207CB
:1019E300B641A9011207B634A9011207B642A601EE
:1019F3001207B694A3011207B668A2011207B62113
:101A030090011207B6E48F011207B6858F01120702
:101A1300B6548F011207B6BCA1011207B60F8C0191
:101A23001207B6008B011207B68F8A011207B6544C
:101A33008A011207B60DA0011207B613D2011207CD
:101A4300B61F8A011207B6138A011207B6738901FA
:101A53001207B6BA88011207B68D86011207B619A6
:101A630084011207B6D783011207B6A282011207B7
:101A7300B65782011207B68981011207B6E08001C9
:101A83001207B6B680011207B6C89D011207B67CCD
:101A930080011207B678B60200000080FBE47300F1
:101AA30001363601010001020100010301000104B6
:101AB30001060605020000070100340801000F09B2
:101AC3000401010D0100FF0E0800001702000019B8
:101AD3000100FF1A0100011B0100FE1C0100081D8B
:101AE3000200001F01000120010001210200002368
:101AF30001000F240200002601000127010008282D
:101B03000200FF2A0100072B0102402C0100002DD7
:101B13000100012E0100012F0100FF30010B1C31D8
:101B23000800003A0100083B01000F2F01000001EB
:101B330001710101010101110101013101010101E2
:101B4300018001100161013B001400630173017204
:101B530001620143010001130106013D0135000447
:101B6300011201000100010001000104010401331D
:101B73000133013C014401320136000001000165DB
:101B8300010001350081010001050182018301008B
:101B93000103007100300160001100700031022068
:101BA3000350048000100061000000140063007300
:101BB30000720062004300000013000600000000F2
:101BC30000040012000000000000000000040004F4
:101BD30000370037003C0244000000000000000012
:101BE300006500000035008100000005000000834F
:101BF3000000000103710301030103010301030159
:101C03000322030203010310030003000300030084
:101C1300030003000300034203000324030603003D
:101C230003000304031203250323032503230304EF
:101C3300030403000300030003440300030003231E
:101C4300030003650321003503810300030503003B
:101C530003000300030302710230016002110270EA
:101C6300020102020202028002100261023A0041F2
:101C7300006302730272026202430200021302381B
:101C8300000002000204021202000200020002002D
:101C93000204020402370037003C02440200023906
:101CA3000000020002650200023502810200020503
:101CB3000282028302000236000100060000000FC8
:101CC3000000000000000000000000000003FFFF10
:101CD30000000403FFFF0000FFFF0FF4010005C431
:101CE300040320000100000B0000000000000000BE
:101CF30003010F01009514020023140300291404A7
:101D0300002F140500351406004114110059141452
:101D1300005F1415005314FFFF0000D70E070FDDFB
:101D23000EE30E010FF50EEF0E0D0F130F190F2516
:101D33000FE90ED10ECB0E03EAF5E5D5D5C5B5A552
:101D430095958585757565655555454535352525C0
:101D53001515050AA30C026D0C057F0C07730C0CFB
:101D63004F0C0D610CFF000000160F00000B150B4C
:101D7300020002220F32000006C70FD90FDF0FA1A6
:101D83000EE50F9B0EA70E33105110571039104557
:101D9300103F100C0E020B040B0A0708000F00384B
:101DA3003C3E363B3B352B432C00011916181616C7
:101DB3001523030000034948424D18172505023037
:101DC3003017181921301B1D1F30303016181920F9
:101DD300231A1C1E301B10EB0FF10FFD0FF70FFB27
:101DE3000E1F0F4B102B0F310F02040201010101D3
:101DF300090200000000000000BE040A04001500F0
:101E03000E002800040C0A030908FF1E1E0F040C11
:101E13000574F7120363E99003B0F0900365E4F0EF
:101E23001218C79003B5E4F0A3F09003B1F0A3F048
:101E3300120DDB1218CD900334E4F0A3F0901E10C2
:101E430093FA790212192D024AAA74F2120363EA71
:101E5300FEEBFF548060699003B0E0F91211C58A6C
:101E6300088B09EA4509604F7C0080010CEC75F092
:101E730003A4F8A9F0745628F582741D39F583E498
:101E830093F4602CE493F88508828B83E06870DC1C
:101E9300AA08EC75F003A4F8745728F582741D3969
:101EA300F583E493C0E0740193F583D082121AA002
:101EB300AA08AB091211B9EEFAEF6480FB02201AEB
:101EC300EF5420601D120CFD8A088B09EA45096056
:101ED3000A120C61AA08AB091211B9EEFAEF6420D9
:101EE30080DAEEA2E0501A90036AE0640F700B7977
:101EF30000120C2BE9600312201DEE6401FAEF803F
:101F0300BB54207003021FE8750C001234EF8B09D9
:101F1300EA450970107C027D007A207B009003B0B3
:101F2300E0F91212EB7C0079047A007B00120CD9E1
:101F33008A088B098018850882850983A3A3A3A334
:101F4300A3A3A3A3A37401F0850A08850B09E508DD
:101F53004509606D7C007904AA08AB09120CD98A83
:101F63000A8B0B750C01E5082404F8E5091232937A
:101F730024FFF0A3E034FF12558670CC85088285D8
:101F83000983A3A3A3A3A3A3A3A3A3A3E0640170AF
:101F9300A5850882850983A3A3A3A3A3A3E054046F
:101FA3007094850882850983A3A3A3A3A3A3A3A3F2
:101FB300A37406F07AB785088285098312214980C4
:101FC30087120CA97C0079017A007B00120CD98B53
:101FD30009EA45097009E50C70057A20124449EEB7
:101FE3006420021F00EF5402600B120DD5EEFAEFCE
:101FF3006402021EBFEF540460191245E01245004B
:102003007901900363124864120B71EEFAEF6404D2
:10201300021EBF7A007B00022250900AA11228E719
:10202300120C4322C082C08374EA1208828518828C
:10203300851983AA82AB83794B1219037408120A98
:10204300687402F07409120A68AA82AB8379501289
:1020530019037413120A68E4124A3312192174160D
:10206300023A0D74F712036374E1120882EAFEEB7D
:10207300FFEE4F6033851882851983AC82AD8312DE
:102083000D217406120A68E0601E7417120A68E0D4
:10209300FD7401120A68E0FCEEFAEFFB7900120A04
:1020A30099E9600479A480027900024AA574F612C2
:1020B3000363EAFEEBFF8E828F83A3A3A3A3A3A3F1
:1020C300E05440601B124F2212221760067AFF7BF6
:1020D300FF801A8E828F83123699FAA3E0FB800366
:1020E300120D4574FE6A700374FF6B6041124F2238
:1020F30012448D120D99E98E828F8360061221425C
:10210300E480051221427401F07C317D0C8E828FB4
:1021130083124864121927E9F5087015EE4F600918
:102123007901EEFAEFFB120CB5A9080244BE75085B
:10213300CDAA088E828F83122149E960DF80EAE00D
:10214300240D123B6822E0240C123B68E0F9120CC8
:102153003D2274F6120363E9FEEAFF7A0F7B001255
:1021630011B3EA4B60198A828B83740CF0EEA3A33C
:10217300F0EF8A828B83A3F01244E97900802FEE7B
:10218300F9120CDF8A088B09A808A909E849601C21
:1021930088828983A3A3A3A3A3A3A3A3A3740612DF
:1021A30051ADE0F9120BF5EEF9120CBB79100244B4
:1021B300BEC082C08390036AE0640F7014EA4B6070
:1021C30010900365E064086005E064047003122165
:1021D300D7023A37EAFCEBFD7A017B009003B0E0CB
:1021E300F91212E522C082C0837900EA241DF58228
:1021F300EB12369624FD600B14600824FD60042462
:10220300FD700109023A378E828F83A3A3A3A3A390
:10221300A3A3A3A312221B221236DEFB120D99E9FC
:10222300228E828F83A3A3A3A3A3A3A3A3A3122278
:102233001B6402228E828F83A3A3A3A3A3A3A3A3BE
:10224300A3123A2E900356E068221208377F060243
:1022530005D874F412036374FD1208828A088B098B
:102263008A828B83A3A3E0F9120CDF8A0A8B0BAE5D
:102273000AAF0BEE4F700302235C85088285098346
:10228300A3E064F16030850882850983A3E064CD0F
:102293006024850882850983A3E0641A6018850891
:1022A30082850983A3E064E9600C8508828509833C
:1022B300A3E064E170087900120CB5E9706C85083D
:1022C30082850983A3E0C0E07402120A68D0E01299
:1022D3003A12EEF0A3EF122D3D851882851983AAD9
:1022E30082AB837005120B598003120D81740212A5
:1022F3000A68E064E970338E828F83122368750A5B
:1023030001780A12080E750AE9780A12080EE50820
:10231300240CF582E50912282F122D1AFCA3E0FDE7
:102323008A828B83122D341208378E828F83A3A364
:10233300A3A3A3A3A3A3A3E0640270108E828F833D
:10234300A3A3A3A3A3A3A3A3A37406F085088285D1
:102353000983A3A3E0F9120CBB120CA9900AA512DE
:1023630020200228ECE0F8A3E0F9E8FAE9FB227464
:10237300F4120363EAFEEBFF7508008E828F83A3DA
:10238300A3A3A3A3E060427508088E828F83A3A34F
:10239300A3A3A3A3A3A31239418B0BEA450B60109C
:1023A30075082C8E828F83A3A3A3A3A3E0D2E0F0AE
:1023B3008E828F83A3A3A3A3A3E0540364016003CA
:1023C30002245B43081102245BEE24181228F960EF
:1023D30033EE241A1228F9700F1222377003A3E088
:1023E3006970757508228070EE241BF582EF122444
:1023F30060241AF582EF122D45EE2419124F56125E
:102403000BE38054122224700375080112223770E3
:1024130003A3E0697006E508D2E1F508E508601555
:102423008E828F83A3A3E07006E508D2E58004E5DE
:1024330008D2E6F50812220A64017006E508D2E024
:10244300F5088E828F83A3A3E0600D12246E6401CE
:102453006006E508C2E0F508A9080228F1123684EF
:1024630012246722E0FCA3E0FDEE2212367E123630
:10247300B6F9120D87E922C082C08379018A828B63
:1024830083A3A3E0C394024001198A828B83A3A38D
:10249300A3A3E0C39402400279008A828B83A3A39F
:1024A300A3A3A3A3A3A3A3E064F87003A3E0F4602E
:1024B300458A828B83A3A3A3A3A3A3A3A3A3E064BB
:1024C300F97003A3E0F4602E8A828B83A3A3A3A3F2
:1024D300A3A3A3A3A3E064FA7003A3E0F460178AA1
:1024E300828B83A3A3A3A3A3A3A3A3A3E064FB70EF
:1024F30003A3E0F4700279008A828B83A3A3A3E091
:10250300F8900353E06860027900023A3774F012DE
:10251300036374DE120882EAFEEBFF8E828F83A3CD
:10252300A3A3A3E0600E900AA31244B56006900A29
:10253300A31220207403120A68AC82AD838E828FAB
:1025430083A3A3A3124537124D70E9600F740312DE
:102553000A68AA82AB83120C5BE97008790112182E
:10256300D9022824EE241B1236897410120A681229
:1025730045007409120A68E06021741A120A68E0BF
:10258300FD7404120A68E0FC8E828F83124862791C
:1025930001120A99E96004790280C37403120A687C
:1025A300AA82AB83120C55E9F50A7409120A68E092
:1025B300702A90034DE060247422550A6422601C43
:1025C3007442550A644270CF7420120A681228427A
:1025D300600A7420120A6812283B70BBE9A2E65015
:1025E300417403120A68AA82AB83120C49E970038F
:1025F30002255F7420120A681236996403700F74FF
:1026030020120A68A31244A7A3E0640D60147403A4
:10261300120A68AA82AB83120DABE964017003024C
:102623002824EE242C12282C122B507003A3E069CB
:10263300701C750800780812080E780812080EEE50
:10264300242E124F56122848122D341208377409BB
:10265300120A68E070030227011228481248641224
:102663000DFF8A088B09EA4509700302279E74044B
:10267300120A68E0F88E828F83A3A3E028F8A3E010
:102683003400F9E8240D1228338A828B83A3A3A391
:10269300E068601CE88A828B83A3A3A3F090803D4B
:1026A300120A45850882850983A3A3A3A3120A51AD
:1026B3007904E9120A68124D4D2AF8A3E034008820
:1026C30082F583A3AA82AB831211A78A0C8B0D8C8C
:1026D3000E8D0F850882850983A3A3A3A3780C120B
:1026E300076F4003022824908041780C1209128559
:1026F3000882850983A3A3A3A3780C120A29900354
:1027030065E064046008E064096003022824E50AC4
:10271300A2E540030227DCEE242E1228F985188255
:10272300851983F0EE242F1228F9C0E07401120AF0
:1027330068D0E0F0EE24301228F9C0E07402120AE7
:1027430068D0E0F07414120A68E064017027740E14
:10275300120A6812368FEE24121228F9687003A346
:10276300E0697011740C120A681222317007741434
:10277300120A68E4F0EE242412282C1206A374042F
:10278300120A68AC82AD837407120A68AA82AB830B
:10279300120B5F74041208370228249003AAE06422
:1027A3000160030227017420120A6812284270098B
:1027B300E50AA2E650030227017410120A68E0F446
:1027C3007003A3E0F4605AEEFCEFFD7403120A6891
:1027D300AA82AB83120C678048A2E650447420128D
:1027E3000A68124873701A741A120A68E064027055
:1027F300307403120A68AA82AB837900120D7580C4
:10280300207420120A6812283B7016741A120A6880
:10281300E06404700C7403120A68AA82AB83120D7D
:102823006F7422024C1FEE240BF582EF12368422C2
:10283300F582E9124519F822124F34E06407221297
:1028430036B6640622EE242A123681122467241235
:102853001236812274F4120363EAFEEBFF8C088DB7
:10286300099005A5E0600F1222377003A3E0697099
:1028730005120BD1804F7900124857120C018A823E
:102883008B83E58245836035A3A3A3A3A3A3E0546D
:1028930018602AE508241BF582E50912282F120681
:1028A300A7122F2D12282F1206A7EE2418124F5607
:1028B3001228CA120C137404120837800879001204
:1028C30028CA120BD780278E828F83A3A3A3A3A327
:1028D300A3A3A3A3122467240BF582EF1228E322F8
:1028E3003400F5831236DEFB2274031208377F04AB
:1028F3000205D8EE2417F582EF1245192274F71258
:10290300036374F7120882EAFEEBFF900365E06449
:1029130003600DE064016008E0640960030229CAF2
:102923008E828F83A3E0707E7C007D007A027B0021
:102933001218D3EE2402FAEF12329A12368F900352
:1029430056124500795312190979001229CFE06410
:10295300096003122D62851882851983740112445C
:10296300D69003657404F07401120A68AA82AB83DB
:10297300794A1219037401120A68AC82AD837A5B37
:102983007B031218F1900356124D667A03122D6CD5
:10299300900350E0A2E35004D2F08002C2F012444C
:1029A300C312201D801E8E828F83A3AE82AF83FC51
:1029B3007D007A037B101218D38E828F83E0F91285
:1029C30029CFE4F0120C917409024AA79003631211
:1029D30028E7120B7190036522C082C083900334F1
:1029E3001244B5701F900365E014600924FC600A6B
:1029F30014600C800F90033C8032900338802D903C
:102A0300033A8028E8496008900335122D14700CAE
:102A13008A828B83A3E0F9120B65801B9003351226
:102A23002FC97005120DC9800E9003D21244B560F0
:102A3300061244A7121AA0023A3774F412036374FD
:102A4300FB1208828A088B097A0F7B001211B38A62
:102A53000A8B0BAE0AAF0BEE4F7003022B448E8230
:102A63008F83124A317950121903850882850983AD
:102A7300A3E06003022B2C900363E0F47003A3E054
:102A8300F46034900363E064FE7003A3E0F4602712
:102A9300851882851983122B507003A3E069601790
:102AA300850882850983A374EA122D4A7A637B031E
:102AB30079501219098072851882851983124F156E
:102AC3001245007A567B0379531219039003561269
:102AD30045311245007A597B03794B1219037A5811
:102AE3007B0379E112190390036AE0C3940F502129
:102AF300900358E0C0E07402120A68D0E0F0740456
:102B0300120A687401F004120A68AA82AB831219CC
:102B13001B750A00780A12080E780A12080E900A2A
:102B2300C7E0F9122D2B1208378508828509831215
:102B33002B49A3F09003657403F0EEFAEFFB124404
:102B4300E974050228EEA3E08E828F8322124F19C7
:102B5300E06822123B6F2274F512036374D81208E3
:102B6300828A088B098A828B83A3A3A31236BB7440
:102B730015120A68AC82AD838A828B83A3A3A3A3B5
:102B8300A3A3A3A3122D1AFAA3E0FB120C977415A7
:102B9300120A68E0706B850882850983A3A3A3A347
:102BA300A3A3A3A3E0C3940B40578E828F83A3A355
:102BB300A3A3A3A3A3A3E064027046EE240B1228ED
:102BC300F9F4703D900365E06402603AE0640660E6
:102BD300359003341244B56005122D14604F9003F1
:102BE30065E064086005E0640470167417120A68EF
:102BF300E0F9741C120A68AC82AD83124857120CB8
:102C03009D74280254339003341244B5701F750821
:102C130000780812080E780812080EEE2410122805
:102C23002C124F6E123382122D341208378E828F7C
:102C3300831247D31232AC12368F7402120A68120F
:102C43004500EE240D1228F9C0E07404120A68D07E
:102C5300E0122D3DF508A3E0F509740F7808120A78
:102C63001A7405120A68E508F07419120A68E0C0BC
:102C7300E07406120A68D0E0F0741B120A68E0C020
:102C8300E07407120A68D0E0F07416120A68E0C014
:102C9300E07409120A68D0E0F07417120A68E0C001
:102CA300E07408120A68D0E0F0EE24101228F9C08C
:102CB300E0740A120A68D0E0F0741A120A68E0C0DD
:102CC300E0740B120A68D0E0F07427120A68E0C0BF
:102CD300E0740C120A68D0E0F0741C120A68A9822E
:102CE300AA8389088A09750A0078081208067C08ED
:102CF3007D007410120A68AA82AB83124064120822
:102D030037851882851983AA82AB83120B6B022C39
:102D130004122FCF640122E0F98A828B83A3A3A339
:102D2300A3A3A3A3A3A3E022900363124D6A90037A
:102D3300591228E7120D57740222F0EE240B1245A4
:102D43001622124519FA22F07A567B037953122D73
:102D530055221219097A597B03794B1219092290CA
:102D630003631228E7120DF9227B001218D3900394
:102D730059124D6A7A047B001218D322F0124F794C
:102D83002274F212036374F8120882EAFEEBFF8CDA
:102D93000A8D0B890C851882851983AC82AD8375E6
:102DA300838075822A740812074EF50DEEFCEFFD41
:102DB300851882851983AA82AB8312473470037501
:102DC3000D019003B1803BEEFCEFFDE508240BFA07
:102DD300E5093400124733601E850882850983A301
:102DE300A3E0650C7011850882850983E0650A708C
:102DF30004A3E0650B6038E5082414F582E50912A5
:102E0300282F1232A4E50845096024E50DA2E0400D
:102E1300B6850882850983E0650A7004A3E0650B23
:102E230070D5850882850983A3A3E0650C70C8AAC1
:102E330008AB09740802224DC082C0839003B1021B
:102E43003A3474F71203639003B11236DE8012EA48
:102E53002414F582EB12282F1236BB121237EEFA26
:102E6300EFFBEA4B70E99003B1E4F0A3F0024AAA46
:102E73007F070205D874F1120363EAFEEBFF890AA8
:102E83008C088D098E828F83E08C828D8312394B5F
:102E9300AE82AF83E0124124124095C41241241242
:102EA3002F36E054038C828D83124093A2E2E433E5
:102EB3008C828D83124092131313541F12412412D8
:102EC3004091A2E7E4338C828D83A3A3A3A3122FA3
:102ED300368E0C8F0D750E00780C1208067C087D5B
:102EE30000E5082407124CD9120837124D448E0C02
:102EF3008F0D780C1208067C037D00E508240F1261
:102F03004CD9120837E50AC3940F40148E828F837D
:102F1300A3A3A3E0C0E0122F2D12282FD0E0800638
:102F2300122F2D1251A1F0022E73E5082412F582FF
:102F3300E50922A3A312394F0EAF832274F41203BF
:102F43006374F9120882EAFEEBFF890890033412D6
:102F530044B5600E122FC97009EEFAEFFB120DC3D0
:102F6300805F900363E06E7003A3E06F705374019E
:102F7300650860097A777B0312473470447A007BD3
:102F8300021234F38B0BEA450B7036900366120A78
:102F930045851882851983120A5190036CE0C0E0BD
:102FA3007404120A68D0E0F07405120A687401F020
:102FB3007406120A68124A31120B35E9609B120B30
:102FC3003B74070228EE122FCF640222124F35A35F
:102FD300A3A3A3A3A3E02274F51203638A088B09B6
:102FE3008A828B83A3AE82AF83E0F9120B898E8230
:102FF3008F83E064EB600C850882850983A3E0641A
:10300300E17009850882850983A3E4F012201D7508
:103013000A01780A12080E850882850983A3E0F560
:1030230008780812080E7900122D2B120837120C9B
:10303300A9025436EAF0A3EBF0023A3774F612030E
:10304300639003B4E0701B7C0079017A007B00126B
:103053000CD9EA4B600C8A828B831244B56003124D
:103063000C370244BEC082C0831234DB401079FFA8
:10307300120CD3E9F8901E08E493C3985004790125
:1030830080027900023A3774F01203638A088B09CD
:10309300890B750C008A828B83A3A3A3A3A3A3A389
:1030A300A3E0F9120CDF8A0E8B0FAE0EAF0F750A79
:1030B30001EE4F6003023168850882850983A3A36B
:1030C300A3A3A3A3124D66850882850983A3A3A3A3
:1030D300A3A3A3A3123E64124864120CC78A0C8BE9
:1030E3000DAE0CAF0DEE4F700302328B8E828F83C9
:1030F300A3A3A3A3E4F0A3F0E508240B123297E003
:10310300C0E0122829D0E0F0120D9FEE240CF582C6
:10311300EF124489E508240EF582E50912368CEE98
:10312300240EF582EF1244FD750C01EE2406F8EF30
:10313300123293547FF0A3E054FC124FCBE05404BB
:1031430060030231EE900AA9123E55740778081203
:1031530009388E828F83A3A3A3A3A3A3E04508F01A
:10316300A3E04509F08E828F83A3A3A3A31232A207
:1031730074077808120A1AE5085407F508E50B6086
:103183007A8E828F83A3A3A3A3A3A3A3A3A374026F
:10319300124096240D123B64E0A2E2500B900351BF
:1031A300124531A3A3124500E5087003023260EE15
:1031B3002406F8EF3400F9E8FAE9FB8A828B83E00E
:1031C300547FFCA3E054FCFDE50824FFF508E43438
:1031D300FFF50974077808120938EC4508F8ED453E
:1031E30009F98A828B8312450080728E828F83A3B2
:1031F300A3A3A3A3A3E04480023167E50870057588
:103203000A0080598E828F83A3A3A3A3A3A3E054B0
:103213002060121211ADEA547F245F8E828F83A344
:10322300A3A3A380238E828F83A3A3A3A3A3A3E03B
:103233005410600A1211ADEA540F240A80DD8E8205
:103243008F83A3A3A3A37401F0A3E41232AC740489
:103253001234EA8B09EA4509700312447CE50CA297
:10326300E050288E828F83A3A3A3A3124A97F9EE7B
:10327300FAEFFB120CCDE960121244AB6003123675
:1032830074EEFAEFFB121237750A00A90A024C22F8
:103293001245F422FAE5093400FB8A828B8322A3C8
:1032A300A3E0F508A3E0F509221232B022124CF58F
:1032B300A3A3A3A3A32274F412036374F7120882D3
:1032C3007E00120CDFEA4B700302337B8A828B830E
:1032D300A3A3A3A3A3A3A3A3A3E06406600302334E
:1032E3007B8A828B83A3A3A3A3A3A3A3E0FF8A82E6
:1032F3008B83123B77E0C0E07408120A68D0E012B7
:1033030036AF12473A124500120CF1EF54086066CB
:10331300851882851983124D667A007B00120CC1D1
:103323008B0BEA450B704F90036312379F121933CF
:103333007C007D007A007B0080288E828F8312368A
:1033430099F47003A3E0F4602D90036312338212A7
:10335300486412160FE9641A601C7C007D00EEFAC3
:10336300EFFB120CC18A0A8B0BAE0AAF0BEE4F7048
:10337300C979001219397E01EEF974090228EE1297
:10338300338622E0FCA3E0FD8E828F8322C082C0BD
:1033930083EA4B70059003B580068A828B83A3A3CF
:1033A30012359F60258A828B83A3A3A3A3A3A3A320
:1033B300E0540860E5EC4D60158A828B83123699E0
:1033C3006C7003A3E06D70D280047A007B00023A34
:1033D3003774F2120363EAFEEBFF890A8C088D0946
:1033E3007A107B00121231EA4B603F8A828B83A3EF
:1033F300A3A3A3A3A3A3A3A3E412369DA3E50A1245
:103403004F3BA31234378A828B83A3A3A3A3E4F095
:10341300A31236A9A3F0124DCFEA240CF582EB12C6
:10342300393B123430A3A3F0A3F0022250A3F08A55
:10343300828B8322A3A3E508F0A3E509F02274F4A9
:10344300120363EAFEEBFF89088C0A8D0BEE4F60D3
:10345300557401650870147901120CD3E9F8901EB4
:103463000CE493C398500F7911806A740465087053
:103473002F1234DB40F18E828F83A3A3A3A3A3A3D4
:10348300A3A3A3E50812394BA31254C08E828F83E2
:10349300A3A3E4F0A3F09003B51244B56021800D1B
:1034A3007402650860D079C1802BE0F8A312452A25
:1034B300A3A312359F88828983A3A370ED80039011
:1034C30003B5EEF0A3EF1234EA8B0BEA450B70035E
:1034D30012447C79000228F17904120CD3E9F890A4
:1034E3001E13E493C39822F01234EF227A207B0058
:1034F3009003B0E0F91212F722C082C083E9F87991
:10350300009003B5801D8A828B83A3A3A3A3A3A3E7
:10351300A3A3A3E068600574FF687001098A828B26
:1035230083A3A312359F70DE023A3774F712036345
:10353300EA4B70059003B580068A828B83A3A3129E
:10354300359F60248A828B83A3A3A3A3A3A3A3A3EE
:10355300A3E06970E4EC60148A828B83E0240D128B
:103563004D57A2E240D380047A007B00024AAAC0EE
:1035730082C0839003B580068A828B83A3A312350E
:103583009F60128A828B83A3A3A3A3A3A3A3A3E015
:103593006970E580047A007B00023A371228E7EA73
:1035A3004B2274F21203638A0A8B0B8C0C8D0D75FC
:1035B3000800750900EA450B602E9003B580068E5E
:1035C300828F83A3A31235F2601EAC0CAD0DEEFA0D
:1035D300EFFB850A82850B83121AA0E9640170DF71
:1035E300EEF8EFF988088909AA08AB09022250E02E
:1035F300FEA3E0FFEE4F2274F71203639003B512AC
:10360300368F7C007D00800DE8FCE9FD888289838C
:10361300A3A312368FE8496030EA687002EB697041
:10362300E79003B5124864E86A7002E96B888289FF
:1036330083A3A3700812368F9003B5800912368FC7
:103643008C828D83A3A3124500024AAA74F7120346
:1036530063EAFEEBFFEE4F6015120CEB1236C1125C
:1036630044AB6003123674EEFAEFFB121237024AD0
:10367300AAEE240C1236811236D622EE241DF582D0
:10368300EF3400F58322F582EF123684123A2E22AC
:10369300F582EF1236841236B6221236A122124F69
:1036A30043A3A3A3A3221236A1A3A322123431124C
:1036B30036B622124F2EE022E0FEA3E0FF228E82D6
:1036C3008F83E0241C123B681236D68E828F8312BE
:1036D30036D6221236DEFB12123722E0FAA3E0229C
:1036E300C082C083EAFCEBFDEC4D70047905804495
:1036F300EC24FBF582ED34FF1244B3700712373A22
:10370300E0F460051211B980E39003B0E0C0E01269
:10371300373AD0E0F0901E09E493F97AB77B0312AD
:103723001A95E96401700B7A007B201244807900BA
:1037330080027904023A37EC24FFF582ED34FFF579
:10374300832274F4120363A2AFE433F508C2AF908B
:1037530003B71235F26038EE24FBF582EF34FF1223
:1037630044B37A007B209003B06005124483800544
:10377300E0F91211EFE4F50AF50B780A12080AEEE4
:10378300FCEFFD7AB77B031211DD7402120837E5F3
:1037930008A2E092AFEEFAEFFB0228F1124D6A8520
:1037A3001882851983AA82AB832274F2120363748D
:1037B300FC120882EAFEEBFF750AFE750BFF120C82
:1037C300AFE960057911023930EE24151228F9604A
:1037D30037900ABDE0C43354E0F8E0333354FC4877
:1037E300C0E0EE241512282CD0E012394B123941D7
:1037F3008B09EA45096011750AFFEE240F1228F9B7
:10380300440412450ED2E0F08E828F83122215609B
:1038130006EE2412123938EE24131228F970109090
:103823001E0FE493C0E0EE241312282CD0E0F08E98
:10383300828F83E0A2E750045403801CEE24141209
:1038430028F97015900342E0C0E0EE241412282CEE
:10385300D0E0F0900342E004F0EE24111228F96462
:1038630001701690059CE0600D90034DE0700A8E88
:10387300828F83E070031239358E828F83E0640177
:103883007013EE240B12369364027009EE240F12A8
:1038930028F94440F0851882851983AC82AD83EE04
:1038A300FAEFFB120D158A088B0974FE650A700383
:1038B30074FFF470098E828F83A3A3124CE5EA454B
:1038C3000960668E828F83E0C0E07401120A68D0BB
:1038D300E0F07402120A68124DD37401120A68856B
:1038E300820C85830D780C12080AEE240F12282C03
:1038F3001206A7EE240E1228F9F50C780C12080E06
:103903009003561206A77407120A68E0F9AC0AADD1
:103913000B120D0F7407120837E9FE74106E700B4B
:10392300AA08AB0912123780027E10EEF974040262
:10393300224DEE2411F582EF123684E4F022A31215
:1039430028E779FF1212432212394F22F08E828F19
:1039530083A322C082C08374DE1208828A828B838F
:10396300A3A3A3A312368F740E120A68E8F0A3E987
:10397300123A25740C120A68123A1E240DF582EBD2
:103983001228FCC0E0741A120A68D0E0F0124C321C
:10399300EB12368C7420120A68123A1E2415F58233
:1039A300EB1228FCC0E07408120A68D0E0F0EA24A5
:1039B3001CF582EB12368C7412120A68123A1E241A
:1039C30011F582EB1228FCC0E07409120A68D0E0FA
:1039D300123A1274FFF07401120A6874FFF0740251
:1039E300120A6874FFF090803D1206A37404120A51
:1039F30068AC82AD837407120A68AA82AB83120B88
:103A03005F74041208377900742212083780251274
:103A13003A1622F085188285198322E8F0A3E9F08B
:103A2300EA22123431A3123A2D22A3E0F8A3E0F9DB
:103A330022124864D083D0820207B374EC1203636A
:103A430074EE1208828A128B13ECFEEDFF8909745F
:103A530026120A68124CE57428120A68E0F51074FD
:103A630029120A68123B59742B120A68E0F50EA357
:103A7300E0F50F7508107A1E7B00121231740212E2
:103A83000A6812448D7402120A681244B570030264
:103A93003B52851882851983AA82AB8379501243DE
:103AA300681248647402120A68123B77A312448DA9
:103AB3007410120A681254C27402120A68E0240BCA
:103AC300123B647402F0120A68123B777402F0121C
:103AD3000A68124F26124DD37402120A68124879EB
:103AE300E509F07402120A68E0240C123B64E51045
:103AF300F07402120A68123B61E512F0A3E513F0B9
:103B03007408120A68E50CF0A3E50DF0740A120AB2
:103B130068E510F0850E82850F83C082C083740D23
:103B2300120A68AC82AD83D083D082740312074E2D
:103B3300F97402120A68AA82AB83120CB5E9640114
:103B4300700575080080087402120A6812367AA993
:103B5300087412024CFCE0F50CA3E0F50D22E024FE
:103B63001C123B6822F8A3E0123B6F223400F98851
:103B73008289832212486CA3A3A3A3A32274EE1207
:103B83000363EAFEEBFF8C088D098E828F83A37497
:103B930008124549E060088E828F83A37410F012E7
:103BA30028F660098E828F83A3E02408F0EE2415A3
:103BB3001228F960088E828F83A3E004F08E828F2F
:103BC30083A3A3A3A3A3A3E060198E828F83A3A3DC
:103BD300A3A3A3A3A3E0C3332402F88E828F83A3FA
:103BE300E028F0EE24111228F96005750B0E80030E
:103BF300750B008E828F83A3C082C083EE240D12C7
:103C030028F9D083D082F8E028250B8C828D83F0AD
:103C1300EE24111228F9600512407428F0850882F9
:103C2300850983E0C394754009750800750900028E
:103C33003D62E0FA7B00124E817003023D62EEFAB0
:103C4300EFFB120D1BEA85088285098312448EEE71
:103C53002402F8EF122B56123E5C123D9EF0EE2426
:103C6300040808EF122B5612429EA3123D9EA3A3F3
:103C7300F0EE2413123D84F0EE2414123D84A3F0DD
:103C8300750A08EE24161228F96010EE2418124D56
:103C930063E5082408124F64750A101228F66016AB
:103CA300EE241A124D63850A0CE508250C124F64A5
:103CB3007408250AF50A8E828F83A3A3A3A3A3A363
:103CC300E06059EE2407F510EF3400F511851082FA
:103CD300F583E0C0E0123D6B12282FD0E0123D8E39
:103CE300E0C0E0123D6B12282FD0E0123D8EA312EC
:103CF3003D77120806851082851183E0C333FCE407
:103D030033FD850A0CE508250C124CD912083785BA
:103D13001082851183E0C333250AF50AEE241512B8
:103D230028F9600BC0E0123D6B12282FD0E0F0128F
:103D33002829123D77120806EE240D1228F9FC7D7E
:103D430000850B0A8E828F83A3E0F8E50828F8E547
:103D5300093400F9E8250AFAE9124CDC120837AAFB
:103D630008AB097F0A0205D8850A0CE508250CF57E
:103D730082E50922E0F50CA3E0F50D750E00780C41
:103D830022123681123DA8A3A3A322F0050A8E8234
:103D93008F83A3A3A3A3A3A3A3A322A3A3124FCF5E
:103DA300A3123DA8221242A2A3A32274F612036314
:103DB3008A828B83E0FC900353123E557402780889
:103DC300120938EC4508FCAD09EA2412123E4F747F
:103DD300067808120938EC4508FCED4509FDEA248C
:103DE30015F582EB1228FC6004780180027800E468
:103DF300C8F9ED49FDEA2411F582EB1228FCF50818
:103E0300880974097808120938ED4509FDEA241672
:103E1300123E4F740B7808120938ED4509FDEA2468
:103E230017123E4F740C7808120938ED4509FD8AC4
:103E3300828B83A3A3A3A3A3A3123E55740A78087A
:103E4300120938ECFAED4509FB0244BEF582EB1288
:103E53003684E0F50875090022E085088285098328
:103E630022A3E0F98508828509832274EE12036395
:103E73008A0A8B0BECFEEDFF750F01E9C394085022
:103E83000579000240618E828F83E9F01242C7E90F
:103E93006003750F001242AB8E828F831242F5EEE0
:103EA300124C33EF1242EAC0E0EE241112282CD058
:103EB300E01242E2C0E0EE241212282CD0E01239C4
:103EC3004B7408124CEDA3A3A3E06015124293EECA
:103ED3002413F582EF1244FD8E828F83A3E024081E
:103EE300F08E828F83A3A3A3A3A3A3A3A3E0602144
:103EF3008E828F83A38582088583091242D6EE249E
:103F030015F582EF1244FD850882850983E02408B4
:103F1300F08E828F83A3A3A3A3A3E0601A8E828F64
:103F230083A38582088583091242BA8E828F83A375
:103F3300A3A3A3A3124086EE2419123938EE241B3F
:103F4300123938A3124541E07003023FF5EE2419FC
:103F5300F8EF3400F98E828F83A385820885830965
:103F6300E0FAE50A2AF582E50B1228FC88828983A8
:103F7300124086FAE50A2AF582E50B1228FCC0E016
:103F8300EE241A12282CD0E012408688828983E01E
:103F93006059F8901E12E493C398500575110C8074
:103FA30008EE24191228F9F5118E828F83A3E0F805
:103FB300E50A28F50CE50B12406A120806E511C361
:103FC30033FCE433FD7A707B09124064120837EE48
:103FD300241B12282C7470F0A37409F0E511C33369
:103FE300F8850882850983E0288006EE241812519B
:103FF3009EF08E828F83A3E0F88E828F83E0C39836
:104003005003023E84A3E0FA8A08E50A2508F8E58E
:104013000B3400F9EE241DF582EF12460912409687
:10402300C39AC0E0EE241712282CD0E01245066094
:104033002BEE2417F8EF3400F9880889098882F5F4
:1040430083E024F21245EA240EFAA3E03400FB884D
:1040530082898312448D124074C398F0A90F023DE4
:10406300661211957403223400F50D750E00780C59
:104073002290034EE0F9120A9FE9F8850882850928
:1040830083E022F0850882850983E004F022A3A35C
:10409300A3A3A3F08E828F83E02274F41203638AB6
:1040A300088B09EA12412BF0EA1313543F124124FF
:1040B300A3A3A3F0EAC4131312412BA3A3F0EB129F
:1040C300411D1241357409780A120A1A12411B1252
:1040D3004134740A780A120A1AE50A5401C0E0EC62
:1040E3002418F582ED12282FD0E012413A740B7890
:1040F3000A120A1A12411BA3124134740C780A12D1
:104103000A1A12411BA3A3A3A3A3A3A3A3F0740D91
:104113007808120A1A02245BE50A54018C828D8303
:1041230022540F8C828D832254038C828D83A3A30C
:1041330022A3A3A3A3A3A3F08A0A8B0B22C082C04A
:104143008379008A828B83A3A3A3A3A3A3E0900311
:104153004D600FE070228A828B83A3A3E07019095C
:104163008016E060138A828B8312485B900356E0CB
:104173006A7003A3E06B70E7023A3774F0120363CB
:104183008A0A8B0B890C8C088D091242C71242AB29
:104193008508828509831242F5E508124C33E50947
:1041A3001242EAC0E0E5082411F582E50912282F3E
:1041B300D0E01242E2C0E0122F2D12282FD0E012DD
:1041C3004611740812462A6011124293E50824131B
:1041D300124605124611E02408F0850882850983FA
:1041E300A3A3A3A3A3A3A3A3E060178508828509C0
:1041F30083A31242D2E508241512460512409624E1
:1042030008F0850882850983A3A3A3A3A3E060190B
:10421300850882850983A3AE82AF831242BA8508DB
:104223008285098312409104F0AA08AB09120D2D6F
:10423300E9F50D7056850882850983A3A3A3A3A37B
:10424300A312429E7014E0FA8A0EE50A250EF8E5E1
:104253000B1244F2E50CC39A80211242D2E8240ED9
:10426300F8E91244F290034EE0F9120A9F8E828F0E
:1042730083E0F8E50CC39824F2C399C0E0E5082471
:1042830017F582E50912282FD0E0F0A90D024C2280
:10429300E50A2408F8E50B3400F9221242A222E0D1
:1042A300850882850983A322850A82850B83A3A3BC
:1042B30012430BE0F9EA22E0F8E50A28F582E50B60
:1042C300124519228A828B83124C27120D2722AEA4
:1042D30082AF83E0F8E50A28F8E50B3400F92212EF
:1042E300431EA3A3A3E022123684E8124317A3A319
:1042F300E022A3A3A3A3A3A3A3A3A312431712433D
:104303000BA3A3E0F9EAF822E0FA850A82850B837E
:10431300A3A3A322F0A3E912431E22F0850A8285F8
:104323000B83A3A3A3A322C082C0837AC57B037993
:10433300E21219037AC57B03023A37C082C0839025
:104343000356023A34C082C08374FE120882851871
:1043530082851983AA82AB83794B1243681248641E
:104363007402023A0D12190385188285198322C03B
:1043730082C083794A121903023A3774F61203632F
:104383009003CDE0FE04F0EEF9120CDF8B09EA4551
:104393000970EDEE60EAF90244BE74F0120363EAB9
:1043A300FEEBFF8C088D09890A7410120A68E0F588
:1043B3000B7411120A68E0F50C120DFFEA4B70132F
:1043C300E50C7042A90AAC08AD09EEFAEFFB120E38
:1043D30017806EE50A6021EA2402F582EB1228FCBD
:1043E300850A082508F8E4340013E813F070098AF5
:1043F300828B83A3A37401F0E50C6045E50B700683
:104403008A828B83E4F07401650C7035E50B9003AD
:10441300D47004E4F0802AE004F0900AAAE0F89053
:1044230003D4E0C398401AE4F0900359E06E70039C
:10443300A3E06F700CEEFAEFFB7901120B831244C9
:1044430047024C227A017B009003B0E0F91212F18B
:1044530022C082C08374016A7001EB70077A011273
:10446300447E8012900AA112448DEA4B600512210A
:10447300D78003124447023A377A207B009003B077
:10448300E0F91211E9223400F583EAF0A3EBF022FC
:10449300C082C083900AA3023037C082C083900ACF
:1044A300A5023037124F3522EE240CF582EF34008B
:1044B300F583123A2EE849221208377F020205D803
:1044C300A2F0E4338518828519831244DF795212EE
:1044D3001909221244DF794212190922F0AA82AB88
:1044E3008322AA08AB099003B0E0F91211BF22346A
:1044F30000F9E508241DF582E509123684E8F0A3E6
:10450300E9F022124CF1A3A3E022A3F0EE2415124A
:10451300451622F582EF3400F583E022124523226B
:104523003400F583E0F8A3E0F98882898322E0F878
:1045330012453722A3E0F98E828F83A3A322F0EEE4
:10454300241812368122F0EE24161236812274F4D6
:10455300120363EAFEEBFF7A007B0412444B12451D
:10456300E01245009003657409F0120D398A088B37
:1045730009AC08AD09EE241312282C124864124723
:1045830034640170487A0F1245D360418A828B8369
:1045930074021245EAFAA3E0FB8A828B83A3E0FC50
:1045A3008A828B83A3A3E0FBEC850882850983A31E
:1045B300A312448E88828983124868123E5C124596
:1045C3000DFAA3E0FB794A1219091244E50228F116
:1045D3007B001211B38A088B09EA4509229003363E
:1045E300123A2E900AA522F0EE241DF8EF1245F49C
:1045F30022123B6FE0221245FD223400F583740141
:10460300F022F582E509123684E8F0A3E922124686
:10461300152212461922F0850882850983A32212E6
:104623004619A3A3A3A322124622A3A3E022124A5C
:104633003B120D8D22EE2417F582EF1245FD120D6C
:1046430039EE241A123681EAF0A3EBF02274F41245
:10465300036374F31208828908EAFEEBFF7C0D7D85
:10466300007900851882851983AA82AB831211A170
:10467300EE241D12282C124F26A3E0F8741F586055
:104683000A79011218D9790002472BE8A2E55008EC
:10469300740C120A687401F0E8A2E75008740B1254
:1046A3000A687401F0E8A2E6740A5008120A6874F2
:1046B30001F08008120A68E064017005EE2413809B
:1046C30003EE2415124D637402120A68AA82AB83A7
:1046D3001218F1122829124739124500740A120AD6
:1046E30068E06401703312220A703B120D458A0A96
:1046F3008B0BA80AA90BEE240B1228F9687003A3ED
:10470300E0697022120D39EAFCEBFD7402120A68AB
:10471300AA82AB83124734600D851882851983AA58
:1047230082AB83120B7DA908740D0228EEEEFAEF1B
:10473300FB1218EBE922E012473E22F8A3E0F985C9
:1047430018828519832274F612036374F3120882A4
:104753008A088B09ECFEEDFF7C0D7D00790085183E
:1047630082851983AA82AB831250CBA3A3A3A3A3ED
:10477300A3A3A3A31247D31247DCF8A2E5500874FE
:104783000B120A687401F0E8A2E75008740A120ACF
:10479300687401F0E8A2E6EE5004241380022415A5
:1047A300124D637402120A681247C5A3A3E0C0E066
:1047B300740C120A68D0E0124A33120B77740D029C
:1047C30044BBAA82AB831218F18508828509832230
:1047D300E012473EE8F0A3E922F012367E124F2A98
:1047E300A3E02274F712036374E1120882EAFEEB7A
:1047F300FF8E828F83124868A3A3A3E0A2E05051E7
:104803008E828F8312236A8A828B83A3A3A3A3A39B
:10481300A3E054FE1248808A828B83124879E0F920
:104823008A828B83E0241CFAA3E012329A12486432
:10483300120D33E9701B741D120A6812487370114C
:10484300851882851983AC82AD83EEFAEFFB120DD6
:104853007B024AA58E828F83A3A3A3A3A3A3A3A3AF
:10486300A31228E72212486C22124F2EA3A3A322DD
:104873001236B6640422E0241B123B6822123A1655
:10488300AC82AD8322E9F87900740468600A740A83
:104893006860057403687001090207B374F61203B4
:1048A300638A828B837420F0A3A37401F0120B2913
:1048B3008A088B09AE08AF09EE4F60108E828F8392
:1048C3007401F09003A3E07003124638EEFAEFFB95
:1048D3000244BEC082C0839003B97401F0E9A2E32D
:1048E30050037403F0E9A2E15004E0D2E2F0023A8B
:1048F3003774F612036379007C008A088B09780801
:1049030012061EF8FF072749254925492549254948
:104913001E49224927491B490C80097C0480050C48
:1049230080F67C089003B9E05C6003098003EC60C7
:1049330001090244BE74F61203638A828B83E0701A
:1049430012A31244B5600C8A828B83124863121936
:10495300DB80047A007B000244BE74F512036374A7
:10496300F31208828A088B09ECFEEDFF750A12EA3E
:10497300450970057900024A2C900356E0650870DA
:1049830004A3E065097014120D39EAFCEBFD12472C
:10499300307005750A018003750A00851882851930
:1049A30083E4F004120A68E508F0A3E509124A3328
:1049B300120AEDE960277403120A68AA82AB831214
:1049C3000ACFE964017016750A017403120A68AC10
:1049D30082AD831247306021750A00801C74126512
:1049E3000A70169003A2E06402700EEEFCEFFDAABB
:1049F30008AB09120B05E970DFEEFCEFFDAA08AB6B
:104A030009120E05E9F8740A687005750A01801722
:104A130074A0687012EEFCEFFDAA08AB09120E1128
:104A2300AA08AB09120E23A90A740D0254337402A7
:104A3300124A3722124A3B22123A16AA82AB832227
:104A430074F7120363EAFEEBFF8E828F83A3A3A3A3
:104A5300A3A3A3A3A3E06015EE241512282C122808
:104A6300D7120DA5E964017004790180258E828F28
:104A730083A3A3A3A3A3A3A3E06015EE2413122887
:104A83002C124A97FAA3E0FB120DA5E9640160D941
:104A930079008013123386A3A3A3A3A3A3A3A3A381
:104AA300E022741F1208377F010205D874F0120345
:104AB3006374FD1208828A088B09ECFEEDFF890BF3
:104AC3007413120A68E0F50C750A017401120A687E
:104AD3007404124F5E6048E50C601DEA2417F582EA
:104AE300EB1251A1124F4C8A828B83E0D2E7F0EA9A
:104AF3002414F582EB12393B124C32EB12451F742E
:104B0300031254C4EE88828983A3A3F0EF888289B9
:104B130083A3A3123430123437120B23E9F50AA905
:104B23000A7403024C1F74EC12036374F5120882B7
:104B33008A0A8B0B890C8C0E8D0F741F120A68E086
:104B4300F50D7420120A68E0F510A3E0F5117E015B
:104B5300EE120A68740AF0E97007E50DC333240AFC
:104B6300F0124D047003024C06124D197409F0A3A0
:104B7300E50CC43354E0450D124D2BE50C702D7C30
:104B8300008023ECC333F8E433F9E51028F8E5118A
:104B930039F988828983124C1388828983122B49BD
:104BA300F0A30EAF830CECC3950D40D7E508241793
:104BB300F582E5091245F9120D39E508241AF58243
:104BC300E5091244897403120A68AC82AD83AA0A08
:104BD300AB0B120AD5E96019E5082416F582E5093D
:104BE300124C0D120A68A882A983E50824181244FE
:104BF300F98508828509831254C0AA08AB09120BF0
:104C030023E9FEEEF9740B024CFC1245FD740322FA
:104C1300E08E828F83F0A3AE82AF83221208377FA8
:104C2300080205D81236DEF9EA2400E439FB22EA49
:104C3300240BF5822274EE1203638A0C8B0D890E0A
:104C43008C088D097412120A68E0F50F7413120AA6
:104C530068124CE590050B1244B56077E50FC3333A
:104C6300F8E433F9E8240EFAE93400FB1211B38AAD
:104C7300108B11AE10AF11EE4F60588E828F83747C
:104C8300D4F0A3A3E50CF0A3E50D124CEDE50EF073
:104C9300AC08AD09EE2405FAEF124F67EE240D12AE
:104CA300282CE50FF0850A08850B09750A0078089A
:104CB300120806E50FC333FCE433FDEE240EFAEFCE
:104CC300124CDC120837EEFAEFFB90050B124F265D
:104CD300121AA0023D66FAE5093400FB121195741D
:104CE3000322E0F50AA3E0F50B22124CF122124C49
:104CF300F52212394FA3A3A3221208377F0C020512
:104D0300D8851882851983AA82AB83120D8D8A08F0
:104D13008B09EA450922EA240BF582EB124519FEB9
:104D2300A3E0FF8E828F8322F0A3AE82AF83AC0E0B
:104D3300AD0FEEFAEFFB124D3D221218F1124D4466
:104D430022EE2408FEEF3400FF22E0FA8E828F83E6
:104D5300A3A3E022FEA3E03400FF8E828F83E02230
:104D6300123681124D6A22E0FCA3E0FD221228E7ED
:104D7300120D212274F6120363EAFEEBFF9003BACD
:104D8300801388828983E06E7003A3E06F603A88A2
:104D9300828983A3A31244B570E87A047B001212BC
:104DA300318A088B09A808A909E849601C88828907
:104DB30083124DD39003BA12486488828983A3A3D4
:104DC30012448D9003BA1245000244BE8A828B833B
:104DD300EEF0A3EFF02274F41203637E009003BAA3
:104DE30080070E88828983A3A31244B570F4EEC3AF
:104DF30033FAE433FB124E81607E7F009003BA8066
:104E03002488828983124D66EFC333FAE433FBE5CA
:104E1300082AF582E5093BF583ECF0A3EDF00F8852
:104E2300828983A3A31244B570D79003AB122244A3
:104E33007003A3E0697808701912080AEEF50A787E
:104E43000A12080E7C777D0379009003AB124E8C17
:104E5300801A12080AEEF50A780A12080E7C777D8A
:104E63000379009003AB124864120DB77403120860
:104E730037AA08AB09121237120B3B0228F11212A0
:104E8300318A088B09EA4509221228E7120DBD224F
:104E9300C082C08380128A828B83A3A312368F9031
:104EA30003BA1245001212379003BA12359F70E607
:104EB300023A3774F61203639003631236BB90030E
:104EC300CE124F151245007ACE7B03795012190981
:104ED3009003CE122463FAEFFB120E1D9003CE1241
:104EE30036BB90050D1244B560257A067B0012117E
:104EF300B3EA4B601A8A828B8374D5F0A3A3E412BE
:104F03004F3B04124F4C90050D124F26121AA0026C
:104F130044BE124F1922E0F8A3E0F9900363228EF6
:104F2300828F83124F2A22124F2E22E0F8124F341F
:104F330022A3E0F583888222124F3F22124F43229D
:104F4300F08A828B83A3A3A322124F3FA3EEF0A385
:104F5300EFF022F582EF124519F922124631EA4B9E
:104F630022FAE5093400FB1218F122124538A3A3F3
:104F7300A3A3A3A3A322901E0AE4932401F8E43479
:104F830000F97A027B002274F71203637E00800427
:104F93001255770E12509B40F77E00EE124FB674F7
:104FA300FEF0A304124FCBE4F00EEEC3940340EBE8
:104FB300024AAA75F003A4F8A9F074BC28F8740394
:104FC30039F988828983A322124FCF22F0888289FC
:104FD300832274F71203637F0080010F901E07E49E
:104FE30093F8EFC3985026EF1251876A7003A3E03A
:104FF3006B70E81255246C7003A3E06D600A74FFB4
:105003006C700374FF6D70D312509280047A007B2E
:1050130000024AAA74F61203637CFF7DFF7AFE7BCB
:10502300FF120DE1EA4B70407508008036E5087504
:10503300F017A4F8A9F0740B28F58274081251999B
:10504300600C740A28F5827408125199701374FC69
:1050530028FE740739FF8E828F831251A6EEFAEF72
:10506300FB050812510140C50244BE74F4120363E8
:105073008A088B09ECFEEDFF800B120DF3EEFCEFBB
:10508300FDAA08AB09120DE1EA4B70EE0228F17498
:10509300FC28FA740739FB22901E07E493F8EEC349
:1050A300982274F7120363EAFEEBFFEE4F601012CF
:1050B30050C574FEF0A3041254CA14F0A304F00202
:1050C3004AAA7C177D0079001211A18E828F832258
:1050D30074F7120363EAFEEBFF7508008018E50816
:1050E30075F017A4F8A9F012552F7003A3E06F60B1
:1050F3000312557F050812510140E3024AAA901E8C
:1051030007E493F8E508C3982274F6120363120DBB
:10511300E18A088B09A808A909E849600AE8240D6F
:10512300FAE93400FB80047A007B000244BE74F485
:105133001203638A0A8B0BECFEEDFF7508007509F9
:1051430000802EE50975F017A4F8A9F012556A60DE
:105153001EE509125187650A7004A3E0650B70030D
:1051630075080AEEFCEFFD12542660034308A00500
:1051730009901E07E493F8E509C3985004E5086015
:10518300C202245B75F017A4F8A9F012519222749D
:10519300FC28F582740739F583E022F582EF123695
:1051A30084E4221228E7120C1922124FCFA3A3A3DF
:1051B300A3A3A3A3A32274F21203638A088B09ECAB
:1051C300FEEDFF740E120A68124CE5750C007C00AC
:1051D3007D0180101211ADE50CF5F0EA84ACF07599
:1051E3000C007D007800790080031253631253BFD3
:1051F3004003025285E8FAE9FBEA75F017A4FA8541
:10520300F00D75F017EBA4250D12539B7003A3E06B
:10521300F460D712537965087004A3E0650960CA86
:105223001253796E7003A3E06F60BF125379650A5E
:105233007004A3E0650B60B2E8FAE9FBEA75F017C6
:10524300A4FA75F017EBA4250DFB740A2AF58274F2
:105253000812535A509474016D050C608DE50CC30C
:105263009C4087E875F017A4F8AAF075F017E9A435
:105273002AF974FC28F582740739F583124864020D
:1052830053577800790080031253631253CC4003C1
:1052930002533EE8FAE9FBEA75F012A4FA85F00D31
:1052A3001253AB64FE7003A3E0F460DC1253A165F8
:1052B300087004A3E0650960CF1253A16E7003A3C5
:1052C300E06F60C41253A1650A7004A3E0650B602C
:1052D300B7E8FAE9FBEA75F012A4FA75F012EBA449
:1052E300250DFB748B2AF582740612535A5099E8E4
:1052F300FAE9FBEA75F012A4FA75F012EBA4250D96
:1053030012536C64016081E06402700302528B7477
:10531300016D050C700302528BE50CC39C50030214
:10532300528BE875F012A4F8AAF075F012E9A42ADA
:10533300F9748228F582740602527CE50C6011EC44
:10534300700E7401650C60030251D77C010251E2B7
:105353007AFE7BFF0222503BF583E014C3940622BE
:10536300E8240108E93400F922FB74862AF58274E3
:10537300063BF583E022E8FAE9FBEA75F017A4FAA5
:1053830075F017EBA4250D12538E22FB74FC2AF53E
:105393008274073BF583E02212538E64FE22E8FAFF
:1053A300E9FBEA75F012A4FA75F012EBA4250DFBE4
:1053B30074822AF58274063BF583E022901E07E48B
:1053C30093FAC3E89AE9940022901E01E493FA74D5
:1053D3000193FBC3E89AE99B2274F51203638A08DD
:1053E3008B09ECFEEDFF750A008002050A901E078B
:1053F300E493F8E50AC3985028EEFCEFFDE50A753F
:10540300F017A4F8A9F012542660E0E50A75F01726
:10541300A4F8A9F074FC28F582740739F5831234D3
:1054230039801074FE28FA740739FB1218EBE9224D
:105433001208377F030205D874F01203638A088BBE
:10544300098C0A8D0B890C120DE78A0E8B0FAE0E99
:10545300AF0FEE4F60551250C5E508F0A3E50912F2
:1054630054CA1254C2E50C600AEE240F12282CE52C
:105473000C8006EE240F1254BAF09003D01244B5F8
:10548300601A9003AAE064017008EE240E12519E84
:105493008010EE240E12282C74078006EE240E12C0
:1054A30054BA122D7F1202121254B1024C22EE246E
:1054B3000D123681E8F022123681740122A3A3E58E
:1054C3000AF0A3E50BF0221232B0A32274F5120303
:1054D300638A088B09ECFEEDFF750A00800F1255F5
:1054E3002F7003A3E06F600312557F050A901E0718
:1054F300E493F8E50AC3985025E50A75F017A4F874
:10550300A9F012552465087004A3E0650970CF74EF
:105513000628F582740839F583124DD380CD0254E1
:1055230036740628F582740812519922740628F5F8
:105533008274081251996E2274F7120363EAFEEB28
:10554300FF7508008019E5081251876E7003A3E008
:105553006F700A12556A7005E5081255780508122E
:10556300510140E2024AAA74FE28FA740739FB1279
:105573000ACFE922EE75F017A4F8A9F0125092129F
:105583000DF322124FCF123A2EE84922C082C08374
:1055930074F8120882851882851983AC82AD8375ED
:1055A3008380758222740812074E851882851983B9
:1055B300AC82AD83124734640170047900800279B0
:1055C300017408023A0D12695DF9EA22E0F508E474
:1055D300F509F50AF50B2274091208377F04020551
:1055E300D8EE2412FAEF3400FB120FA3E922790557
:1055F300120FAF740422E024F5C39412221256044E
:10560300221216518A0C8B0D8C0E8D0F22121093C1
:1056130090064D1270F97A147B0022FB125629E88A
:10562300F0A3E9F0EE221256318A828B83228A821A
:105633008B83E024FFF8A3E034FFF922EE240E125B
:10564300734F7401221256891208377F080205D856
:10565300125683A2E522127352E4F0227F0502055B
:10566300D8E508126C98E509125683227AD57B0394
:105673001211DD74022212567D22EE2410F582EF00
:105683003400F583E022121087740422F582EF12AE
:105693005683F822EE240DF582EF1256836401221D
:1056A300E0FEA3E0FFEE4F22F582EF12568322FACB
:1056B300EF3400FB79E112175322F0EEFAEFFB22ED
:1056C300EE240EF582EF12735222F0A3F0025E185D
:1056D300F582EB125683FA22120837026273C082F4
:1056E300C08374FE12088280077AD57B0312571F8A
:1056F3009003D512670370F19003D7126703600913
:105703007AD77B0312571F80EF9003D5E4F0A3F001
:105713009003DBF0A3F0A3F0740280161211D78577
:105723001882851983EAF0A3EB127936120F9122BE
:105733007411120837025E1874F6120363E9FF8FBF
:105743000874A1126822741D126827FE8E08FA7B62
:10575300001211B3EA4B6017EA2508F8EB3400F99D
:105763008A828B831271E2A3A3A3A3E4F080227A3B
:10577300027B001211B3EA4B60138F0874C21268E4
:1057830022741D125B02F0A3741A125B177A007B5A
:105793000002729DE9FDEAFC74062DFAECA2E050CA
:1057A3001EEA75F00A84A8F0E86014740A2AC39804
:1057B300FAE8C394054004740A2AFA740B2AFAED32
:1057C300C394134004781480027806E82A2409F865
:1057D300E43400F97A0A7B00120212E8F90207B3F3
:1057E300C082C083900405E05402600A121945E99F
:1057F3006004790180027900025E18C082C0839040
:105803000405E0540260149003DBE0700A126700A1
:1058130060091258235004790180027900025E184E
:105823009003DEE02410125CF2A2E722C082C08360
:1058330090803AE0F89003DDE0C39850051211B36D
:1058430080047A007B00025E18C082C083120F912D
:105853007900025E18C082C08374FE120882851824
:10586300828519831259BE600D14606524FE70038E
:105873000258F802598290062DE0640F6018120F47
:1058830067E97012851882851983126958900A7620
:10589300125D79121AA0900655E0C0E08518828542
:1058A300198312641BD0E01259A4F812599274148C
:1058B3001259A4FCA3E0FD7AD77B031211D1E5A80A
:1058C300F8C2AF9003DD1259B57920120F4F02577A
:1058D3001B120F5BE98518828519836011125D79AC
:1058E300740D1259A4FAA3E0FB12193F80E0125D74
:1058F30079741580BB125CF8700302598285188293
:10590300851983127273C0E0125997D0E01259A41B
:105913002402F8125BE92401FAA3E03400FB888235
:1059230089831259BE14C394095020125CF8FA8576
:105933001882851983A3127B5DA3A3A3E0F874EBFC
:1059430028F582741D1268276A600F125997E06464
:1059530008702C125CF864087025851882851983F9
:10596300E0F8125CFE141259C2240AC0E0851882C2
:10597300851983125992D0E01259C2040258B38593
:105983001882851983AA82AB83120F910258D1A37F
:10599300125D8422851882851983127B6AA3A3A3CF
:1059A300221259A822127A26E022E5A8F8C2AF9063
:1059B30003DCE004F0E8A2E792AF22EAF0A3EB12E3
:1059C30059A8F8125D03A3E022C082C0839003E0CC
:1059D3001267036008125993121AA0800279000219
:1059E3005E1874F7120363EAFEEBFFEE240D125602
:1059F30042F0EE242F1256ABC0E01256C3D0E0F0B3
:105A0300EE24301256ABC0E0EE24121256C6D0E09C
:105A1300126FA9C0E0EE24131256C6D0E0F0EE24B4
:105A23002B1256C61206A7EE2422FCEF3400FDEE1D
:105A3300242D1256ABF9126DA0120837E97007EE48
:105A4300FAEFFB120E95026273C082C083120F67D6
:105A5300E96004792080027901025E18C082C08364
:105A6300EA126C8FE0D2E00256CFC082C083126C80
:105A73008812569D7011125B0C400C8A828B83A393
:105A8300E0F9120F558069125AF61256AEA2E6508B
:105A9300128A828B83A3E0F9900A78125D79121A35
:105AA300A0804D126C8812569D700D125B0C50082D
:105AB3008A828B83743080358A828B83A3E0641B54
:105AC3008A828B83700474228023A3E0700F126C8C
:105AD3008812569274CD28F582741D800D126C883D
:105AE30012569274C228F582741D125B02125B1760
:105AF300025E18EA125AFDEB22EE240FF5822212FF
:105B03007352E4938A828B8322EA125AFDEB125674
:105B130083A2E322F0900400E0F91211BF2274F78C
:105B2300120363E9FE126700602EEE702E9003DE0F
:105B3300127340E4F09003DE126958120E8390034F
