:020000040000FA
:060000000209FB0201B63B
:03002B000207CBFE
:030033000205BA09
:030053000200E4C4
:03006B00020591FA
:1000830002014B010101FF050301C70FC70FC70F92
:10009300C70F7D0E770EC70FD21B00000000701B29
:1000A300000000000C0000000C000104FFFF010130
:1000B3000100F7040000004805E80364006400B889
:1000C30001020200080000050207051E02051E0AC0
:1000D30003B80B020102FFFF029651180002020649
:1000E30012C0E074F212043AA2AFE433FED2AFE5D9
:1000F300A7FFE5A1F5085F5410600612164B75A122
:10010300EFE5085F5408600812165175A1F7802BBC
:10011300EFA2E0C0D0E508A2E092F012094B1581EE
:1001230082F05017906198E0F8900615E0C398A20A
:10013300D265D0335002E8F075A1FE751A00EEA225
:10014300E092AF7F01020499C0E074F212043AA274
:10015300AFE433FED2AF9061A4E0F8759B00E59164
:1001630058540860087591F7121699802AE591583A
:10017300541060087591EF12169F801BE8A2E0C02F
:10018300D0E591A2E092F012094B158182F050075D
:10019300E0C2E0F01217EF9061A3E0F8E5E95854EC
:1001A30004600E1217C575E9FB906193E0A2E64067
:1001B300F28088C0E074F212043AA2AFE433FED2B4
:1001C300AF9061A5E0F8E5BF585404600675BFFB26
:1001D30012180702013EC3E498F8E499F912021ACF
:1001E3008026C3E49AFAE49BFBE920E7E912021AAA
:1001F300E498F8E499F922C3E498F8E499F912022F
:100203001AE498F8E499F9C3E49AFAE49BFB22EB25
:1002130020E7CFE920E7E0B90010BB0008E88AF047
:1002230084F8AAF022E4FBC8FA22EB70227B10C800
:1002330033C8C933C9335007C39AC3DBF280069A64
:1002430050012ADBEAC833F4C8C933F4C9FA22756A
:10025300F008E4C833C8C933C933C99AC99B5004E9
:10026300C92AC93BD5F0ECFBC833F4C8E4C9FA2268
:10027300080808EAC0E0EBC0E086F0E7A4FA180932
:1002830086F0E7A42AFA180986F0E7A42AFA1809DF
:1002930086F0E7A42AFA1986F0E7A4FBE5F02AFA28
:1002A300190886F0E7A42BFBE5F03AFA190886F063
:1002B300E7A42BFBE5F03AFA18180986F0E7A4C582
:1002C300F02BFBE43AFA1908E7C5F0C6A426F6E5D5
:1002D300F03BFBE43AFA1886F0E7A4F6E5F00826CB
:1002E300F6E43B08F6E43A08F6D0E0FBD0E0FA2265
:1002F300E4CFC0E0E4CEC0E0E4CDC0E0E4CCC0E0B5
:1003030075F020C3E633F608E633F608E633F6085D
:10031300E633F6181818EC33FCED33FDEE33FEEF3D
:1003230033FFC3EC9709ED9709EE9709EF97191976
:1003330019400FFFEC97FC09ED97FD09EE97FE19A5
:100343001906D5F0BEECF709EDF709EEF709EFF75B
:10035300191919D0E0FCD0E0FDD0E0FED0E0FF2277
:100363002518C582C0E0E51934FFC583C0E0E51850
:10037300C3958224F810AF088583198582188008F5
:10038300858319858218D2AFCEF0A3E520F0A37838
:1003930008E608F0A3DEFAEFF0A3E58124FAF8E615
:1003A30008F0A3E608F0A3E608F0A30808E608F0BF
:1003B300A3E608F0A315811581D0E0FED0E0F8157F
:1003C3008115811581E8C0E0EEC0E022120A5DB913
:1003D3000003020424E4900301786C79088002F09E
:1003E300A3D8FCD9FA781A9000867A01BA00028061
:1003F30007E493A3F608DAF9900A6CAA82AB839018
:100403000087785E79018015E493A3AC82AD838A7B
:10041300828B83F0A3AA82AB838C828D83D8E9D9A4
:10042300E77582587583E074021207AD758277759C
:10043300831A74001207ADC0D02518C582C0E0E549
:100443001934FFC583C0E0E518C3958224F310AFC8
:10045300088583198582188008858319858218D2B7
:10046300AFC8F0A3E9F0A3EAF0A3EBF0A37908E7A0
:1004730009F0A3D8FAECF0A3EDF0A3EEF0A3EFF0AC
:10048300A3D0E0F0A3D0E0F0A3D0E0F0A3E520F008
:10049300A3E5F0F0A322851983851882E0C0E0A3C9
:1004A300E0F9A3E0FAA3E0FBA37808E0F608A3DFF2
:1004B300FAE0FCA3E0FDA3E0FEA3E0FFA3E0C0E0BD
:1004C300A3E0C0E0A3E0F5D0A3E0F520A3E0A3F50B
:1004D300F010AF08858319858218800885831985F4
:1004E3008218D2AFD082D083D0E0F8D0E032E803D4
:1004F3000875F0108E218F22858226858325851825
:1005030082851983E0CEA3E0CF852682852583EB00
:10051300C9EAC8EDCBECCAC3E833C8E933C9EA3347
:10052300CAEB33CBC3EA9EF524EB9FF523B3500408
:10053300AB23AA24EC33CCED33CDD5F0DAAE21AF27
:100543002222D083D082ECC0E0EDC0E0E493A3FC90
:10055300E493A3FDED4C600D120664EC24FFFCED67
:1005630034FFFD80EFE493A3FCE493A3FDED4C6023
:100573000D120701EC24FFFCED34FFFD80EFD0E00A
:10058300FDD0E0FCE493A3C0E0E493C0E022C0E02C
:1005930074F212043AA2AFE433FED2AFE589A2E5C6
:1005A3005003121573758900C2C5751A00EEA2E0D7
:1005B30092AF7F01020499C0E074F212043AA2AF31
:1005C300E433FED2AFE58BA2E05003121573758BB3
:1005D30000C2E880D5851983851882E0A3FEE0A3D5
:1005E300F5207808E0A3F608DFFAE0A3FFE0A3C054
:1005F300E0E0A3C0E0E0A3C0E0E0A3C0E0E0A3C06C
:10060300E010AF08858218858319800885821885D4
:100613008319D2AFD083D0820207B3D083D082E9CB
:10062300C0E0E493A3C386F0C5F095F0F908E49322
:10063300A386F0C5F095F0700BE493A3C39940052E
:10064300E9048002A3E475F002A42582F582E5F0B3
:100653003583F583D0E0F9E493A3C0E0E493C0E0ED
:1006630022C0E0C3E49396087401939618400FE404
:100673009366700808740193661870007019A3A339
:10068300C3E49396087401939618A3A3400DD0E096
:10069300D0E0D0E0020581A3A3A3A3A3A3D0E022CB
:1006A3007404800474028000CCC0E0EDC0E0E5185F
:1006B300C39CCCAD1950011D10AF068C188D198049
:1006C300068C188D19D2AF12074ED0E0FDD0E0FC96
:1006D3002274028000CCC0E0EDC0E0E518C39CCCDE
:1006E300AD1950011D10AF068C188D1980068C189A
:1006F3008D19D2AF12072CD0E0FDD0E0FC22C0E070
:10070300C0F088F0E493667008087401936618706B
:1007130000A8F0A3A3700BD0F0D0E0D0E0D0E002AB
:100723000581A3A3D0F0D0E022CAC0E0E493A3C51F
:1007330082CCC582C583CDC583F0A3C582CCC582D7
:10074300C583CDC583DAE5D0E0CA22CAC0E0E0A301
:10075300C582CCC582C583CDC583F0A3C582CCC574
:1007630082C583CDC583DAE6D0E0CA22C008C3E0E0
:1007730096F50808A3E096420808A3E09642080805
:10078300A3E09645087001D3D00822700908080831
:10079300226016181818C6C333C608C633C608C65F
:1007A30033C608C633C6D5E0EA22C09FF59FE4737B
:1007B300D09F22D083D082C09FE493C0E074019382
:1007C300C0E0740293F59F22C0E0C0D0E8C0E0E52A
:1007D300A8D2AFC2C7751A00A2E792AFD0E0F8D093
:1007E300D0D0E0322518F58210AF08F51840021575
:1007F300198008F51840021519D2AF8519832274A0
:1008030004800A74038006740280027401C0E0F459
:10081300041207E7D0E0120A3822BB0102E722C024
:1008230082C08389828A83BB0003E08002E493D081
:1008330083D08222C0D0251810AF08F518500205C6
:10084300198008F51850020519D2AFD0D0226016CE
:10085300080808C6C313C618C613C618C613C61895
:10086300C613C6D5E0EA22C3E0C696F608A3E0C6DF
:1008730096F608A3E0C696F608A3E0C696F62225E8
:100883001810AF08F518400215198008F518400232
:100893001519D2AF22E066701008A3E066700A084B
:1008A300A3E066700408A3E06622C3E09608A3E011
:1008B3009608A3E09608A3E096A2D265D03322E778
:1008C3006670100809E766700A0809E7667004088D
:1008D30009E76622C3E096F008A3E096F008A3E0D8
:1008E30096F008A3E096F022C3E697F60809E69788
:1008F300F60809E697F60809E697F622E627F608CA
:1009030009E637F60809E637F60809E637F622E07E
:1009130026F608A3E036F608A3E036F608A3E03689
:10092300F622E657F60809E657F60809E657F608E9
:1009330009E657F622700422600D18C6C333C608B1
:10094300C633C6D5E0F41822C0E0E8C0E0E5812450
:10095300FCF8E6A2E7D0E0F8D0E022E056F608A3E0
:10096300E056F608A3E056F608A3E056F622E05652
:10097300F008A3E056F008A3E056F008A3E056F011
:1009830022E647F60809E647F60809E647F60809A6
:10099300E647F622E026F008A3E036F008A3E036A7
:1009A300F008A3E036F022E4C396F608E496F608CE
:1009B300E496F608E496F622600D08C6A2E713C68D
:1009C30018C613C6D5E0F322C6F4C608C6F4C60893
:1009D300C6F4C608C6F4C622C3E7960809E7960814
:1009E30009E7960809E79622C3E09608A3E096086C
:1009F300A3E09608A3E0962275D000758140751890
:100A030001751903000203CFE0F608A3E0F608A37B
:100A1300E0F608A3E0F622600C08C6C313C618C6A6
:100A230013C6D5E0F422E6F008A3E6F008A3E6F047
:100A330008A3E6F022CAC0E0E6F0A308DAFAD0E0A1
:100A4300FA22E0FAA3E0FBA3E0FCA3E0FD22EAF034
:100A5300A3EBF0A3ECF0A3EDF022E5C754F84401B7
:100A6300F5C77901222518F582E43519F58322C2E9
:100A7300AF75D69F020000221207B626AA011207FD
:100A8300B695AA011207B6E4AC011207B637AE0158
:100A93001207B6DAAE011207B612B0011207B6306A
:100AA300B0011207B661B0011207B673B0011207A5
:100AB300B6C5B0011207B626B1011207B6B0B1012F
:100AC3001207B654B2011207B6A8B2011207B6C193
:100AD300B2011207B6E7B2011207B622B301120739
:100AE300B666B3011207B68DB3011207B6DEB301C2
:100AF3001207B68EB4011207B646B5011207B60E39
:100B0300B6011207B6EBB6011207B671B7011207A9
:100B1300B680B7011207B68BB7011207B694B801B6
:100B23001207B6A5B8011207B61BB9011207B6AD75
:100B3300B9011207B605BA011207B6CBBA011207FB
:100B4300B6FCBA011207B641BB011207B64EBB0190
:100B53001207B6E2BC011207B645BE011207B66121
:100B6300BF011207B6CBC1011207B6D6C1011207E6
:100B7300B6E0C1011207B6EBC1011207B6F5C10118
:100B83001207B6FFC1011207B60AC2011207B61552
:100B9300C2011207B646C2011207B66AC2011207A2
:100BA300B68EC2011207B6F3C2011207B637C301EC
:100BB3001207B653C3011207B6CAC3011207B6021E
:100BC300C4011207B64EC4011207B6ABC401120723
:100BD300B68DC6011207B613C7011207B6E4C701E3
:100BE3001207B6F4CA011207B649CB011207B6754C
:100BF300CB011207B6C1CC011207B611CD01120702
:100C0300B666CD011207B667CE011207B6FFCE0155
:100C13001207B681CF011207B621D0011207B6E43D
:100C23001D001207B61D1E001207B6F71F0012079C
:100C3300B63620001207B68020001207B625210021
:100C43001207B68421001207B6B821001207B62591
:100C530022001207B64223001207B64A24001207E5
:100C6300B6E024001207B62728001207B6D02800E2
:100C73001207B6AC29001207B60D2A001207B62ACE
:100C83002B001207B6542D001207B60B2E001207C5
:100C9300B6152E001207B6482E001207B60F2F0006
:100CA3001207B6AA2F001207B60F30001207B63884
:100CB30030001207B65A30001207B6893200120705
:100CC300B66033001207B6A433001207B61134001E
:100CD3001207B6CC34001207B6FE34001207B64230
:100CE30035001207B67535001207B6CA350012076C
:100CF300B61F36001207B6B336001207B615370013
:100D03001207B67D37001207B62639001207B60E52
:100D13003A001207B6503B001207B67E3D00120799
:100D2300B63E3E001207B66D40001207B6104100F2
:100D33001207B64E41001207B6FA42001207B60E6A
:100D430043001207B61843001207B64243001207C6
:100D5300B64E43001207B66D43001207B624440093
:100D63001207B66344001207B66D44001207B6219A
:100D730045001207B62046001207B61947001207AE
:100D8300B6B647001207B65848001207B66F4800B8
:100D93001207B6A648001207B6C448001207B608E1
:100DA30049001207B62D49001207B6134A0012076D
:100DB300B67F4A001207B6F94A001207B6084C007C
:100DC3001207B6474D001207B6A94D001207B663C6
:100DD3004E001207B6864E001207B65A4F0012078E
:100DE300B6A54F001207B6E74F001207B63E5000F4
:100DF3001207B67550001207B6A350001207B6DCEF
:100E030050001207B60151001207B68951001207AC
:100E1300B6AC53001207B60B54001207B69F54002A
:100E23001207B60B55001207B65F55001207B6F04E
:100E3300F5021207B62FF6021207B6B156001207D3
:100E4300B60B57001207B66757001207B6B3570021
:100E53001207B6CE57001207B6FF57001207B61C8B
:100E630058001207B62858001207B69C59001207FB
:100E7300B6B559001207B61C5A001207B62F5A000E
:100E83001207B63D5A001207B6F15A001207B6D53B
:100E93005B001207B6DB5C001207B6615D00120748
:100EA300B66B5D001207B6D85D001207B6EF5D00A2
:100EB3001207B6215E001207B65A5E001207B68407
:100EC3005E001207B6E55E001207B6055F00120763
:100ED300B6235F001207B6695F001207B68F600082
:100EE3001207B6DC60001207B60B61001207B68169
:100EF30061001207B6A961001207B6E2610012078A
:100F0300B6F061001207B64862001207B697620096
:100F13001207B6D662001207B60663001207B6328E
:100F230063001207B63D63001207B65B6300120746
:100F3300B61D64001207B62764001207B662640088
:100F43001207B67864001207B68164001207B6D69A
:100F530064001207B6EA64001207B6F865001207C8
:100F6300B60B66001207B62266001207B637660094
:100F73001207B6D966001207B65C67001207B61AE5
:100F830068001207B62568001207B64B69001207FE
:100F9300B66769001207B6B969001207B6F86900A7
:100FA3001207B60D6A001207B64F6A001207B69C05
:100FB3006C001207B61A6D001207B68D6D0012078A
:100FC300B6AF6F001207B6C76F001207B6CA6F003D
:100FD3001207B6D66F001207B6EA6F001207B6F211
:100FE3006F001207B62570001207B6D570001207FE
:100FF300B64B71001207B6BE71001207B6727200CB
:101003001207B62773001207B64673001207B6E637
:1010130073001207B6F273001207B61D74001207AD
:10102300B62074001207B64F74001207B66474003A
:101033001207B6CE74001207B6F675001207B6CEC5
:1010430076001207B65977001207B67278001207B6
:10105300B62F79001207B66879001207B69979009E
:101063001207B6397A001207B6697A001207B64436
:101073007B001207B6DD7B001207B6687C001207FF
:10108300B6197D001207B69B7D001207B6CD7D0011
:101093001207B60E7E001207B6437E001207B6E7AC
:1010A30099021207B64C9A021207B6899A021207DE
:1010B300B6D89A021207B6EE9C021207B6D19E0268
:1010C3001207B63BA2021207B676A2021207B6981F
:1010D300A2021207B6FBA2021207B62FA30212073F
:1010E300B652A3021207B67FA3021207B6DBA3020E
:1010F3001207B6228E021207B6A08E021207B6D6C8
:101103008E021207B6428F021207B6B5900212077B
:10111300B6D190021207B61691021207B6A4910235
:101123001207B6FD91021207B62A93021207B63CC4
:1011330094021207B69994021207B6059502120794
:10114300B66695021207B6A795021207B654960221
:101153001207B66697021207B69197021207B6DC1A
:1011630097021207B62398021207B6B59802120720
:10117300B67099021207B6E4E7021207B614E80242
:101183001207B669E8021207B6FFC9021207B66969
:10119300CA021207B663AD021207B6AFAD02120759
:1011A300B61DAE021207B63EAE021207B6EEAE028F
:1011B3001207B6F7AE021207B64AAF021207B673AA
:1011C300AF021207B6DAAF021207B66BB00212070C
:1011D300B64F9D011207B6F7B0021207B656B10219
:1011E3001207B6E7B1021207B626B2021207B665B6
:1011F300B2021207B69AB2021207B6ACB2021207D3
:10120300B6BEB2021207B6DDB2021207B6E6B202EA
:101213001207B6B3B3021207B6A0EF021207B6392C
:10122300F6021207B626DE021207B65CDE021207CA
:10123300B6DEA9011207B6F5DF021207B6D4D00154
:101243001207B613D2011207B64FD2011207B60E18
:10125300D4011207B637D4011207B6CAD601120752
:10126300B60ED7011207B697D8011207B62FD901C8
:101273001207B697D9011207B638DA011207B67A00
:10128300DA011207B6BADA011207B645DC01120712
:10129300B6B5DD011207B6DADF011207B608E001C1
:1012A3001207B62FE0011207B638E0011207B6BFE6
:1012B300E0011207B6DDE3011207B6A2F502120739
:1012C300B6B8F5021207B6C7F5021207B661C60231
:1012D3001207B674C6021207B611C7021207B64D3B
:1012E300C7021207B664C7021207B689C7021207FC
:1012F300B6CBC7021207B6FCC7021207B637C8023D
:101303001207B6B1C9021207B6F2C9021207B60F25
:10131300F2021207B645F2021207B661F202120791
:10132300B6A3F2021207B6B3F2021207B6BDF20277
:101333001207B65EE4011207B6B3E4011207B66BF7
:10134300E5011207B606E6011207B650E6011207D9
:10135300B664E6011207B62EE8011207B6A9E80142
:101363001207B6D3E8011207B68DEA011207B6A831
:10137300EA011207B6F7EA011207B60DEB011207ED
:10138300B61AEB011207B64EEB011207B664EB0176
:101393001207B6EFEB011207B649EC011207B69735
:1013A300EC011207B6A1ED011207B623F0011207F3
:1013B300B6BDF0011207B6FFF0011207B694F101B2
:1013C3001207B6B1F1011207B6B4F1011207B6B7AD
:1013D300F1011207B62AF2011207B645F20112070C
:1013E300B671F2011207B6ACF2011207B6AFF20101
:1013F3001207B6C2F4021207B6CEF4021207B608F9
:10140300F5021207B60080021207B62B80021207FC
:10141300B6ED80021207B67281021207B6DB8102B3
:101423001207B62782021207B6A682021207B6383F
:1014330083021207B6C883021207B60A8402120790
:10144300B65388021207B6D389021207B62A8B0253
:101453001207B6B68B021207B6AD8C021207B6E8B6
:10146300F2011207B6A2F3011207B614F401120730
:10147300B6A8F4011207B6B2F5011207B622F601B7
:101483001207B656F7011207B632F8011207B6A3D0
:10149300F8011207B620FA011207B6E2FA011207A1
:1014A300B64DFB011207B628FD011207B6C7FD01B1
:1014B3001207B684FE011207B632D4021207B686AB
:1014C300D4021207B6DED4021207B629D5021207D8
:1014D300B68BD5021207B624D6021207B68CD602F3
:1014E3001207B698D6021207B644E4021207B6757D
:1014F300E4021207B62FE5021207B695E5021207BA
:10150300B6DCE0021207B644F1021207B655F10247
:101513001207B6F5F1021207B61EE6021207B62C41
:10152300E6021207B6D47F001207B627F4021207A9
:10153300B637F4021207B64FF4021207B6BCF40230
:101543001207B69EEE021207B623EF021207B68702
:10155300EF021207B699E9021207B6BBE9021207B6
:10156300B621EA021207B641EA021207B67FEA027F
:101573001207B6DAEA021207B611EB021207B61423
:10158300EB021207B673F0021207B68BF0021207D2
:10159300B6BBF0021207B636F1021207B662C202F8
:1015A3001207B670C2021207B6EAC2021207B6CE1B
:1015B300C3021207B687C5021207B6ECC5021207AB
:1015C300B64DC6021207B6F87F001207B668E202EC
:1015D3001207B68AE2021207B6BDE3021207B6414A
:1015E300E4021207B6F3B8021207B648B9021207AB
:1015F300B644BB021207B676BB021207B698BB020B
:101603001207B6B1BB021207B6CABB021207B6D4A1
:10161300BC021207B66FBD021207B61DEB0212071A
:10162300B641EB021207B65AEB021207B68DEB0274
:101633001207B6BEEB021207B6ECEB021207B6F6C0
:10164300EB021207B658EC021207B667EC02120758
:10165300B671EC021207B67EEC021207B6D3D602BD
:101663001207B6F9D6021207B636D7021207B645E5
:10167300D7021207B664D7021207B6CCD7021207F5
:10168300B6D5D7021207B634D8021207B658D80215
:101693001207B617D9021207B624D9021207B635B4
:1016A300D9021207B67FF6021207B69CF60212079A
:1016B300B614B4021207B672B5021207B67FB502AA
:1016C3001207B692B5021207B6B1B5021207B6C732
:1016D300B5021207B6DBB5021207B650B6021207FF
:1016E300B6B5B6021207B63DB7021207B6C6B702C1
:1016F3001207B69BB8021207B6ABB8021207B6BA06
:10170300B8021207B68EF3021207B6B2F30212073B
:10171300B6DAF3021207B602F4021207B663D9026D
:101723001207B68AD9021207B6ABD9021207B6104E
:10173300DA021207B6C9DB021207B6E2DB021207AE
:10174300B6EEDB021207B602DC021207B620DC0299
:101753001207B62ADC021207B634DC021207B647B8
:10176300DC021207B69ADC021207B6D3DC021207B8
:10177300B602DD021207B650DD021207B69FDD0284
:101783001207B6BADD021207B6C4DD021207B6D5D8
:10179300DD021207B61BDE021207B645F502120779
:1017A300B696F5021207B627A4021207B651A40291
:1017B3001207B66DA4021207B680A4021207B696EA
:1017C300A4021207B6F3A4021207B626A502120753
:1017D300B662A9021207B688AA021207B6BBAA020A
:1017E3001207B607AB021207B633AC021207B65B99
:1017F300AC021207B670AC021207B680AC02120735
:10180300B6C4AC021207B625AD021207B635AD0257
:101813001207B6A17E001207B6BC7E001207B6E51A
:101823007E001207B6FF7E001207B6247F00120760
:10183300B6437F001207B65B7F001207B6897F00AD
:101843001207B6A37F001207B6D5F2021207B61924
:10185300F3021207B692CD021207B699CD02120710
:10186300B6A5CE021207B6D5CE021207B6FBCE023C
:101873001207B61ECF021207B640CF021207B67A7E
:10188300CF021207B6E0CF021207B619D002120731
:10189300B665D0021207B692D0021207B6B2D002D2
:1018A3001207B69BED021207B6ADED021207B6980A
:1018B300EE021207B69BEE021207B688EC0212077D
:1018C300B6FAEC021207B638ED021207B679ED024A
:1018D3001207B612D1021207B62ED1021207B67D35
:1018E300D1021207B699D1021207B6CAD102120762
:1018F300B6DAD1021207B6C6D2021207B6D0D202A6
:101903001207B6DDD2021207B6EDD3021207B601F3
:10191300D4021207B60AD4021207B6AEBD021207EA
:10192300B6F3C1021207B6F8C1021207B6BBF6023C
:101933001207B6F69C011207B68A9C011207B6611C
:101943009C011207B6549A011207B6209A01120796
:10195300B6ED99011207B6D199011207B6F79801AE
:101963001207B6AF98011207B6E496011207B664E0
:1019730096011207B66196011207B66C950112071C
:10198300B63A95011207B67794011207B6A29201EF
:101993001207B63392011207B60592011207B60277
:1019A30092011207B6EF91011207B6879101120750
:1019B300B67691011207B65790011207B641A901F5
:1019C3001207B634A9011207B642A6011207B6944C
:1019D300A3011207B668A2011207B62190011207EC
:1019E300B6E48F011207B6858F011207B6548F0133
:1019F3001207B6BCA1011207B60F8C011207B6007D
:101A03008B011207B68F8A011207B6548A01120797
:101A1300B60DA0011207B6A5DE021207B61F8A0192
:101A23001207B6138A011207B67389011207B6BAF1
:101A330088011207B68D86011207B61984011207B1
:101A4300B6D783011207B6A282011207B6578201E5
:101A53001207B68981011207B6E080011207B6B6F4
:101A630080011207B6C89D011207B67C80011207D8
:101A7300B6ADB00200000080FBE47300013636010E
:101A83000100010201000103010001040106060532
:101A9300020000070100340801000F090401010DD1
:101AA3000100FF0E08000017020000190100FF1AD1
:101AB3000100011B0100FE1C0100081D0200001FA4
:101AC30001000120010001210200002301000F2475
:101AD3000200002601000127010008280200FF2A56
:101AE3000100072B0102402C0100002D0100012EF3
:101AF3000100012F0100FF30010B1C310800003AE7
:101B03000100083B01000F2F0100000101710101D9
:101B130001010111010101310101010101800110E4
:101B23000161013B0014006301730172016201430F
:101B3300010001130106013D0135000401120100FA
:101B43000100010001000104010401330133013CE0
:101B53000144013201360000010001650100013535
:101B6300008101000105018201830100010103716C
:101B73000301030103010301030103220302030120
:101B8300031003000300030003000300030003002A
:101B930003420300032403060300030003040312A8
:101BA3000325032303250323030403040300030082
:101BB300030003440300030003230300036503211D
:101BC300003503810300030503000300030003033F
:101BD30000710030016000110070003102200350D9
:101BE30004800010006100000014006300730072A1
:101BF3000062004300000013000600000000000420
:101C03000012000000000000000000040004003780
:101C13000037003C024400000000000000000065A3
:101C23000000003500810000000500000083000073
:101C3300000302710230016002110270020102020C
:101C43000202028002100261023A00410063027341
:101C53000272026202430200021302380000020011
:101C63000204021202000200020002000204020443
:101C730002370037003C0244020002390000020030
:101C8300026502000235028102000205028202831C
:101C930002000236000100060000000F00000000F1
:101CA30000000000000000000003FFFF0000040329
:101CB300FFFF0000FFFF0FF4010005C40403200031
:101CC3000100000B000000000000000003010FD71B
:101CD3000E070FDD0EE30E010FF50EEF0E0D0F13C2
:101CE3000F190F250FE90ED10ECB0E01007D140243
:101CF300001D14030023140400291405002F1406E7
:101D0300003B14FFFF000003EAF5E5D5D5C5B5A5F3
:101D130095958585757565655555454535352525F0
:101D23001515050AA30C026D0C057F0C07730C0C2B
:101D33004F0C0D610CFF000000160F00000B150B7C
:101D4300020002220F32000006C70FD90FDF0FA1D6
:101D53000EE50F9B0EA70E33105110571039104587
:101D6300103F100C0E020B040B0A0708000F00387B
:101D73003C3E363B3B352B432C00011916181616F7
:101D83001523030000034948424D18172505023067
:101D93003017181921301B1D1F3030301618192029
:101DA300231A1C1E301B10EB0FF10FFD0FF70FFB57
:101DB3000E1F0F4B102B0F310F0204020101010103
:101DC300090200000000000000BE040A0400150020
:101DD3000E002800040C0A030908FF1E1E0F040C42
:101DE3000574F7120363E99003B0F0900365E4F020
:101DF3001218A39003B5E4F0A3F09003B1F0A3F09D
:101E0300120DDB1218A9900334E4F0A3F0901DE047
:101E130093FA7902121909024A7A74F2120363EAF5
:101E2300FEEBFF548060699003B0E0F91211C58A9C
:101E3300088B09EA4509604F7C0080010CEC75F0C2
:101E430003A4F8A9F0742628F582741D39F583E4F8
:101E530093F4602CE493F88508828B83E06870DC4C
:101E6300AA08EC75F003A4F8742728F582741D39C9
:101E7300F583E493C0E0740193F583D082121A7C56
:101E8300AA08AB091211B9EEFAEF6480FB021FEA4C
:101E9300EF5420601D120CFD8A088B09EA45096086
:101EA3000A120C61AA08AB091211B9EEFAEF642009
:101EB30080DAEEA2E0501A90036AE0640F700B79A7
:101EC30000120C2BE96003121FEDEE6401FAEF80A0
:101ED300BB54207003021FB8750C001234BF8B096A
:101EE300EA450970107C027D007A207B009003B0E4
:101EF300E0F91212EB7C0079047A007B00120CD912
:101F03008A088B098018850882850983A3A3A3A364
:101F1300A3A3A3A3A37401F0850A08850B09E5080D
:101F23004509606D7C007904AA08AB09120CD98AB3
:101F33000A8B0B750C01E5082404F8E509123263DA
:101F430024FFF0A3E034FF12555670CC8508828538
:101F53000983A3A3A3A3A3A3A3A3A3A3E0640170DF
:101F6300A5850882850983A3A3A3A3A3A3E054049F
:101F73007094850882850983A3A3A3A3A3A3A3A322
:101F8300A37406F07AB78508828509831221198024
:101F930087120CA97C0079017A007B00120CD98B83
:101FA30009EA45097009E50C70057A20124419EE17
:101FB3006420021ED0EF5402600B120DD5EEFAEF2F
:101FC3006402021E8FEF540460191245B01244D00C
:101FD3007901900363124834120B71EEFAEF640433
:101FE300021E8F7A007B00022220900AA11228B7DA
:101FF300120C4322C082C08374EA120882851882BD
:10200300851983AA82AB83794B1218DF7408120AED
:10201300687402F07409120A68AA82AB83795012B9
:1020230018DF7413120A68E4124A031218FD7416B7
:102033000239DD74F712036374E1120882EAFEEBDE
:10204300FFEE4F6033851882851983AC82AD83120E
:102053000D217406120A68E0601E7417120A68E004
:10206300FD7401120A68E0FCEEFAEFFB7900120A34
:1020730099E9600479A480027900024A7574F61222
:102083000363EAFEEBFF8E828F83A3A3A3A3A3A321
:10209300E05440601B124EF21221E760067AFF7B88
:1020A300FF801A8E828F83123669FAA3E0FB8003C6
:1020B300120D4574FE6A700374FF6B6041124EF299
:1020C30012445D120D99E98E828F836006122112EC
:1020D300E480051221127401F07C317D0C8E828F15
:1020E30083124834121903E9F5087015EE4F60099D
:1020F3007901EEFAEFFB120CB5A90802448E7508BC
:10210300CDAA088E828F83122119E960DF80EAE06D
:10211300240D123B3822E0240C123B38E0F9120C58
:102123003D2274F6120363E9FEEAFF7A0F7B001285
:1021330011B3EA4B60198A828B83740CF0EEA3A36C
:10214300F0EF8A828B83A3F01244B97900802FEEDB
:10215300F9120CDF8A088B09A808A909E849601C51
:1021630088828983A3A3A3A3A3A3A3A3A37406120F
:10217300517DE0F9120BF5EEF9120CBB7910024414
:102183008EC082C08390036AE0640F7014EA4B60D0
:1021930010900365E064086005E064047003122195
:1021A300A7023A07EAFCEBFD7A017B009003B0E05B
:1021B300F91212E522C082C0837900EA241DF58258
:1021C300EB12366624FD600B14600824FD600424C2
:1021D300FD700109023A078E828F83A3A3A3A3A3F1
:1021E300A3A3A3A31221EB221236AEFB120D99E98E
:1021F300228E828F83A3A3A3A3A3A3A3A3A31221AA
:10220300EB6402228E828F83A3A3A3A3A3A3A3A31E
:10221300A31239FE900356E068221208377F0602A4
:1022230005D874F412036374FD1208828A088B09BB
:102233008A828B83A3A3E0F9120CDF8A0A8B0BAE8D
:102243000AAF0BEE4F700302232C850882850983A6
:10225300A3E064F16030850882850983A3E064CD3F
:102263006024850882850983A3E0641A60188508C1
:1022730082850983A3E064E9600C8508828509836C
:10228300A3E064E170087900120CB5E9706C85086D
:1022930082850983A3E0C0E07402120A68D0E012C9
:1022A30039E2EEF0A3EF122D0D851882851983AA6A
:1022B30082AB837005120B598003120D81740212D5
:1022C3000A68E064E970338E828F83122338750ABB
:1022D30001780A12080E750AE9780A12080EE50851
:1022E300240CF582E5091227FF122CEAFCA3E0FD7A
:1022F3008A828B83122D041208378E828F83A3A3C5
:10230300A3A3A3A3A3A3A3E0640270108E828F836D
:10231300A3A3A3A3A3A3A3A3A37406F08508828501
:102323000983A3A3E0F9120CBB120CA9900AA5120E
:102333001FF00228BCE0F8A3E0F9E8FAE9FB2274F5
:10234300F4120363EAFEEBFF7508008E828F83A30A
:10235300A3A3A3A3E060427508088E828F83A3A37F
:10236300A3A3A3A3A3A31239118B0BEA450B6010FC
:1023730075082C8E828F83A3A3A3A3A3E0D2E0F0DE
:102383008E828F83A3A3A3A3A3E0540364016003FA
:1023930002242B43081102242BEE24181228C960AF
:1023A30033EE241A1228C9700F1222077003A3E018
:1023B3006970757508228070EE241BF582EF122474
:1023C30030241AF582EF122D15EE2419124F26121E
:1023D3000BE380541221F470037508011222077075
:1023E30003A3E0697006E508D2E1F508E508601586
:1023F3008E828F83A3A3E07006E508D2E58004E50F
:1024030008D2E6F5081221DA64017006E508D2E085
:10241300F5088E828F83A3A3E0600D12243E64012E
:102423006006E508C2E0F508A9080228C11236547F
:1024330012243722E0FCA3E0FDEE2212364E1236C0
:1024430086F9120D87E922C082C08379018A828BC3
:1024530083A3A3E0C394024001198A828B83A3A3BD
:10246300A3A3E0C39402400279008A828B83A3A3CF
:10247300A3A3A3A3A3A3A3E064F87003A3E0F4605E
:10248300458A828B83A3A3A3A3A3A3A3A3A3E064EB
:10249300F97003A3E0F4602E8A828B83A3A3A3A322
:1024A300A3A3A3A3A3E064FA7003A3E0F460178AD1
:1024B300828B83A3A3A3A3A3A3A3A3A3E064FB701F
:1024C30003A3E0F4700279008A828B83A3A3A3E0C1
:1024D300F8900353E06860027900023A0774F0123F
:1024E300036374DE120882EAFEEBFF8E828F83A3FE
:1024F300A3A3A3E0600E900AA31244856006900A8A
:10250300A3121FF07403120A68AC82AD838E828F0C
:1025130083A3A3A3124507124D40E9600F7403126E
:102523000A68AA82AB83120C5BE97008790112185E
:10253300B50227F4EE241B1236597410120A6812DE
:1025430044D07409120A68E06021741A120A68E020
:10255300FD7404120A68E0FC8E828F83124832797C
:1025630001120A99E96004790280C37403120A68AC
:10257300AA82AB83120C55E9F50A7409120A68E0C2
:10258300702A90034DE060247422550A6422601C73
:102593007442550A644270CF7420120A68122812DA
:1025A300600A7420120A6812280B70BBE9A2E65075
:1025B300417403120A68AA82AB83120C49E97003BF
:1025C30002252F7420120A681236696403700F748F
:1025D30020120A68A3124477A3E0640D6014740305
:1025E300120A68AA82AB83120DABE964017003027D
:1025F30027F4EE242C1227FC122B207003A3E0698E
:10260300701C750800780812080E780812080EEE80
:10261300242E124F26122818122D0412083774097B
:10262300120A68E070030226D112281812483412E5
:102633000DFF8A088B09EA4509700302276E7404AB
:10264300120A68E0F88E828F83A3A3E028F8A3E040
:102653003400F9E8240D1228038A828B83A3A3A3F1
:10266300E068601CE88A828B83A3A3A3F090803D7B
:10267300120A45850882850983A3A3A3A3120A51DD
:102683007904E9120A68124D1D2AF8A3E034008880
:1026930082F583A3AA82AB831211A78A0C8B0D8CBC
:1026A3000E8D0F850882850983A3A3A3A3780C123B
:1026B300076F40030227F4908041780C12091285BA
:1026C3000882850983A3A3A3A3780C120A29900384
:1026D30065E064046008E0640960030227F4E50A26
:1026E300A2E540030227ACEE242E1228C9851882E6
:1026F300851983F0EE242F1228C9C0E07401120A51
:1027030068D0E0F0EE24301228C9C0E07402120A47
:1027130068D0E0F07414120A68E064017027740E44
:10272300120A6812365FEE24121228C9687003A3D6
:10273300E0697011740C120A681222017007741494
:10274300120A68E4F0EE24241227FC1206A3740490
:10275300120A68AC82AD837407120A68AA82AB833B
:10276300120B5F74041208370227F49003AAE06483
:102773000160030226D17420120A6812281270091C
:10278300E50AA2E650030226D17410120A68E0F4A7
:102793007003A3E0F4605AEEFCEFFD7403120A68C1
:1027A300AA82AB83120C678048A2E65044742012BD
:1027B3000A68124843701A741A120A68E0640270B5
:1027C300307403120A68AA82AB837900120D7580F4
:1027D300207420120A6812280B7016741A120A68E1
:1027E300E06404700C7403120A68AA82AB83120DAE
:1027F3006F7422024BEFEE240BF582EF1236542254
:10280300F582E91244E9F822124F04E06407221228
:102813003686640622EE242A1236511224372412F5
:102823001236512274F4120363EAFEEBFF8C088D17
:10283300099005A5E0600F1222077003A3E06970F9
:1028430005120BD1804F7900124827120C018A829E
:102853008B83E58245836035A3A3A3A3A3A3E0549D
:1028630018602AE508241BF582E5091227FF1206E2
:10287300A7122EFD1227FF1206A7EE2418124F26C9
:1028830012289A120C137404120837800879001264
:10289300289A120BD780278E828F83A3A3A3A3A387
:1028A300A3A3A3A3122437240BF582EF1228B32288
:1028B3003400F5831236AEFB2274031208377F040B
:1028C3000205D8EE2417F582EF1244E92274F712B9
:1028D300036374F7120882EAFEEBFF900365E0647A
:1028E30003600DE064016008E06409600302299A53
:1028F3008E828F83A3E0707E7C007D007A027B0052
:102903001218AFEE2402FAEF12326A12365F900306
:10291300561244D079531218E5790012299FE064C6
:10292300096003122D3285188285198374011244BC
:10293300A69003657404F07401120A68AA82AB833B
:10294300794A1218DF7401120A68AC82AD837A5B8C
:102953007B031218CD900356124D367A03122D3C89
:10296300900350E0A2E35004D2F08002C2F012447C
:1029730093121FED801E8E828F83A3AE82AF83FCE2
:102983007D007A037B101218AF8E828F83E0F912D9
:10299300299FE4F0120C917409024A7790036312A1
:1029A30028B7120B7190036522C082C08390033451
:1029B300124485701F900365E014600924FC600ACB
:1029C30014600C800F90033C8032900338802D906C
:1029D300033A8028E8496008900335122CE4700C10
:1029E3008A828B83A3E0F9120B65801B9003351257
:1029F3002F997005120DC9800E9003D21244856081
:102A030006124477121A7C023A0774F412036374B1
:102A1300FB1208828A088B097A0F7B001211B38A92
:102A23000A8B0BAE0AAF0BEE4F7003022B148E8290
:102A33008F83124A0179501218DF85088285098332
:102A4300A3E06003022AFC900363E0F47003A3E0B5
:102A5300F46034900363E064FE7003A3E0F4602742
:102A6300851882851983122B207003A3E0696017F0
:102A7300850882850983A374EA122D1A7A637B037E
:102A830079501218E58072851882851983124EE5F4
:102A93001244D07A567B0379531218DF90035612EF
:102AA30045011244D07A597B03794B1218DF7A58C7
:102AB3007B0379E11218DF90036AE0C3940F50217E
:102AC300900358E0C0E07402120A68D0E0F0740486
:102AD300120A687401F004120A68AA82AB831218FE
:102AE300F7750A00780A12080E780A12080E900A7F
:102AF300C7E0F9122CFB1208378508828509831277
:102B03002B19A3F09003657403F0EEFAEFFB124464
:102B1300B974050228BEA3E08E828F8322124EE988
:102B2300E06822123B3F2274F512036374D8120843
:102B3300828A088B098A828B83A3A3A312368B74A0
:102B430015120A68AC82AD838A828B83A3A3A3A3E5
:102B5300A3A3A3A3122CEAFAA3E0FB120C97741508
:102B6300120A68E0706B850882850983A3A3A3A377
:102B7300A3A3A3A3E0C3940B40578E828F83A3A385
:102B8300A3A3A3A3A3A3E064027046EE240B12281D
:102B9300C9F4703D900365E06402603AE064066046
:102BA300359003341244856005122CE4604F900382
:102BB30065E064086005E0640470167417120A681F
:102BC300E0F9741C120A68AC82AD83124827120C18
:102BD3009D7428025403900334124485701F7508B2
:102BE30000780812080E780812080EEE2410122737
:102BF300FC124F3E123352122D041208378E828F6D
:102C0300831247A312327C12365F7402120A6812CF
:102C130044D0EE240D1228C9C0E07404120A68D00F
:102C2300E0122D0DF508A3E0F509740F7808120AD8
:102C33001A7405120A68E508F07419120A68E0C0EC
:102C4300E07406120A68D0E0F0741B120A68E0C050
:102C5300E07407120A68D0E0F07416120A68E0C044
:102C6300E07409120A68D0E0F07417120A68E0C031
:102C7300E07408120A68D0E0F0EE24101228C9C0EC
:102C8300E0740A120A68D0E0F0741A120A68E0C00D
:102C9300E0740B120A68D0E0F07427120A68E0C0EF
:102CA300E0740C120A68D0E0F0741C120A68A9825E
:102CB300AA8389088A09750A0078081208067C081D
:102CC3007D007410120A68AA82AB83124034120882
:102CD30037851882851983AA82AB83120B6B022B6B
:102CE300D4122F9F640122E0F98A828B83A3A3A3CA
:102CF300A3A3A3A3A3A3E022900363124D3A9003DB
:102D0300591228B7120D57740222F0EE240B124405
:102D1300E6221244E9FA22F07A567B037953122D04
:102D230025221218E57A597B03794B1218E5229074
:102D330003631228B7120DF9227B001218AF900318
:102D430059124D3A7A047B001218AF22F0124F4900
:102D53002274F212036374F8120882EAFEEBFF8C0A
:102D63000A8D0B890C851882851983AC82AD837516
:102D7300838075822A740812074EF50DEEFCEFFD71
:102D8300851882851983AA82AB8312470470037561
:102D93000D019003B1803BEEFCEFFDE508240BFA37
:102DA300E5093400124703601E850882850983A361
:102DB300A3E0650C7011850882850983E0650A70BC
:102DC30004A3E0650B6038E5082414F582E50912D5
:102DD30027FF123274E50845096024E50DA2E0409F
:102DE300B6850882850983E0650A7004A3E0650B54
:102DF30070D5850882850983A3A3E0650C70C8AAF2
:102E030008AB09740802221DC082C0839003B1027B
:102E13003A0474F71203639003B11236AE8012EAD8
:102E23002414F582EB1227FF12368B121237EEFAB7
:102E3300EFFBEA4B70E99003B1E4F0A3F0024A7AA6
:102E43007F070205D874F1120363EAFEEBFF890AD8
:102E53008C088D098E828F83E08C828D8312391BBF
:102E6300AE82AF83E01240F4124065C41240F41204
:102E73002F06E054038C828D83124063A2E2E43375
:102E83008C828D83124062131313541F1240F41269
:102E93004061A2E7E4338C828D83A3A3A3A3122F03
:102EA300068E0C8F0D750E00780C1208067C087DBB
:102EB30000E5082407124CA9120837124D148E0C92
:102EC3008F0D780C1208067C037D00E508240F1291
:102ED3004CA9120837E50AC3940F40148E828F83DE
:102EE300A3A3A3E0C0E0122EFD1227FFD0E08006CB
:102EF300122EFD125171F0022E43E5082412F582C1
:102F0300E50922A3A312391F0EAF832274F412031F
:102F13006374F9120882EAFEEBFF89089003341206
:102F23004485600E122F997009EEFAEFFB120DC360
:102F3300805F900363E06E7003A3E06F70537401CE
:102F4300650860097A777B0312470470447A007B33
:102F5300021234C38B0BEA450B7036900366120AD8
:102F630045851882851983120A5190036CE0C0E0ED
:102F73007404120A68D0E0F07405120A687401F050
:102F83007406120A68124A01120B35E9609B120B90
:102F93003B74070228BE122F9F640222124F05A31F
:102FA300A3A3A3A3A3E02274F51203638A088B09E6
:102FB3008A828B83A3AE82AF83E0F9120B898E8260
:102FC3008F83E064EB600C850882850983A3E0644A
:102FD300E17009850882850983A3E4F0121FED756A
:102FE3000A01780A12080E850882850983A3E0F591
:102FF30008780812080E7900122CFB120837120CFD
:10300300A9025406EAF0A3EBF0023A0774F612039E
:10301300639003B4E0701B7C0079017A007B00129B
:103023000CD9EA4B600C8A828B83124485600312AD
:103033000C3702448EC082C0831234AB401079FF38
:10304300120CD3E9F8901DD8E493C3985004790186
:1030530080027900023A0774F01203638A088B092D
:10306300890B750C008A828B83A3A3A3A3A3A3A3B9
:10307300A3E0F9120CDF8A0E8B0FAE0EAF0F750AA9
:1030830001EE4F6003023138850882850983A3A3CB
:10309300A3A3A3A3124D36850882850983A3A3A303
:1030A300A3A3A3A3123E34124834120CC78A0C8B79
:1030B3000DAE0CAF0DEE4F700302325B8E828F8329
:1030C300A3A3A3A3E4F0A3F0E508240B123267E063
:1030D300C0E01227F9D0E0F0120D9FEE240CF58228
:1030E300EF124459E508240EF582E50912365CEE29
:1030F300240EF582EF1244CD750C01EE2406F8EF91
:10310300123263547FF0A3E054FC124F9BE054044B
:1031130060030231BE900AA9123E25740778081293
:1031230009388E828F83A3A3A3A3A3A3E04508F04A
:10313300A3E04509F08E828F83A3A3A3A312327267
:1031430074077808120A1AE5085407F508E50B60B6
:103153007A8E828F83A3A3A3A3A3A3A3A3A374029F
:10316300124066240D123B34E0A2E2500B9003514F
:10317300124501A3A31244D0E5087003023230EED6
:103183002406F8EF3400F9E8FAE9FB8A828B83E03E
:10319300547FFCA3E054FCFDE50824FFF508E43468
:1031A300FFF50974077808120938EC4508F8ED456E
:1031B30009F98A828B831244D080728E828F83A313
:1031C300A3A3A3A3A3E04480023137E508700575E8
:1031D3000A0080598E828F83A3A3A3A3A3A3E054E1
:1031E3002060121211ADEA547F245F8E828F83A375
:1031F300A3A3A380238E828F83A3A3A3A3A3A3E06C
:103203005410600A1211ADEA540F240A80DD8E8235
:103213008F83A3A3A3A37401F0A3E412327C7404E9
:103223001234BA8B09EA4509700312444CE50CA227
:10323300E050288E828F83A3A3A3A3124A67F9EEDB
:10324300FAEFFB120CCDE9601212447B60031236D5
:1032530044EEFAEFFB121237750A00A90A024BF289
:103263001245C422FAE5093400FB8A828B8322A328
:10327300A3E0F508A3E0F5092212328022124CC51F
:10328300A3A3A3A3A32274F412036374F712088203
:103293007E00120CDFEA4B700302334B8A828B836E
:1032A300A3A3A3A3A3A3A3A3A3E06406600302337E
:1032B3004B8A828B83A3A3A3A3A3A3A3E0FF8A8246
:1032C3008B83123B47E0C0E07408120A68D0E01217
:1032D300367F12470A1244D0120CF1EF540860668D
:1032E300851882851983124D367A007B00120CC132
:1032F3008B0BEA450B704F90036312376F12190F54
:103303007C007D007A007B0080288E828F831236BA
:1033130069F47003A3E0F4602D9003631233521237
:1033230048341215EBE9641A601C7C007D00EEFA48
:10333300EFFB120CC18A0A8B0BAE0AAF0BEE4F7078
:10334300C979001219157E01EEF974090228BE121B
:10335300335622E0FCA3E0FD8E828F8322C082C01D
:1033630083EA4B70059003B580068A828B83A3A3FF
:1033730012356F60258A828B83A3A3A3A3A3A3A380
:10338300E0540860E5EC4D60158A828B8312366940
:103393006C7003A3E06D70D280047A007B00023A64
:1033A3000774F2120363EAFEEBFF890A8C088D09A6
:1033B3007A107B00121A17EA4B603F8A828B83A331
:1033C300A3A3A3A3A3A3A3A3E412366DA3E50A12A5
:1033D3004F0BA31234078A828B83A3A3A3A3E4F026
:1033E300A3123679A3F0124D9FEA240CF582EB1257
:1033F300390B123400A3A3F0A3F0022220A3F08A16
:10340300828B8322A3A3E508F0A3E509F02274F4D9
:10341300120363EAFEEBFF89088C0A8D0BEE4F6003
:10342300557401650870147901120CD3E9F8901DE5
:10343300DCE493C398500F7911806A7404650870B3
:103443002F1234AB40F18E828F83A3A3A3A3A3A334
:10345300A3A3A3E50812391BA31254908E828F8372
:10346300A3A3E4F0A3F09003B51244856021800D7B
:103473007402650860D079C1802BE0F8A31244FA86
:10348300A3A312356F88828983A3A370ED80039071
:1034930003B5EEF0A3EF1234BA8B0BEA450B7003BE
:1034A30012444C79000228C17904120CD3E9F89034
:1034B3001DE3E493C39822F01234BF227A207B00E9
:1034C3009003B0E0F91212F722C082C083E9F879C1
:1034D300009003B5801D8A828B83A3A3A3A3A3A318
:1034E300A3A3A3E068600574FF687001098A828B57
:1034F30083A3A312356F70DE023A0774F7120363D6
:10350300EA4B70059003B580068A828B83A3A312CE
:10351300356F60248A828B83A3A3A3A3A3A3A3A34E
:10352300A3E06970E4EC60148A828B83E0240D12BB
:103533004D27A2E240D380047A007B00024A7AC07E
:1035430082C0839003B580068A828B83A3A312353E
:103553006F60128A828B83A3A3A3A3A3A3A3A3E075
:103563006970E580047A007B00023A071228B7EA03
:103573004B2274F21203638A0A8B0B8C0C8D0D752C
:103583000800750900EA450B602E9003B580068E8E
:10359300828F83A3A31235C2601EAC0CAD0DEEFA6D
:1035A300EFFB850A82850B83121A7CE9640170DFC5
:1035B300EEF8EFF988088909AA08AB09022220E08E
:1035C300FEA3E0FFEE4F2274F71203639003B512DC
:1035D300365F7C007D00800DE8FCE9FD88828983ED
:1035E300A3A312365FE8496030EA687002EB6970A2
:1035F300E79003B5124834E86A7002E96B88828960
:1036030083A3A3700812365F9003B5800912365F57
:103613008C828D83A3A31244D0024A7A74F71203D7
:1036230063EAFEEBFFEE4F6015120CEB12369112BC
:10363300447B6003123644EEFAEFFB121237024A60
:103643007AEE240C1236511236A622EE241DF58290
:10365300EF3400F58322F582EF1236541239FE223D
:10366300F582EF1236541236862212367122124F29
:1036730013A3A3A3A322123671A3A322123401120C
:10368300368622124EFEE022E0FEA3E0FF228E8267
:103693008F83E0241C123B381236A68E828F83124E
:1036A30036A6221236AEFB12123722E0FAA3E0222C
:1036B300C082C083EAFCEBFDEC4D700479058044C5
:1036C300EC24FBF582ED34FF124483700712370AB2
:1036D300E0F460051211B980E39003B0E0C0E0129A
:1036E300370AD0E0F0901DD9E493F97AB77B03123F
:1036F30011E3E96401700B7A007B201244507900D6
:1037030080027904023A07EC24FFF582ED34FFF5D9
:10371300832274F4120363A2AFE433F508C2AF90BB
:1037230003B71235C26038EE24FBF582EF34FF1283
:1037330044837A007B209003B060051244538005D4
:10374300E0F91211EFE4F50AF50B780A12080AEE14
:10375300FCEFFD7AB77B031211DD7402120837E523
:1037630008A2E092AFEEFAEFFB0228C1124D3A85B0
:103773001882851983AA82AB832274F212036374BD
:10378300FC120882EAFEEBFF750AFE750BFF120CB2
:10379300AFE960057911023900EE24151228C960DA
:1037A30037900ABDE0C43354E0F8E0333354FC48A7
:1037B300C0E0EE24151227FCD0E012391B12391198
:1037C3008B09EA45096011750AFFEE240F1228C917
:1037D30044041244DED2E0F08E828F831221E5602E
:1037E30006EE2412123908EE24131228C970109021
:1037F3001DDFE493C0E0EE24131227FCD0E0F08E2B
:10380300828F83E0A2E750045403801CEE24141239
:1038130028C97015900342E0C0E0EE24141227FC7F
:10382300D0E0F0900342E004F0EE24111228C964C2
:1038330001701690059CE0600D90034DE0700A8EB8
:10384300828F83E070031239058E828F83E06401D7
:103853007013EE240B12366364027009EE240F1208
:1038630028C94440F0851882851983AC82AD83EE64
:10387300FAEFFB120D158A088B0974FE650A7003B3
:1038830074FFF470098E828F83A3A3124CB5EA45AB
:103893000960668E828F83E0C0E07401120A68D0EB
:1038A300E0F07402120A68124DA37401120A6885CB
:1038B300820C85830D780C12080AEE240F1227FC64
:1038C3001206A7EE240E1228C9F50C780C12080E66
:1038D3009003561206A77407120A68E0F9AC0AAD02
:1038E3000B120D0F7407120837E9FE74106E700B7C
:1038F300AA08AB0912123780027E10EEF974040293
:10390300221DEE2411F582EF123654E4F022A312A5
:1039130028B779FF1212312212391F22F08E828FBB
:1039230083A322C082C08374DE1208828A828B83BF
:10393300A3A3A3A312365F740E120A68E8F0A3E9E7
:103943001239F5740C120A681239EE240DF582EB64
:103953001228CCC0E0741A120A68D0E0F0124C02AC
:10396300EB12365C7420120A681239EE2415F582C4
:10397300EB1228CCC0E07408120A68D0E0F0EA2405
:103983001CF582EB12365C7412120A681239EE24AB
:1039930011F582EB1228CCC0E07409120A68D0E05A
:1039A3001239E274FFF07401120A6874FFF07402B2
:1039B300120A6874FFF090803D1206A37404120A81
:1039C30068AC82AD837407120A68AA82AB83120BB8
:1039D3005F740412083779007422120837802512A5
:1039E30039E622F085188285198322E8F0A3E9F0ED
:1039F300EA22123401A31239FD22A3E0F8A3E0F96D
:103A030022124834D083D0820207B374EC120363CA
:103A130074EE1208828A128B13ECFEEDFF8909748F
:103A230026120A68124CB57428120A68E0F510745D
:103A330029120A68123B29742B120A68E0F50EA3B7
:103A4300E0F50F7508107A1E7B00121A1774021224
:103A53000A6812445D7402120A68124485700302F4
:103A63003B22851882851983AA82AB83795012433E
:103A7300381248347402120A68123B47A312445D99
:103A83007410120A681254927402120A68E0240B2A
:103A9300123B347402F0120A68123B477402F012AC
:103AA3000A68124EF6124DA37402120A68124849AC
:103AB300E509F07402120A68E0240C123B34E510A5
:103AC300F07402120A68123B31E512F0A3E513F019
:103AD3007408120A68E50CF0A3E50DF0740A120AE3
:103AE30068E510F0850E82850F83C082C083740D54
:103AF300120A68AC82AD83D083D082740312074E5E
:103B0300F97402120A68AA82AB83120CB5E9640144
:103B1300700575080080087402120A6812364AA9F3
:103B2300087412024CCCE0F50CA3E0F50D22E0245E
:103B33001C123B3822F8A3E0123B3F223400F988E1
:103B43008289832212483CA3A3A3A3A32274EE1267
:103B53000363EAFEEBFF8C088D098E828F83A374C7
:103B630008124519E060088E828F83A37410F01247
:103B730028C660098E828F83A3E02408F0EE241503
:103B83001228C960088E828F83A3E004F08E828F8F
:103B930083A3A3A3A3A3A3E060198E828F83A3A30C
:103BA300A3A3A3A3A3E0C3332402F88E828F83A32A
:103BB300E028F0EE24111228C96005750B0E80036E
:103BC300750B008E828F83A3C082C083EE240D12F7
:103BD30028C9D083D082F8E028250B8C828D83F00E
:103BE300EE24111228C9600512404428F08508828A
:103BF300850983E0C39475400975080075090002BF
:103C03003D32E0FA7B00124E517003023D32EEFA70
:103C1300EFFB120D1BEA85088285098312445EEED1
:103C23002402F8EF122B26123E2C123D6EF0EE24E6
:103C3300040808EF122B2612426EA3123D6EA3A3B3
:103C4300F0EE2413123D54F0EE2414123D54A3F06D
:103C5300750A08EE24161228C96010EE2418124DB6
:103C630033E5082408124F34750A101228C660166B
:103C7300EE241A124D33850A0CE508250C124F3435
:103C83007408250AF50A8E828F83A3A3A3A3A3A393
:103C9300E06059EE2407F510EF3400F5118510822A
:103CA300F583E0C0E0123D3B1227FFD0E0123D5EFA
:103CB300E0C0E0123D3B1227FFD0E0123D5EA312AD
:103CC3003D47120806851082851183E0C333FCE467
:103CD30033FD850A0CE508250C124CA9120837851B
:103CE3001082851183E0C333250AF50AEE241512E9
:103CF30028C9600BC0E0123D3B1227FFD0E0F01251
:103D030027F9123D47120806EE240D1228C9FC7D3F
:103D130000850B0A8E828F83A3E0F8E50828F8E577
:103D2300093400F9E8250AFAE9124CAC120837AA5B
:103D330008AB097F0A0205D8850A0CE508250CF5AE
:103D430082E50922E0F50CA3E0F50D750E00780C71
:103D530022123651123D78A3A3A322F0050A8E82C4
:103D63008F83A3A3A3A3A3A3A3A322A3A3124F9FBE
:103D7300A3123D7822124272A3A32274F6120363A4
:103D83008A828B83E0FC900353123E2574027808E9
:103D9300120938EC4508FCAD09EA2412123E1F74DF
:103DA300067808120938EC4508FCED4509FDEA24BC
:103DB30015F582EB1228CC6004780180027800E4C8
:103DC300C8F9ED49FDEA2411F582EB1228CCF50878
:103DD300880974097808120938ED4509FDEA2416A3
:103DE300123E1F740B7808120938ED4509FDEA24C9
:103DF30017123E1F740C7808120938ED4509FD8A25
:103E0300828B83A3A3A3A3A3A3123E25740A7808DA
:103E1300120938ECFAED4509FB02448EF582EB12E8
:103E23003654E0F50875090022E085088285098388
:103E330022A3E0F98508828509832274EE120363C5
:103E43008A0A8B0BECFEEDFF750F01E9C394085052
:103E53000579000240318E828F83E9F0124297E99F
:103E63006003750F0012427B8E828F831242C5EE70
:103E7300124C03EF1242BAC0E0EE24111227FCD019
:103E8300E01242B2C0E0EE24121227FCD0E0123955
:103E93001B7408124CBDA3A3A3E06015124263EE8A
:103EA3002413F582EF1244CD8E828F83A3E024087E
:103EB300F08E828F83A3A3A3A3A3A3A3A3E0602174
:103EC3008E828F83A38582088583091242A6EE24FE
:103ED30015F582EF1244CD850882850983E0240815
:103EE300F08E828F83A3A3A3A3A3E0601A8E828F95
:103EF30083A385820885830912428A8E828F83A3D6
:103F0300A3A3A3A3124056EE2419123908EE241BCF
:103F1300123908A3124511E07003023FC5EE2419BC
:103F2300F8EF3400F98E828F83A385820885830995
:103F3300E0FAE50A2AF582E50B1228CC8882898308
:103F4300124056FAE50A2AF582E50B1228CCC0E0A6
:103F5300EE241A1227FCD0E012405688828983E0AF
:103F63006059F8901DE2E493C398500575110C80D5
:103F730008EE24191228C9F5118E828F83A3E0F865
:103F8300E50A28F50CE50B12403A120806E511C3C1
:103F930033FCE433FD7A707B09124034120837EEA8
:103FA300241B1227FC7470F0A37409F0E511C333CA
:103FB300F8850882850983E0288006EE24181251CB
:103FC3006EF08E828F83A3E0F88E828F83E0C39896
:103FD3005003023E54A3E0FA8A08E50A2508F8E5EF
:103FE3000B3400F9EE241DF582EF1245D912406619
:103FF300C39AC0E0EE24171227FCD0E01244D66027
:104003002BEE2417F8EF3400F9880889098882F524
:1040130083E024F21245BA240EFAA3E03400FB88AD
:1040230082898312445D124044C398F0A90F023D74
:10403300361211957403223400F50D750E00780CB9
:104043002290034EE0F9120A9FE9F8850882850958
:1040530083E022F0850882850983E004F022A3A38C
:10406300A3A3A3F08E828F83E02274F41203638AE6
:10407300088B09EA1240FBF0EA1313543F1240F491
:10408300A3A3A3F0EAC413131240FBA3A3F0EB1200
:1040930040ED1241057409780A120A1A1240EB1214
:1040A3004104740A780A120A1AE50A5401C0E0ECC2
:1040B3002418F582ED1227FFD0E012410A740B7821
:1040C3000A120A1A1240EBA3124104740C780A1262
:1040D3000A1A1240EBA3A3A3A3A3A3A3A3F0740DF3
:1040E3007808120A1A02242BE50A54018C828D8364
:1040F30022540F8C828D832254038C828D83A3A33D
:1041030022A3A3A3A3A3A3F08A0A8B0B22C082C07A
:104113008379008A828B83A3A3A3A3A3A3E0900341
:104123004D600FE070228A828B83A3A3E07019098C
:104133008016E060138A828B8312482B900356E02B
:104143006A7003A3E06B70E7023A0774F01203632B
:104153008A0A8B0B890C8C088D0912429712427BB9
:104163008508828509831242C5E508124C03E509D7
:104173001242BAC0E0E5082411F582E5091227FFCF
:10418300D0E01242B2C0E0122EFD1227FFD0E0129F
:1041930045E174081245FA6011124263E5082413DD
:1041A3001245D51245E1E02408F08508828509838C
:1041B300A3A3A3A3A3A3A3A3E060178508828509F0
:1041C30083A31242A2E50824151245D512406624A2
:1041D30008F0850882850983A3A3A3A3A3E060193C
:1041E300850882850983A3AE82AF8312428A85083C
:1041F3008285098312406104F0AA08AB09120D2DD0
:10420300E9F50D7056850882850983A3A3A3A3A3AB
:10421300A312426E7014E0FA8A0EE50A250EF8E541
:104223000B1244C2E50CC39A80211242A2E8240E69
:10423300F8E91244C290034EE0F9120A9F8E828F6E
:1042430083E0F8E50CC39824F2C399C0E0E50824A1
:1042530017F582E5091227FFD0E0F0A90D024BF212
:10426300E50A2408F8E50B3400F92212427222E031
:10427300850882850983A322850A82850B83A3A3EC
:104283001242DBE0F9EA22E0F8E50A28F582E50BC1
:104293001244E9228A828B83124BF7120D2722AE36
:1042A30082AF83E0F8E50A28F8E50B3400F922121F
:1042B30042EEA3A3A3E022123654E81242E7A3A3DB
:1042C300E022A3A3A3A3A3A3A3A3A31242E712429F
:1042D300DBA3A3E0F9EAF822E0FA850A82850B83DF
:1042E300A3A3A322F0A3E91242EE22F0850A82855A
:1042F3000B83A3A3A3A322C082C0837AC57B0379C4
:10430300E21218DF7AC57B03023A07C082C08390AA
:104313000356023A04C082C08374FE1208828518D1
:1043230082851983AA82AB83794B124338124834AE
:1043330074020239DD1218DF85188285198322C0C1
:1043430082C083794A1218DF023A0774F6120363B4
:104353009003CDE0FE04F0EEF9120CDF8B09EA4581
:104363000970EDEE60EAF902448E74F0120363EA19
:10437300FEEBFF8C088D09890A7410120A68E0F5B8
:104383000B7411120A68E0F50C120DFFEA4B70135F
:10439300E50C7042A90AAC08AD09EEFAEFFB120E68
:1043A30017806EE50A6021EA2402F582EB1228CC1D
:1043B300850A082508F8E4340013E813F070098A25
:1043C300828B83A3A37401F0E50C6045E50B7006B3
:1043D3008A828B83E4F07401650C7035E50B9003DE
:1043E300D47004E4F0802AE004F0900AAAE0F89084
:1043F30003D4E0C398401AE4F0900359E06E7003CD
:10440300A3E06F700CEEFAEFFB7901120B831244F9
:1044130017024BF27A017B009003B0E0F91212F11C
:1044230022C082C08374016A7001EB70077A0112A3
:10443300444E8012900AA112445DEA4B600512219A
:10444300A78003124417023A077A207B009003B037
:10445300E0F91211E9223400F583EAF0A3EBF0222C
:10446300C082C083900AA3023007C082C083900A2F
:10447300A5023007124F0522EE240CF582EF34001B
:10448300F5831239FEE849221208377F020205D864
:10449300A2F0E4338518828519831244AF7952124E
:1044A30018E5221244AF79421218E522F0AA82AB32
:1044B3008322AA08AB099003B0E0F91211BF22349A
:1044C30000F9E508241DF582E509123654E8F0A346
:1044D300E9F022124CC1A3A3E022A3F0EE241512AB
:1044E30044E622F582EF3400F583E0221244F322FE
:1044F3003400F583E0F8A3E0F98882898322E0F8A9
:1045030012450722A3E0F98E828F83A3A322F0EE44
:10451300241812365122F0EE24161236512274F466
:10452300120363EAFEEBFF7A007B0412441B12457D
:10453300B01244D09003657409F0120D398A088BC8
:1045430009AC08AD09EE24131227FC1248341247B4
:1045530004640170487A0F1245A360418A828B83F9
:1045630074021245BAFAA3E0FB8A828B83A3E0FCB0
:104573008A828B83A3A3E0FBEC850882850983A34E
:10458300A312445E88828983124838123E2C124457
:10459300DDFAA3E0FB794A1218E51244B50228C1FB
:1045A3007B001211B38A088B09EA4509229003366E
:1045B3001239FE900AA522F0EE241DF8EF1245C42D
:1045C30022123B3FE0221245CD223400F5837401D1
:1045D300F022F582E509123654E8F0A3E9221245E8
:1045E300E5221245E922F0850882850983A3221278
:1045F30045E9A3A3A3A3221245F2A3A3E022124AEF
:104603000B120D8D22EE2417F582EF1245CD120DFC
:1046130039EE241A123651EAF0A3EBF02274F412A5
:10462300036374F31208828908EAFEEBFF7C0D7DB5
:10463300007900851882851983AA82AB831211A1A0
:10464300EE241D1227FC124EF6A3E0F8741F5860E7
:104653000A79011218B579000246FBE8A2E5500871
:10466300740C120A687401F0E8A2E75008740B1284
:104673000A687401F0E8A2E6740A5008120A687422
:1046830001F08008120A68E064017005EE241380CB
:1046930003EE2415124D337402120A68AA82AB8307
:1046A3001218CD1227F91247091244D0740A120ABC
:1046B30068E0640170331221DA703B120D458A0AF7
:1046C3008B0BA80AA90BEE240B1228C9687003A34D
:1046D300E0697022120D39EAFCEBFD7402120A68DC
:1046E300AA82AB83124704600D851882851983AAB9
:1046F30082AB83120B7DA908740D0228BEEEFAEF7C
:10470300FB1218C7E922E012470E22F8A3E0F9854D
:1047130018828519832274F612036374F3120882D4
:104723008A088B09ECFEEDFF7C0D7D00790085186E
:1047330082851983AA82AB8312509BA3A3A3A3A34D
:10474300A3A3A3A31247A31247ACF8A2E55008748E
:104753000B120A687401F0E8A2E75008740A120AFF
:10476300687401F0E8A2E6EE5004241380022415D5
:10477300124D337402120A68124795A3A3E0C0E0F6
:10478300740C120A68D0E0124A03120B77740D02FC
:10479300448BAA82AB831218CD85088285098322B4
:1047A300E012470EE8F0A3E922F012364E124EFA59
:1047B300A3E02274F712036374E1120882EAFEEBAA
:1047C300FF8E828F83124838A3A3A3E0A2E0505147
:1047D3008E828F8312233A8A828B83A3A3A3A3A3FC
:1047E300A3E054FE1248508A828B83124849E0F9B1
:1047F3008A828B83E0241CFAA3E012326A124834C3
:10480300120D33E9701B741D120A681248437011AC
:10481300851882851983AC82AD83EEFAEFFB120D06
:104823007B024A758E828F83A3A3A3A3A3A3A3A30F
:10483300A31228B72212483C22124EFEA3A3A3229E
:10484300123686640422E0241B123B38221239E616
:10485300AC82AD8322E9F87900740468600A740AB3
:104863006860057403687001090207B374F61203E4
:10487300638A828B837420F0A3A37401F0120B2943
:104883008A088B09AE08AF09EE4F60108E828F83C2
:104893007401F09003A3E07003124608EEFAEFFBF5
:1048A30002448EC082C0839003B97401F0E9A2E38D
:1048B30050037403F0E9A2E15004E0D2E2F0023ABB
:1048C3000774F612036379007C008A088B09780861
:1048D30012061EF8FF07F748F548F548F548F5486E
:1048E300EE48F248F748EB480C80097C0480050C3D
:1048F30080F67C089003B9E05C6003098003EC60F8
:10490300010902448E74F61203638A828B83E0707A
:1049130012A3124485600C8A828B831248331219C6
:10492300B780047A007B0002448E74F5120363742B
:10493300F31208828A088B09ECFEEDFF750A12EA6E
:104943004509700579000249FC900356E06508703B
:1049530004A3E065097014120D39EAFCEBFD12475C
:10496300007005750A018003750A00851882851990
:1049730083E4F004120A68E508F0A3E509124A0388
:10498300120AEDE960277403120A68AA82AB831244
:104993000ACFE964017016750A017403120A68AC40
:1049A30082AD831247006021750A00801C74126572
:1049B3000A70169003A2E06402700EEEFCEFFDAAEB
:1049C30008AB09120B05E970DFEEFCEFFDAA08AB9B
:1049D30009120E05E9F8740A687005750A01801753
:1049E30074A0687012EEFCEFFDAA08AB09120E1159
:1049F300AA08AB09120E23A90A740D025403740208
:104A0300124A0722124A0B221239E6AA82AB8322E8
:104A130074F7120363EAFEEBFF8E828F83A3A3A3D3
:104A2300A3A3A3A3A3E06015EE24151227FC122869
:104A3300A7120DA5E964017004790180258E828F88
:104A430083A3A3A3A3A3A3A3E06015EE24131227B8
:104A5300FC124A67FAA3E0FB120DA5E9640160D9D1
:104A630079008013123356A3A3A3A3A3A3A3A3A3E1
:104A7300E022741F1208377F010205D874F0120375
:104A83006374FD1208828A088B09ECFEEDFF890B23
:104A93007413120A68E0F50C750A017401120A68AE
:104AA3007404124F2E6048E50C601DEA2417F5824A
:104AB300EB125171124F1C8A828B83E0D2E7F0EA2A
:104AC3002414F582EB12390B124C02EB1244EF74EF
:104AD30003125494EE88828983A3A3F0EF8882891A
:104AE30083A3A3123400123407120B23E9F50AA996
:104AF3000A7403024BEF74EC12036374F512088219
:104B03008A0A8B0B890C8C0E8D0F741F120A68E0B6
:104B1300F50D7420120A68E0F510A3E0F5117E018B
:104B2300EE120A68740AF0E97007E50DC333240A2C
:104B3300F0124CD47003024BD6124CE97409F0A363
:104B4300E50CC43354E0450D124CFBE50C702D7C91
:104B5300008023ECC333F8E433F9E51028F8E511BA
:104B630039F988828983124BE388828983122B194E
:104B7300F0A30EAF830CECC3950D40D7E5082417C3
:104B8300F582E5091245C9120D39E508241AF582A3
:104B9300E5091244597403120A68AC82AD83AA0A68
:104BA300AB0B120AD5E96019E5082416F582E5096D
:104BB300124BDD120A68A882A983E508241812445F
:104BC300C9850882850983125490AA08AB09120B80
:104BD30023E9FEEEF9740B024CCC1245CD7403228B
:104BE300E08E828F83F0A3AE82AF83221208377FD9
:104BF300080205D81236AEF9EA2400E439FB22EAAA
:104C0300240BF5822274EE1203638A0C8B0D890E3A
:104C13008C088D097412120A68E0F50F7413120AD6
:104C230068124CB590050B1244856077E50FC333CA
:104C3300F8E433F9E8240EFAE93400FB1211B38ADD
:104C4300108B11AE10AF11EE4F60588E828F8374AC
:104C5300D4F0A3A3E50CF0A3E50D124CBDE50EF0D3
:104C6300AC08AD09EE2405FAEF124F37EE240D120E
:104C730027FCE50FF0850A08850B09750A007808FB
:104C8300120806E50FC333FCE433FDEE240EFAEFFE
:104C9300124CAC120837EEFAEFFB90050B124EF6EE
:104CA300121A7C023D36FAE5093400FB12119574A1
:104CB3000322E0F50AA3E0F50B22124CC122124CA9
:104CC300C52212391FA3A3A3221208377F0C0205A2
:104CD300D8851882851983AA82AB83120D8D8A0821
:104CE3008B09EA450922EA240BF582EB1244E9FE1B
:104CF300A3E0FF8E828F8322F0A3AE82AF83AC0E3C
:104D0300AD0FEEFAEFFB124D0D221218CD124D141A
:104D130022EE2408FEEF3400FF22E0FA8E828F8316
:104D2300A3A3E022FEA3E03400FF8E828F83E02260
:104D3300123651124D3A22E0FCA3E0FD221228B7AD
:104D4300120D212274F6120363EAFEEBFF9003BAFD
:104D5300801388828983E06E7003A3E06F603A88D2
:104D6300828983A3A312448570E87A047B00121A14
:104D7300178A088B09A808A909E849601C88828951
:104D830083124DA39003BA12483488828983A3A364
:104D930012445D9003BA1244D002448E8A828B83FC
:104DA300EEF0A3EFF02274F41203637E009003BAD3
:104DB30080070E88828983A3A312448570F4EEC30F
:104DC30033FAE433FB124E51607E7F009003BA80C6
:104DD3002488828983124D36EFC333FAE433FBE52B
:104DE300082AF582E5093BF583ECF0A3EDF00F8883
:104DF300828983A3A312448570D79003AB12221434
:104E03007003A3E0697808701912080AEEF50A78AE
:104E13000A12080E7C777D0379009003AB124E5C77
:104E2300801A12080AEEF50A780A12080E7C777DBA
:104E33000379009003AB124834120DB774031208C0
:104E430037AA08AB09121237120B3B0228C1121AF8
:104E5300178A088B09EA4509221228B7120DBD22C9
:104E6300C082C08380128A828B83A3A312365F9091
:104E730003BA1244D01212379003BA12356F70E698
:104E8300023A0774F612036390036312368B90039E
:104E9300CE124EE51244D07ACE7B0379501218E538
:104EA3009003CE122433FAEFFB120E1D9003CE12A1
:104EB300368B90050D12448560257A067B0012110E
:104EC300B3EA4B601A8A828B8374D5F0A3A3E412EE
:104ED3004F0B04124F1C90050D124EF6121A7C0252
:104EE300448E124EE922E0F8A3E0F9900363228E88
:104EF300828F83124EFA22124EFE22E0F8124F04E2
:104F030022A3E0F583888222124F0F22124F13222D
:104F1300F08A828B83A3A3A322124F0FA3EEF0A3E5
:104F2300EFF022F582EF1244E9F922124601EA4B2F
:104F330022FAE5093400FB1218CD22124508A3A377
:104F4300A3A3A3A3A322901DDAE4932401F8E434DA
:104F530000F97A027B002274F71203637E00800457
:104F63001255470E12506B40F77E00EE124F8674B7
:104F7300FEF0A304124F9BE4F00EEEC3940340EB48
:104F8300024A7A75F003A4F8A9F074BC28F87403F4
:104F930039F988828983A322124F9F22F08882895C
:104FA300832274F71203637F0080010F901DD7E4FF
:104FB30093F8EFC3985026EF1251576A7003A3E09A
:104FC3006B70E81254F46C7003A3E06D600A74FF15
:104FD3006C700374FF6D70D312506280047A007B8F
:104FE30000024A7A74F61203637CFF7DFF7AFE7B2C
:104FF300FF120DE1EA4B70407508008036E5087535
:10500300F017A4F8A9F0740B28F5827408125169FB
:10501300600C740A28F5827408125169701374FCC9
:1050230028FE740739FF8E828F83125176EEFAEFD2
:10503300FB05081250D140C502448E74F412036379
:105043008A088B09ECFEEDFF800B120DF3EEFCEFEB
:10505300FDAA08AB09120DE1EA4B70EE0228C174F8
:10506300FC28FA740739FB22901DD7E493F8EEC3AA
:10507300982274F7120363EAFEEBFFEE4F601012FF
:10508300509574FEF0A30412549A14F0A304F00292
:105093004A7A7C177D0079001211A18E828F8322B8
:1050A30074F7120363EAFEEBFF7508008018E50846
:1050B30075F017A4F8A9F01254FF7003A3E06F6012
:1050C3000312554F05081250D140E3024A7A901D4E
:1050D300D7E493F8E508C3982274F6120363120D1C
:1050E300E18A088B09A808A909E849600AE8240DA0
:1050F300FAE93400FB80047A007B0002448E74F4E6
:105103001203638A0A8B0BECFEEDFF750800750929
:1051130000802EE50975F017A4F8A9F012553A603E
:105123001EE509125157650A7004A3E0650B70036D
:1051330075080AEEFCEFFD1253F660034308A00561
:1051430009901DD7E493F8E509C3985004E5086076
:10515300C202242B75F017A4F8A9F012516222742D
:10516300FC28F582740739F583E022F582EF1236C5
:1051730054E4221228B7120C1922124F9FA3A3A39F
:10518300A3A3A3A3A32274F21203638A088B09ECDB
:10519300FEEDFF740E120A68124CB5750C007C000C
:1051A3007D0180101211ADE50CF5F0EA84ACF075C9
:1051B3000C007D0078007900800312533312538F63
:1051C3004003025255E8FAE9FBEA75F017A4FA85A1
:1051D300F00D75F017EBA4250D12536B7003A3E0CC
:1051E300F460D712534965087004A3E0650960CAE7
:1051F3001253496E7003A3E06F60BF125349650AEF
:105203007004A3E0650B60B2E8FAE9FBEA75F017F6
:10521300A4FA75F017EBA4250DFB740A2AF5827422
:105223000812532A509474016D050C608DE50CC36C
:105233009C4087E875F017A4F8AAF075F017E9A465
:105243002AF974FC28F582740739F583124834026D
:10525300532778007900800312533312539C400381
:1052630002530EE8FAE9FBEA75F012A4FA85F00D91
:1052730012537B64FE7003A3E0F460DC1253716588
:10528300087004A3E0650960CF1253716E7003A325
:10529300E06F60C4125371650A7004A3E0650B608C
:1052A300B7E8FAE9FBEA75F012A4FA75F012EBA479
:1052B300250DFB748B2AF582740612532A5099E844
:1052C300FAE9FBEA75F012A4FA75F012EBA4250DC6
:1052D30012533C64016081E06402700302525B7408
:1052E300016D050C700302525BE50CC39C50030275
:1052F300525BE875F012A4F8AAF075F012E9A42A3B
:10530300F9748228F582740602524CE50C6011ECA4
:10531300700E7401650C60030251A77C010251B247
:105323007AFE7BFF0222203BF583E014C39406221E
:10533300E8240108E93400F922FB74862AF5827413
:10534300063BF583E022E8FAE9FBEA75F017A4FAD5
:1053530075F017EBA4250D12535E22FB74FC2AF59E
:105363008274073BF583E02212535E64FE22E8FA5F
:10537300E9FBEA75F012A4FA75F012EBA4250DFB14
:1053830074822AF58274063BF583E022901DD7E4EC
:1053930093FAC3E89AE9940022901DD1E493FA7436
:1053A3000193FBC3E89AE99B2274F51203638A080D
:1053B3008B09ECFEEDFF750A008002050A901DD7EC
:1053C300E493F8E50AC3985028EEFCEFFDE50A756F
:1053D300F017A4F8A9F01253F660E0E50A75F01788
:1053E300A4F8A9F074FC28F582740739F583123404
:1053F30009801074FE28FA740739FB1218C7E922D2
:105403001208377F030205D874F01203638A088BEE
:10541300098C0A8D0B890C120DE78A0E8B0FAE0EC9
:10542300AF0FEE4F6055125095E508F0A3E5091252
:10543300549A125492E50C600AEE240F1227FCE5ED
:105443000C8006EE240F12548AF09003D012448588
:10545300601A9003AAE064017008EE240E12516EE4
:105463008010EE240E1227FC74078006EE240E1221
:10547300548A122D4F120212125481024BF2EE245F
:105483000D123651E8F022123651740122A3A3E51E
:105493000AF0A3E50BF022123280A32274F5120363
:1054A300638A088B09ECFEEDFF750A00800F125426
:1054B300FF7003A3E06F600312554F050A901DD7D9
:1054C300E493F8E50AC3985025E50A75F017A4F8A4
:1054D300A9F01254F465087004A3E0650970CF7451
:1054E3000628F582740839F583124DA380CD025442
:1054F30006740628F582740812516922740628F589
:105503008274081251696E2274F7120363EAFEEB88
:10551300FF7508008019E5081251576E7003A3E068
:105523006F700A12553A7005E508125548050812BE
:1055330050D140E2024A7A74FE28FA740739FB120A
:105543000ACFE922EE75F017A4F8A9F012506212FF
:105553000DF322124F9F1239FEE84922C082C08305
:1055630074F8120882851882851983AC82AD83751D
:105573008380758222740812074E851882851983E9
:10558300AC82AD8312470464017004790080027910
:105593000174080239DD12692DF9EA22E0F508E405
:1055A300F509F50AF50B2274091208377F04020581
:1055B300D8EE2412FAEF3400FB120FA3E922790587
:1055C300120FAF740422E024F5C39412221255D4AF
:1055D3002212162D8A0C8B0D8C0E8D0F2212109316
:1055E30090064D1270C97A147B0022FB1255F9E81C
:1055F300F0A3E9F0EE221256018A828B83228A827B
:105603008B83E024FFF8A3E034FFF922EE240E128B
:10561300731F7401221256591208377F080205D8E6
:10562300125653A2E522127322E4F0227F050205EB
:10563300D8E508126C68E509125653227AD57B0324
:105643001211DD74022212564D22EE2410F582EF60
:105653003400F583E022121087740422F582EF12DE
:105663005653F822EE240DF582EF125653640122AD
:10567300E0FEA3E0FFEE4F22F582EF12565322FA2B
:10568300EF3400FB79E112172F22F0EEFAEFFB2241
:10569300EE240EF582EF12732222F0A3F0025DE8EE
:1056A300F582EB125653FA22120837026243C08284
:1056B300C08374FE12088280077AD57B031256EFEB
:1056C3009003D51266D370F19003D71266D36009A5
:1056D3007AD77B031256EF80EF9003D5E4F0A3F063
:1056E3009003DBF0A3F0A3F0740280161211D785A8
:1056F3001882851983EAF0A3EB127906120F91221F
:105703007411120837025DE874F6120363E9FF8F20
:105713000874711267F2741D1267F7FE8E08FA7B24
:10572300001211B3EA4B6017EA2508F8EB3400F9CD
:105733008A828B831271B2A3A3A3A3E4F080227A9B
:10574300027B001211B3EA4B60138F087492126745
:10575300F2741D125AD2F0A3741A125AE77A007B1C
:105763000002726DE9FDEAFC74062DFAECA2E0502A
:105773001EEA75F00A84A8F0E86014740A2AC39834
:10578300FAE8C394054004740A2AFA740B2AFAED62
:10579300C394134004781480027806E82A2409F895
:1057A300E43400F97A0A7B00120212E8F90207B323
:1057B300C082C083900405E05402600A121921E9F3
:1057C3006004790180027900025DE8C082C08390A1
:1057D3000405E0540260149003DBE0700A1266D003
:1057E30060091257F35004790180027900025DE8E1
:1057F3009003DEE02410125CC2A2E722C082C083C1
:1058030090803AE0F89003DDE0C39850051211B39D
:1058130080047A007B00025DE8C082C083120F918E
:105823007900025DE8C082C08374FE120882851885
:105833008285198312598E600D14606524FE7003EE
:105843000258C802595290062DE0640F6018120FD7
:1058530067E97012851882851983126928900A7680
:10586300125D49121A7C900655E0C0E085188285C6
:1058730019831263EBD0E0125974F812596274144D
:10588300125974FCA3E0FD7AD77B03121A71E5A8C1
:10589300F8C2AF9003DD1259857920120F4F0256DB
:1058A300EB120F5BE98518828519836011125D493C
:1058B300740D125974FAA3E0FB12191B80E0125DF8
:1058C30049741580BB125CC8700302595285188253
:1058D300851983127243C0E0125967D0E0125974DC
:1058E3002402F8125BB92401FAA3E03400FB888296
:1058F300898312598E14C394095020125CC8FA8507
:105903001882851983A3127B2DA3A3A3E0F874BB8C
:1059130028F582741D1267F76A600F125967E064F5
:1059230008702C125CC86408702585188285198359
:10593300E0F8125CCE14125992240AC0E085188252
:10594300851983125962D0E0125992040258838553
:105953001882851983AA82AB83120F910258A1A3DF
:10596300125D5422851882851983127B3AA3A3A35F
:1059730022125978221279F6E022E5A8F8C2AF90F4
:1059830003DCE004F0E8A2E792AF22EAF0A3EB1213
:105993005978F8125CD3A3E022C082C0839003E05D
:1059A3001266D36008125963121A7C8002790002CE
:1059B3005DE874F7120363EAFEEBFFEE240D125663
:1059C30012F0EE242F12567BC0E0125693D0E0F073
:1059D300EE243012567BC0E0EE2412125696D0E02D
:1059E300126F79C0E0EE2413125696D0E0F0EE2445
:1059F3002B1256961206A7EE2422FCEF3400FDEE7E
:105A0300242D12567BF9126D70120837E97007EED8
:105A1300FAEFFB120E95026243C082C083120F6736
:105A2300E96004792080027901025DE8C082C083C5
:105A3300EA126C5FE0D2E002569FC082C083126C10
:105A43005812566D7011125ADC400C8A828B83A354
:105A5300E0F9120F558069125AC612567EA2E6501B
:105A6300128A828B83A3E0F9900A78125D49121A95
:105A73007C804D126C5812566D700D125ADC500812
:105A83008A828B83743080358A828B83A3E0641B84
:105A93008A828B83700474228023A3E0700F126CBC
:105AA30058125662749D28F582741D800D126C582D
:105AB300125662749228F582741D125AD2125AE752
:105AC300025DE8EA125ACDEB22EE240FF582221290
:105AD3007322E4938A828B8322EA125ACDEB125605
:105AE30053A2E322F0900400E0F91211BF2274F7ED
:105AF300120363E9FE1266D0602EEE702E9003DE71
:105B0300127310E4F09003DE126928120E839003DF
:105B1300DEE0240E1257F950031273D59003DEE42E
:105B2300F0A3F07910120F4F026243741B6E7010D2
:105B3300125BBD640570C69003DE127310EE80C461
