:020000040000FA
:060000000209F70201B540
:03002B000207C702
:030033000205B60D
:030053000200E3C5
:03006B0002058DFE
:1000830002014A010101FF050301C30FC30FC30F9F
:10009300C30F790E730EC30FD41B00000000721B35
:1000A300000000000C0000000C0001FFFF01010133
:1000B30000E7040000003805E80364006400B801A9
:1000C300020200080000050207051E02051E0A03BE
:1000D300B80B020102FFFF0296511800020206123A
:1000E300C0E074F2120439A2AFE433FED2AFE5A745
:1000F300FFE5A1F5085F5410600612164D75A1EFD8
:10010300E5085F5408600812165375A1F7802BEFBA
:10011300A2E0C0D0E508A2E092F01209471581825F
:10012300F05017906198E0F8900605E0C398A2D2CA
:1001330065D0335002E8F075A1FE751A00EEA2E017
:1001430092AF7F01020498C0E074F2120439A2AFA7
:10015300E433FED2AF9061A4E0F8759B00E59158BB
:10016300540860087591F712169B802AE59158543C
:100173001060087591EF1216A1801BE8A2E0C0D0B1
:10018300E591A2E092F0120947158182F05007E051
:10019300C2E0F01217F19061A3E0F8E5E9585404C6
:1001A300600E1217C775E9FB906193E0A2E640F277
:1001B3008088C0E074F2120439A2AFE433FED2AFF8
:1001C3009061A5E0F8E5BF585404600675BFFB12C3
:1001D300180902013DC3E498F8E499F91202198061
:1001E30026C3E49AFAE49BFBE920E7E9120219E447
:1001F30098F8E499F922C3E498F8E499F9120219FA
:10020300E498F8E499F9C3E49AFAE49BFB22EB201F
:10021300E7CFE920E7E0B90010BB0008E88AF084E3
:10022300F8AAF022E4FBC8FA22EB70227B10C83351
:10023300C8C933C9335007C39AC3DBF280069A5047
:10024300012ADBEAC833F4C8C933F4C9FA2275F0CA
:1002530008E4C833C8C933C933C99AC99B5004C910
:100263002AC93BD5F0ECFBC833F4C8E4C9FA220829
:100273000808EAC0E0EBC0E086F0E7A4FA180986B4
:10028300F0E7A42AFA180986F0E7A42AFA180986DF
:10029300F0E7A42AFA1986F0E7A4FBE5F02AFA1995
:1002A3000886F0E7A42BFBE5F03AFA190886F0E795
:1002B300A42BFBE5F03AFA18180986F0E7A4C5F079
:1002C3002BFBE43AFA1908E7C5F0C6A426F6E5F0D5
:1002D3003BFBE43AFA1886F0E7A4F6E5F00826F6C5
:1002E300E43B08F6E43A08F6D0E0FBD0E0FA22E477
:1002F300CFC0E0E4CEC0E0E4CDC0E0E4CCC0E07524
:10030300F020C3E633F608E633F608E633F608E6EC
:1003130033F6181818EC33FCED33FDEE33FEEF33F0
:10032300FFC3EC9709ED9709EE9709EF9719191990
:10033300400FFFEC97FC09ED97FD09EE97FE1919A5
:1003430006D5F0BEECF709EDF709EEF709EFF7195B
:100353001919D0E0FCD0E0FDD0E0FED0E0FF22256B
:1003630018C582C0E0E51934FFC583C0E0E518C3B2
:10037300958224F810AF0885831985821880088533
:100383008319858218D2AFCEF0A3E520F0A37808B5
:10039300E608F0A3DEFAEFF0A3E58124FAF8E60815
:1003A300F0A3E608F0A3E608F0A30808E608F0A324
:1003B300E608F0A315811581D0E0FED0E0F81581A1
:1003C30015811581E8C0E0EEC0E022120A59B90098
:1003D30003020423E4900301785C79088002F0A30C
:1003E300D8FCD9FA781A9000867A01BA00028007FD
:1003F300E493A3F608DAF9900A5CAA82AB8390002F
:1004030087785D79018015E493A3AC82AD838A82FA
:100413008B83F0A3AA82AB838C828D83D8E9D9E73F
:1004230075824C7583E074021207A975827975830E
:100433001A74001207A9C0D02518C582C0E0E519B7
:1004430034FFC583C0E0E518C3958224F310AF08D9
:100453008583198582188008858319858218D2AF10
:10046300C8F0A3E9F0A3EAF0A3EBF0A37908E70946
:10047300F0A3D8FAECF0A3EDF0A3EEF0A3EFF0A312
:10048300D0E0F0A3D0E0F0A3D0E0F0A3E520F0A308
:10049300E5F0F0A322851983851882E0C0E0A3E08C
:1004A300F9A3E0FAA3E0FBA37808E0F608A3DFFAD8
:1004B300E0FCA3E0FDA3E0FEA3E0FFA3E0C0E0A314
:1004C300E0C0E0A3E0F5D0A3E0F520A3E0A3F5F0BE
:1004D30010AF088583198582188008858319858262
:1004E30018D2AFD082D083D0E0F8D0E03275F010CC
:1004F3008E218F22858226858325851882851983FF
:10050300E0CEA3E0CF852682852583EBC9EAC8ED3B
:10051300CBECCAC3E833C8E933C9EA33CAEB33CBFC
:10052300C3EA9EF524EB9FF523B35004AB23AA241F
:10053300EC33CCED33CDD5F0DAAE21AF2222D0832C
:10054300D082ECC0E0EDC0E0E493A3FCE493A3FD10
:10055300ED4C600D120660EC24FFFCED34FFFD80D2
:10056300EFE493A3FCE493A3FDED4C600D1206FDB1
:10057300EC24FFFCED34FFFD80EFD0E0FDD0E0FC88
:10058300E493A3C0E0E493C0E022C0E074F2120459
:1005930039A2AFE433FED2AFE589A2E550031215C9
:1005A30075758900C2C5751A00EEA2E092AF7F018E
:1005B300020498C0E074F2120439A2AFE433FED20D
:1005C300AFE58BA2E05003121575758B00C2E8806E
:1005D300D5851983851882E0A3FEE0A3F52078086A
:1005E300E0A3F608DFFAE0A3FFE0A3C0E0E0A3C0C6
:1005F300E0E0A3C0E0E0A3C0E0E0A3C0E010AF08E8
:100603008582188583198008858218858319D2AF5E
:10061300D083D0820207AFD083D082E9C0E0E493D5
:10062300A3C386F0C5F095F0F908E493A386F0C55B
:10063300F095F0700BE493A3C3994005E90480029D
:10064300A3E475F002A42582F582E5F03583F583F2
:10065300D0E0F9E493A3C0E0E493C0E022C0E0C398
:10066300E49396087401939618400FE49366700818
:1006730008740193661870007019A3A3C3E49396DA
:10068300087401939618A3A3400DD0E0D0E0D0E006
:1006930002057DA3A3A3A3A3A3D0E0227404800433
:1006A30074028000CCC0E0EDC0E0E518C39CCCAD83
:1006B3001950011D10AF068C188D1980068C188DEA
:1006C30019D2AF12074AD0E0FDD0E0FC22740280B9
:1006D30000CCC0E0EDC0E0E518C39CCCAD195001DF
:1006E3001D10AF068C188D1980068C188D19D2AF8A
:1006F300120728D0E0FDD0E0FC22C0E0C0F088F073
:10070300E4936670080874019366187000A8F0A358
:10071300A3700BD0F0D0E0D0E0D0E002057DA3A31E
:10072300D0F0D0E022CAC0E0E493A3C582CCC58256
:10073300C583CDC583F0A3C582CCC582C583CDC592
:1007430083DAE5D0E0CA22CAC0E0E0A3C582CCC503
:1007530082C583CDC583F0A3C582CCC582C583CDB5
:10076300C583DAE6D0E0CA22C008C3E096F50808DC
:10077300A3E096420808A3E096420808A3E0964542
:10078300087001D3D00822700908080822601618DF
:100793001818C6C333C608C633C608C633C608C648
:1007A30033C6D5E0EA22C09FF59FE473D09F22D0E1
:1007B30083D082C09FE493C0E0740193C0E07402CD
:1007C30093F59F22C0E0C0D0E8C0E0E5A8D2AFC255
:1007D300C7751A00A2E792AFD0E0F8D0D0D0E032CC
:1007E3002518F58210AF08F518400215198008F591
:1007F3001840021519D2AF851983227404800A7434
:10080300038006740280027401C0E0F4041207E35B
:10081300D0E0120A3422BB0102E722C082C08389DE
:10082300828A83BB0003E08002E493D083D08222D8
:10083300C0D0251810AF08F518500205198008F527
:100843001850020519D2AFD0D0226016080808C686
:10085300C313C618C613C618C613C618C613C6D5FF
:10086300E0EA22C3E0C696F608A3E0C696F608A31C
:10087300E0C696F608A3E0C696F622251810AF0840
:10088300F518400215198008F51840021519D2AF62
:1008930022E066701008A3E066700A08A3E06670A1
:1008A3000408A3E06622C3E09608A3E09608A3E049
:1008B3009608A3E096A2D265D03322E766701008AB
:1008C30009E766700A0809E76670040809E7662203
:1008D300C3E096F008A3E096F008A3E096F008A31F
:1008E300E096F022C3E697F60809E697F60809E6CC
:1008F30097F60809E697F622E627F60809E637F69B
:100903000809E637F60809E637F622E026F608A3D3
:10091300E036F608A3E036F608A3E036F622E657FB
:10092300F60809E657F60809E657F60809E657F602
:1009330022700422600D18C6C333C608C633C6D559
:10094300E0F41822C0E0E8C0E0E58124FCF8E6A268
:10095300E7D0E0F8D0E022E056F608A3E056F60828
:10096300A3E056F608A3E056F622E056F008A3E00B
:1009730056F008A3E056F008A3E056F022E647F647
:100983000809E647F60809E647F60809E647F622A6
:10099300E026F008A3E036F008A3E036F008A3E071
:1009A30036F022E4C396F608E496F608E496F608D1
:1009B300E496F622600D08C6A2E713C618C613C64E
:1009C300D5E0F322C6F4C608C6F4C608C6F4C608C2
:1009D300C6F4C622C3E7960809E7960809E796080E
:1009E30009E79622C3E09608A3E09608A3E09608D9
:1009F300A3E0962275D0007581407518017519031F
:100A0300000203CEE0F608A3E0F608A3E0F608A38D
:100A1300E0F622600C08C6C313C618C613C6D5E099
:100A2300F422E6F008A3E6F008A3E6F008A3E6F054
:100A330022CAC0E0E6F0A308DAFAD0E0FA22E0FA2C
:100A4300A3E0FBA3E0FCA3E0FD22EAF0A3EBF0A309
:100A5300ECF0A3EDF022E5C754F84401F5C77901A2
:100A6300222518F582E43519F58322C2AF75D69F86
:100A7300020000221207B226AA011207B295AA01A8
:100A83001207B2E4AC011207B237AE011207B2DAB1
:100A9300AE011207B212B0011207B230B001120751
:100AA300B261B0011207B273B0011207B2C5B0014F
:100AB3001207B226B1011207B2B0B1011207B25444
:100AC300B2011207B2A8B2011207B2C1B2011207F2
:100AD300B2E7B2011207B222B3011207B266B30141
:100AE3001207B28DB3011207B2DEB3011207B28E41
:100AF300B4011207B246B5011207B20EB6011207CE
:100B0300B2EBB6011207B271B7011207B280B70197
:100B13001207B28BB7011207B294B8011207B2A53C
:100B2300B8011207B21BB9011207B2ADB90112071E
:100B3300B205BA011207B2CBBA011207B2FCBA016D
:100B43001207B241BB011207B24EBB011207B2E258
:100B5300BC011207B245BE011207B261BF01120701
:100B6300B2CBC1011207B2D6C1011207B2E0C10173
:100B73001207B2EBC1011207B2F5C1011207B2FFAE
:100B8300C1011207B20AC2011207B215C20112074C
:100B9300B246C2011207B26AC2011207B28EC20183
:100BA3001207B2F3C2011207B237C3011207B253DD
:100BB300C3011207B2CAC3011207B202C40112076A
:100BC300B24EC4011207B2ABC4011207B28DC60103
:100BD3001207B213C7011207B2E4C7011207B2F436
:100BE300CA011207B249CB011207B275CB01120732
:100BF300B2C1CC011207B211CD011207B266CD0109
:100C03001207B267CE011207B2FFCE011207B281FB
:100C1300CF011207B221D0011207B2E91D0012075A
:100C2300B2221E001207B2FC1F001207B23B2000C3
:100C33001207B28520001207B22A21001207B289D7
:100C430021001207B2BD21001207B22A22001207A7
:100C5300B24723001207B24F24001207B2E5240063
:100C63001207B22C28001207B2D528001207B2B11E
:100C730029001207B2122A001207B22F2B00120703
:100C8300B2592D001207B2102E001207B21A2E000D
:100C93001207B24D2E001207B2142F001207B2AF83
:100CA3002F001207B21430001207B23D30001207B2
:100CB300B25F30001207B28E32001207B265330002
:100CC3001207B2A933001207B21634001207B2D1C9
:100CD30034001207B20335001207B247350012077A
:100CE300B27A35001207B2CF35001207B2243600AC
:100CF3001207B2B836001207B21A37001207B282CF
:100D030037001207B22B39001207B2133A00120749
:100D1300B2553B001207B2833D001207B2433E00B7
:100D23001207B27240001207B21541001207B25304
:100D330041001207B2FF42001207B2134300120729
:100D4300B21D43001207B24743001207B2534300D8
:100D53001207B27243001207B22944001207B268A5
:100D630044001207B27244001207B226450012076C
:100D7300B22546001207B21E47001207B2BB470056
:100D83001207B25D48001207B27448001207B2ABF3
:100D930048001207B2C948001207B20D49001207F2
:100DA300B23249001207B2184A001207B2844A004D
:100DB3001207B2FE4A001207B20D4C001207B24CE2
:100DC3004D001207B2AE4D001207B2684E00120773
:100DD300B28B4E001207B25F4F001207B2AA4F0048
:100DE3001207B2EC4F001207B24350001207B27A57
:100DF30050001207B2A850001207B2E150001207C8
:100E0300B20651001207B28E51001207B2B153005D
:100E13001207B21054001207B2A454001207B21002
:100E230055001207B26455001207B243F5021207C8
:100E3300B282F5021207B2B656001207B21057007B
:100E43001207B26C57001207B2B857001207B2D399
:100E530057001207B20458001207B22158001207B4
:100E6300B22D58001207B2A159001207B2BA5900A5
:100E73001207B2215A001207B2345A001207B242C3
:100E83005A001207B2F65A001207B2DA5B001207D1
:100E9300B2E05C001207B2665D001207B2705D003B
:100EA3001207B2DD5D001207B2F45D001207B2262D
:100EB3005E001207B25F5E001207B2895E0012077E
:100EC300B2EA5E001207B20A5F001207B2285F009F
:100ED3001207B26E5F001207B29460001207B2E10C
:100EE30060001207B21061001207B2866100120798
:100EF300B2AE61001207B2E761001207B2F56100FA
:100F03001207B24D62001207B29C62001207B2DBF5
:100F130062001207B20B63001207B23763001207B5
:100F2300B24263001207B26063001207B222640088
:100F33001207B22C64001207B26764001207B27D75
:100F430064001207B28664001207B2DB6400120762
:100F5300B2EF64001207B2FD65001207B21066001B
:100F63001207B22766001207B23C66001207B2DE10
:100F730066001207B26167001207B21F680012070A
:100F8300B22A68001207B25069001207B26C6900F6
:100F93001207B2BE69001207B2FD69001207B2124E
:100FA3006A001207B2546A001207B2A16C0012075A
:100FB300B21F6D001207B2926D001207B2B46F0038
:100FC3001207B2CC6F001207B2CF6F001207B2DB69
:100FD3006F001207B2EF6F001207B2F76F0012072C
:100FE300B22A70001207B2DA70001207B250710011
:100FF3001207B2C371001207B27772001207B22C44
:1010030073001207B24B73001207B2EB730012079F
:10101300B2F773001207B22274001207B2257400EC
:101023001207B25474001207B26974001207B2D3E4
:1010330074001207B2FB75001207B2D376001207D1
:10104300B25E77001207B27778001207B2347900E4
:101053001207B26D79001207B29E79001207B23EF1
:101063007A001207B26E7A001207B2497B001207A8
:10107300B2E27B001207B26D7C001207B21E7D0044
:101083001207B2A07D001207B2D27D001207B2137D
:101093007E001207B2487E001207B2E799021207D8
:1010A300B24C9A021207B2899A021207B2D89A0274
:1010B3001207B2EE9C021207B2D19E021207B23B94
:1010C300A2021207B276A2021207B298A202120774
:1010D300B2FBA2021207B22FA3021207B252A3025B
:1010E3001207B27FA3021207B2DBA3021207B222D6
:1010F3008E021207B2A08E021207B2D68E02120718
:10110300B2428F021207B2B590021207B2D1900217
:101113001207B21691021207B2A491021207B2FD8E
:1011230091021207B22A93021207B23C94021207E9
:10113300B29994021207B20595021207B26695029C
:101143001207B2A795021207B25496021207B266AB
:1011530097021207B29197021207B2DC97021207A5
:10116300B22398021207B2B598021207B27099021D
:101173001207B2FFC9021207B26ACA021207B263A8
:10118300AD021207B2AFAD021207B21DAE021207D3
:10119300B23EAE021207B2EEAE021207B2F7AE02D1
:1011A3001207B24AAF021207B273AF021207B2DAE2
:1011B300AF021207B26BB0021207B2ADB002120750
:1011C300B2F7B0021207B256B1021207B24F9D0135
:1011D3001207B226B2021207B265B2021207B29A1E
:1011E300B2021207B2ACB2021207B2BEB2021207C7
:1011F300B2DDB2021207B2E6B2021207B2B3B30211
:101203001207B20BEF021207B28CF5021207B21AE1
:10121300DE021207B250DE021207B299DE02120793
:10122300B2E9DF021207B2D4D0011207B2DEA9017C
:101233001207B24FD2011207B20ED4011207B2370E
:10124300D4011207B2CAD6011207B20ED701120790
:10125300B297D8011207B22FD9011207B297D90159
:101263001207B238DA011207B27ADA011207B2BAF8
:10127300DA011207B245DC011207B2B5DD0112072C
:10128300B2DADF011207B208E0011207B22FE00160
:101293001207B238E0011207B2BFE0011207B2DD54
:1012A300E3011207B2F5F4021207B20BF5021207BB
:1012B300B21AF5021207B261C6021207B274C6026D
:1012C3001207B211C7021207B24DC7021207B26466
:1012D300C7021207B289C7021207B2CBC7021207AD
:1012E300B2FCC7021207B237C8021207B2B1C90271
:1012F3001207B2F2C9021207B22CF2021207B2624B
:10130300F2021207B27EF2021207B2C0F202120711
:10131300B2D0F2021207B25EE4011207B2B3E401E3
:101323001207B26BE5011207B206E6011207B250CB
:10133300E6011207B264E6011207B22EE8011207B2
:10134300B2A9E8011207B2D3E8011207B28DEA018C
:101353001207B2A8EA011207B2F7EA011207B20DA7
:10136300EB011207B21AEB011207B24EEB0112079F
:10137300B264EB011207B2EFEB011207B249EC01C1
:101383001207B297EC011207B2A1ED011207B223C3
:10139300F0011207B2BDF0011207B2FFF00112070C
:1013A300B294F1011207B2B1F1011207B2B4F10123
:1013B3001207B2B7F1011207B22AF2011207B245BE
:1013C300F2011207B271F2011207B2ACF201120775
:1013D300B2AFF2011207B215F4021207B221F402FE
:1013E3001207B25BF4021207B20080021207B22B9B
:1013F30080021207B2ED80021207B2728102120755
:10140300B2DB81021207B22782021207B2A682025E
:101413001207B23883021207B2C883021207B20A54
:1014230084021207B25388021207B2D38902120749
:10143300B22A8B021207B2B68B021207B2AD8C022C
:101443001207B2E8F2011207B2A2F3011207B214B3
:10145300F4011207B2A8F4011207B2B2F5011207A0
:10146300B222F6011207B256F7011207B232F8019F
:101473001207B2A3F8011207B220FA011207B2E26F
:10148300FA011207B24DFB011207B228FD01120740
:10149300B2C7FD011207B284FE011207B226D402BD
:1014A3001207B27AD4021207B2D2D4021207B21DC3
:1014B300D5021207B27FD5021207B218D60212075D
:1014C300B280D6021207B28CD6021207B238E402F7
:1014D3001207B269E4021207B223E5021207B289C6
:1014E300E5021207B2D0E0021207B2A67E0012078D
:1014F300B2C37E001207B22A7F001207B2647F00D4
:101503001207B2AB7F001207B2AFF0021207B2C0EC
:10151300F0021207B260F1021207B212E6021207DA
:10152300B220E6021207B2E17F001207B27AF30299
:101533001207B28AF3021207B2A2F3021207B20F22
:10154300F4021207B209EE021207B28EEE0212077C
:10155300B2F2EE021207B2D1E7021207B2F3E702C8
:101563001207B259E8021207B279E8021207B2B7BA
:10157300E8021207B212E9021207B249E90212079E
:10158300B24CE9021207B2DEEF021207B2F6EF0223
:101593001207B226F0021207B2A1F0021207B262DA
:1015A300C2021207B270C2021207B2EAC2021207E3
:1015B300B2CEC3021207B287C5021207B2ECC5024C
:1015C3001207B24DC6021207B2F87F001207B25CCF
:1015D300E2021207B27EE2021207B2B1E30212077D
:1015E300B235E4021207B2F3B8021207B248B902E5
:1015F3001207B244BB021207B276BB021207B298BB
:10160300BB021207B2B1BB021207B2CABB02120776
:10161300B2D4BC021207B26FBD021207B255E9027F
:101623001207B279E9021207B292E9021207B2C5B0
:10163300E9021207B2F6E9021207B224EA0212071C
:10164300B22EEA021207B290EA021207B29FEA022E
:101653001207B2A9EA021207B2B6EA021207B2C728
:10166300D6021207B2EDD6021207B22AD702120728
:10167300B239D7021207B258D7021207B2C0D70243
:101683001207B2C9D7021207B228D8021207B24C06
:10169300D8021207B20BD9021207B218D9021207E5
:1016A300B229D9021207B2D2F5021207B2EFF5023C
:1016B3001207B214B4021207B272B5021207B27F54
:1016C300B5021207B292B5021207B2B1B502120700
:1016D300B2C7B5021207B2DBB5021207B250B602A7
:1016E3001207B2B5B6021207B23DB7021207B2C66D
:1016F300B7021207B29BB8021207B2ABB8021207C5
:10170300B2BAB8021207B2E1F2021207B205F3024B
:101713001207B22DF3021207B255F3021207B257A2
:10172300D9021207B27ED9021207B29FD902120759
:10173300B204DA021207B2BDDB021207B2D6DB0231
:101743001207B2E2DB021207B2F6DB021207B2148F
:10175300DC021207B21EDC021207B228DC021207F7
:10176300B23BDC021207B28EDC021207B2C7DC0204
:101773001207B2F6DC021207B244DD021207B2937B
:10178300DD021207B2AEDD021207B2B8DD021207A4
:10179300B2C9DD021207B20FDE021207B298F402D9
:1017A3001207B2E9F4021207B227A4021207B251D8
:1017B300A4021207B26DA4021207B280A402120798
:1017C300B296A4021207B2F3A4021207B226A5022C
:1017D3001207B262A9021207B288AA021207B2BBA9
:1017E300AA021207B207AB021207B233AC02120706
:1017F300B25BAC021207B270AC021207B280AC0249
:101803001207B2C4AC021207B225AD021207B235F9
:10181300AD021207B2C0EA021207B2DBEA021207F4
:10182300B204EB021207B21EEB021207B243EB0241
:101833001207B262EB021207B27AEB021207B2A8E6
:10184300EB021207B2C2EB021207B27AF1021207DD
:10185300B2BEF1021207B286CD021207B28DCD02DB
:101863001207B299CE021207B2C9CE021207B2EF23
:10187300CE021207B212CF021207B234CF021207FE
:10188300B26ECF021207B2D4CF021207B20DD0024A
:101893001207B259D0021207B286D0021207B2A6BB
:1018A300D0021207B206ED021207B218ED021207B8
:1018B300B203EE021207B206EE021207B2F3EB0214
:1018C3001207B265EC021207B2A3EC021207B2E4EC
:1018D300EC021207B206D1021207B222D10212079A
:1018E300B271D1021207B28DD1021207B2BED10278
:1018F3001207B2CED1021207B2BAD2021207B2C491
:10190300D2021207B2D1D2021207B2E1D3021207F6
:10191300B2F5D3021207B2FED3021207B2AEBD0272
:101923001207B2F3C1021207B2F8C1021207B20ED4
:10193300F6021207B2F69C011207B28A9C01120743
:10194300B2619C011207B2549A011207B2209A01A4
:101953001207B2ED99011207B2D199011207B2F73A
:1019630098011207B2AF98011207B2E49601120769
:10197300B26496011207B26196011207B26C950127
:101983001207B23A95011207B27794011207B2A275
:1019930092011207B23392011207B20592011207A4
:1019A300B20292011207B2EF91011207B2879101BD
:1019B3001207B27691011207B25790011207B24192
:1019C300A9011207B234A9011207B242A6011207F4
:1019D300B294A3011207B268A2011207B2219001C7
:1019E3001207B2E48F011207B2858F011207B254B6
:1019F3008F011207B2BCA1011207B20F8C011207AB
:101A0300B2008B011207B28F8A011207B2548A0106
:101A13001207B20DA0011207B213D2011207B21FAF
:101A23008A011207B2138A011207B27389011207DE
:101A3300B2BA88011207B28D86011207B219840166
:101A43001207B2D783011207B2A282011207B2575B
:101A530082011207B28981011207B2E080011207E5
:101A6300B2B680011207B2C89D011207B27C800191
:101A73001207B2E7B10200000080FBE473000136F5
:101A83003601010001020100010301000104010606
:101A93000605020000070100340801000F090401D4
:101AA300010D0100FF0E08000017020000190100DC
:101AB300FF1A0100011B0100FE1C0100081D0200AA
:101AC300001F010001200100012102000023010089
:101AD3000F2402000026010001270100082802004C
:101AE300FF2A0100072B0102402C0100002D0100F9
:101AF300012E0100012F0100FF30010B1C310800F2
:101B0300003A0100083B01000F2F010000010171A1
:101B130001010101011101010131010101010180F3
:101B230001100161013B0014006301730172016242
:101B33000143010001130106013D013500040112B7
:101B4300010001000100010001040104013301331C
:101B5300013C01440132013600000100016501002E
:101B630001350081010001050182018301000101AA
:101B730003710301030103010301030103220302B0
:101B83000301031003000300030003000300030029
:101B930003000342030003240306030003000304BA
:101BA3000312032503230325032303040304030070
:101BB300030003000344030003000323030003653E
:101BC3000321003503810300030503000300030021
:101BD3000303007100300160001100700031022026
:101BE30003500480001000610000001400630073C0
:101BF30000720062004300000013000600000000B2
:101C030000040012000000000000000000040004B3
:101C130000370037003C02440000000000000000D1
:101C2300006500000035008100000005000000830E
:101C33000000000302710230016002110270020110
:101C430002020202028002100261023A00410063B2
:101C5300027302720262024302000213023800009E
:101C63000200020402120200020002000200020447
:101C7300020402370037003C02440200023900002C
:101C8300020002650200023502810200020502829F
:101C9300028302000236000100060000000F00006C
:101CA300000000000000000000000003FFFF000030
:101CB3000403FFFF0000FFFF0FF4010005C404034A
:101CC30020000100000B00000000000000000301E1
:101CD3000FD30E030FD90EDF0EFD0EF10EEB0E091F
:101CE3000F0F0F150F210FE50ECD0EC70E0100616B
:101CF30014020001140300071404000D140500135B
:101D03001406001F14FFFF000003EAF5E5D5D5C54F
:101D1300B5A59595858575756565555545453535E0
:101D230025251515050A9F0C02690C057B0C076F09
:101D33000C0C4B0C0D5D0CFF000000160F00000B8C
:101D4300150B020002220F32000006C30FD50FDB72
:101D53000F9D0EE10F970EA30E2F104D105310354C
:101D63001041103B100C0E020B040B0A0708000F66
:101D730000383C3E363B3B352B432C0001191618EB
:101D830016161523030000034948424D181725056D
:101D930002303017181921301B1D1F303030161830
:101DA3001920231A1C1E301710E70FED0FF90FF33C
:101DB3000FF70E1B0F4710270F2D0F02040201010F
:101DC3000101090200000000000000BE040AE8034C
:101DD300040015000E00280008040C0A030908FF7C
:101DE3001E1E0F040C0574F7120362E99003B0F092
:101DF300900365E4F01218A59003B5E4F0A3F09006
:101E030003B1F0A3F0120DD71218AB900334E4F032
:101E1300A3F0901DE593FA790212190B024A7F741D
:101E2300F2120362EAFEEBFF548060699003B0E0B4
:101E3300F91211AF8A088B09EA4509604F7C0080CB
:101E4300010CEC75F003A4F8A9F0742828F582744A
:101E53001D39F583E493F4602CE493F88508828BB1
:101E630083E06870DCAA08EC75F003A4F8742928F1
:101E7300F582741D39F583E493C0E0740193F5830F
:101E8300D082121A7EAA08AB091211A3EEFAEF64EC
:101E930080FB021FEFEF5420601D120CF98A088BA0
:101EA30009EA4509600A120C5DAA08AB091211A3DD
:101EB300EEFAEF642080DAEEA2E0501A90036AE0B3
:101EC300640F700B7900120C27E96003121FF2EE06
:101ED3006401FAEF80BB54207003021FBD750C0030
:101EE3001234C48B09EA450970107C027D007A2004
:101EF3007B009003B0E0F91212D57C0079047A00DC
:101F03007B00120CD58A088B098018850882850905
:101F130083A3A3A3A3A3A3A3A3A37401F0850A0884
:101F2300850B09E5084509606D7C007904AA08ABB7
:101F330009120CD58A0A8B0B750C01E5082404F8E9
:101F4300E50912326824FFF0A3E034FF12555B70F9
:101F5300CC850882850983A3A3A3A3A3A3A3A3A3D7
:101F6300A3E0640170A5850882850983A3A3A3A3C5
:101F7300A3A3E054047094850882850983A3A3A3D3
:101F8300A3A3A3A3A3A37406F07AB7850882850944
:101F93008312211E8087120CA57C0079017A007BB5
:101FA30000120CD58B09EA45097009E50C70057A16
:101FB3002012441EEE6420021ED5EF5402600B1261
:101FC3000DD1EEFAEF6402021E94EF54046019126D
:101FD30045B51244D57901900363124839120B6D4C
:101FE300EEFAEF6404021E947A007B00022225902D
:101FF3000A901228BC120C3F22C082C08374EA12DA
:10200300087E851882851983AA82AB83794B1218BF
:10201300E17408120A647402F07409120A64AA8251
:10202300AB8379501218E17413120A64E4124A085C
:102033001218FF74160239E274F712036274E11284
:10204300087EEAFEEBFFEE4F603385188285198325
:10205300AC82AD83120D1D7406120A64E0601E7417
:1020630017120A64E0FD7401120A64E0FCEEFAEF51
:10207300FB7900120A95E9600479A48002790002D1
:102083004A7A74F6120362EAFEEBFF8E828F83A311
:10209300A3A3A3A3A3E05440601B124EF71221ECA9
:1020A30060067AFF7BFF801A8E828F8312366EFA68
:1020B300A3E0FB8003120D4174FE6A700374FF6B8F
:1020C3006041124EF7124462120D95E98E828F839E
:1020D3006006122117E480051221177401F07C2D8C
:1020E3007D0C8E828F83124839121905E9F5087029
:1020F30015EE4F60097901EEFAEFFB120CB1A90856
:102103000244937508CDAA088E828F8312211EE99B
:1021130060DF80EAE0240D123B3D22E0240C123BF9
:102123003DE0F9120C392274F6120362E9FEEAFF6C
:102133007A0F7B0012119DEA4B60198A828B83749C
:102143000CF0EEA3A3F0EF8A828B83A3F01244BEBC
:102153007900802FEEF9120CDB8A088B09A808A9F5
:1021630009E849601C88828983A3A3A3A3A3A3A32B
:10217300A3A37406125182E0F9120BF1EEF9120CCB
:10218300B77910024493C082C08390036AE0640F5E
:102193007014EA4B6010900365E064086005E06426
:1021A3000470031221AC023A0CEAFCEBFD7A017BCA
:1021B300009003B0E0F91212CF22C082C0837900ED
:1021C300EA241DF582EB12366B24FD600B146008C4
:1021D30024FD600424FD700109023A0C8E828F8372
:1021E300A3A3A3A3A3A3A3A3A31221F0221236B3F1
:1021F300FB120D95E9228E828F83A3A3A3A3A3A32E
:10220300A3A3A31221F06402228E828F83A3A3A32C
:10221300A3A3A3A3A3A3123A03900356E068221235
:1022230008337F060205D474F412036274FD1208A6
:102233007E8A088B098A828B83A3A3E0F9120CDBC5
:102243008A0A8B0BAE0AAF0BEE4F70030223318564
:102253000882850983A3E064F160308508828509DB
:1022630083A3E064CD6024850882850983A3E064A9
:102273001A6018850882850983A3E064E9600C85E8
:102283000882850983A3E064E170087900120CB128
:10229300E9706C850882850983A3E0C0E0740212AB
:1022A3000A64D0E01239E7EEF0A3EF122D1285187D
:1022B30082851983AA82AB837005120B55800312A2
:1022C3000D7D7402120A64E064E970338E828F8399
:1022D30012233D750A01780A12080A750AE9780A79
:1022E30012080AE508240CF582E509122804122CC9
:1022F300EFFCA3E0FD8A828B83122D091208338E33
:10230300828F83A3A3A3A3A3A3A3A3A3E0640270C5
:10231300108E828F83A3A3A3A3A3A3A3A3A3740653
:10232300F0850882850983A3A3E0F9120CB7120C88
:10233300A5900A94121FF50228C1E0F8A3E0F9E87A
:10234300FAE9FB2274F4120362EAFEEBFF7508005C
:102353008E828F83A3A3A3A3A3E060427508088E94
:10236300828F83A3A3A3A3A3A3A3A31239168B0BC7
:10237300EA450B601075082C8E828F83A3A3A3A359
:10238300A3E0D2E0F08E828F83A3A3A3A3A3E054A0
:102393000364016003022430430811022430EE2455
:1023A300181228CE6033EE241A1228CE700F122290
:1023B3000C7003A3E06970757508228070EE241B0E
:1023C300F582EF122435241AF582EF122D1AEE242A
:1023D30019124F2B120BDF80541221F97003750869
:1023E3000112220C7003A3E0697006E508D2E1F53F
:1023F30008E50860158E828F83A3A3E07006E508C5
:10240300D2E58004E508D2E6F5081221DF64017005
:1024130006E508D2E0F5088E828F83A3A3E0600D62
:1024230012244364016006E508C2E0F508A9080226
:1024330028C612365912243C22E0FCA3E0FDEE220A
:1024430012365312368BF9120D83E922C082C083F0
:1024530079018A828B83A3A3E0C394024001198A82
:10246300828B83A3A3A3A3E0C39402400279008ACF
:10247300828B83A3A3A3A3A3A3A3A3A3E064F87062
:1024830003A3E0F460458A828B83A3A3A3A3A3A33E
:10249300A3A3A3E064F97003A3E0F4602E8A828B04
:1024A30083A3A3A3A3A3A3A3A3A3E064FA7003A397
:1024B300E0F460178A828B83A3A3A3A3A3A3A3A39C
:1024C300A3E064FB7003A3E0F4700279008A828BBB
:1024D30083A3A3A3E0F8900353E0686002790002AA
:1024E3003A0C74F012036274DE12087EEAFEEBFF0C
:1024F3008E828F83A3A3A3A3E0600E900A9212445B
:102503008A6006900A92121FF57403120A64AC8261
:10251300AD838E828F83A3A3A312450C124D45E98D
:10252300600F7403120A64AA82AB83120C57E9701A
:102533000879011218B70227F9EE241B12365E74CC
:1025430010120A641244D57409120A64E0602174FB
:102553001A120A64E0FD7404120A64E0FC8E828F8E
:10256300831248377901120A95E96004790280C31E
:102573007403120A64AA82AB83120C51E9F50A743C
:1025830009120A64E0702A90034DE0602474225516
:102593000A6422601C7442550A644270CF7420128C
:1025A3000A64122817600A7420120A641228107031
:1025B300BBE9A2E650417403120A64AA82AB8312F8
:1025C3000C45E970030225347420120A6412366E36
:1025D3006403700F7420120A64A312447CA3E064A2
:1025E3000D60147403120A64AA82AB83120DA7E967
:1025F300640170030227F9EE242C122801122B2503
:102603007003A3E069701C750800780812080A7843
:102613000812080AEE242E124F2B12281D122D0920
:102623001208337409120A64E070030226D61228D2
:102633001D124839120DFB8A088B09EA45097003FC
:102643000227737404120A64E0F88E828F83A3A3B3
:10265300E028F8A3E03400F9E8240D1228088A8260
:102663008B83A3A3A3E068601CE88A828B83A3A364
:10267300A3F090803D120A41850882850983A3A3B4
:10268300A3A3120A4D7904E9120A64124D222AF80F
:10269300A3E034008882F583A3AA82AB831211914D
:1026A3008A0C8B0D8C0E8D0F850882850983A3A35D
:1026B300A3A3780C12076B40030227F9908041789B
:1026C3000C12090E850882850983A3A3A3A3780CA2
:1026D300120A25900365E064046008E0640960035E
:1026E3000227F9E50AA2E540030227B1EE242E12E0
:1026F30028CE851882851983F0EE242F1228CEC0A8
:10270300E07401120A64D0E0F0EE24301228CEC047
:10271300E07402120A64D0E0F07414120A64E064F4
:10272300017027740E120A64123664EE2412122802
:10273300CE687003A3E0697011740C120A6412224C
:102743000670077414120A64E4F0EE2424122801BC
:1027530012069F7404120A64AC82AD837407120AD2
:1027630064AA82AB83120B5B74041208330227F949
:102773009003AAE0640160030226D67420120A645F
:102783001228177009E50AA2E650030226D6741030
:10279300120A64E0F47003A3E0F4605AEEFCEFFD68
:1027A3007403120A64AA82AB83120C638048A2E604
:1027B30050447420120A64124848701A741A120A98
:1027C30064E0640270307403120A64AA82AB8379F2
:1027D30000120D7180207420120A641228107016E2
:1027E300741A120A64E06404700C7403120A64AA73
:1027F30082AB83120D6B7422024BF4EE240BF58231
:10280300EF12365922F582E91244EEF822124F09EB
:10281300E064072212368B640622EE242A1236560F
:1028230012243C24121236562274F4120362EAFE76
:10283300EBFF8C088D09900595E0600F12220C7058
:1028430003A3E0697005120BCD804F790012482C69
:10285300120BFD8A828B83E58245836035A3A3A394
:10286300A3A3A3E05418602AE508241BF582E50915
:102873001228041206A3122F021228041206A3EE32
:102883002418124F2B12289F120C0F7404120833B2
:102893008008790012289F120BD380278E828F83A2
:1028A300A3A3A3A3A3A3A3A3A312243C240BF58252
:1028B300EF1228B8223400F5831236B3FB227403D7
:1028C3001208337F040205D4EE2417F582EF124475
:1028D300EE2274F712036274F712087EEAFEEBFF2E
:1028E300900365E06403600DE064016008E064093F
:1028F300600302299F8E828F83A3E0707E7C007D1C
:10290300007A027B001218B1EE2402FAEF12326F42
:102913001236649003561244D579531218E779009E
:102923001229A4E064096003122D378518828519E2
:102933008374011244AB9003657404F07401120AAA
:1029430064AA82AB83794A1218E17401120A64AC57
:1029530082AD837A5B7B031218CF900356124D3BF3
:102963007A03122D41900350E0A2E35004D2F08089
:1029730002C2F0124498121FF2801E8E828F83A32C
:10298300AE82AF83FC7D007A037B101218B18E8276
:102993008F83E0F91229A4E4F0120C8D7409024A22
:1029A3007C9003631228BC120B6D90036522C082D6
:1029B300C08390033412448A701F900365E014604F
:1029C3000924FC600A14600C800F90033C80329051
:1029D3000338802D90033A8028E849600890033536
:1029E300122CE9700C8A828B83A3E0F9120B6180AD
:1029F3001B900335122F9E7005120DC5800E900398
:102A0300D212448A600612447C121A7E023A0C7473
:102A1300F412036274FB12087E8A088B097A0F7B17
:102A23000012119D8A0A8B0BAE0AAF0BEE4F700397
:102A3300022B198E828F83124A0679501218E18570
:102A43000882850983A3E06003022B01900363E0FE
:102A5300F47003A3E0F46034900363E064FE700356
:102A6300A3E0F46027851882851983122B25700350
:102A7300A3E0696017850882850983A374EA122D90
:102A83001F7A637B0379501218E780728518828559
:102A93001983124EEA1244D57A567B0379531218DE
:102AA300E19003561245061244D57A597B03794BBC
:102AB3001218E17A587B0379E11218E190036AE076
:102AC300C3940F5021900358E0C0E07402120A64CB
:102AD300D0E0F07404120A647401F004120A64AAC8
:102AE30082AB831218F9750A00780A12080A780A69
:102AF30012080A900AB6E0F9122D0012083385086D
:102B030082850983122B1EA3F09003657403F0EEF4
:102B1300FAEFFB1244BE74050228C3A3E08E828F32
:102B23008322124EEEE06822123B442274F5120314
:102B33006274D812087E8A088B098A828B83A3A3C6
:102B4300A31236907415120A64AC82AD838A828B09
:102B530083A3A3A3A3A3A3A3A3122CEFFAA3E0FB32
:102B6300120C937415120A64E0706B850882850950
:102B730083A3A3A3A3A3A3A3A3E0C3940B40578E50
:102B8300828F83A3A3A3A3A3A3A3A3E0640270469A
:102B9300EE240B1228CEF4703D900365E0640260CE
:102BA3003AE06406603590033412448A6005122CBF
:102BB300E9604F900365E064086005E06404701603
:102BC3007417120A64E0F9741C120A64AC82AD83B0
:102BD30012482C120C99742802540890033412449E
:102BE3008A701F750800780812080A780812080A04
:102BF300EE2410122801124F43123357122D0912DB
:102C030008338E828F831247A8123281123664747E
:102C130002120A641244D5EE240D1228CEC0E074C9
:102C230004120A64D0E0122D12F508A3E0F509742A
:102C33000F7808120A167405120A64E508F074196D
:102C4300120A64E0C0E07406120A64D0E0F0741B58
:102C5300120A64E0C0E07407120A64D0E0F074164C
:102C6300120A64E0C0E07409120A64D0E0F0741739
:102C7300120A64E0C0E07408120A64D0E0F0EE24A3
:102C8300101228CEC0E0740A120A64D0E0F0741A5D
:102C9300120A64E0C0E0740B120A64D0E0F07427F7
:102CA300120A64E0C0E0740C120A64D0E0F0741CF1
:102CB300120A64A982AA8389088A09750A00780816
:102CC3001208027C087D007410120A64AA82AB8386
:102CD300124039120833851882851983AA82AB837F
:102CE300120B67022BD9122FA4640122E0F98A8206
:102CF3008B83A3A3A3A3A3A3A3A3A3E02290036310
:102D0300124D3F9003591228BC120D53740222F046
:102D1300EE240B1244EB221244EEFA22F07A567B95
:102D2300037953122D2A221218E77A597B03794B20
:102D33001218E7229003631228BC120DF5227B00C0
:102D43001218B1900359124D3F7A047B001218B147
:102D530022F0124F4E2274F212036274F812087EAC
:102D6300EAFEEBFF8C0A8D0B890C8518828519838B
:102D7300AC82AD8375838075822A740812074AF585
:102D83000DEEFCEFFD851882851983AA82AB8312B1
:102D930047097003750D019003B1803BEEFCEFFD15
:102DA300E508240BFAE5093400124708601E85087C
:102DB30082850983A3A3E0650C70118508828509C8
:102DC30083E0650A7004A3E0650B6038E50824140A
:102DD300F582E509122804123279E50845096024D1
:102DE300E50DA2E040B6850882850983E0650A7097
:102DF30004A3E0650B70D5850882850983A3A3E04E
:102E0300650C70C8AA08AB097408022222C082C0EC
:102E1300839003B1023A0974F71203629003B1126B
:102E230036B38012EA2414F582EB1228041236908A
:102E3300121221EEFAEFFBEA4B70E99003B1E4F0D2
:102E4300A3F0024A7F7F070205D474F1120362EAFA
:102E5300FEEBFF890A8C088D098E828F83E08C82BA
:102E63008D83123920AE82AF83E01240F912406A9B
:102E7300C41240F9122F0BE054038C828D8312404D
:102E830068A2E2E4338C828D8312406713131354D8
:102E93001F1240F9124066A2E7E4338C828D83A3AC
:102EA300A3A3A3122F0B8E0C8F0D750E00780C129B
:102EB30008027C087D00E5082407124CAE12083393
:102EC300124D198E0C8F0D780C1208027C037D00B5
:102ED300E508240F124CAE120833E50AC3940F40E1
:102EE300148E828F83A3A3A3E0C0E0122F021228C3
:102EF30004D0E08006122F02125176F0022E48E52C
:102F0300082412F582E50922A3A31239240EAF8304
:102F13002274F412036274F912087EEAFEEBFF894D
:102F23000890033412448A600E122F9E7009EEFA41
:102F3300EFFB120DBF805F900363E06E7003A3E0AD
:102F43006F70537401650860097A777B0312470930
:102F530070447A007B021234C88B0BEA450B70363F
:102F6300900366120A41851882851983120A4D90CF
:102F7300036CE0C0E07404120A64D0E0F07405123C
:102F83000A647401F07406120A64124A06120B31C1
:102F9300E9609B120B3774070228C3122FA4640243
:102FA30022124F0AA3A3A3A3A3A3E02274F512033F
:102FB300628A088B098A828B83A3AE82AF83E0F98E
:102FC300120B858E828F83E064EB600C850882850B
:102FD3000983A3E064E17009850882850983A3E47A
:102FE300F0121FF2750A01780A12080A8508828511
:102FF3000983A3E0F508780812080A7900122D0066
:10300300120833120CA502540BEAF0A3EBF0023AB8
:103013000C74F61203629003B4E0701B7C00790118
:103023007A007B00120CD5EA4B600C8A828B8312E8
:10303300448A6003120C33024493C082C083123467
:10304300B0401079FF120CCFE9F8901DDDE493C373
:10305300985004790180027900023A0C74F012034B
:10306300628A088B09890B750C008A828B83A3A360
:10307300A3A3A3A3A3A3E0F9120CDB8A0E8B0FAEC9
:103083000EAF0F750A01EE4F600302313D850882D2
:10309300850983A3A3A3A3A3A3124D3B850882851C
:1030A3000983A3A3A3A3A3A3A3123E3912483912EE
:1030B3000CC38A0C8B0DAE0CAF0DEE4F70030232B6
:1030C300608E828F83A3A3A3A3E4F0A3F0E5082477
:1030D3000B12326CE0C0E01227FED0E0F0120D9B21
:1030E300EE240CF582EF12445EE508240EF582E52A
:1030F30009123661EE240EF582EF1244D2750C01EB
:10310300EE2406F8EF123268547FF0A3E054FC1269
:103113004FA0E0540460030231C3900A98123E2A80
:10312300740778081209348E828F83A3A3A3A3A301
:10313300A3E04508F0A3E04509F08E828F83A3A3A3
:10314300A3A312327774077808120A16E508540706
:10315300F508E50B607A8E828F83A3A3A3A3A3A3B1
:10316300A3A3A3740212406B240D123B39E0A2E225
:10317300500B900351124506A3A31244D5E50870E2
:1031830003023235EE2406F8EF3400F9E8FAE9FBDE
:103193008A828B83E0547FFCA3E054FCFDE5082482
:1031A300FFF508E434FFF50974077808120934ECD5
:1031B3004508F8ED4509F98A828B831244D580725C
:1031C3008E828F83A3A3A3A3A3A3E0448002313CF5
:1031D300E5087005750A0080598E828F83A3A3A327
:1031E300A3A3A3E054206012121197EA547F245F33
:1031F3008E828F83A3A3A3A380238E828F83A3A313
:10320300A3A3A3A3E05410600A121197EA540F2456
:103213000A80DD8E828F83A3A3A3A37401F0A3E4AA
:1032230012328174041234BF8B09EA450970031208
:103233004451E50CA2E050288E828F83A3A3A3A35D
:10324300124A6CF9EEFAEFFB120CC9E96012124450
:10325300806003123649EEFAEFFB121221750A0061
:10326300A90A024BF71245C922FAE5093400FB8A81
:10327300828B8322A3A3E0F508A3E0F5092212328F
:103283008522124CCAA3A3A3A3A32274F41203623C
:1032930074F712087E7E00120CDBEA4B70030233D4
:1032A300508A828B83A3A3A3A3A3A3A3A3A3E064B2
:1032B3000660030233508A828B83A3A3A3A3A3A331
:1032C300A3E0FF8A828B83123B4CE0C0E0740812B8
:1032D3000A64D0E012368412470F1244D5120CED63
:1032E300EF54086066851882851983124D3B7A0076
:1032F3007B00120CBD8B0BEA450B704F90036312DE
:1033030037741219117C007D007A007B0080288EAF
:10331300828F8312366EF47003A3E0F4602D900362
:10332300631233571248391215EDE9641A601C7C95
:10333300007D00EEFAEFFB120CBD8A0A8B0BAE0A7E
:10334300AF0BEE4F70C979001219177E01EEF974B5
:10335300090228C312335B22E0FCA3E0FD8E828FB7
:103363008322C082C083EA4B70059003B580068A2E
:10337300828B83A3A312357460258A828B83A3A3D4
:10338300A3A3A3A3A3E0540860E5EC4D60158A82D0
:103393008B8312366E6C7003A3E06D70D280047A57
:1033A300007B00023A0C74F2120362EAFEEBFF891F
:1033B3000A8C088D097A107B0012121BEA4B603FBE
:1033C3008A828B83A3A3A3A3A3A3A3A3A3E41236F9
:1033D30072A3E50A124F10A312340C8A828B83A3C3
:1033E300A3A3A3E4F0A312367EA3F0124DA4EA2410
:1033F3000CF582EB123910123405A3A3F0A3F002EB
:103403002225A3F08A828B8322A3A3E508F0A3E5F8
:1034130009F02274F4120362EAFEEBFF89088C0AB6
:103423008D0BEE4F60557401650870147901120C11
:10343300CFE9F8901DE1E493C398500F7911806AA6
:1034430074046508702F1234B040F18E828F83A309
:10345300A3A3A3A3A3A3A3A3E508123920A31254F0
:10346300958E828F83A3A3E4F0A3F09003B5124457
:103473008A6021800D7402650860D079C1802BE0D9
:10348300F8A31244FFA3A312357488828983A3A3EC
:1034930070ED80039003B5EEF0A3EF1234BF8B0BF6
:1034A300EA450B700312445179000228C6790412CD
:1034B3000CCFE9F8901DE8E493C39822F01234C4CA
:1034C300227A207B009003B0E0F91212E122C0823D
:1034D300C083E9F879009003B5801D8A828B83A3AA
:1034E300A3A3A3A3A3A3A3A3E068600574FF6870C9
:1034F30001098A828B83A3A312357470DE023A0C0E
:1035030074F7120362EA4B70059003B580068A8252
:103513008B83A3A312357460248A828B83A3A3A312
:10352300A3A3A3A3A3A3E06970E4EC60148A828B32
:1035330083E0240D124D2CA2E240D380047A007B59
:1035430000024A7FC082C0839003B580068A828BC3
:1035530083A3A312357460128A828B83A3A3A3A3CC
:10356300A3A3A3A3E06970E580047A007B00023A79
:103573000C1228BCEA4B2274F21203628A0A8B0BE8
:103583008C0C8D0D750800750900EA450B602E90B3
:1035930003B580068E828F83A3A31235C7601EAC4A
:1035A3000CAD0DEEFAEFFB850A82850B83121A7EB2
:1035B300E9640170DFEEF8EFF988088909AA08AB1E
:1035C30009022225E0FEA3E0FFEE4F2274F7120367
:1035D300629003B51236647C007D00800DE8FCE93F
:1035E300FD88828983A3A3123664E8496030EA68C0
:1035F3007002EB6970E79003B5124839E86A70020C
:10360300E96B88828983A3A370081236649003B59B
:1036130080091236648C828D83A3A31244D5024A97
:103623007F74F7120362EAFEEBFFEE4F6015120C94
:10363300E71236961244806003123649EEFAEFFB26
:10364300121221024A7FEE240C1236561236AB2296
:10365300EE241DF582EF3400F58322F582EF123656
:1036630059123A0322F582EF12365912368B22127F
:10367300367622124F18A3A3A3A322123676A3A34E
:103683002212340612368B22124F03E022E0FEA3ED
:10369300E0FF228E828F83E0241C123B3D1236AB67
:1036A3008E828F831236AB221236B3FB1212212283
:1036B300E0FAA3E022C082C083EAFCEBFDEC4D708C
:1036C3000479058044EC24FBF582ED34FF12448831
:1036D300700712370FE0F460051211A380E3900323
:1036E300B0E0C0E012370FD0E0F0901DDEE493F9B4
:1036F3007AB77B03121A73E96401700B7A007B209B
:10370300124455790080027904023A0CEC24FFF547
:1037130082ED34FFF5832274F4120362A2AFE43323
:10372300F508C2AF9003B71235C76038EE24FBF536
:1037330082EF34FF1244887A007B209003B0600547
:103743001244588005E0F91211D9E4F50AF50B7813
:103753000A120806EEFCEFFD7AB77B031211C77459
:1037630002120833E508A2E092AFEEFAEFFB02285B
:10377300C6124D3F851882851983AA82AB832274B2
:10378300F212036274FC12087EEAFEEBFF750AFE76
:10379300750BFF120CABE960057911023905EE24B4
:1037A300151228CE6037900AACE0C43354E0F8E039
:1037B300333354FC48C0E0EE2415122801D0E01244
:1037C30039201239168B09EA45096011750AFFEE93
:1037D300240F1228CE44041244E3D2E0F08E828FE9
:1037E300831221EA6006EE241212390DEE2413121D
:1037F30028CE7010901DE4E493C0E0EE2413122849
:1038030001D0E0F08E828F83E0A2E750045403805E
:103813001CEE24141228CE7015900342E0C0E0EE93
:103823002414122801D0E0F0900342E004F0EE24C7
:10383300111228CE6401701690058CE0600D900380
:103843004DE0700A8E828F83E0700312390A8E82F4
:103853008F83E064017013EE240B123668640270E8
:1038630009EE240F1228CE4440F08518828519836F
:10387300AC82AD83EEFAEFFB120D118A088B09744B
:10388300FE650A700374FFF470098E828F83A3A30D
:10389300124CBAEA450960668E828F83E0C0E074F9
:1038A30001120A64D0E0F07402120A64124DA87483
:1038B30001120A6485820C85830D780C120806EECA
:1038C300240F1228011206A3EE240E1228CEF50CA3
:1038D300780C12080A9003561206A37407120A649E
:1038E300E0F9AC0AAD0B120D0B7407120833E9FEB5
:1038F30074106E700BAA08AB0912122180027E109D
:10390300EEF97404022222EE2411F582EF123659E5
:10391300E4F022A31228BC79FF12122D22123924BB
:1039230022F08E828F83A322C082C08374DE1208AA
:103933007E8A828B83A3A3A3A3123664740E120A16
:1039430064E8F0A3E91239FA740C120A641239F329
:10395300240DF582EB1228D1C0E0741A120A64D048
:10396300E0F0124C07EB1236617420120A6412392C
:10397300F32415F582EB1228D1C0E07408120A640F
:10398300D0E0F0EA241CF582EB1236617412120ABD
:10399300641239F32411F582EB1228D1C0E07409C3
:1039A300120A64D0E01239E774FFF07401120A645A
:1039B30074FFF07402120A6474FFF090803D1206E3
:1039C3009F7404120A64AC82AD837407120A64AA5A
:1039D30082AB83120B5B74041208337900742212D6
:1039E300083380251239EB22F0851882851983224A
:1039F300E8F0A3E9F0EA22123406A3123A0222A362
:103A0300E0F8A3E0F922124839D083D0820207AF4D
:103A130074EC12036274EE12087E8A128B13ECFEAE
:103A2300EDFF89097426120A64124CBA7428120A2B
:103A330064E0F5107429120A64123B2E742B120AE7
:103A430064E0F50EA3E0F50F7508107A1E7B0012F3
:103A5300121B7402120A641244627402120A641280
:103A6300448A7003023B27851882851983AA82AB97
:103A730083795012433D1248397402120A64123B8F
:103A83004CA31244627410120A6412549774021203
:103A93000A64E0240B123B397402F0120A64123BED
:103AA3004C7402F0120A64124EFB124DA8740212F7
:103AB3000A6412484EE509F07402120A64E0240C09
:103AC300123B39E510F07402120A64123B36E51218
:103AD300F0A3E513F07408120A64E50CF0A3E50DF6
:103AE300F0740A120A64E510F0850E82850F83C014
:103AF30082C083740D120A64AC82AD83D083D082FA
:103B0300740312074AF97402120A64AA82AB83127D
:103B13000CB1E96401700575080080087402120A8B
:103B23006412364FA9087412024CD1E0F50CA3E0DD
:103B3300F50D22E0241C123B3D22F8A3E0123B4486
:103B4300223400F98882898322124841A3A3A3A3C4
:103B5300A32274EE120362EAFEEBFF8C088D098E3A
:103B6300828F83A3740812451EE060088E828F83C0
:103B7300A37410F01228CB60098E828F83A3E024F4
:103B830008F0EE24151228CE60088E828F83A3E0FE
:103B930004F08E828F83A3A3A3A3A3A3E060198E53
:103BA300828F83A3A3A3A3A3A3A3E0C3332402F815
:103BB3008E828F83A3E028F0EE24111228CE6005B5
:103BC300750B0E8003750B008E828F83A3C082C09A
:103BD30083EE240D1228CED083D082F8E028250B63
:103BE3008C828D83F0EE24111228CE600512404999
:103BF30028F0850882850983E0C394754009750818
:103C030000750900023D37E0FA7B00124E5670033F
:103C1300023D37EEFAEFFB120D17EA85088285099C
:103C230083124463EE2402F8EF122B2B123E31125F
:103C33003D73F0EE24040808EF122B2B124273A3FA
:103C4300123D73A3A3F0EE2413123D59F0EE241496
:103C5300123D59A3F0750A08EE24161228CE6010FF
:103C6300EE2418124D38E5082408124F39750A104E
:103C73001228CB6016EE241A124D38850A0CE5087B
:103C8300250C124F397408250AF50A8E828F83A3F7
:103C9300A3A3A3A3A3E06059EE2407F510EF340018
:103CA300F511851082F583E0C0E0123D401228042F
:103CB300D0E0123D63E0C0E0123D40122804D0E0A2
:103CC300123D63A3123D4C120802851082851183B5
:103CD300E0C333FCE433FD850A0CE508250C124CE4
:103CE300AE120833851082851183E0C333250AF5AC
:103CF3000AEE24151228CE600BC0E0123D401228B4
:103D030004D0E0F01227FE123D4C120802EE240DFF
:103D13001228CEFC7D00850B0A8E828F83A3E0F8E8
:103D2300E50828F8E5093400F9E8250AFAE9124C10
:103D3300B1120833AA08AB097F0A0205D4850A0C1D
:103D4300E508250CF582E50922E0F50CA3E0F50D65
:103D5300750E00780C22123656123D7DA3A3A322C2
:103D6300F0050A8E828F83A3A3A3A3A3A3A3A322F5
:103D7300A3A3124FA4A3123D7D22124277A3A32231
:103D830074F61203628A828B83E0FC900353123E23
:103D93002A74027808120934EC4508FCAD09EA24B8
:103DA30012123E2474067808120934EC4508FCED1F
:103DB3004509FDEA2415F582EB1228D16004780148
:103DC30080027800E4C8F9ED49FDEA2411F582EB9D
:103DD3001228D1F508880974097808120934ED45C9
:103DE30009FDEA2416123E24740B7808120934EDF7
:103DF3004509FDEA2417123E24740C78081209348D
:103E0300ED4509FD8A828B83A3A3A3A3A3A3123E3B
:103E13002A740A7808120934ECFAED4509FB0244C6
:103E230093F582EB123659E0F50875090022E08517
:103E3300088285098322A3E0F98508828509832204
:103E430074EE1203628A0A8B0BECFEEDFF750F0111
:103E5300E9C39408500579000240368E828F83E9C6
:103E6300F012429CE96003750F001242808E828F2C
:103E7300831242CAEE124C08EF1242BFC0E0EE2496
:103E830011122801D0E01242B7C0E0EE241212282A
:103E930001D0E01239207408124CC2A3A3A3E0603E
:103EA30015124268EE2413F582EF1244D28E828FEC
:103EB30083A3E02408F08E828F83A3A3A3A3A3A3E9
:103EC300A3A3E060218E828F83A385820885830963
:103ED3001242ABEE2415F582EF1244D28508828597
:103EE3000983E02408F08E828F83A3A3A3A3A3E016
:103EF300601A8E828F83A385820885830912428F7D
:103F03008E828F83A3A3A3A3A312405BEE24191273
:103F1300390DEE241B12390DA3124516E07003026E
:103F23003FCAEE2419F8EF3400F98E828F83A385FC
:103F33008208858309E0FAE50A2AF582E50B12284F
:103F4300D18882898312405BFAE50A2AF582E50B60
:103F53001228D1C0E0EE241A122801D0E012405BEF
:103F630088828983E06059F8901DE7E493C39850F1
:103F73000575110C8008EE24191228CEF5118E82D6
:103F83008F83A3E0F8E50A28F50CE50B12403F12F6
:103F93000802E511C333FCE433FD7A607B09124068
:103FA30039120833EE241B1228017460F0A374093C
:103FB300F0E511C333F8850882850983E02880067C
:103FC300EE2418125173F08E828F83A3E0F88E8251
:103FD3008F83E0C3985003023E59A3E0FA8A08E5B1
:103FE3000A2508F8E50B3400F9EE241DF582EF12DB
:103FF30045DE12406BC39AC0E0EE2417122801D0AD
:10400300E01244DB602BEE2417F8EF3400F9880844
:1040130089098882F583E024F21245BF240EFAA3AE
:10402300E03400FB88828983124462124049C398BA
:10403300F0A90F023D3B12117F7403223400F50DEA
:10404300750E00780C2290034EE0F9120A9BE9F8F2
:10405300850882850983E022F0850882850983E04B
:1040630004F022A3A3A3A3A3F08E828F83E0227480
:10407300F41203628A088B09EA124100F0EA13136F
:10408300543F1240F9A3A3A3F0EAC413131241004F
:10409300A3A3F0EB1240F212410A7409780A120A40
:1040A300161240F0124109740A780A120A16E50A38
:1040B3005401C0E0EC2418F582ED122804D0E0127C
:1040C300410F740B780A120A161240F0A312410929
:1040D300740C780A120A161240F0A3A3A3A3A3A395
:1040E300A3A3F0740D7808120A16022430E50A54CB
:1040F300018C828D8322540F8C828D832254038CF6
:10410300828D83A3A322A3A3A3A3A3A3F08A0A8BD1
:104113000B22C082C08379008A828B83A3A3A3A3CB
:10412300A3A3E090034D600FE070228A828B83A3E8
:10413300A3E07019098016E060138A828B8312480A
:1041430030900356E06A7003A3E06B70E7023A0C09
:1041530074F01203628A0A8B0B890C8C088D091286
:10416300429C1242808508828509831242CAE5086F
:10417300124C08E5091242BFC0E0E5082411F5829C
:10418300E509122804D0E01242B7C0E0122F021250
:104193002804D0E01245E674081245FF601112426C
:1041A30068E50824131245DA1245E6E02408F08591
:1041B3000882850983A3A3A3A3A3A3A3A3E06017F2
:1041C300850882850983A31242A7E50824151245B1
:1041D300DA12406B2408F0850882850983A3A3A320
:1041E300A3A3E06019850882850983A3AE82AF8308
:1041F30012428F85088285098312406604F0AA085B
:10420300AB09120D29E9F50D7056850882850983DE
:10421300A3A3A3A3A3A31242737014E0FA8A0EE527
:104223000A250EF8E50B1244C7E50CC39A80211248
:1042330042A7E8240EF8E91244C790034EE0F912AE
:104243000A9B8E828F83E0F8E50CC39824F2C3990E
:10425300C0E0E5082417F582E509122804D0E0F050
:10426300A90D024BF7E50A2408F8E50B3400F922FF
:1042730012427722E0850882850983A322850A8278
:10428300850B83A3A31242E0E0F9EA22E0F8E50AF2
:1042930028F582E50B1244EE228A828B83124BFCB3
:1042A300120D2322AE82AF83E0F8E50A28F8E50B6E
:1042B3003400F9221242F3A3A3A3E022123659E8F1
:1042C3001242ECA3A3E022A3A3A3A3A3A3A3A3A3A8
:1042D3001242EC1242E0A3A3E0F9EAF822E0FA85E5
:1042E3000A82850B83A3A3A322F0A3E91242F3223C
:1042F300F0850A82850B83A3A3A3A322C082C08374
:104303007AC57B0379E21218E17AC57B03023A0C82
:10431300C082C083900356023A09C082C08374FEF0
:1043230012087E851882851983AA82AB83794B1282
:10433300433D12483974020239E21218E1851882AA
:1043430085198322C082C083794A1218E1023A0C8C
:1043530074F61203629003CDE0FE04F0EEF9120C42
:10436300DB8B09EA450970EDEE60EAF902449374C8
:10437300F0120362EAFEEBFF8C088D09890A7410C0
:10438300120A64E0F50B7411120A64E0F50C120DC5
:10439300FBEA4B7013E50C7042A90AAC08AD09EEB9
:1043A300FAEFFB120E13806EE50A6021EA2402F590
:1043B30082EB1228D1850A082508F8E4340013E8B3
:1043C30013F070098A828B83A3A37401F0E50C6058
:1043D30045E50B70068A828B83E4F07401650C70EB
:1043E30035E50B9003D47004E4F0802AE004F090E8
:1043F3000A99E0F89003D4E0C398401AE4F09003DC
:1044030059E06E7003A3E06F700CEEFAEFFB7901D5
:10441300120B7F12441C024BF77A017B009003B00E
:10442300E0F91212DB22C082C08374016A7001EBCF
:1044330070077A011244538012900A90124462EA80
:104443004B60051221AC800312441C023A0C7A2003
:104453007B009003B0E0F91211D3223400F583EA14
:10446300F0A3EBF022C082C083900A9202300CC00A
:1044730082C083900A9402300C124F0A22EE240C5D
:10448300F582EF3400F583123A03E8492212083328
:104493007F020205D4A2F0E43385188285198312C2
:1044A30044B479521218E7221244B479421218E73D
:1044B30022F0AA82AB8322AA08AB099003B0E0F9E9
:1044C3001211A9223400F9E508241DF582E5091229
:1044D3003659E8F0A3E9F022124CC6A3A3E022A3C5
:1044E300F0EE24151244EB22F582EF3400F583E05D
:1044F300221244F8223400F583E0F8A3E0F988821D
:10450300898322E0F812450C22A3E0F98E828F837F
:10451300A3A322F0EE241812365622F0EE2416122C
:1045230036562274F4120362EAFEEBFF7A007B0430
:104533001244201245B51244D59003657409F01254
:104543000D358A088B09AC08AD09EE241312280136
:10455300124839124709640170487A0F1245A8605E
:10456300418A828B8374021245BFFAA3E0FB8A82DD
:104573008B83A3E0FC8A828B83A3A3E0FBEC8508F7
:1045830082850983A3A31244638882898312483DE9
:10459300123E311244E2FAA3E0FB794A1218E71201
:1045A30044BA0228C67B0012119D8A088B09EA458A
:1045B3000922900336123A03900A9422F0EE241D46
:1045C300F8EF1245C922123B44E0221245D22234AD
:1045D30000F5837401F022F582E509123659E8F0FB
:1045E300A3E9221245EA221245EE22F085088285CC
:1045F3000983A3221245EEA3A3A3A3221245F7A383
:10460300A3E022124A10120D8922EE2417F582EF3D
:104613001245D2120D35EE241A123656EAF0A3EBE8
:10462300F02274F412036274F312087E8908EAFE1E
:10463300EBFF7C0D7D007900851882851983AA82A2
:10464300AB8312118BEE241D122801124EFBA3E043
:10465300F8741F58600A79011218B77900024700ED
:10466300E8A2E55008740C120A647401F0E8A2E7AA
:104673005008740B120A647401F0E8A2E6740A503D
:1046830008120A647401F08008120A64E06401707D
:1046930005EE24138003EE2415124D387402120A1A
:1046A30064AA82AB831218CF1227FE12470E12445C
:1046B300D5740A120A64E0640170331221DF703B7F
:1046C300120D418A0A8B0BA80AA90BEE240B1228A0
:1046D300CE687003A3E0697022120D35EAFCEBFD8E
:1046E3007402120A64AA82AB83124709600D85180B
:1046F30082851983AA82AB83120B79A908740D02F0
:1047030028C3EEFAEFFB1218C9E922E0124713227D
:10471300F8A3E0F98518828519832274F6120362DF
:1047230074F312087E8A088B09ECFEEDFF7C0D7D85
:10473300007900851882851983AA82AB831250A061
:10474300A3A3A3A3A3A3A3A3A31247A81247B1F8A8
:10475300A2E55008740B120A647401F0E8A2E75052
:1047630008740A120A647401F0E8A2E6EE50042405
:104773001380022415124D387402120A6412479AE8
:10478300A3A3E0C0E0740C120A64D0E0124A08123A
:104793000B73740D024490AA82AB831218CF850861
:1047A3008285098322E0124713E8F0A3E922F0127D
:1047B3003653124EFFA3E02274F712036274E11220
:1047C300087EEAFEEBFF8E828F8312483DA3A3A3EC
:1047D300E0A2E050518E828F8312233F8A828B8323
:1047E300A3A3A3A3A3A3E054FE1248558A828B83F9
:1047F30012484EE0F98A828B83E0241CFAA3E0126C
:10480300326F124839120D2FE9701B741D120A649E
:104813001248487011851882851983AC82AD83EEE6
:10482300FAEFFB120D77024A7A8E828F83A3A3A33A
:10483300A3A3A3A3A3A31228BC2212484122124F6D
:1048430003A3A3A32212368B640422E0241B123B8E
:104853003D221239EBAC82AD8322E9F8790074046E
:1048630068600A740A6860057403687001090207C6
:10487300AF74F61203628A828B837420F0A3A3744D
:1048830001F0120B258A088B09AE08AF09EE4F60C1
:10489300108E828F837401F09003A3E0700312469D
:1048A3000DEEFAEFFB024493C082C0839003B97408
:1048B30001F0E9A2E350037403F0E9A2E15004E03C
:1048C300D2E2F0023A0C74F612036279007C008A99
:1048D300088B09780812061AF8FF07FC48FA48FA09
:1048E30048FA48FA48F348F748FC48F0480C80096E
:1048F3007C0480050C80F67C089003B9E05C6003BF
:10490300098003EC60010902449374F61203628A7E
:10491300828B83E07012A312448A600C8A828B8399
:104923001248381219B980047A007B000244937448
:10493300F512036274F312087E8A088B09ECFEED0C
:10494300FF750A12EA450970057900024A019003CE
:1049530056E065087004A3E065097014120D35EA8A
:10496300FCEBFD1247057005750A018003750A000B
:10497300851882851983E4F004120A64E508F0A31C
:10498300E509124A08120AE9E960277403120A6466
:10499300AA82AB83120ACBE964017016750A01740B
:1049A30003120A64AC82AD831247056021750A00C5
:1049B300801C7412650A70169003A2E06402700EE4
:1049C300EEFCEFFDAA08AB09120B01E970DFEEFC68
:1049D300EFFDAA08AB09120E01E9F8740A68700525
:1049E300750A01801774A0687012EEFCEFFDAA0827
:1049F300AB09120E0DAA08AB09120E1FA90A740DFA
:104A03000254087402124A0C22124A10221239EB81
:104A1300AA82AB832274F7120362EAFEEBFF8E8253
:104A23008F83A3A3A3A3A3A3A3A3E06015EE2415DD
:104A33001228011228AC120DA1E964017004790156
:104A430080258E828F83A3A3A3A3A3A3A3E06015D2
:104A5300EE2413122801124A6CFAA3E0FB120DA1F3
:104A6300E9640160D97900801312335BA3A3A3A384
:104A7300A3A3A3A3A3E022741F1208337F0102059B
:104A8300D474F012036274FD12087E8A088B09EC59
:104A9300FEEDFF890B7413120A64E0F50C750A012D
:104AA3007401120A647404124F336048E50C601DEC
:104AB300EA2417F582EB125176124F218A828B83F7
:104AC300E0D2E7F0EA2414F582EB123910124C0716
:104AD300EB1244F47403125499EE88828983A3A3DE
:104AE300F0EF88828983A3A312340512340C120BCE
:104AF3001FE9F50AA90A7403024BF474EC1203626A
:104B030074F512087E8A0A8B0B890C8C0E8D0F7438
:104B13001F120A64E0F50D7420120A64E0F510A375
:104B2300E0F5117E01EE120A64740AF0E97007E5FC
:104B33000DC333240AF0124CD97003024BDB124C21
:104B4300EE7409F0A3E50CC43354E0450D124D0097
:104B5300E50C702D7C008023ECC333F8E433F9E5D6
:104B63001028F8E51139F988828983124BE8888285
:104B73008983122B1EF0A30EAF830CECC3950D405B
:104B8300D7E5082417F582E5091245CE120D35E560
:104B930008241AF582E50912445E7403120A64AC10
:104BA30082AD83AA0AAB0B120AD1E96019E5082486
:104BB30016F582E509124BE2120A64A882A983E57D
:104BC3000824181244CE850882850983125495AAB5
:104BD30008AB09120B1FE9FEEEF9740B024CD1125C
:104BE30045D2740322E08E828F83F0A3AE82AF831B
:104BF300221208337F080205D41236B3F9EA2400DF
:104C0300E439FB22EA240BF5822274EE1203628A52
:104C13000C8B0D890E8C088D097412120A64E0F551
:104C23000F7413120A64124CBA9004FB12448A6084
:104C330077E50FC333F8E433F9E8240EFAE93400D7
:104C4300FB12119D8A108B11AE10AF11EE4F6058FD
:104C53008E828F8374D4F0A3A3E50CF0A3E50D1229
:104C63004CC2E50EF0AC08AD09EE2405FAEF124F85
:104C73003CEE240D122801E50FF0850A08850B0987
:104C8300750A007808120802E50FC333FCE433FD0C
:104C9300EE240EFAEF124CB1120833EEFAEFFB904A
:104CA30004FB124EFB121A7E023D3BFAE509340067
:104CB300FB12117F740322E0F50AA3E0F50B221225
:104CC3004CC622124CCA22123924A3A3A3221208CF
:104CD300337F0C0205D4851882851983AA82AB839E
:104CE300120D898A088B09EA450922EA240BF58209
:104CF300EB1244EEFEA3E0FF8E828F8322F0A3AE7D
:104D030082AF83AC0EAD0FEEFAEFFB124D122212FF
:104D130018CF124D1922EE2408FEEF3400FF22E0D3
:104D2300FA8E828F83A3A3E022FEA3E03400FF8EDA
:104D3300828F83E022123656124D3F22E0FCA3E01D
:104D4300FD221228BC120D1D2274F6120362EAFE24
:104D5300EBFF9003BA801388828983E06E7003A30C
:104D6300E06F603A88828983A3A312448A70E87A49
:104D7300047B0012121B8A088B09A808A909E849B9
:104D8300601C88828983124DA89003BA124839881F
:104D9300828983A3A31244629003BA1244D50244C6
:104DA300938A828B83EEF0A3EFF02274F4120362F2
:104DB3007E009003BA80070E88828983A3A31244DE
:104DC3008A70F4EEC333FAE433FB124E56607E7FEF
:104DD300009003BA802488828983124D3BEFC3334A
:104DE300FAE433FBE5082AF582E5093BF583ECF0A9
:104DF300A3EDF00F88828983A3A312448A70D7900E
:104E030003AB1222197003A3E06978087019120822
:104E130006EEF50A780A12080A7C777D037900907A
:104E230003AB124E61801A120806EEF50A780A12D5
:104E3300080A7C777D0379009003AB124839120D81
:104E4300B37403120833AA08AB09121221120B37E9
:104E53000228C612121B8A088B09EA450922122866
:104E6300BC120DB922C082C08380128A828B83A3B5
:104E7300A31236649003BA1244D51212219003BAD6
:104E830012357470E6023A0C74F6120362900363EF
:104E93001236909003CE124EEA1244D57ACE7B039B
:104EA30079501218E79003CE122438FAEFFB120E52
:104EB300199003CE1236909004FD12448A60257A2D
:104EC300067B0012119DEA4B601A8A828B8374D58C
:104ED300F0A3A3E4124F1004124F219004FD124ECD
:104EE300FB121A7E024493124EEE22E0F8A3E0F97D
:104EF300900363228E828F83124EFF22124F03226E
:104F0300E0F8124F0922A3E0F583888222124F149E
:104F130022124F1822F08A828B83A3A3A322124F5B
:104F230014A3EEF0A3EFF022F582EF1244EEF92280
:104F3300124606EA4B22FAE5093400FB1218CF2287
:104F430012450DA3A3A3A3A3A3A322901DDFE49360
:104F53002401F8E43400F97A027B002274F7120387
:104F6300627E00800412554C0E12507040F77E0092
:104F7300EE124F8B74FEF0A304124FA0E4F00EEE7A
:104F8300C3940340EB024A7F75F003A4F8A9F074BD
:104F9300BC28F8740339F988828983A322124FA4A9
:104FA30022F0888289832274F71203627F008001D2
:104FB3000F901DDCE493F8EFC3985026EF12515C79
:104FC3006A7003A3E06B70E81254F96C7003A3E0FA
:104FD3006D600A74FF6C700374FF6D70D3125067B9
:104FE30080047A007B00024A7F74F61203627CFF1E
:104FF3007DFF7AFE7BFF120DDDEA4B7040750800E2
:105003008036E50875F017A4F8A9F074FB28F5823B
:10501300740712516E600C74FA28F58274071251EA
:105023006E701374EC28FE740739FF8E828F83121F
:10503300517BEEFAEFFB05081250D640C5024493AC
:1050430074F41203628A088B09ECFEEDFF800B12E5
:105053000DEFEEFCEFFDAA08AB09120DDDEA4B7074
:10506300EE0228C674EC28FA740739FB22901DDC83
:10507300E493F8EEC3982274F7120362EAFEEBFF9F
:10508300EE4F601012509A74FEF0A30412549F1452
:10509300F0A304F0024A7F7C177D00790012118B84
:1050A3008E828F832274F7120362EAFEEBFF750888
:1050B300008018E50875F017A4F8A9F012550470DC
:1050C30003A3E06F600312555405081250D640E362
:1050D300024A7F901DDCE493F8E508C3982274F636
:1050E300120362120DDD8A088B09A808A909E84991
:1050F300600AE8240DFAE93400FB80047A007B009F
:1051030002449374F41203628A0A8B0BECFEEDFFE4
:10511300750800750900802EE50975F017A4F8A934
:10512300F012553F601EE50912515C650A7004A335
:10513300E0650B700375080AEEFCEFFD1253FB608C
:10514300034308A00509901DDCE493F8E509C3981F
:105153005004E50860C202243075F017A4F8A9F0E2
:105163001251672274EC28F582740739F583E02223
:10517300F582EF123659E4221228BC120C152212C2
:105183004FA4A3A3A3A3A3A3A3A32274F212036212
:105193008A088B09ECFEEDFF740E120A64124CBAF6
:1051A300750C007C007D018010121197E50CF5F061
:1051B300EA84ACF0750C007D00780079008003125E
:1051C3005338125394400302525AE8FAE9FBEA7542
:1051D300F017A4FA85F00D75F017EBA4250D125303
:1051E300707003A3E0F460D712534E65087004A3F4
:1051F300E0650960CA12534E6E7003A3E06F60BF8F
:1052030012534E650A7004A3E0650B60B2E8FAE935
:10521300FBEA75F017A4FA75F017EBA4250DFB74E0
:10522300FA2AF582740712532F509474016D050CFA
:10523300608DE50CC39C4087E875F017A4F8AAF0CD
:1052430075F017E9A42AF974EC28F582740739F587
:105253008312483902532C780079008003125338A3
:105263001253A14003025313E8FAE9FBEA75F01263
:10527300A4FA85F00D12538064FE7003A3E0F4607A
:10528300DC12537665087004A3E0650960CF1253FE
:10529300766E7003A3E06F60C4125376650A7004E0
:1052A300A3E0650B60B7E8FAE9FBEA75F012A4FA2C
:1052B30075F012EBA4250DFB747B2AF5827406129C
:1052C300532F5099E8FAE9FBEA75F012A4FA75F046
:1052D30012EBA4250D12534164016081E064027056
:1052E3000302526074016D050C7003025260E50CF9
:1052F300C39C5003025260E875F012A4F8AAF0753B
:10530300F012E9A42AF9747228F582740602525144
:10531300E50C6011EC700E7401650C60030251AC76
:105323007C010251B77AFE7BFF0222253BF583E025
:1053330014C3940622E8240108E93400F922FB741B
:10534300762AF58274063BF583E022E8FAE9FBEA64
:1053530075F017A4FA75F017EBA4250D1253632209
:10536300FB74EC2AF58274073BF583E02212536346
:1053730064FE22E8FAE9FBEA75F012A4FA75F0126A
:10538300EBA4250DFB74722AF58274063BF583E0CA
:1053930022901DDCE493FAC3E89AE9940022901D5D
:1053A300D5E493FA740193FBC3E89AE99B2274F55D
:1053B3001203628A088B09ECFEEDFF750A00800276
:1053C300050A901DDCE493F8E50AC3985028EEFC27
:1053D300EFFDE50A75F017A4F8A9F01253FB60E09E
:1053E300E50A75F017A4F8A9F074EC28F5827407A0
:1053F30039F58312340E801074EE28FA740739FBE2
:105403001218C9E9221208337F030205D474F0127B
:1054130003628A088B098C0A8D0B890C120DE38AAF
:105423000E8B0FAE0EAF0FEE4F605512509AE5087C
:10543300F0A3E50912549F125497E50C600AEE2479
:105443000F122801E50C8006EE240F12548FF09002
:1054530003D012448A601A9003AAE064017008EE34
:10546300240E1251738010EE240E1228017407804B
:1054730006EE240E12548F122D541202111254866A
:10548300024BF7EE240D123656E8F022123656740C
:105493000122A3A3E50AF0A3E50BF022123285A3B0
:1054A3002274F51203628A088B09ECFEEDFF750A7C
:1054B30000800F1255047003A3E06F60031255546C
:1054C300050A901DDCE493F8E50AC3985025E50A24
:1054D30075F017A4F8A9F01254F965087004A3E055
:1054E300650970CF74F628F582740739F583124D78
:1054F300A880CD02540B74F628F582740712516EFE
:105503002274F628F582740712516E6E2274F71214
:105513000362EAFEEBFF7508008019E50812515C8F
:105523006E7003A3E06F700A12553F7005E5081211
:10553300554D05081250D640E2024A7F74EE28FA10
:10554300740739FB120ACBE922EE75F017A4F8A908
:10555300F0125067120DEF22124FA4123A03E849DA
:1055630022C082C08374F812087E8518828519834D
:10557300AC82AD83758380758222740812074A85D5
:105583001882851983AC82AD8312470964017004C4
:1055930079008002790174080239E2126932F9EA6A
:1055A30022E0F508E4F509F50AF50B22740912085F
:1055B300337F040205D4EE2412FAEF3400FB120FFA
:1055C3009FE9227905120FAB740422E024F5C394FA
:1055D30012221255D92212162F8A0C8B0D8C0E8D86
:1055E3000F2212108F90063D1270CE7A147B002288
:1055F300FB1255FEE8F0A3E9F0EE221256068A826A
:105603008B83228A828B83E024FFF8A3E034FFF9A3
:1056130022EE240E12732474012212565E120833F2
:105623007F080205D4125658A2E522127327E4F02C
:10563300227F050205D4E508126C6DE50912565860
:10564300227AD57B031211C774022212565222EE1C
:105653002410F582EF3400F583E0221210837404E2
:1056630022F582EF125658F822EE240DF582EF123E
:105673005658640122E0FEA3E0FFEE4F22F582EFCD
:1056830012565822FAEF3400FB79E112173122F057
:10569300EEFAEFFB22EE240EF582EF12732722F0CF
:1056A300A3F0025DEDF582EB125658FA221208338D
:1056B300026248C082C08374FE12087E80077AD5D6
:1056C3007B031256F49003D51266D870F19003D77A
:1056D3001266D860097AD77B031256F480EF9003E1
:1056E300D5E4F0A3F09003DBF0A3F0A3F074028001
:1056F300161211C1851882851983EAF0A3EB12797A
:105703000B120F8D227411120833025DED74F61221
:105713000362E9FF8F0874731267F7741D1267FC45
:10572300FE8E08FA7B0012119DEA4B6017EA2508EA
:10573300F8EB3400F98A828B831271B7A3A3A3A376
:10574300E4F080227A027B0012119DEA4B60138FF2
:105753000874941267F7741D125AD7F0A3741A12BF
:105763005AEC7A007B00027272E9FDEAFC74062DA2
:10577300FAECA2E0501EEA75F00A84A8F0E860147F
:10578300740A2AC398FAE8C394054004740A2AFAEF
:10579300740B2AFAEDC3941340047814800278063C
:1057A300E82A2409F8E43400F97A0A7B001202118A
:1057B300E8F90207AFC082C083900405E054026099
:1057C3000A121923E96004790180027900025DED70
:1057D300C082C083900405E0540260149003DBE0B0
:1057E300700A1266D560091257F8500479018002D5
:1057F3007900025DED9003DEE02410125CC7A2E79E
:1058030022C082C08390803AE0F89003DDE0C39821
:10581300500512119D80047A007B00025DEDC08269
:10582300C083120F8D7900025DEDC082C08374FEC8
:1058330012087E851882851983125993600D1460AE
:105843006524FE70030258CD02595790061DE0648B
:105853000F6018120F63E97012851882851983127D
:10586300692D900A66125D4E121A7E900645E0C0BD
:10587300E08518828519831263F0D0E0125979F814
:105883001259677414125979FCA3E0FD7AD77B038C
:105893001211BBE5A8F8C2AF9003DD12598A792033
:1058A300120F4B0256F0120F57E9851882851983A0
:1058B3006011125D4E740D125979FAA3E0FB1219AF
:1058C3001D80E0125D4E741580BB125CCD70030227
:1058D3005957851882851983127248C0E012596C92
:1058E300D0E01259792402F8125BBE2401FAA3E036
:1058F3003400FB8882898312599314C3940950207E
:10590300125CCDFA851882851983A3127B32A3A377
:10591300A3E0F874BD28F582741D1267FC6A600F5A
:1059230012596CE06408702C125CCD6408702585F4
:105933001882851983E0F8125CD314125997240A4C
:10594300C0E0851882851983125967D0E0125997F0
:1059530004025888851882851983AA82AB83120FA3
:105963008D0258A6A3125D592285188285198312C8
:105973007B3FA3A3A32212597D221279FBE022E5E8
:10598300A8F8C2AF9003DCE004F0E8A2E792AF22EC
:10599300EAF0A3EB12597DF8125CD8A3E022C0828F
:1059A300C0839003E01266D86008125968121A7E09
:1059B30080027900025DED74F7120362EAFEEBFFE9
:1059C300EE240D125617F0EE242F125680C0E0126B
:1059D3005698D0E0F0EE2430125680C0E0EE241248
:1059E30012569BD0E0126F7EC0E0EE241312569B3A
:1059F300D0E0F0EE242B12569B1206A3EE2422FCD9
:105A0300EF3400FDEE242D125680F9126D75120845
:105A130033E97007EEFAEFFB120E91026248C0827F
:105A2300C083120F63E96004792080027901025D6B
:105A3300EDC082C083EA126C64E0D2E00256A4C0D7
:105A430082C083126C5D1256727011125AE1400CBF
:105A53008A828B83A3E0F9120F518069125ACB1209
:105A63005683A2E650128A828B83A3E0F9900A68D8
:105A7300125D4E121A7E804D126C5D125672700DBD
:105A8300125AE150088A828B83743080358A828B64
:105A930083A3E0641B8A828B83700474228023A314
:105AA300E0700F126C5D125667749F28F582741DA7
:105AB300800D126C5D125667749428F582741D1262
:105AC3005AD7125AEC025DEDEA125AD2EB22EE24B7
:105AD3000FF58222127327E4938A828B8322EA12C0
:105AE3005AD2EB125658A2E322F0900400E0F912C6
:105AF30011A92274F7120362E9FE1266D5602EEE35
:105B0300702E9003DE127315E4F09003DE12692DFC
:105B1300120E7F9003DEE0240E1257FE5003127321
:105B2300DA9003DEE4F0A3F07910120F4B0262481F
:105B3300741B6E7010125BC2640570C69003DE1294
