:020000040000FA
:06000000020A620201BFCA
:03002B0002081CAC
:030033000205C201
:030053000200EDBB
:03006B00020599F2
:10008300020154010101FF01010503010F10FEFFED
:10009300FE12FE12FE12FE12AE11A811FE12671F0F
:1000A300000000002B20000000000C0000000C00EA
:1000B30001FFFF010101003405000000A905E80369
:1000C30064006400B801020200080000050207058D
:1000D3001E02051E020A0A03B80B02803E0102FF3C
:1000E300FF011496511800020206C0E074F21204D4
:1000F30043A2AFE433FED2AFE5A7FFE5A1F5085F66
:1001030054106006121A1875A1EFE5085F540860D1
:1001130008121A1E75A1F7802BEFA2E0C0D0E508E4
:10012300A2E092F012099F158182F0501790619816
:10013300E0F8900677E0C398A2D265D0335002E886
:10014300F075A1FE751A00EEA2E092AF7F010204E2
:10015300A2C0E074F2120443A2AFE433FED2AF9024
:1001630061A4E0F8759B00E5915854086008759107
:10017300F7121A66802AE59158541060087591EFBA
:10018300121A6C801BE8A2E0C0D0E591A2E092F0C5
:1001930012099F158182F05007E0C2E0F0121BBCE8
:1001A3009061A3E0F8E5E9585404600E121B9275C0
:1001B300E9FB906193E0A2E640F28088C0E074F22C
:1001C300120443A2AFE433FED2AF9061A5E0F8E599
:1001D300BF585404600675BFFB121BD4020147C30A
:1001E300E498F8E499F91202238026C3E49AFAE426
:1001F3009BFBE920E7E9120223E498F8E499F9224A
:10020300C3E498F8E499F9120223E498F8E499F91D
:10021300C3E49AFAE49BFB22EB20E7CFE920E7E073
:10022300B90010BB0008E88AF084F8AAF022E4FBC6
:10023300C8FA22EB70227B10C833C8C933C93350C4
:1002430007C39AC3DBF280069A50012ADBEAC8335C
:10025300F4C8C933F4C9FA2275F008E4C833C8C92D
:1002630033C933C99AC99B5004C92AC93BD5F0EC99
:10027300FBC833F4C8E4C9FA22080808EAC0E0EB73
:10028300C0E086F0E7A4FA180986F0E7A42AFA1872
:100293000986F0E7A42AFA180986F0E7A42AFA19CE
:1002A30086F0E7A4FBE5F02AFA190886F0E7A42B09
:1002B300FBE5F03AFA190886F0E7A42BFBE5F03AE0
:1002C300FA18180986F0E7A4C5F02BFBE43AFA19EB
:1002D30008E7C5F0C6A426F6E5F03BFBE43AFA18B6
:1002E30086F0E7A4F6E5F00826F6E43B08F6E43AE0
:1002F30008F6D0E0FBD0E0FA22E4CFC0E0E4CEC0C1
:10030300E0E4CDC0E0E4CCC0E075F020C3E633F612
:1003130008E633F608E633F608E633F6181818EC61
:1003230033FCED33FDEE33FEEF33FFC3EC9709ED02
:100333009709EE9709EF97191919400FFFEC97FCEE
:1003430009ED97FD09EE97FE191906D5F0BEECF7F6
:1003530009EDF709EEF709EFF7191919D0E0FCD009
:10036300E0FDD0E0FED0E0FF222518C582C0E0E525
:100373001934FFC583C0E0E518C3958224F810AF94
:10038300088583198582188008858319858218D288
:10039300AFCEF0A3E520F0A37808E608F0A3DEFAD9
:1003A300EFF0A3E58124FAF8E608F0A3E608F0A34A
:1003B300E608F0A30808E608F0A3E608F0A3158111
:1003C3001581D0E0FED0E0F8158115811581E8C0D4
:1003D300E0EEC0E022120AC4B9000302042DE49047
:1003E3000301783E790A8002F0A3D8FCD9FA781A7F
:1003F3009000867A01BA00028007E493A3F608DA34
:10040300F9900C3EAA82AB839000877867790180CC
:1004130015E493A3AC82AD838A828B83F0A3AA8273
:10042300AB838C828D83D8E9D9E77582127583D02B
:1004330074031207FE75826E75831E74001207FE25
:10044300C0D02518C582C0E0E51934FFC583C0E0DC
:10045300E518C3958224F310AF08858319858218A4
:100463008008858319858218D2AFC8F0A3E9F0A369
:10047300EAF0A3EBF0A37908E709F0A3D8FAECF0CC
:10048300A3EDF0A3EEF0A3EFF0A3D0E0F0A3D0E050
:10049300F0A3D0E0F0A3E520F0A3E5F0F0A32285DC
:1004A3001983851882E0C0E0A3E0F9A3E0FAA3E092
:1004B300FBA37808E0F608A3DFFAE0FCA3E0FDA3C2
:1004C300E0FEA3E0FFA3E0C0E0A3E0C0E0A3E0F50B
:1004D300D0A3E0F520A3E0A3F5F010AF08858319BE
:1004E3008582188008858319858218D2AFD082D07F
:1004F30083D0E0F8D0E0320E0075F0108E218F2209
:10050300858226858325851882851983E0CEA3E01D
:10051300CF852682852583EBC9EAC8EDCBECCAC318
:10052300E833C8E933C9EA33CAEB33CBC3EA9EF5F0
:1005330024EB9FF523B35004AB23AA24EC33CCED77
:1005430033CDD5F0DAAE21AF2222D083D082ECC0F6
:10055300E0EDC0E0E493A3FCE493A3FDED4C600D58
:1005630012066CEC24FFFCED34FFFD80EFE493A353
:10057300FCE493A3FDED4C600D120709EC24FFFC92
:10058300ED34FFFD80EFD0E0FDD0E0FCE493A3C0A9
:10059300E0E493C0E022C0E074F2120443A2AFE4AB
:1005A30033FED2AFE589A2E55003121940758900E5
:1005B300C2C5751A00EEA2E092AF7F010204A2C089
:1005C300E074F2120443A2AFE433FED2AFE58BA290
:1005D300E05003121940758B00C2E880D58519835A
:1005E300851882E0A3FEE0A3F5207808E0A3F608CF
:1005F300DFFAE0A3FFE0A3C0E0E0A3C0E0E0A3C014
:10060300E0E0A3C0E0E0A3C0E010AF088582188556
:1006130083198008858218858319D2AFD083D0824D
:10062300020804D083D082E9C0E0E493A3C386F038
:10063300C5F095F0F908E493A386F0C5F095F07042
:100643000BE493A3C3994005E9048002A3E475F086
:1006530002A42582F582E5F03583F583D0E0F9E441
:1006630093A3C0E0E493C0E022C0E0C3E493960800
:100673007401939618400FE493667008087401930D
:10068300661870007019A3A3C3E4939608740193CA
:100693009618A3A3400DD0E0D0E0D0E0020589A3D3
:1006A300A3A3A3A3A3D0E022740480047402800054
:1006B300CCC0E0EDC0E0E518C39CCCAD1950011DE2
:1006C30010AF068C188D1980068C188D19D2AF12B5
:1006D3000780D0E0FDD0E0FC2274028000CCC0E0B3
:1006E300EDC0E0E518C39CCCAD1950011D10AF0659
:1006F3008C188D1980068C188D19D2AF12075ED015
:10070300E0FDD0E0FC22C0E0C0F088F0E493667026
:10071300080874019366187000A8F0A3A3700BD0A7
:10072300F0D0E0D0E0D0E0020589A3A3D0F0D0E080
:1007330022D083D082CCC0E0E493A360061207DF0B
:100743001470FAE493A360061208D31470FAD0E08D
:10075300FCE493A3C0E0E493C0E022CAC0E0E493C6
:10076300A3C582CCC582C583CDC583F0A3C582CC86
:10077300C582C583CDC583DAE5D0E0CA22CAC0E00D
:10078300E0A3C582CCC582C583CDC583F0A3C58252
:10079300CCC582C583CDC583DAE6D0E0CA22C008C2
:1007A300C3E096F50808A3E096420808A3E0964242
:1007B3000808A3E09645087001D3D0082270090801
:1007C3000808226016181818C6C333C608C633C6ED
:1007D30008C633C608C633C6D5E0EA22C0E0E493B0
:1007E300A3D39C5010E493A3C39C400AD0E0D0E071
:1007F300D0E0020751A3A3A3D0E022C09FF59FE45A
:1008030073D09F22D083D082C09FE493C0E0740151
:1008130093C0E0740293F59F22C0E0C0D0E8C0E02B
:10082300E5A8D2AFC2C7751A00A2E792AFD0E0F82D
:10083300D0D0D0E0327404800A740380067402803E
:10084300027401C0E0F404120853D0E0120A9F229C
:100853002518F58210AF08F518400215198008F520
:100863001840021519D2AF85198322BB0102E72272
:10087300C082C08389828A83BB0003E08002E49341
:10088300D083D08222C0D0251810AF08F5185002AB
:1008930005198008F51850020519D2AFD0D022608F
:1008A30016080808C6C313C618C613C618C613C647
:1008B30018C613C6D5E0EA22C3E0C696F608A3E03D
:1008C300C696F608A3E0C696F608A3E0C696F622F7
:1008D300C0E0E493A36C7009D0E0D0E0D0E002075D
:1008E30051A3A3D0E022251810AF08F51840021534
:1008F300198008F51840021519D2AF22E06670106E
:1009030008A3E066700A08A3E066700408A3E06623
:1009130022C3E09608A3E09608A3E09608A3E09616
:10092300A2D265D03322E76670100809E766700A21
:100933000809E76670040809E76622C3E096F00831
:10094300A3E096F008A3E096F008A3E096F022C394
:10095300E697F60809E697F60809E697F60809E622
:1009630097F622E627F60809E637F60809E637F68A
:100973000809E637F622E026F608A3E036F608A3D0
:10098300E036F608A3E036F622E657F60809E657FE
:10099300F60809E657F60809E657F622C0E0E8C06C
:1009A300E0E58124FCF8E6A2E7D0E0F8D0E022708D
:1009B3000422600D18C6C333C608C633C6D5E0F497
:1009C3001822E056F608A3E056F608A3E056F60808
:1009D300A3E056F622E056F008A3E056F008A3E0A1
:1009E30056F008A3E056F022E647F60809E647F674
:1009F3000809E647F60809E647F622E026F008A3C9
:100A0300E036F008A3E036F008A3E036F022E4C3B2
:100A130096F608E496F608E496F608E496F622C3FA
:100A2300E7960809E7960809E7960809E79622C6B4
:100A3300F4C608C6F4C608C6F4C608C6F4C622C37C
:100A4300E09608A3E09608A3E09608A3E096226048
:100A53000D08C6A2E713C618C613C6D5E0F3227560
:100A6300D000758140751801751903000203D8E0A1
:100A7300F608A3E0F608A3E0F608A3E0F622600C6C
:100A830008C6C313C618C613C6D5E0F422E6F00899
:100A9300A3E6F008A3E6F008A3E6F022CAC0E0E666
:100AA300F0A308DAFAD0E0FA22E0FAA3E0FBA3E02D
:100AB300FCA3E0FD22EAF0A3EBF0A3ECF0A3EDF03E
:100AC30022E5C754F84401F5C77901222518F582B8
:100AD300E43519F58322C2AF75D69F0200002212B6
:100AE3000807E7E4021208077922001208078B229D
:100AF30000120807DD22001208073E230012080730
:100B0300C823001208076C2400120807C02400122F
:100B13000807D92400120807FF24001208073A2502
:100B2300001208077E2500120807A52500120807F2
:100B3300F62500120807A626001208075E270012F2
:100B43000807262800120807E628001208072A29A2
:100B5300001208074F2900120807922900120807FC
:100B6300DF2900120807372B00120807BD2B0012DC
:100B73000807DB2B00120807052C001208071F2C9F
:100B8300001208072E2C00120807392C0012080740
:100B9300F92C00120807522D00120807142E001218
:100BA30008071C2E00120807E02E001208074C2F1E
:100BB3000012080777300012080788300012080770
:100BC300FE3000120807903100120807E8310012C6
:100BD3000807A83200120807CF3200120807E132D3
:100BE3000012080734330012080771330012080794
:100BF3007E3300120807013500120807563600122B
:100C030008078836001208071B37001208075437F5
:100C130000120807A03700120807BC3800120807A3
:100C2300053B00120807103B001208071B3B00128C
:100C33000807253B00120807303B001208074A3B10
:100C430000120807543B001208075E3B0012080716
:100C5300693B00120807913B00120807EC3B0012A6
:100C63000807103C00120807343C00120807923CA6
:100C730000120807D63C00120807F23C00120807CE
:100C8300693D00120807A13D00120807ED3D00125F
:100C930008074A3E00120807043F00120807E8400D
:100CA30000120807414100120807714200120807A9
:100CB3009742001208072044001208079C470012BD
:100CC30008076E4900120807374B00120807E44B68
:100CD300001208074F4D00120807EE4D00120807D7
:100CE300334E001208079D4E00120807AC4E001247
:100CF3000807335100120807E55200120807525340
:100D0300001208073154001208074A550012080759
:100D1300C75600120807E656001208073B57001291
:100D23000807405800120807685800120807C058FF
:100D3300001208079F5900120807E3590012080719
:100D43002E5A00120807995A00120807DA5B00129C
:100D530008073E5C001208078C5D00120807EC5F71
:100D6300001208071D6000120807D561001208076A
:100D73002A62001208072E6300120807CB630012D1
:100D83000807246400120807D7640012080779656E
:100D930000120807196600120807BE66001208074A
:100DA3007E8001120807BD80011208070483011227
:100DB30008074E8301120807698401120807D984C2
:100DC300011208070E85011208078286011208071F
:100DD3000589011208072E8A01120807C48A011225
:100DE3000807CC930112080761940112080748977A
:100DF300011208073B98011208079C980112080783
:100E0300B899011208079D9B01120807AE9D0112B4
:100E13000807189E01120807EA9E01120807A19FFE
:100E230001120807AB9F01120807D99F0112080797
:100E330096A0011208076DA10112080734A201123E
:100E43000807E6A2011208070FA30112080731A33E
:100E53000112080787A5011208075FA601120807F8
:100E6300A3A6011208070BA701120807C3A70112C3
:100E73000807F5A70112080739A8011208076FA888
:100E830001120807BBA80112080710A901120807DD
:100E930015A90112080768A9011208078DA90112F3
:100EA30008079CAA0112080700AB0112080770ABE0
:100EB30001120807FCAB01120807C9AE01120807AB
:100EC300ADAF0112080730B10112080766B3011272
:100ED300080714B401120807C4B40112080705B7C0
:100EE30001120807A8B701120807EFB70112080794
:100EF3009BB901120807AFB901120807B9B901126A
:100F03000807E1B901120807EDB9011208070CBA85
:100F130001120807F1BB0112080728BC01120807D8
:100F230032BC0112080768BC01120807B7BD0112E1
:100F33000807FBBD01120807A3BE0112080786BFFD
:100F43000112080731C0011208077DC10112080709
:100F53007BC20112080721C301120807B1C30112A2
:100F63000807C8C301120807FFC30112080709C411
:100F73000112080714C40112080732C4011208073A
:100F830076C401120807D3C401120807F8C401127A
:100F9300080712C5011208079EC501120807BBC640
:100FA3000112080728C7011208070FC80112080712
:100FB30036C801120807AAC80112080725C9011279
:100FC300080729CA011208071FCB01120807CECB55
:100FD30001120807E1CC011208077DCD01120807B1
:100FE3000ACE01120807E8CE0112080720CF01122A
:100FF300080778CF0112080741D00112080762D011
:1010030001120807E9D0011208070DD101120807E0
:101013002FD10112080778D1011208078ED30112CC
:10102300080775D40112080726D5011208075CD7F3
:1010330001120807ACD701120807ECD70112080701
:101043002ED8011208078AD801120807B8D801124E
:101053000807DCD8011208072FD9011208075DD948
:101063000112080796D901120807EBD901120807E4
:1010730051DA01120807A5DB01120807C8DD0112C6
:10108300080735DE011208075EDE01120807E9DEF4
:101093000112080750DF011208079BDF011208073E
:1010A300BFDF01120807E3DF011208073EE0011268
:1010B300080759E00112080712E101120807FBE3D0
:1010C300031208073AE4031208077C800212080798
:1010D300C28002120807A28102120807A482021228
:1010E3000807A783021208073385021208079185B0
:1010F300021208074E86021208076C8702120807BD
:10110300DD8702120807198802120807678802128E
:101113000807718802120807B588021208071189A7
:1011230002120807AC8902120807298A021208076B
:10113300F88A02120807918B02120807B18B021278
:101143000807E78B02120807188C02120807D98CCC
:1011530002120807E98C021208073D8D02120807E4
:10116300588D021208076A8D02120807738D021246
:101173000807CD8D02120807298E02120807758E03
:1011830002120807908E02120807C18E0212080786
:10119300DE8E02120807EA8E021208075E90021220
:1011A3000807779002120807DE9002120807F190F1
:1011B30002120807FF9002120807B39102120807F0
:1011C3009792021208079D930212080727940212AE
:1011D30008073194021208079E9402120807B59477
:1011E30002120807E7940212080720950212080763
:1011F3004A9502120807AB9502120807CB95021213
:101203000807E995021208072F9602120807559757
:1012130002120807A29702120807D19702120807C1
:101223004798021208076F9802120807A89802123B
:101233000807B698021208070E99021208075D996B
:10124300021208079C9902120807CC990212080798
:10125300F89902120807039A02120807219A021248
:101263000807E39A02120807ED9A02120807289B5F
:10127300021208073E9B02120807939B02120807FB
:10128300A79B02120807B59C02120807C89C02120A
:101293000807DF9C02120807F49C02120807969DB8
:1012A30002120807199E02120807D79E02120807A6
:1012B300E29E021208070EA0021208072AA00212D9
:1012C30008077CA002120807BBA002120807D0A0DF
:1012D3000212080732A102120807C1A1021208076D
:1012E3000CA2021208075DA402120807DBA4021273
:1012F300080750A50212080772A7021208078AA757
:10130300021208078DA70212080799A702120807FD
:10131300ADA702120807B5A702120807E8A7021231
:10132300080798A8021208070EA90212080781A944
:101333000212080735AA02120807EAAA02120807CE
:1013430009AB02120807A9AB02120807B5AB0212D8
:101353000807E0AB02120807E3AB0212080712AC5E
:101363000212080727AC0212080791AC0212080701
:10137300B9AD0212080791AE021208071CAF0212A0
:10138300080735B002120807F2B0021208072BB1A2
:10139300021208075CB1021208071AB20212080708
:1013A3004AB20212080725B302120807BEB302129B
:1013B300080749B402120807FAB4021208077DB5F8
:1013C30002120807AFB502120807F0B502120807A8
:1013D30025B6021208079E8F031208070390031213
:1013E30008074090031208078F9003120807A5927D
:1013F30003120807FDDA02120807F297031208071F
:101403002D98031208074F9803120807B298031286
:101413000807E69803120807099903120807369983
:1014230003120807929903120807CAF20112080768
:1014330048F3011208077EF301120807EAF30112C9
:1014430008075DF50112080779F501120807BEF5D3
:1014530001120807C9E402120807A5F601120807DA
:10146300D2F701120807E4F80112080741F9011243
:101473000807ADF9011208070EFA011208074FFA1F
:1014830001120807FCFA011208070EFC01120807F3
:1014930039FC0112080784FC01120807CBFC011276
:1014A30008075DFD0112080718FE01120807D8BCE2
:1014B3000312080743BD0312080722A103120807FA
:1014C3006EA103120807DCA103120807FDA1031292
:1014D3000807ADA203120807B6A20312080709A35F
:1014E3000312080732A30312080799A3031208077C
:1014F3002AA4031208076CA403120807B6A4031254
:10150300080715A50312080741A503120807D2A56A
:101513000312080711A60312080750A603120807AF
:1015230085A60312080797A603120807A9A60312A4
:101533000807C8A603120807D1A6031208078CA739
:1015430003120807CCA703120807AADE0312080731
:10155300AB7F00120807E0CD0312080716CE031273
:1015630008075FCE03120807AFCF031208070A6705
:101573000012080749680012080785680012080767
:10158300446A001208076D6A00120807006D001212
:101593000807446D00120807CD6E00120807656F37
:1015A30000120807CD6F001208076E7000120807BB
:1015B300B07000120807F070001208077B72001267
:1015C3000807EB73001208071076001208073E762F
:1015D300001208076576001208076E7600120807E6
:1015E300F57600120807137A00120807ADE3031219
:1015F3000807C3E303120807D2E3031208073AB943
:10160300031208074DB903120807EAB903120807C2
:1016130026BA031208073DBA0312080762BA031277
:101623000807A4BA03120807D5BA0312080710BBA8
:10163300031208078ABC03120807CBBC031208076E
:1016430019E1031208074FE1031208076BE10312C4
:101653000807ADE103120807BDE1031208070EE511
:101663000212080763E5021208074DE60212080793
:10167300E6E60212080730E7021208077FE70212C4
:10168300080793E70212080775E902120807F0E951
:10169300021208071AEA0212080710EC02120807DE
:1016A3002BEC021208077AEC0212080790EC0212E4
:1016B30008079DEC02120807D1EC02120807EAECB6
:1016C300021208078AED02120807E4ED0212080766
:1016D30032EE0212080745EF02120807B6F10212B2
:1016E3000807EBF10212080779F202120807DAF28F
:1016F30002120807DFF2021208071BF3021208079F
:101703007DF3021208074DF40212080772F4021265
:1017130008077CF4021208077FF402120807EEF4AC
:101723000212080709F5021208071CF5021208073E
:1017330048F50212080783F50212080786F502121C
:101743000807C2F5021208075FE30312080777E3ED
:1017530003120807DE99031208072D9A03120807DC
:10176300CF9B031208078B9D03120807D39D031217
:101773000807BB9E03120807EC9F031208070EA07D
:10178300031208076AA003120807EEA00312080752
:101793004CE10112080777E1011208075AE201122E
:1017A3000807DFE20112080748E30112080794E380
:1017B3000112080713E401120807A5E40112080740
:1017C30035E50112080777E501120807C0E90112A0
:1017D300080740EB0112080710EC0112080737EC69
:1017E3000112080798EE0112080724EF01120807F7
:1017F30026F001120807BFF001120807B0F1011229
:10180300080732F201120807008003120807BA80A2
:10181300031208072C8103120807C081031208076B
:10182300C78203120807378303120807F0850312E0
:101833000807C78603120807348703120807B1880D
:10184300031208077B8903120807E68903120807B6
:10185300D88B03120807EB8C03120807848D03123D
:1018630008074A8E03120807ECC30312080740C493
:101873000312080798C403120807E3C403120807F6
:1018830045C503120807DEC50312080746C603123F
:10189300080752C603120807FED3031208072FD402
:1018A30003120807E9D4031208074FD503120807E8
:1018B30096D0031208071BD90312080738D903125D
:1018C30008079FD903120807D9D90312080720DA9A
:1018D300031208074EE0031208075FE0031208072C
:1018E300FFE003120807D8D503120807E6D5031251
:1018F3000807E9FF0212080767E20312080777E205
:10190300031208078FE203120807FCE20312080719
:10191300A8DD031208072DDE0312080791DE031268
:10192300080797D703120807B9D7031208071FD868
:10193300031208073FD8031208077DD803120807CC
:10194300D8D8031208070FD90312080712D90312B4
:1019530008077DDF0312080795DF03120807C5DFB9
:101963000312080740E0031208076DB103120807CA
:101973007BB103120807F5B103120807D9B20312AA
:10198300080792B403120807F7B40312080758B5FF
:1019930003120807F87F0012080722D20312080770
:1019A30044D20312080777D303120807FBD30312A9
:1019B3000807B2AC0312080707AD0312080703AF09
:1019C3000312080735AF0312080757AF03120807BE
:1019D30070AF0312080789AF0312080793B003120D
:1019E30008072EB1031208078FFE01120807B3FE82
:1019F30001120807CCFE01120807FFFE01120807B7
:101A030030FF011208075EFF0112080768FF011289
:101A13000807CAFF01120807D9FF01120807E3FFED
:101A230001120807F0FF011208078DC60312080709
:101A3300B3C603120807F0C603120807FFC6031252
:101A430008071EC70312080786C7031208078FC7B4
:101A530003120807EEC70312080712C80312080788
:101A6300D1C803120807DEC803120807EFC8031220
:101A7300080744E40312080761E403120807CC7A59
:101A8300001208072A7C00120807377C0012080797
:101A93004A7C00120807697C001208077F7C001249
:101AA3000807937C00120807087D001208076D7D64
:101AB30000120807F57D001208077E7E0012080752
:101AC300537F00120807637F00120807727F00121A
:101AD3000807CEE103120807F2E1031208071AE22E
:101AE3000312080742E2031208071DC9031208077D
:101AF30044C90312080765C903120807CAC90312B8
:101B0300080783CB031208079CCB03120807A8CB53
:101B130003120807BCCB03120807DACB031208072A
:101B2300E4CB03120807EECB0312080701CC031220
:101B3300080754CC031208078DCC03120807BCCC4A
:101B4300031208070ACD0312080759CD0312080729
:101B530074CD031208077ECD031208078FCD03123D
:101B63000807D5CD0312080702E30312080753E35E
:101B730003120807FBF50212080725F602120807ED
:101B830041F60212080754F6021208076AF6021217
:101B93000807C7F602120807FAF60212080736FB0F
:101BA300021208075CFC021208078FFC02120807E6
:101BB300DBFC0212080707FE021208072FFE0212BF
:101BC300080744FE0212080754FE0212080798FE93
:101BD30002120807F9FE0212080709FF021208079A
:101BE30056DA0312080771DA031208079ADA0312A6
:101BF3000807B4DA03120807D9DA03120807F8DA78
:101C03000312080710DB031208073EDB0312080761
:101C130058DB0312080737FF021208077BFF021283
:101C230008075FC00312080766C00312080772C1E2
:101C330003120807A2C103120807C8C10312080749
:101C4300EBC1031208070DC20312080747C20312B0
:101C53000807ADC203120807E6C20312080732C31E
:101C6300031208075FC3031208077FC303120807A1
:101C73009CDC03120807B4DC03120807A2DD03127D
:101C83000807A5DD0312080789DB03120807FBDB3E
:101C93000312080739DC031208077ADC031208076A
:101CA3006CB5031208078BB503120807DAB50312E4
:101CB3000807F6B50312080727B60312080737B655
:101CC3000312080744B60312080751B603120807A4
:101CD3003DB7031208077BB70312080785B7031242
:101CE300080795B803120807A0B803120807B2B88B
:101CF30003120807BBB803120807C5B80312080785
:101D0300F5A7031208073AAC0312080748AC0312FD
:101D1300080780E4031208075FD80212080728D7D0
:101D2300021208077CD602120807C2D4021208075F
:101D330072D202120807F9D102120807A0D10212C7
:101D4300080730D10212080707D102120807E7CEAD
:101D530002120807B3CE0212080780CE0212080748
:101D630064CE021208077DCD0212080735CD021298
:101D7300080780CB0212080700CB02120807FDCA2E
:101D830002120807FEC902120807CCC9021208078B
:101D930009C90212080734C702120807C5C602128E
:101DA300080795E302120807F2E202120807A5E109
:101DB3000212080750DF02120807E6DE02120807C4
:101DC30097C60212080794C60212080781C60212B8
:101DD30008072CC6021208079EDE021208071BC65C
:101DE300021208070DC502120807D7C4021208071A
:101DF30085C40212080710DE021208074CF601120E
:101E0300080726C402120807F5C302120807BDC05B
:101E1300021208077DC00212080771C002120807E8
:101E2300D1BF0212080711BF0212080793BC0212A6
:101E3300080724BA02120807E2B902120807B6B863
:101E4300021208076BB802120807AAB702120807A2
:101E5300EDB602120807BDB60212080703DE02122E
:101E6300080783B60212080788940300000080FB6A
:101E7300E473000136360101000102010001030190
:101E830000010401060605020000070100340801F1
:101E9300000F090401010D0100FF0E0800001702E5
:101EA3000000190100FF1A0100011B0100FE1C01C3
:101EB30000081D0200001F01000120010001210292
:101EC30000002301000F2402000026010001270166
:101ED3000008280200FF2A0100072B0102402C0101
:101EE30000002D0100012E0100012F0100FF300130
:101EF3000B1C310800003A0100083B01000F2F01C1
:101F0300000003027102300160021102700201023B
:101F1300020202028002100261023A0041006302DF
:101F230073027202620243020002130238000002CB
:101F33000002040212020002000200020002040274
:101F43000402370037003C02440200023900000259
:101F530000026502000235028102000205028202CC
:101F63008302000203007100300160001100700061
:101F730031022003500480001000610000001400AF
:101F83006300730072006200430000001300060048
:101F93000000000004001200000000000000000028
:101FA30004000400370037003C0244000000000036
:101FB30000000000650000003500810000000500FE
:101FC3000000830000000304710402046004110490
:101FD30070040204020401040204100461040004F6
:101FE30014046304730472046204430400041304BA
:101FF30006040004000404041204000400040004A2
:1020030000045104640000040004000444040004B8
:102013000004000400046504000435048104640022
:102023000504000483040004010371030103010395
:10203300010301030103220302030103100300034D
:102043000003000300030003000300034203000333
:1020530024030603000300030403120325032303DD
:1020630025032303040304030003000300034403C1
:1020730000030003230300036503210035038103E9
:1020830000030503000300030003010171010101C3
:10209300010111010101310101010101800110015F
:1020A30061013B001400630173017201620143018A
:1020B3000001130106013D01350004011201000175
:1020C30000010001000104010401330133013C015B
:1020D30044013201360000010001650100013500B1
:1020E3008101000105018201830100013600010025
:1020F300060000000F0000000000000000000000C8
:10210300000003FFFF00000403FFFF0000FFFF0FB9
:10211300F4010005C4040320000100000B000000CB
:10212300000000000003010F000026181300DE1753
:10213300010026180200A8170300AE170400B41705
:102143000500BA170600C617FFFF000001E80D06D9
:10215300120E080C0E0B2A0E10640D02EE0D050074
:102163000E07F40D0CCA0D0DDC0DFF000003EAF59C
:10217300E5D5D5C5B5A5959585857575656555551C
:10218300454535352525151505081238120E121447
:10219300123212261220123E1244124A1256121AF8
:1021A300120212FC1100160F00000B150B020002A5
:1021B300220F32000006FE1210131613D2111C1345
:1021C300CC11D8110C110611421148113C11F41015
:1021D3006A1388138E1370137C137613303016181A
:1021E3001920231A1C1E300C0E020B040B0A0708BD
:1021F300000F00383C3E363B3B352B432C30301729
:10220300181921301B1D1F30000119161816161539
:1022130023030000034948424D18172505025213B2
:102223002213281334132E132C12501282135C1210
:10223300621202040201010101090218111E1112A6
:10224300114E110000000000002411361100BE04DD
:102253000A150004007F00E8030C002800000000BA
:1022630000090308100C0A03080900040001FF1EFB
:102273001E0C05040F08C082C0838A828B83E0D2C0
:10228300E7F012171202332DC082C08379001227A0
:1022930045125696C082C08390033412441CD083E7
:1022A300D082C3E09CA3E09D500C125D6AFAA3E0C8
:1022B3001222BC60010902332DFBEA75F00BA4FA6C
:1022C300A8F075F00BEBA428FB900336E02AF8A3E3
:1022D300E03B8882F583E0540F2274F712036C8984
:1022E300081227451227EBACF075F00BE9A42CF983
:1022F300900336E028FEA3E039FF74016508600609
:102303007402650870208A828B831227D712370DD7
:1023130074026508701B12269612281E70138E8293
:102323008F83E4F0800BEA2403FCEB1227B9122716
:10233300C5EEFAEFFB120AE802366A74F412036C74
:1023430012669179008E828F83E06076890A890B09
:102353008065E50A75F00BA4FAA8F075F00BE50BA0
:102363001222C97046E50A75F00BA4F8AAF075F0BD
:102373000BE50B1227FD8E828F83E085088285098A
:10238300831228DF850882850983A312370DEE2483
:1023930003FCEF1227C21234EB125110AA08AB0947
:1023A300120AE87901900334124B25E50A2401F55A
:1023B3000AE50B3400F50B12269EE50A9AE50B9B02
:1023C30040900238B774F512036CEAFEEBFF740B0E
:1023D300120ACF1234F0750A01EC4D602BEC126631
:1023E300ADED1256961237057901120AF4E5084548
:1023F30009606F850882850983A312669B7902AA07
:1024030008AB09120AF4805AE5084509602B1256F5
:102413009A123D641234EC122808700CEEFAEFFBAA
:10242300120AFAE9F50A80CBEE2403FA1227407068
:10243300317903EEFAEFFB80CA8E828F83A3E064C7
:10244300FE7003A3E0F4700BEE24030A0A0A1227BA
:1024530040700CEEFAEFFB120AFAE9F50A800375F5
:102463000A00A90A7F030205E074F712036C9003C4
:102473003412367AEA4B602FEA75F00BA4FAA8F00F
:1024830075F00BEBA428FBEAFEEBFF121562900339
:102493003612367A90033612496A6012EEFCEFFD6B
:1024A30079001214C68007900336E4F0A3F00236D5
:1024B3006A9003341240D4C3EE98EF9922C082C0CD
:1024C30083EC4D6005121C9A80097C087D0079001D
:1024D3001214C602332D74F612036C7900EA4B60B2
:1024E30018780088081259DDEB125D6660047901E3
:1024F300780808E8C3940840EA02371674F7120311
:102503006C74F31208E9ECFEEDFF851882851983DC
:10251300E4F004120ACFEAF0A3EB124E967403120E
:102523000ACFAC82AD83EEFAEFFB120B0CEEFAEF9F
:10253300FB120B1202366574F712036C74F3120864
:10254300E9ECFEEDFF851882851983E4F0EAFCEBE4
:10255300FD7403120ACF1228D87401120ACF12375E
:10256300018E828F8312370D74FE68700374FF69C6
:10257300600479018002790002366574F712036CF6
:10258300EAFEEBFF1225DC70141225E78E828F839F
:10259300E0F4F88A828B83E058F0120AE8A9080273
:1025A300366A74F712036CEAFEEBFF7508008E823D
:1025B3008F83E060221225DC701D1225E78A828B4F
:1025C30083E08F838E82F8E058700CE0F88A828B68
:1025D30083E048F0120AE880C4120AEEE9F50874B1
:1025E300016508221266A61227EF122731FAA3E02B
:1025F30039FB2274F412036C8A088B097C007D007A
:102603001226961227C51227561266987900850856
:1026130082850983A3E064FE7003A3E0F460717E06
:10262300007F008062EEFAEF1222BC6057EEFAEFF1
:10263300FBEA75F00BA4FAA8F075F00BEBA428FBEA
:10264300900336E02AF50AA3E03BF50B8508828563
:102653000983A3124DE4850A82850B83A3E06A7084
:1026630003A3E06B701EE50A2403FAE50B1227416E
:10267300700AE50A2403FCE50B1227C212274A79E4
:10268300011256AC12303512269EEE9AEF9B4095FE
:102693000238B7EA24030A0A0AEB229003341252DF
:1026A30083C32274F312036C8A088B098A828B8397
:1026B300A312669B122745126698750C0012269684
:1026C30012274170547E007F008049122723FAA30A
:1026D300E0398A82F583E0540F6036122723F50A26
:1026E300A3E039F50BE50A2403FCE50B1227CC34F0
:1026F30000FB121C94E964017017850A82850B8321
:10270300A3125344A312370D12274A750C01125614
:10271300AC1230351224B440B2A90C7F050205E097
:10272300EEF8EFF9E875F00BA4F812273122AAF0BE
:1027330075F00BE9A42AF9900336E02822EF12285A
:1027430018221266ACEB221227561256A7EEF0A3FC
:10275300EFF022E5081266ADE5092274F512036C69
:10276300EAFEEBFF8E828F83A312669B7C007D00C3
:10277300EE24030A0A0AEF1227C5EEFAEFFB120A48
:10278300EEE9F50A7401650A70291266A61227EBB1
:10279300AAF075F00BE91227FD850882F58312274D
:1027A300D7122808700DE5082403FCE5091227B9A0
:1027B3001227C50224653400FDEE2403FAEF22122A
:1027C30027CC3400FB120B0C223400FDE508240354
:1027D300FAE50922A31227DC221227E022E0F8A35C
:1027E300E0F98E828F83A3221227EF223400F58330
:1027F3001240D8E875F00BA4F822122737F508A386
:10280300E039F50922E8F0A3E9F0E5082403FAE545
:10281300091228182212281E6401223400FB120B0D
:1028230012E92274F312036C74E61208E91266913A
:10283300750C01750800750900750A00750B008594
:102843001882851983E4F0EE2403FCEF3400FD7451
:1028530003120ACF1228D8E964017023740B120AF9
:10286300CF1237057401120ACF124DE87003A3E0AB
:102873006960518518828519838582088583097467
:102883000D120ACFE41228DF740E120ACF12370D8D
:10289300740D120ACFAA82AB83120B30E964017064
:1028A3000B740D120ACF85820A85830B780A1208EE
:1028B30040AC08AD09EEFAEFFB120B0074021208EC
:1028C30088E9F50CEEFAEFFB120B2AA90C741A1225
:1028D300088802271E122BAB120B362212367512F2
:1028E30040D422C082C0837800790080031229D6A5
:1028F30012269EE89AE99B5029E8FAE9FBEA75F06B
:102903000BA4FAACF075F00BEBA42CFB900336E0B0
:102913002AFCA3E03B8C82F583E0540F70CF79004F
:102923008002790102332DC082C083902254124168
:102933002AEC75F012A4FCA8F075F012EDA428FDA2
:1029430079FF7AE67B061214C602332D74F712035D
:102953006CE9FEEAFF7A007B00780079008028E8C2
:10296300FCE9FDEC75F012A4FC85F00875F012ED9E
:10297300A42508122DEBC39E400AE0FCEFC39C4044
:1029830003122F0A1229D6122DDF40D302366AC052
:1029930082C0837800790080031229D61229CA5095
:1029A3001F122DEFF470F2E875F012A4F8AAF07577
:1029B300F012E9A42AF974E628FA740639FB8004B4
:1029C3007A007B0002332D902254122EA0C3E89A82
:1029D300E99B22E8240108E93400F92274F0120388
:1029E3006C74F31208E98A0A8B0B8C0C8D0D890821
:1029F300EC450D6016AA0CAB0D120B848A0E8B0FDF
:102A0300AE0EAF0FEE4F6003022A9D120B5A8A0ED1
:102A13008B0FA80EA90FE8FEE9FFE849607C90221E
:102A230062122AFF60227403650860067404650855
:102A330070167A047903120B54902262122B1640FB
:102A4300077A007B00022AFC902260122AFF601B97
:102A530074016508600674026508700F7A027901D3
:102A6300120B54902260122B1650D68518828519AA
:102A7300837401F0120ACF125110AC0CAD0D740324
:102A8300120ACF122BA4740B120ACF1234F8123A83
:102A9300EDE41250F812104C8004EE4F604A7800B7
:102AA30074FF2508C39404500278048E828F831226
:102AB30051108E828F83A3A3A3A3E508F0E88E822F
:102AC3008F83A3A3A3A3A312511812021B122EB721
:102AD3008E828F83A3A3A3A3A3A3A3F0122EAE126C
:102AE3000AAC125690120AB8122B044005900C42FD
:102AF300E4F0120F26EEFAEFFB0240DE12523249E7
:102B0300227A047900120B54902254125D4CEA98F5
:102B1300EB9922122B2F758322758254E493C39869
:102B2300F8A3E49399F9C3EA98EB9922E493F87430
:102B33000193F92274F212036C74F31208E98A0800
:102B43008B09ECFEEDFF750A00EEFAEFFB120B8426
:102B53008A0C8B0DA80CA90DE849603E88828983F5
:102B6300E065087004A3E06509602F88828983A368
:102B7300A3A3A3E0C39405502112553E8518828573
:102B830019837401F0120ACF125542EEFCEFFD7463
:102B930003120ACF122BA4750A01A90A740D024B62
:102BA300DC122BAB120B4222AA82AB83120B0C85D5
:102BB3001882851983AA82AB832274F612036C12DE
:102BC3002BF9600FA3A3A3A3E014C39404500479C7
:102BD300018002790002371674F612036C122BF986
:102BE300600FA3A3A3A3E014C3940250047901804C
:102BF300027900023716120B7E8A828B83E58245A7
:102C0300832274F612036C122BF9600BA3A3A3A304
:102C1300E07004790180027900023716C082C08314
:102C2300EAFCEBFD7A007B0002332AC082C0837C7E
:102C3300007D0002332A74F412036C74F31208E962
:102C4300EAFEEBFF8C0A8D0BC3EC94F8ED94FF4086
:102C530007EE4F7003022CF2750800750900802EF1
:102C63008518828519837401F012305D120ACF1220
:102C7300306B60137403120ACFAC82AD83EEFAEFAC
:102C8300FB121C94E97049E5082401122E8B902253
:102C930054E412523AE50898E509995052E508754B
:102CA300F012A4F8AAF075F012E509A42AF9125D4E
:102CB3007F60D4EE4F70A974FF650A700474FF65DA
:102CC3000B60C412304D650A7004A3E0650B70B746
:102CD300E50875F012A4F508A8F075F012E509A44B
:102CE30028F50974E62508FA74063509FB80047A89
:102CF300007B000238B274F412036C74F31208E917
:102D0300750800120B848A0A8B0BAE0AAF0BEE4FC9
:102D1300602A851882851983740112366FF8A3E03F
:102D2300F9740B120ACF123790120B247C127D0018
:102D330079FFEEFAEFFB1214C6750801122B04504B
:102D430009900C427401F0120F26A9080238B274DC
:102D5300F712036CE9FE74FE6A700374FF6B78006C
:102D63007900700580521229D6122DDF504AE8FCF3
:102D7300E9FDEC75F012A4FCAFF075F012EDA42F91
:102D8300122DEBF460E0E8FCE9FDEC75F012A4FC15
:102D930075F012EDA42FFD74E62CF58274063DF553
:102DA30083E06A7003A3E06B70BC8009122DEF14FB
:102DB300C3940440171229D61229CA5018EE70EC96
:102DC300122DEF64016005E0640370E912303EFAEE
:102DD300A3E0FB80047AFE7BFF02366A9022541242
:102DE300412EC3E89CE99D22122F3F22E8FAE9FB1A
:102DF300EA75F012A4FAACF075F012EBA42CFB7494
:102E0300EA2AF58274063BF583E022120B9602331D
:102E13002DC082C083790180F274F012036C8A0A98
:102E23008B0B7A047901120B548A0C8B0DEA450D36
:102E3300603EEAC333FAEB33FB1215628A088B094F
:102E4300AE08AF09EE4F60237AFE7BFF120B9C7432
:102E5300FE6A700374FF6B601B8508828509831209
:102E6300367AE5082402122E8B80E1750C0080046B
:102E73007E007F00850A82850B83E50CF0EEFAEF76
:102E8300FB0240E3E5082407F508E5093400F509EA
:102E93002290225412412EC3EA9CEB9D22E493FA22
:102EA300740193FB221214BA7403221256A1E4F0A4
:102EB30090803F22E88E828F83A3A3A3A3A3A3A31F
:102EC300A3122ED97401122ED9A3F0EE2410125698
:102ED300A4E4F0A3F022123AF9A3A3A322C082C070
:102EE300837A007B00800419122F0A122E9450104B
:102EF300122F29C3940550F0E970EC122F138004AC
:102F03007A007B0002332DEA24010AEB3400FB2212
:102F1300EA75F012A4FA75F012EBA428FB74E62A02
:102F2300FA74063BFB22EAFCEBFDEC75F012A4FC01
:102F3300A8F075F012EDA428122F3F22FD74EA2C9D
:102F4300F58274063DF583E02274F712036C74F383
:102F53001208E97E007F00022FF1E50875F017A43F
:102F6300F8A9F0125FE0FAA3E0FBEEF8EFF9E875D9
:102F7300F012A4F8ACF075F012E9A42C12304C6AEC
:102F83007003A3E06B603FE50875F017A4F8AAF09F
:102F9300EA125FDFF8A3E0F97401120ACFE0687068
:102FA30003A3E0696020E50875F017A4F8EAF97453
:102FB3006228FC740839FD7403120ACFAA82AB831A
:102FC300121C94E96014E50875F017A4F8A9F074CD
:102FD3006028FA740839FB1210580508902267E438
:102FE30093F8E508C3985003022F5D123035902201
:102FF300541263265039EEF8EFF912303EF47003A1
:10300300A3E0F460E68518828519837401F0EEF875
:10301300EFF9E875F012A4F875F012E9A42AF91291
:10302300305D120ACF12306B60C175080080AD02AB
:103033003665EE24010EEF3400FF22E875F012A48A
:10304300F8AAF075F012E9A42AF91230512274E6B5
:1030530028F582740639F583E02274E828F5827432
:1030630006391240D2740B22E8F0A3E91237981202
:103073000B3CE922C082C08390034174FAF0A3742D
:103083000DF002332D74F712036CEAFEEBFF90038D
:1030930077E06408601BE0640460168E828F83E02F
:1030A3005403640170481234EB123BE3E06406708E
:1030B3003D8E828F83A3A3E064FE7003A3E0F460DC
:1030C3002D8E828F83A3A3123701900368E068706B
:1030D30003A3E069700BEE2415F582EF125D6660C1
:1030E30008120EB4E9F5088008120EBA80F67508C6
:1030F300C2EEFAEFFB1215680225A074F412036CFA
:103103008A088B098A828B83E0F8A3E0FAE82AFA1B
:10311300E43400FB1215628A0A8B0BAE0AAF0BEE86
:103123004F6063850882850983E0FC7D0079001286
:1031330014C68E828F83A3A312669B120EF68E8211
:103143008F83A3A3A3A312367A850882850983E01C
:10315300F8EE28F8EF3400123709850882850983D1
:10316300A3E0C0E0EE240D125693D0E0F0120F0856
:10317300EE240E125693E9124D45E0C0E0EE241101
:10318300125693D0E0F0EEFAEFFB0238B774F41264
:10319300036C74EB1208E98A088B098C0A8D0BE91E
:1031A300FE900377E064046005E06408700479C26C
:1031B300802EA37808120A90EE90037E12336B12CE
:1031C3000A907405120ACFE9F07404120ACF74014D
:1031D300F07407120ACFE4F090037774021232C836
:1031E30074150238B474F612036C74EB1208E9EA2E
:1031F300FEEBFF124967600302328C7A077B0012F1
:10320300156290033912367A12496760788E828F7D
:1032130083120AAC90033A123BE6120AB812655FB6
:10322300C0E0123298D0E0F0EE2405FAEF3400FB50
:103233008A088B098A82F583E0C0E0123293D0E0DA
:103243001238AEE0C0E0123293A3D0E01236EE1291
:103253000AAC851882851983120AB888828983E0AB
:10326300C0E07405120ACFD0E0F085088285098397
:10327300E0C0E07404120ACFD0E0F07407120ACF62
:103283001232C78006791080027901741502371350
:10329300123298A322900339E0FAA3E0F5838A82DD
:1032A300A3A3A3A322C082C083124967600D900326
:1032B30039125271900339E4F0A3F0120E24120F65
:1032C300F802332DE4123798121CCA22C082C0833D
:1032D300900338E070031217D8120BDE804CC082C3
:1032E300C083900338E0900C417004E4F0802D74A7
:1032F30001F0900338E0F460237C41E0C394415033
:1033030002E0FCECF8E0C398F0EC75F0E8A4CCA87C
:10331300F075F003A428FD7A801241367A417B0CC4
:103323007941121CB28003120B8AD083D082020827
:103333000474F412036C74EB1208E98A088B098C89
:103343000A8D0B900377740112336B120A90740584
:10335300120ACFE9F07404120ACF7403F07407124F
:103363000ACF1232C70231E31236F978082274F712
:1033730012036C7C01120BF002366A74F212036CB6
:1033830074FC1208E9E9851882851983F0EAFEEBDB
:10339300FF8C0A90037512441C120E188A088B09BD
:1033A300EA4509700579CA0234E68A828B83A3A3AE
:1033B300A3A3A3A3A3E064FE7003A3E0F4700579C1
:1033C300C30234E6900375124DE412105E85088241
:1033D300850983A3A3A3A3A3A3A3A3A3A3E0049007
:1033E30003881236497402120ACF7402F014120AC7
:1033F300CFAA82AB83120F628A0C8B0DAE0CAF0D7A
:10340300EE4F70030234DD1234EB123D587406F0B4
:10341300A3A882A9839003621252AE1240B1F0EEC8
:10342300241312569374011250F07440F0A3E41263
:103433004D3EA3A31234F812370DEE241112569306
:10344300E50AF0EEFAEFFB120BBAE9FE6003023471
:10345300DF9003777409F0122E87AA08FB794B12C9
:103463001CB285088285098312363B12370D9003FF
:103473006AE0F8851882851983E068600CE09003A0
:103483006A12379479E1121CB2900C7C12370190C6
:103493000C7EE0687003A3E069601A90033B123767
:1034A3000D900C7E124DE4120F20900C7E12441CE2
:1034B3007A011241367A007B049003C2E0F91216B6
:1034C30022900C7E1234F0740278081209B2AC0810
:1034D300AD09FA7B0412413880027E1090051DE489
:1034E300F0EEF97404024BDCEE1256A222E0F5086A
:1034F300A3E0F509221234FC221227E0A32274F57B
:1035030012036C74E21208E9851882851983ECF0C2
:10351300A3EDF0EAFEEBFF89087429120ACFE0F568
:1035230009742C120ACFE0F50A900377E064046073
:1035330005E06408700579C2023633742A120ACF93
:10354300E064FE7003A3E0F4700579C302363390A0
:10355300037774031237947950121CB2742A120A37
:10356300CFAA82AB83794B121CB28518828519834B
:1035730012364212370DE50890036AF0742A120AD4
:10358300CF12363B12370DE50990036212364974A8
:10359300CE55094480C0E07412120ACFD0E0F07413
:1035A30001250A900388F0740F120ACF7402F07495
:1035B3002A120ACF1237017407120ACFE8F0A3E9DF
:1035C3001236807410120ACF12370D7405120ACF07
:1035D300E508F0741B120ACFE4F090037D740FF03A
:1035E3007A7D7B037954121CB290037C740FF07ABA
:1035F3007C7B037947121CB290037CE0C3940F5089
:10360300237405120ACFE0C0E07402120ACFD0E09F
:10361300F07404120ACF7401F004120ACFAA82AB29
:1036230083121CD67405120ACFAA82AB83121CB86C
:10363300741E1208880224671240D490036B22126E
:1036430040D490037522F0EEFCEFFD7A897B0312E0
:103653001C9A2274F712036CEB90037FF0120E0690
:103663008005740D1208887F010205E0123675A3E8
:10367300E0221236EEA322EAF0A3EBF0221236F494
:10368300F8A3E0F92274F712036C74F81208E9EA5C
:10369300FEEBFF7900900377E0640870448518829D
:1036A30085198374FDF0A374FFF0120EF0740212F7
:1036B3000ACF12367A7405120ACFE4123675E0C0C7
:1036C300E07404120ACFD0E01236E9C0E0740612A7
:1036D3000ACFD0E0F07407120ACFE4123794120F26
:1036E3004474080236671236EEE022F08E828F832E
:1036F300221236F9E022F0851882851983221240BE
:10370300D422E0F8A3E0F91256A1E8F0A3E9F022ED
:103713001208887F020205E0C082C08390034974C7
:10372300AAF0A3740CF09003EF749EF0A3740FF04F
:1037330090034D74E0F0A3740CF090034F74AAF05F
:10374300A3740CF090035174E6F0A3740CF00233ED
:103753002D74F412036C74F91208E98A088B098C2E
:103763000A8D0B8518828519837808120A907404D0
:10377300120ACFE9F07405120ACFE4F07406120AB4
:10378300CFE4123794120BCC74070238B4E8F0A3D9
:10379300E9123798221236F9AA82AB832274F41203
:1037A300036C8A088B098A828B831256AFEE4F70A3
:1037B300030238AC90031212496A60158A828B8324
:1037C300A3A3E0F9EEFAEFFB900313123BE6121EFC
:1037D300738E828F83A3A3A3A3A3A3A3A3A3E06452
:1037E3000270748E828F83A3A3A3A3A3A3E05402C6
:1037F300700302387E850882850983A3A3E064E908
:1038030060798E828F83A3A3A3A3A3A3A3A3A3A35C
:10381300E07014900C91E0048E828F83A3A3A3A382
:10382300A3A3A3A3A3A3F08E828F83A3A3A3A3A382
:10383300A3A3A3A3A3E0141238AEA3A3A37404F019
:10384300900C921250EAE8F0A3E91261C38B0BEAE1
:10385300450B7003125BA18E828F83A3A3A3A3A343
:10386300A3A3A3A3E0640260128E828F83A3A3A306
:10387300A3A3A3A3A3A3E06406702E8E828F83A3C6
:10388300A3A3A3A3A3E0A2E0501F85088285098315
:10389300A3A3E0F9EEFAEFFB121D5A8E828F83A3E6
:1038A300A3A3A3A3A3E054FEF08009123AF5227464
:1038B3000D1208887F040205E074EC12036C74DDBA
:1038C3001208E9EAFEEBFF8C088D097437120ACF60
:1038D300780C120A72750A007405120ACFAC82AD15
:1038E30083121DB47412120ACFE070087415120A01
:1038F300CFE060207405120ACFE0A2E6501E8E824C
:103903008F83A3A3A3A3A3A3A3A3A3124DE4120F83
:103913007AE960087903121C82023ADB7405120A01
:10392300CFE0540C64047005750B018003750B0024
:10393300E0A2E55035750A01E50BA2E0402C120E1A
:10394300F68A108B11A810A9111234EBE0687003EA
:10395300A3E06960157405120ACF1266A2124DE046
:10396300121D66E96004790480AC7405120ACFE085
:10397300A2E650227406120ACFE0540370187405AD
:10398300120ACFE0540C640C600CE0540C64086021
:103993000575100180037510007405120ACFE054F9
:1039A30003F8740268700C1266A2124DE0121DA295
:1039B300023ADB740168703AE510A2E05003123A50
:1039C300E37405120ACFA882A9837403120ACFE80D
:1039D300F0A3E91240C8851882851983123AEDE0F5
:1039E300C0E07402120ACFD0E0123794121E4A02CA
:1039F3003ADBE86003023ADB90035FE06401701096
:103A03008E828F83A3A3A3A3A3A3E07003023969C8
:103A13007422120ACF74021240C8741A120ACF1207
:103A2300370DE510A2E050087405120ACF123AE3ED
:103A3300E50BA2E0506AEE240FF582EF125D66C03B
:103A4300E07417120ACFD0E0F090031412496A70A1
:103A530003023ADB120EF68A128B13A812A913740F
:103A63001A120ACFE0687003A3E069706B780C1236
:103A73000838780A1208447808120840A910740C10
:103A8300120ACFAC82AD837421120ACFAA82AB8310
:103A9300900314123BE3121E7374071208888038D4
:103AA300780C120838780A120844780812084090F3
:103AB30003751206AFEE2412F582EF125A947423A3
:103AC300120ACFAC82AD83740E120ACFAA82AB83E3
:103AD300121D4E7409120888742312088802618E1D
:103AE3001266A212527F121DAE22E8F0A3E9123A27
:103AF300F522123AF922F08E828F83A3A3A3A3A304
:103B0300A32274F712036C1216CA02366A74F712F0
:103B1300036C1216DC02366AC082C0831216D60208
:103B2300332D74F712036C1216E202366A74F7121D
:103B3300036C7409120ACFE0F508780812084412DE
:103B430016EE7401023667C082C0831216FA02337E
:103B53002DC082C08312170002332D74F712036C39
:103B630012170602366A74F712036CEAFEEBFF893A
:103B7300087401650870147900120D22902272E412
:103B830093FC7900EEFAEFFB120C9802366A74F498
:103B930012036C74F91208E9E9FE8A088B098C0A8E
:103BA3008D0B7413120ACF124DE490056912496A02
:103BB3006027EE851882851983F07401120ACF7885
:103BC30008120A90EAF8EBF97405120ACF1237903B
:103BD300900569123BE3121E7302378BFB90034B74
:103BE300E0F8A3E0F58388822274F712036C900C4B
:103BF30044E0F97E00800B125D52540D64017001A4
:103C0300190E123DE65003E970ED02366A74F7129D
:103C1300036C900C45E0F97E00800B125D52548DCD
:103C230064817001190E123DE65003E970ED02360E
:103C33006A74F212036C890BE975F006A4240CF57F
:103C430008E5F0122E8F8A0CE508250CFAE50934F5
:103C530000FB1215628A0C8B0DAE0CAF0DEE4F609C
:103C630027AC08AD0979001214C61234EBE50BF04A
:103C7300EE2508F8EF3509F98E828F83A3A3A3A35A
:103C8300A3A3A3A3A312370DEEFAEFFB024BDF743A
:103C9300F612036CEAFEEBFF120C74900C43E0F88F
:103CA300E9C3984009900345124DE4120C7AEE24BF
:103CB30002F8EF1253F49003471252AE900347E019
:103CC30004F0EEFAEFFB120C80850882850983E08D
:103CD3000258AAC082C0837900900345800109126B
:103CE3004DE48A828B83E582458370F202332D741F
:103CF300F712036CEAFEEBFFEE4F6056900345129A
:103D0300496A604E888289837A007B00EE658270FF
:103D130003EF6583600FAA82AB83123D58E58245AA
:103D230083602F80E7900345123D64687002EF695A
:103D33008E828F83700812370190034580031261CE
:103D4300A012370DEEFAEFFB121E1AEEFAEFFB127A
:103D5300156802366A123D5C221240D88882898334
:103D6300221240D4EE22C082C0839003458004888F
:103D730082898312496A600B8882898312441CEC0E
:103D83004D70EC8A828B83E4F0A3F0E849600688E7
:103D9300828983800390034512367A02332D74F7A8
:103DA30012036C90034580048A828B83123DE14B9E
:103DB30060257E0080010E123DE650ECEE75F006A4
:103DC300A4FCADF0EA2CFCEB3DFDEC2410F582EDF8
:103DD300123E3670E180047A007B0002366A12528A
:103DE30083EA22123E3FEEC3982274F712036C7DDE
:103DF3000080010D123E3BEDC3985034ED75F00683
:103E0300A4FEA8F0E8FFEA2EFEEB3FFFEE2410F538
:103E130082EF123E3670DCED75F006A4FEE8FFEA91
:103E23002EFAEB3FFBEA2411F582EB125D664CF0B0
:103E330002366A125D726922123E3F221266ACEBB1
:103E43003400F583E0F82274F612036C120D9A7AAB
:103E5300007B008025EAF8EBF9E875F006A4F8ACDE
:103E6300F075F006E9A42C12525812656DA3E41202
:103E7300534EF0A31265731266EA90225C122B0E66
:103E830040D37A007B00801C8A088B09740378086E
:103E93001209B2124D0CA374FEF0A30412512EA307
:103EA300E41266EA902266123EE940DC7A007B0067
:103EB300801D8A088B09740378081209B27488126A
:103EC30059DE740B12622574FEF0A3041266EA90A5
:103ED300226C123EE940DB902270E493900353F08E
:103EE300123EF3023716E493F8C3EA98EB940022E8
:103EF3007CE87D037A107B009003C2E0F912161C64
:103F03002274F012036C74F51208E98A088B09898C
:103F13000A8C0BE9A2E050147508FC7509FFA2E1B5
:103F23005005D2E4023FC6D2E3023FC6124BCB7028
:103F330003A3E06970057900024093AC0A7902AAF1
:103F430008AB09120D76E960EDE50AF50C780C1261
:103F5300084479027CFE7DFFAA08AB091249461288
:103F63000888E96003024091E50AC2E5F50A900377
:103F7300B5E07051E50AA2E6404B7403120ACFACD8
:103F830082AD83AA08AB09120B18E970321242679B
:103F93008A0C8B0DA80CA90DE8FEE9FFE849602502
:103FA300EE24020A0AEF12281E601AEE2402FCEF26
:103FB3003400FD7403120ACFAA82AB83121C9AE564
:103FC3000AD2E5F50A900348E0F50C900368E0F5A2
:103FD3000EA3E0F50F780E1208407D017C009003DC
:103FE30048E0F9AA0EAB0F120D2E7402120888E9ED
:103FF300F8900348E004F0E86003024091E50AA268
:10400300E55004740E80027406C0E07401120ACFF6
:10401300D0E01256C08A0E8B0FAE0EAF0FEE4F607C
:10402300691240B11240C8888289837401F07478A0
:10403300550AA31266B2E50C1266B2A3E508F0E5D1
:10404300091240A0E4F0E50AA2E5500F7403120A36
:10405300CFAC82AD83E824061240978E828F83A370
:10406300A374FDF0A374FFF0E50B6015902273E4D5
:1040730093F8E50BC3985009EE2413125693E50BFE
:10408300F0EEFAEFFB120BBA80067910800279C7C3
:10409300740B8049FAE93400FB121C9A2288828946
:1040A30083A3A3A3A31240AC22125427A322EE247A
:1040B300171256A47401F0120EF0EE241A1256A42D
:1040C300EAF0A3EB22F01266A634001240D222F5E6
:1040D300831240D822E0F8A3E0F922740D12088875
:1040E3007F080205E074F612036C7A007B10125B02
:1040F300AE60089003D47401F08029900608E06450
:1041030001900C8F7006E0FC79018004E0FC7903D8
:104113007A007B00120C9890225A12412A7A007B73
:104123001012413802371612412E22E493FC740117
:1041330093FD227B009003C2E0F91216162274EC61
:1041430012036C8A088B098C0C8D0D890E74141262
:104153000ACF124B257416120ACFE0F510A3E0F52F
:1041630011120F7AE960077AFF7BFF024264900C19
:104173008EE0640260030242577900AA08AB091279
:104183000D7CA90E120D708A128B13AE12AF13EEB3
:104193004F700302423F8E828F83A3A3A3A3A3E0A6
:1041A30064018E828F83A3A37069124DE48E828F84
:1041B30083A3A3A3A3A3A3E054186043902271E4B1
:1041C300938E828F83A3A3A3A3F0EA650C7003EB02
:1041D300650D6014EA650A7003EB650B600AEA6516
:1041E300107003EB6511701F7810120840AC0AAD14
:1041F3000BAA0CAB0D12107674021208888008907B
:104203000367125B98A3F074FE6A700374FF6B601C
:104213001D804EA3A3A3E0640360298E828F83A332
:10422300A3A3A3A3E0640470057AFE02416C8E820B
:104233008F83A3A3A3A3A3E0640270089003B4E055
:10424300640270101242678B0BEA450B6006AA08E2
:10425300AB09800DAA08AB09900349123BE3121E78
:104263007302618E90037512494C12103A2274F74F
:1042730012036CEAFEEBFF120B6CE9700AEEFAEF25
:10428300FB120B78E96006EEFAEFFB80047AFE7B03
:10429300FF02366A74F012036C8A0A8B0B8C0E8D44
:1042A3000F8909750800120F7AE979006003024447
:1042B3000EAA0AAB0B120D7CA909120D708A0C8B86
:1042C3000DAE0CAF0DEE4F60198E828F83A3A3A3A7
:1042D300A3A3E0640270559003B4E0640270030288
:1042E300440CAA0AAB0B90034F123BE3121E73124A
:1042F3000B7E8A0C8B0DA80CA90DE84970030244B0
:104303000C88828983A3A3A3A3A3E0A2E0400302B2
:10431300440C750C01A2E150687901AC0AAD0BAAFB
:104323000EAB0F120CC8E9706402440C8E828F83AB
:10433300A3A3A3A3A3E064037005750C0280528EAC
:10434300828F83A3A3A3A3A3E06401600302440CAD
:1043530090037512441C8E828F831247718A0C8BD3
:104363000DA80CA90DE84960D190226AE493FA885C
:10437300828983E0C39A50C2A3E0600302440C80A5
:10438300B988828983A3A3A3A3A3D2E1F0EE4F60EC
:104393003A8E828F83A3A3A3A3A3A3E05418602B15
:1043A3007508018E828F83A3A31206AF750CFE7569
:1043B3000DFF780C1208407900AC0AAD0BAA0EABC6
:1043C3000F120D8E7404120888803E900368E06516
:1043D3000E7004A3E0650F7014902272E493FCA99D
:1043E30009AA0AAB0B120C98750801801CA90CAC26
:1043F3000AAD0BAA0EAB0F120CC8E9700C750801BD
:10440300A909AA0AAB0B120D22A9080240E3E50C85
:104413002415F582E50D1256A71251042274EA12EF
:10442300036C74F01208E98A0C8B0D8C088D0974E7
:1044330026120ACFE0F514A3E0F5157512069003D2
:10444300F512496A602390037512441CAA08AB094C
:104453001210648A108B11EA4511600D8A828B83D6
:10446300A3E070057900024759E50C241DF50EE51C
:104473000D3400F50F850E82124956F51388828993
:1044830083A3A3A3E0FA88828983A3A3A3A3E0F968
:10449300EA2400FEE439FFAA08AB09120D28850EB1
:1044A30082850F83124794E029F50BE50AA2E550B4
:1044B3000375120E7487550A70177418550A641819
:1044C300600FE50C2417F582E50D125D6665126039
:1044D300077901121C82808C530A78C3EE94F8EF9B
:1044E30094FF501D7900EEFAEFFB124763601288C8
:1044F300828983A3A3A3A3A3A3E054186003024464
:104503006778081208407D00124787120888E9F887
:104513007403687003024467E860030245D27418A9
:10452300550A7003024687E50AD2E0F50AA2E45071
:1045330004D2E1F50AA90A124DDD124763605388DC
:10454300828983A3A3A3A3A3A3E05418604488820E
:104553008983A3A3A3A3A3E064017036E5104511E7
:10456300603090037512441C888289831247718AD4
:104573000E8B0FA80EA90FE849601788828983A3C1
:10458300E0600F851082851183A31258B550030292
:104593004467E50AF50E780E12084412477A1208AA
:1045A30088E9702B7C007D0085148285158374FF58
:1045B300F0A3F0850C82850D83A3A3A3A3A3A3A3D8
:1045C300A3E06003124411A90B124DDD1216F4850A
:1045D3001482851583E0F47003A3E0F4603990033B
:1045E300B4E064027003024467124B16E0FAA3E0DE
:1045F300123BDF121E73EA65087003EB6509600363
:10460300024467EEFAEF123BDF121E7385148285B4
:104613001583EAF0A3EBF078081208407D011247F6
:1046230087120888A90AEEFAEFFB120D7C8A088B21
:1046330009A808A909900368E0687003A3E069600A
:104643000302474AEEFAEFFB120B7E8A088B09A896
:1046530008A909E849606E88828983A3A3A3A3E01C
:104663006401600D88828983A3A3A3A3E06402701D
:1046730054851882851983AC82AD83EEFAEFFB1261
:104683000B188055900361E0600FE50AF50E780E74
:1046930012084412477A120888E50AF50E780E12BA
:1046A300084479027CFE7DFFEEFAEFFB12494612C5
:1046B3000888E960030245D285148285158374FF57
:1046C300F0A3024619120EF0EAFCEBFD8518828571
:1046D3001983AA82AB83121C9A850C82850D83A34E
:1046E300A3A3A3A3A3A3A3E06401700F12441174B3
:1046F30008120ACFAA82AB83121C9A1249201255C0
:104703002C4430F50878081208447401120ACF8546
:1047130082088583097808120840740B120ACF8532
:1047230082088583097808120840E513F50878089C
:104733001208447900EEFCEFFD124DDD120CC27439
:1047430006120888024467124920125696124794AB
:10475300E50BF0120F0874101208887F0E0205E0B3
:10476300120D708A0E8B0FA80EA90FE84922A3A37E
:10477300125283121064227901AC08AD09125278E7
:1047830012494622AC0BA913125278120D2E740251
:1047930022125534A3A3A3A32274F012036C74F062
:1047A3001208E98A0C8B0DECFAEDFB750F089003E8
:1047B300F512496A60141258AE8A828B83E58245EA
:1047C300836007A3E0700302491B124920340012DF
:1047D3004956F50B88828983124929E0FBEC2400B2
:1047E300FEE43BFF88828983A3A3124929A3A3E0A4
:1047F300FBECF508E43BF50988828983A3A3A3A313
:10480300A3A3A3E0F50EE50AA2E45003750F10A2DB
:10481300E550067408250FF50F748F550A700FE5E0
:104823000C2417F582E50D125D66650F60087901AA
:10483300121C8202491B530A707800E50AA2E45055
:1048430022124920125D662408FCA3E03400FD74A3
:1048530008120ACFAA82AB83121C9A7808E50AC20F
:10486300E4F50AE50AA2E55028124920125D6628FC
:10487300F8A3E03400F9E82408FCE93400FD8518C6
:1048830082851983AA82AB83121C9AE50AC2E5F5D5
:104893000AAC0EA90BEEFAEFFB120D34E9F8740320
:1048A300686075900368E06E7003A3E06F605EE874
:1048B3007054E50AF50F780F1208441249371208AD
:1048C30088E97054780A1208447401120ACF858269
:1048D3000C85830D780C120840740B120ACF858265
:1048E3000C85830D780C120840E50BF50A780A1243
:1048F3000844A90EAC08AD09EEFAEFFB120CC27422
:10490300061208888012740468700D80B7780A1242
:10491300084412493712088874100240E0E50C2459
:104923001DF582E50D22A3A3A3E0FC88828983A35E
:10493300A3A3A3227901124B1D1256A712494C12AD
:10494300494622120CEC740122E0FCA3E0FDAA0804
:10495300AB0922F583123D5CA3E0F50A88828983C3
:10496300A3A3E0229003391252DF2274E812036CEE
:1049730074F51208E9EAFEEBFF8C088D09891474BB
:1049830023120ACFE0F50F7424120ACFE0F512A325
:10499300E0F5137426120ACFE0F516A3E0F51774B9
:1049A30028120ACFE0F50EA90F120D3A8A108B11C7
:1049B3007401120ACF7408F0E50EA2E450037410D8
:1049C300F0E50EA2E55004E02408F085188285196D
:1049D30083AA82AB83120F628A0C8B0DEA450D709A
:1049E30003024AFDEA2417F582EB124B0F120EF075
:1049F300E50C241AF582E50D12569612367A7403E5
:104A0300120ACFAC82AD83AA10AB11120B18E96066
:104A13001D124B077403120ACFA882A983E50C2445
:104A230018F582E50D125696E8F0A3E98024E50E09
:104A3300A2E4501FE5106E7003E5116F7015124B61
:104A430007E50C2418F582E50D125696E512F0A33E
:104A5300E513F0124B16124B25850A82F583740277
:104A6300F0A3E50E124B2DE50FF0EE850A82850BC0
:104A730083A3A3A3F0EF850A82850B83A3A3A3A338
:104A8300124B2DA3A3A3E508F0E509850A82850B44
:104A930083A3A3A3A3A3A3F0AA10AB11120D28E928
:104AA3002514850A82850B83A3A3A3A3A3A3A3F041
:104AB300750800E50EA2E45011AC12AD13E50A240B
:104AC30008FAE50B124099750808E50EA2E55014A3
:104AD300AC16AD17E50A2508F8E50B3400F9E82410
:104AE30008124097850C82850D83A3A3E510F0A3DC
:104AF300E511F0AA0CAB0D120BBA740B1208887FE8
:104B0300100205E0E50C2416F582E50D1256A77494
:104B130001F022124B1D1256A722E50C1266ADE5D9
:104B23000D22E0F50AA3E0F50B22F0850A82850B3E
:104B330083A3A32274F212036C8A088B09ECFEEDA3
:104B4300FF890A7900124BCB7003A3E069700479E3
:104B5300018073750B01900368E065087004A3E09E
:104B63006509601F750B00780B120844A90AEEFC57
:104B7300EFFDAA08AB09120FB67401120888E9F514
:104B83000B80417900EEFAEFFB120D70EA4B602BBC
:104B93008A828B83A3A3A3A3A3A3E05418601C75E9
:104BA30008FE7509FF78081208408A828B83A3A345
:104BB3001206AF1264C212088880097901EEFAEF77
:104BC300FB120C50A90B8014120D7C8A0C8B0DA8C0
:104BD3000CA90D900368E068221208887F0602057D
:104BE300E074F412036C7508D07509097A10126128
:104BF300CA8B0BEA450B7003123EF3900353E01488
:104C0300F0700C902270E493900353F0120D887EA1
:104C1300007F00806C850882850983A3A3A3A3E09A
:104C23006059F46056E5082404F582E509125B92A5
:104C33007049850882850983A3A3A3A3A3E0640322
:104C43007019790285088285098312441C850882BC
:104C5300850983A3A3124DE4120CC8850882850934
:104C630083A3A3A3A3A3E06401601085088285093D
:104C73008374FEF0A304124D3EE4F0123035122E7D
:104C83008790225E126326408C7E007F008039125B
:104C93000E968E088F09740378081209B27448259A
:104CA30008FC740B3509FD7AD47B0C120E84EA4B95
:104CB30070DD8E088F09740378081209B2124D0C47
:104CC30012656DE4F0123035902266E493F8C3EE7A
:104CD30098EF9400501B8E088F097403780812090B
:104CE300B2124D14E82407F582E9125B9270D68064
:104CF300A17E007F00800A124D1F600214F0123063
:104D03003512632340F10238B7124D148882898328
:104D13002274482508F8740B3509F922EEF8EFF9E7
:104D2300E875F006A4F8AAF075F006E9A42AF97468
:104D3300E828F582740A39F583E022124D45A3A3CE
:104D4300A322F0850882850983A3A32274F71203A3
:104D53006C74E11208E9ECFEEDFF750800EE4F609C
:104D6300728A828B83E0241C125BC312496A6063DC
:104D73008A828B83124DE4851882851983AC82ADB8
:104D830083EA241BF582EB125A94EA241CF582EB86
:104D9300124DE0120ED8740B120ACF124DE87003B5
:104DA300A3E069702E7402120ACFE06401702474C8
:104DB3001D120ACF123BE3E064017017741D120A3F
:104DC300CF123BE5A3A3E0F88E828F83E0687003E4
:104DD300750801A908741F023667124B1D3400F5CC
:104DE30083125283221227DCE0682274F412036CCC
:104DF300E97024790090034D123BE3121E738A0A73
:104E03008B0BAE0AAF0B74FE6E700374FF6F701AD8
:104E130090226DE4936013790190034D123BE312EA
:104E23001E738A0A8B0BAE0AAF0B120F260231894F
:104E330074F612036C74F31208E91214D28A088B05
:104E430009AE08AF09900368E06E7003A3E06F60DA
:104E5300E9120EFCEA6E7002EB6F60DEEEFAEFFB16
:104E6300120F7AE970D4EE4F60D0851882851983CA
:104E7300E4F004120ACFEEF0A3EF124E96E970BAF3
:104E830074FE6E700374FF6F60B0EEFAEFFB740D87
:104E9300023713123798120B3022C082C083120FCD
:104EA3002602332D7F0A0205E074F212036CEAFE38
:104EB300EBFF8C0A8D0B8908740E120ACFE0F509FB
:104EC30074FC6E700374FF6F70057900024BDF7919
:104ED30000120D7C8A0C8B0DAE0CAF0D900368E0B5
:104EE3006E7003A3E06F7006E509A2E650DCA90922
:104EF3001263B0706179007AFE7BFF1263B0705663
:104F0300741855097003024FE37800790080031287
:104F130029D690225E1229CD4003024FE3E8FAE935
:104F2300FBEA75F007A4FAACF075F007EBA42CFBD1
:104F330074D62AF58274093BF583E0541870D0E8DF
:104F430075F007A4F8AAF075F007E9A42AF974D05C
:104F530028F8740939F988828983A3A3A3A3A3A397
:104F6300E054186009741855097003024ECD888205
:104F73008983EEF0A3EFF074FE650A700474FF6595
:104F83000B600312510A88828983A3A3A3A3A3A35B
:104F9300E509F0A2E0500D88828983A3A3A3A3A30C
:104FA300A3D2E2F07401650888828983A3A3A3A333
:104FB300A37038740112512EE054186028902271A6
:104FC300E49388828983A3A3A3A31250F8121064E5
:104FD3008B0DEA450D6003024ECD780079008039D0
:104FE3007902024ECF900367E080D7E0640170033B
:104FF300024ECD88828983A3A3A3A3A3A3E054185D
:105003006007902271E4938004900366E01240A04D
:10501300E508F0024ECD1229D6902267E493FAC335
:10502300E89AE994004003024ECD7A007B00804B5E
:10503300EAFCEBFDEC75F007A4FCAEF075F007EDB0
:10504300A42EFD74D22CF58274093DF5831256AF5C
:10505300E8FCE9FDEC75F017A4FC85F00975F01781
:10506300EDA42509FD74602CF58274083DF583E0F9
:105073006E7003A3E06F609E122F0A90225E122EC1
:105083009740AD12412AEC6A7002ED6B7088E875A7
:10509300F017A4F8AAF075F017E9A42AF9746028A8
:1050A300FE740839FF7C177D007900EEFAEFFB12DE
:1050B30014C68E828F831251109003751250EAA387
:1050C300A3A3A3A3A3E8F0A3E91250F07401F0EEA5
:1050D300240E125693740112511812021BEE240D62
:1050E300125693E80250151234FCA3A322F0EE24C7
:1050F3000F1256A422F0125101AA0AAB0B229003FD
:1051030075E0FCA3E0FD2288828983A3A3E50AF06E
:10511300A3E50BF022F012511D2290226AE493249E
:1051230001F8E43400F97A027B00221240ACA32296
:1051330074ED12036C8A088B09890E1252614005C3
:10514300790502522F12173CAA08AB091253339068
:10515300225C125232650A7003E9650B70077AFE0E
:105163007BFF12533390225CE412523AE50A98E52E
:105173000B99400302522D12523E6012E50A75F05C
:1051830006A4F875F006E50B125289121568E50EB0
:105193006018E50A75F006A4F8AAF075F006E50BA9
:1051A3001252B5701A790102522FE50A75F006A45E
:1051B300F8AAF075F006E50B125296E4F0A3F0E5B9
:1051C3000A75F006A4F8AAF075F006E50B1252561C
:1051D300A312554288828983A3AA82AB831252A465
:1051E3008A828B83E0603F12523E603A8E108F11A9
:1051F300751200781012083CE50EC333FCE433FD4E
:10520300E50A75F006A4F50AA8F075F006E50BA407
:1052130028F50B74EC250AF582740A350B124DE25E
:10522300122EA81208887900800279070263C61239
:105233002B2FE822902254125D4D22E50A75F006C9
:10524300A4F8AAF075F006E50B125291F8A3E0F961
:10525300E84922A42A1253EA88828983A322ECFE16
:10526300EDFF902268E493F8E9C39822F583125284
:105273008312156822E50C1266ADE50D3400F58343
:10528300E0FAA3E0FB22125291FAA3E0FB221252AE
:1052930096E022A42AF974EC28F582740A39F5837E
:1052A30022E50EF0900C901252AE22E088828983A0
:1052B300F02212540EF50CE93400F50DE50EC3335C
:1052C300FAE433FB121562850C82850D83EAF0A3A1
:1052D300EBF0850C82850D831252DF221240D8E851
:1052E300492274F412036CECFEEDFF740C120ACF26
:1052F30012370188088909125333AC0AAD0BECF855
:10530300EDF990225C12533B5021E875F006A4F8A6
:10531300AAF075F006E9125256E08E828F8312537B
:105323004E12534412370D7900800279040238B7C4
:10533300120CFE8A0A8B0B22122EA0C3EC9AED9B51
:10534300221240D4850882850983221254232274B1
:10535300F612036C7E007F008028EEF8EFF9E87503
:10536300F006A4F8ACF075F006E9A42CF974EA2869
:10537300F582740A125FD16A7003A3E06B6057125F
:10538300303512632340D312631E7002E96F7046F7
:1053930074FE6A700374FF6B703C7E007F008003B1
:1053A300123035126323502E124D1F70F3EEF8EFB7
:1053B300F9E875F006A4F81253E0125415601712B9
:1053C30053FCF8E91253F4888212526F85088285E0
:1053D3000983E4F0A3F0EEFAEFFB02371675F0064B
:1053E300E91253E822A42AF974E828F8740A39F96F
:1053F300223400F98808890922EEF8EFF9E875F0FC
:1054030006A4F875F006E912540E221253E8E824B4
:105413000422A3A374FE1254201252DF22F0A30429
:1054230012542722F088828983A3A3A3A32274F6AC
:1054330012036CEA241DF582EB12552CF9604BEA3A
:10544300241DF582EB125D662402FCA3E03400FD0B
:10545300125265400302551F780080298C828D8388
:10546300E0F508A3E0FFE5082400E43FF509E8338D
:10547300FEE433FF74302EF582740B3FF58312552F
:105483004212552208E8C39940D28A828B83A3A390
:10549300A3A3A3A3A3A3A312441C900368E06C706B
:1054A30003A3E06D700F7C307D0B122745124DE096
:1054B300120CF28067EA2411F582EB125D66605CE0
:1054C300FC74FF2CF0750801780812084475083045
:1054D30075090B7808120840E9F5087808120844A2
:1054E300EA2412F582EB125D66F508780812084487
:1054F300EA2415F582EB1256961206AFECF9122741
:10550300451244198A828B83A3A3A3A3A3A3A3A3B2
:10551300A3124DE4120D0A7407120888023716EC21
:1055230024020C0CED3400FD221256A7125534E070
:1055330022E0F8A3E0F5838882A32288828983E5A9
:1055430008F0A3E509F02274EA12036C74FD120853
:10555300E98A148B158C0E8D0F890D7419120ACFDD
:105563001256AF741B120ACFE0F511741C120ACF46
:10557300E0F50C741D120ACF124B25741F120ACFCB
:10558300E0F5106008E50CC333240480027402C004
:10559300E07401120ACFD0E01256C08A088B09EAE0
:1055A3004509700302568B8A828B83A3A3E514F00B
:1055B300A3E5151261B9E50EF0A3E50FF0EA241394
:1055C300F582EB125696E50DF0EA2414F582EB1200
:1055D3005696E511F0EA2417F582EB125D66640135
:1055E3007040120EF68A0E8B0FA80EA90F85088243
:1055F300850983A3A3A3A3E0687003A3E0696022E2
:10560300EE4F6011E508241AF582E509125696EE6D
:10561300F0A3EF800CE5082417F582E509125696EE
:10562300E4F012569A1256AF8E828F837405F0A35C
:10563300E5107004E50C80487401250C1256B97A04
:10564300008028850A82850B83E01256B5850A827D
:10565300850B83A3E08E828F83F0E50A2402F50A8B
:10566300E50B3400F50BA30EAF830AEAC3950C4098
:10567300D2120EF6EA1256B5120EF6EB8E828F8315
:10568300F0AA08AB09120BBA740302475BEE240CB1
:10569300F582EF1256A7221227561256A722EE249E
:1056A3000BF582EF3400F58322900334E0FEA3E090
:1056B300FF228E828F83F0A3AE82AF8322123798AC
:1056C300120F6222C082C083E9C333FCE433FDEAD4
:1056D3002CFAEB3DFBEA24FEF582EB34FF124DE29C
:1056E30002332D74F212036C89098A0A1252614043
:1056F300047900804075080080020508E508C39519
:1057030009502AE508C333F8E433F9EE28F582EFAC
:1057130039F583C082C083120EF68A0C8B0DD083B9
:10572300D082E0650C7004A3E0650D70CDE50A65D9
:105733000870BE7901024BDF74F012036C74F3122C
:1057430008E98A088B098C0A8D0B890C750D0012E8
:105753000F7AE97900600302583DAA08AB09120DDC
:105763007CA90C120D708A0E8B0FAE0EAF0FEE4F8D
:10577300700302583B8E828F83A3A3A3A3A3A3E04A
:10578300A2E2400302583B120EF6EA650A7003EBED
:10579300650B7011780D120844E4F50EF50F780EC1
:1057A3001208408044AA0AAB0B120B72E964017021
:1057B300688518828519837404F07401120ACF1264
:1057C3005110851882851983AA82AB83120B30E9A5
:1057D30064017045750D01780D120844E4F50EF56A
:1057E3000F780E120840750D00780D120844780DDD
:1057F3001208447408120ACF85820E85830F780E2F
:10580300120840902273E493F9AC0AAD0BAA08ABDB
:1058130009120D0A74071208888E828F83A3A3A32B
:10582300A3A3A3E0A2E1400D8E828F83A3A3A3A32E
:10583300A3A3C2E2F0750D01A90D0240DE74F612B6
:10584300036CE9FE7900120D7CEEF9120D708A08E3
:105853008B09A808A909E84960061266F4F98002D1
:10586300790402371674F612036C7E0790035CE02A
:1058730070341258AE8A088B09A808A909E8496050
:1058830025900361E0640188828983A3A3700B12CE
:1058930058B5888289835001A3A3E0F9121082E9E5
:1058A300FEEE70027E07EEF9023716125101121056
:1058B3006422E0FA88828983A3E0C39A2274EE12F9
:1058C300036CEAFEEBFF890A8C0C8D0B7412120A2F
:1058D300CF1234F012598A1252685051890E750F43
:1058E300007403780E1209B2744E250EF582740B00
:1058F300350FF583E0F8E50CC398502DE50B6024D4
:10590300751100740378101209B274482510F874E5
:105913000B3511F988828983A3A3A3A3A3A3E50C61
:10592300125994F07900024EA7790380F979007A2D
:10593300FE7BFF12598AE49365107004790280E6B6
:10594300E50B60E0890E750F007403780E1209B23F
:105953007448250EF8740B350FF988828983A3EEFA
:10596300F0A3EF12599412512EE50C1240A874FFC4
:10597300126573E50AF0900366E088828983A3A326
:10598300A3A3A3A3A3809C120D6AE9F5109022663A
:10599300221266B6A3E508F0A3E5092274F6120302
:1059A3006CECFF120D6A9022661252685027890828
:1059B300750900740378081209B2744D1259DE7424
:1059C3000B126225E0F8EFC3985006EFF0790080E0
:1059D30006790380027904023716EA2508F5822244
:1059E30074F412036CEAFEEBFF120D6AE9F50A90F8
:1059F30022661252685019750B007403780A120953
:105A0300B2744B250AF582740B350B124DE28018E4
:105A130090034B12496A600CEEFAEFFB123BE6125D
:105A23001E7380047AFE7BFF0238B774F612036C90
:105A33008A828B83A3A3A3A3A3E4F0F88001089035
:105A4300226CE493F9E8C399501E8808125A8C8C8F
:105A5300828D83A3A3A3A3A3A3A3A3E06970DFEC15
:105A6300FAEDFB120E9C801EE4936870198C828DF4
:105A730083A3A3A3A3A3A3A3A3A37406F07A008C75
:105A8300828D83125BB702371674D02508F58274B2
:105A93000B125D72F92274F412036CEAFEEBFF8EB3
:105AA300828F83A3A3E014125BCEA3E0F9120E78D6
:105AB3008A088B09EA45097003025B8F8E828F8304
:105AC300A3A3E070358A828B83A3A3A3A3A3A3A379
:105AD300A3A3E064028A828B83A3A3A3A3A3A3A3A8
:105AE300A3A360107406F07AF08508828B83125B9F
:105AF300B7025B8F7406F0025B8F8E828F83A3A342
:105B0300A3A3A3A3E060738E828F83A3A3A3A3E0C5
:105B1300607AEE2403F582EF125B92706F90035567
:105B2300125B98125BCEE0141261B0E06403705C08
:105B33008E828F83A3A3A3A3E0700DAC08AD09EEFF
