:020000040000FA
:06000000020A620201C0C9
:03002B0002081CAC
:030033000205C201
:030053000200EEBA
:03006B00020599F2
:10008300020155010101FF01010503010F10FEFFEC
:10009300FE12FE12FE12FE12AE11A811FE12611F15
:1000A300000000002520000000000C0000000C00F0
:1000B3000104FFFF010101004405000000B905E848
:1000C3000364006400B8010202000800000502078F
:1000D300051E02051E020A0A03B80B02803E010236
:1000E300FFFF011496511800020206C0E074F212D9
:1000F3000444A2AFE433FED2AFE5A7FFE5A1F508C0
:100103005F54106006121A1275A1EFE5085F5408D8
:100113006008121A1875A1F7802BEFA2E0C0D0E592
:1001230008A2E092F012099F158182F050179061A6
:1001330098E0F8900687E0C398A2D265D0335002C6
:10014300E8F075A1FE751A00EEA2E092AF7F0102FE
:1001530004A3C0E074F2120444A2AFE433FED2AFAE
:100163009061A4E0F8759B00E59158540860087508
:1001730091F7121A60802AE591585410600875911E
:10018300EF121A66801BE8A2E0C0D0E591A2E092CC
:10019300F012099F158182F05007E0C2E0F0121BB4
:1001A300B69061A3E0F8E5E9585404600E121B8C85
:1001B30075E9FB906193E0A2E640F28088C0E074A9
:1001C300F2120444A2AFE433FED2AF9061A5E0F88B
:1001D300E5BF585404600675BFFB121BCE020148ED
:1001E300C3E498F8E499F91202248026C3E49AFA46
:1001F300E49BFBE920E7E9120224E498F8E499F987
:1002030022C3E498F8E499F9120224E498F8E499F3
:10021300F9C3E49AFAE49BFB22EB20E7CFE920E75A
:10022300E0B90010BB0008E88AF084F8AAF022E4E1
:10023300FBC8FA22EB70227B10C833C8C933C93319
:100243005007C39AC3DBF280069A50012ADBEAC83F
:1002530033F4C8C933F4C9FA2275F008E4C833C8C3
:10026300C933C933C99AC99B5004C92AC93BD5F0BC
:10027300ECFBC833F4C8E4C9FA22080808EAC0E072
:10028300EBC0E086F0E7A4FA180986F0E7A42AFA9F
:10029300180986F0E7A42AFA180986F0E7A42AFACF
:1002A3001986F0E7A4FBE5F02AFA190886F0E7A41B
:1002B3002BFBE5F03AFA190886F0E7A42BFBE5F0EF
:1002C3003AFA18180986F0E7A4C5F02BFBE43AFACA
:1002D3001908E7C5F0C6A426F6E5F03BFBE43AFAB5
:1002E3001886F0E7A4F6E5F00826F6E43B08F6E402
:1002F3003A08F6D0E0FBD0E0FA22E4CFC0E0E4CE47
:10030300C0E0E4CDC0E0E4CCC0E075F020C3E63348
:10031300F608E633F608E633F608E633F618181857
:10032300EC33FCED33FDEE33FEEF33FFC3EC970903
:10033300ED9709EE9709EF97191919400FFFEC97FD
:10034300FC09ED97FD09EE97FE191906D5F0BEECF1
:10035300F709EDF709EEF709EFF7191919D0E0FCE2
:10036300D0E0FDD0E0FED0E0FF222518C582C0E03A
:10037300E51934FFC583C0E0E518C3958224F8105E
:10038300AF088583198582188008858319858218AB
:10039300D2AFCEF0A3E520F0A37808E608F0A3DE01
:1003A300FAEFF0A3E58124FAF8E608F0A3E608F0F3
:1003B300A3E608F0A30808E608F0A3E608F0A315EF
:1003C300811581D0E0FED0E0F8158115811581E813
:1003D300C0E0EEC0E022120AC4B9000302042EE416
:1003E300900301784E790A8002F0A3D8FCD9FA78F9
:1003F3001A9000867A01BA00028007E493A3F608F4
:10040300DAF9900C4EAA82AB839000877868790161
:100413008015E493A3AC82AD838A828B83F0A3AA75
:1004230082AB838C828D83D8E9D9E775821F75836C
:10043300D074031207FE75826875831E7400120759
:10044300FEC0D02518C582C0E0E51934FFC583C0BE
:10045300E0E518C3958224F310AF088583198582DC
:10046300188008858319858218D2AFC8F0A3E9F0F4
:10047300A3EAF0A3EBF0A37908E709F0A3D8FAEC19
:10048300F0A3EDF0A3EEF0A3EFF0A3D0E0F0A3D040
:10049300E0F0A3D0E0F0A3E520F0A3E5F0F0A32281
:1004A300851983851882E0C0E0A3E0F9A3E0FAA3ED
:1004B300E0FBA37808E0F608A3DFFAE0FCA3E0FD85
:1004C300A3E0FEA3E0FFA3E0C0E0A3E0C0E0A3E05D
:1004D300F5D0A3E0F520A3E0A3F5F010AF088583E2
:1004E300198582188008858319858218D2AFD08236
:1004F300D083D0E0F8D0E0320975F0108E218F223E
:10050300858226858325851882851983E0CEA3E01D
:10051300CF852682852583EBC9EAC8EDCBECCAC318
:10052300E833C8E933C9EA33CAEB33CBC3EA9EF5F0
:1005330024EB9FF523B35004AB23AA24EC33CCED77
:1005430033CDD5F0DAAE21AF2222D083D082ECC0F6
:10055300E0EDC0E0E493A3FCE493A3FDED4C600D58
:1005630012066CEC24FFFCED34FFFD80EFE493A353
:10057300FCE493A3FDED4C600D120709EC24FFFC92
:10058300ED34FFFD80EFD0E0FDD0E0FCE493A3C0A9
:10059300E0E493C0E022C0E074F2120444A2AFE4AA
:1005A30033FED2AFE589A2E5500312193A758900EB
:1005B300C2C5751A00EEA2E092AF7F010204A3C088
:1005C300E074F2120444A2AFE433FED2AFE58BA28F
:1005D300E0500312193A758B00C2E880D585198360
:1005E300851882E0A3FEE0A3F5207808E0A3F608CF
:1005F300DFFAE0A3FFE0A3C0E0E0A3C0E0E0A3C014
:10060300E0E0A3C0E0E0A3C0E010AF088582188556
:1006130083198008858218858319D2AFD083D0824D
:10062300020804D083D082E9C0E0E493A3C386F038
:10063300C5F095F0F908E493A386F0C5F095F07042
:100643000BE493A3C3994005E9048002A3E475F086
:1006530002A42582F582E5F03583F583D0E0F9E441
:1006630093A3C0E0E493C0E022C0E0C3E493960800
:100673007401939618400FE493667008087401930D
:10068300661870007019A3A3C3E4939608740193CA
:100693009618A3A3400DD0E0D0E0D0E0020589A3D3
:1006A300A3A3A3A3A3D0E022740480047402800054
:1006B300CCC0E0EDC0E0E518C39CCCAD1950011DE2
:1006C30010AF068C188D1980068C188D19D2AF12B5
:1006D3000780D0E0FDD0E0FC2274028000CCC0E0B3
:1006E300EDC0E0E518C39CCCAD1950011D10AF0659
:1006F3008C188D1980068C188D19D2AF12075ED015
:10070300E0FDD0E0FC22C0E0C0F088F0E493667026
:10071300080874019366187000A8F0A3A3700BD0A7
:10072300F0D0E0D0E0D0E0020589A3A3D0F0D0E080
:1007330022D083D082CCC0E0E493A360061207DF0B
:100743001470FAE493A360061208D31470FAD0E08D
:10075300FCE493A3C0E0E493C0E022CAC0E0E493C6
:10076300A3C582CCC582C583CDC583F0A3C582CC86
:10077300C582C583CDC583DAE5D0E0CA22CAC0E00D
:10078300E0A3C582CCC582C583CDC583F0A3C58252
:10079300CCC582C583CDC583DAE6D0E0CA22C008C2
:1007A300C3E096F50808A3E096420808A3E0964242
:1007B3000808A3E09645087001D3D0082270090801
:1007C3000808226016181818C6C333C608C633C6ED
:1007D30008C633C608C633C6D5E0EA22C0E0E493B0
:1007E300A3D39C5010E493A3C39C400AD0E0D0E071
:1007F300D0E0020751A3A3A3D0E022C09FF59FE45A
:1008030073D09F22D083D082C09FE493C0E0740151
:1008130093C0E0740293F59F22C0E0C0D0E8C0E02B
:10082300E5A8D2AFC2C7751A00A2E792AFD0E0F82D
:10083300D0D0D0E0327404800A740380067402803E
:10084300027401C0E0F404120853D0E0120A9F229C
:100853002518F58210AF08F518400215198008F520
:100863001840021519D2AF85198322BB0102E72272
:10087300C082C08389828A83BB0003E08002E49341
:10088300D083D08222C0D0251810AF08F5185002AB
:1008930005198008F51850020519D2AFD0D022608F
:1008A30016080808C6C313C618C613C618C613C647
:1008B30018C613C6D5E0EA22C3E0C696F608A3E03D
:1008C300C696F608A3E0C696F608A3E0C696F622F7
:1008D300C0E0E493A36C7009D0E0D0E0D0E002075D
:1008E30051A3A3D0E022251810AF08F51840021534
:1008F300198008F51840021519D2AF22E06670106E
:1009030008A3E066700A08A3E066700408A3E06623
:1009130022C3E09608A3E09608A3E09608A3E09616
:10092300A2D265D03322E76670100809E766700A21
:100933000809E76670040809E76622C3E096F00831
:10094300A3E096F008A3E096F008A3E096F022C394
:10095300E697F60809E697F60809E697F60809E622
:1009630097F622E627F60809E637F60809E637F68A
:100973000809E637F622E026F608A3E036F608A3D0
:10098300E036F608A3E036F622E657F60809E657FE
:10099300F60809E657F60809E657F622C0E0E8C06C
:1009A300E0E58124FCF8E6A2E7D0E0F8D0E022708D
:1009B3000422600D18C6C333C608C633C6D5E0F497
:1009C3001822E056F608A3E056F608A3E056F60808
:1009D300A3E056F622E056F008A3E056F008A3E0A1
:1009E30056F008A3E056F022E647F60809E647F674
:1009F3000809E647F60809E647F622E026F008A3C9
:100A0300E036F008A3E036F008A3E036F022E4C3B2
:100A130096F608E496F608E496F608E496F622C3FA
:100A2300E7960809E7960809E7960809E79622C6B4
:100A3300F4C608C6F4C608C6F4C608C6F4C622C37C
:100A4300E09608A3E09608A3E09608A3E096226048
:100A53000D08C6A2E713C618C613C6D5E0F3227560
:100A6300D000758140751801751903000203D9E0A0
:100A7300F608A3E0F608A3E0F608A3E0F622600C6C
:100A830008C6C313C618C613C6D5E0F422E6F00899
:100A9300A3E6F008A3E6F008A3E6F022CAC0E0E666
:100AA300F0A308DAFAD0E0FA22E0FAA3E0FBA3E02D
:100AB300FCA3E0FD22EAF0A3EBF0A3ECF0A3EDF03E
:100AC30022E5C754F84401F5C77901222518F582B8
:100AD300E43519F58322C2AF75D69F0200002212B6
:100AE3000807E7E4021208077422001208078622A7
:100AF30000120807D822001208073923001208073A
:100B0300C32300120807672400120807BB2400123E
:100B13000807D42400120807FA2400120807352511
:100B230000120807792500120807A02500120807FC
:100B3300F12500120807A126001208075927001201
:100B43000807212800120807E128001208072529B1
:100B5300001208074A29001208078D290012080706
:100B6300DA2900120807322B00120807B82B0012EB
:100B73000807D62B00120807002C001208071A2CAE
:100B830000120807292C00120807342C001208074A
:100B9300F42C001208074D2D001208070F2E001227
:100BA3000807172E00120807DB2E00120807472F2D
:100BB300001208077230001208078330001208077A
:100BC300F930001208078B3100120807E3310012D5
:100BD3000807A33200120807CA3200120807DC32E2
:100BE300001208072F33001208076C33001208079E
:100BF300793300120807FC3400120807513600123B
:100C030008078336001208071637001208074F3704
:100C1300001208079B3700120807B73800120807AD
:100C2300003B001208070B3B00120807163B00129B
:100C33000807203B001208072B3B00120807453B1F
:100C4300001208074F3B00120807593B0012080720
:100C5300643B001208078C3B00120807E73B0012B5
:100C630008070B3C001208072F3C001208078D3CB5
:100C730000120807D13C00120807ED3C00120807D8
:100C8300643D001208079C3D00120807E83D00126E
:100C93000807453E00120807FF3E00120807E3401D
:100CA300001208073C41001208076C4200120807B3
:100CB3009242001208071B440012080797470012CC
:100CC3000807694900120807324B00120807DF4B77
:100CD300001208074A4D00120807E94D00120807E1
:100CE3002E4E00120807984E00120807A74E001256
:100CF30008072E5100120807E052001208074D534F
:100D0300001208072C540012080745550012080763
:100D1300C25600120807E1560012080736570012A0
:100D230008073B5800120807635800120807BB580E
:100D3300001208079A5900120807DE590012080723
:100D4300295A00120807945A00120807D55B0012AB
:100D53000807395C00120807875D00120807E75F80
:100D630000120807186000120807D0610012080774
:100D7300256200120807296300120807C6630012E0
:100D830008071F6400120807D2640012080774657D
:100D930000120807146600120807B9660012080754
:100DA3007E8001120807BD80011208070483011227
:100DB30008074E8301120807698401120807D984C2
:100DC300011208070E85011208078286011208071F
:100DD3000589011208072E8A01120807C48A011225
:100DE3000807CC930112080761940112080748977A
:100DF300011208073B98011208079C980112080783
:100E0300B899011208079D9B01120807AE9D0112B4
:100E13000807189E01120807EA9E01120807A19FFE
:100E230001120807AB9F01120807D99F0112080797
:100E330096A0011208076DA10112080734A201123E
:100E43000807E6A2011208070FA30112080731A33E
:100E53000112080787A5011208075FA601120807F8
:100E6300A3A6011208070BA701120807C3A70112C3
:100E73000807F5A70112080739A8011208076FA888
:100E830001120807BBA80112080710A901120807DD
:100E930015A90112080768A9011208078DA90112F3
:100EA30008079CAA0112080700AB0112080770ABE0
:100EB30001120807FCAB01120807C9AE01120807AB
:100EC300ADAF0112080730B10112080766B3011272
:100ED300080714B401120807C4B40112080705B7C0
:100EE30001120807A8B701120807EFB70112080794
:100EF3009BB901120807AFB901120807B9B901126A
:100F03000807E1B901120807EDB9011208070CBA85
:100F130001120807F1BB0112080728BC01120807D8
:100F230032BC0112080768BC01120807B7BD0112E1
:100F33000807FBBD01120807A3BE0112080786BFFD
:100F43000112080731C0011208077DC10112080709
:100F53007BC20112080721C301120807B1C30112A2
:100F63000807C8C301120807FFC30112080709C411
:100F73000112080714C40112080732C4011208073A
:100F830076C401120807D3C401120807F8C401127A
:100F9300080712C5011208079EC501120807BBC640
:100FA3000112080728C7011208070FC80112080712
:100FB30036C801120807AAC80112080725C9011279
:100FC300080729CA011208071FCB01120807CECB55
:100FD30001120807E1CC011208077DCD01120807B1
:100FE3000ACE01120807E8CE0112080720CF01122A
:100FF300080778CF0112080741D00112080762D011
:1010030001120807E9D0011208070DD101120807E0
:101013002FD10112080778D1011208078ED30112CC
:10102300080775D40112080726D5011208075CD7F3
:1010330001120807ACD701120807ECD70112080701
:101043002ED8011208078AD801120807B8D801124E
:101053000807DCD8011208072FD9011208075DD948
:101063000112080796D901120807EBD901120807E4
:1010730051DA01120807A5DB01120807C8DD0112C6
:10108300080735DE011208075EDE01120807E9DEF4
:101093000112080750DF011208079BDF011208073E
:1010A300BFDF01120807E3DF011208073EE0011268
:1010B300080759E00112080712E1011208078AE440
:1010C30003120807C9E4031208077C800212080709
:1010D300C28002120807A28102120807A482021228
:1010E3000807A783021208073385021208079185B0
:1010F300021208074E86021208076C8702120807BD
:10110300DD8702120807198802120807678802128E
:101113000807718802120807B588021208071189A7
:1011230002120807AC8902120807298A021208076B
:10113300F88A02120807918B02120807B18B021278
:101143000807E78B02120807188C02120807D98CCC
:1011530002120807E98C021208073D8D02120807E4
:10116300588D021208076A8D02120807738D021246
:101173000807CD8D02120807298E02120807758E03
:1011830002120807908E02120807C18E0212080786
:10119300DE8E02120807EA8E021208075E90021220
:1011A3000807779002120807DE9002120807F190F1
:1011B30002120807FF9002120807B39102120807F0
:1011C3009792021208079D930212080727940212AE
:1011D30008073194021208079E9402120807B59477
:1011E30002120807E7940212080720950212080763
:1011F3004A9502120807AB9502120807CB95021213
:101203000807E995021208072F9602120807559757
:1012130002120807A29702120807D19702120807C1
:101223004798021208076F9802120807A89802123B
:101233000807B698021208070E99021208075D996B
:10124300021208079C9902120807CC990212080798
:10125300F89902120807039A02120807219A021248
:101263000807E39A02120807ED9A02120807289B5F
:10127300021208073E9B02120807939B02120807FB
:10128300A79B02120807B59C02120807C89C02120A
:101293000807DF9C02120807F49C02120807969DB8
:1012A30002120807199E02120807D79E02120807A6
:1012B300E29E021208070EA0021208072AA00212D9
:1012C30008077CA002120807BBA002120807D0A0DF
:1012D3000212080732A102120807C1A1021208076D
:1012E3000CA2021208075DA402120807DBA4021273
:1012F300080750A50212080772A7021208078AA757
:10130300021208078DA70212080799A702120807FD
:10131300ADA702120807B5A702120807E8A7021231
:10132300080798A8021208070EA90212080781A944
:101333000212080735AA02120807EAAA02120807CE
:1013430009AB02120807A9AB02120807B5AB0212D8
:101353000807E0AB02120807E3AB0212080712AC5E
:101363000212080727AC0212080791AC0212080701
:10137300B9AD0212080791AE021208071CAF0212A0
:10138300080735B002120807F2B0021208072BB1A2
:10139300021208075CB1021208071AB20212080708
:1013A3004AB20212080725B302120807BEB302129B
:1013B300080749B402120807FAB4021208077DB5F8
:1013C30002120807AFB502120807F0B502120807A8
:1013D30025B6021208079E8F031208070390031213
:1013E30008074090031208078F9003120807A5927D
:1013F30003120807FDDA02120807F297031208071F
:101403002D98031208074F9803120807B298031286
:101413000807E69803120807099903120807369983
:1014230003120807929903120807CAF20112080768
:1014330048F3011208077EF301120807EAF30112C9
:1014430008075DF50112080779F501120807BEF5D3
:1014530001120807C9E402120807A5F601120807DA
:10146300D2F701120807E4F80112080741F9011243
:101473000807ADF9011208070EFA011208074FFA1F
:1014830001120807FCFA011208070EFC01120807F3
:1014930039FC0112080784FC01120807CBFC011276
:1014A30008075DFD0112080718FE01120807ABD7F4
:1014B30003120807DBD70312080730D80312080703
:1014C300D8BC0312080743BD0312080722A1031265
:1014D30008076EA103120807DCA103120807FDA188
:1014E30003120807ADA203120807B6A203120807E6
:1014F30009A30312080732A30312080799A30312CF
:1015030008072AA4031208076CA403120807B6A449
:101513000312080715A50312080741A503120807BC
:10152300D2A50312080711A60312080750A6031237
:10153300080785A60312080797A603120807A9A69A
:1015430003120807C8A603120807D1A60312080747
:101553008CA703120807CCA70312080738DF03126E
:1015630008073FE403120807EDCD0312080723CE53
:10157300031208076CCE03120807BCCF0312080737
:101583000567001208074468001208078068001204
:1015930008073F6A00120807686A00120807FB6C15
:1015A300001208073F6D00120807C86E00120807F3
:1015B300606F00120807C86F0012080769700012F5
:1015C3000807AB7000120807EB7000120807767269
:1015D30000120807E673001208070B7600120807CB
:1015E3003976001208076076001208076976001240
:1015F3000807F076001208070E7A00120807F1E3D5
:101603000312080707E40312080716E40312080786
:101613003AB9031208074DB903120807EAB90312CE
:10162300080726BA031208073DBA0312080762BA6D
:1016330003120807A4BA03120807D5BA031208074E
:1016430010BB031208078ABC03120807CBBC0312A2
:10165300080737FF021208076DFF0212080789FF08
:1016630002120807CBFF02120807DBFF021208076A
:10167300E5FF021208070EE50212080763E50212EE
:1016830008074DE602120807E6E60212080730E7EC
:10169300021208077FE70212080793E702120807FE
:1016A30075E902120807F0E9021208071AEA0212A2
:1016B300080710EC021208072BEC021208077AEC59
:1016C3000212080790EC021208079DEC02120807A9
:1016D300D1EC02120807EAEC021208078AED0212A3
:1016E3000807E4ED0212080732EE0212080745EF7D
:1016F30002120807B6F102120807EBF102120807FB
:1017030079F202120807DAF202120807DFF2021274
:1017130008071BF3021208077DF3021208074DF4B2
:101723000212080772F4021208077CF40212080777
:101733007FF402120807EEF40212080709F50212F9
:1017430008071CF50212080748F50212080783F57B
:101753000212080786F502120807C2F502120807EB
:10176300A67F00120807BE7F00120807DE99031246
:1017730008072D9A03120807CF9B031208078B9DB6
:1017830003120807D39D03120807BB9E0312080721
:10179300EC9F031208070EA0031208076AA00312A6
:1017A3000807EEA0031208074CE10112080777E1CE
:1017B300011208075AE201120807DFE201120807C3
:1017C30048E30112080794E30112080713E4011226
:1017D3000807A5E40112080735E50112080777E5B4
:1017E30001120807C0E90112080740EB01120807BC
:1017F30010EC0112080737EC0112080798EE0112EA
:10180300080724EF0112080726F001120807BFF0AA
:1018130001120807B0F10112080732F2011208079A
:10182300008003120807BA80031208072C810312F1
:101833000807C08103120807C7820312080737830A
:1018430003120807F08503120807C7860312080767
:10185300348703120807B188031208077B89031230
:101863000807E68903120807D88B03120807EB8CD5
:1018730003120807848D031208074A8E0312080710
:10188300F9C3031208074DC403120807A5C40312C2
:101893000807F0C40312080752C503120807EBC573
:1018A3000312080753C6031208075FC6031208078B
:1018B3000BD4031208073CD403120807F6D403120F
:1018C30008075CD503120807A3D003120807DCE05E
:1018D30003120807EDE0031208078DE1031208075E
:1018E300E5D503120807F3D5031208073CE50312F5
:1018F3000807F9E20312080709E30312080721E3C3
:10190300031208078EE30312080736DE03120807E3
:10191300BBDE031208071FDF0312080760D9031297
:10192300080782D903120807E8D90312080708DA5F
:101933000312080746DA03120807A1DA031208079D
:10194300D8DA03120807DBDA031208070BE00312E5
:10195300080723E00312080753E003120807CEE049
:10196300031208076DB1031208077BB103120807BE
:10197300F5B103120807D9B20312080792B4031290
:101983000807F7B40312080758B503120807F87FCE
:10199300001208072FD20312080751D203120807B7
:1019A30084D30312080708D403120807B2AC031246
:1019B300080707AD0312080703AF0312080735AF83
:1019C3000312080757AF0312080770AF0312080783
:1019D30089AF0312080793B0031208072EB103124D
:1019E30008078FFE01120807B3FE01120807CCFE99
:1019F30001120807FFFE0112080730FF0112080752
:101A03005EFF0112080768FF01120807CAFF0112EF
:101A13000807D9FF01120807E3FF01120807F0FFC7
:101A2300011208079AC603120807C0C60312080763
:101A3300FDC6031208070CC7031208072BC70312BE
:101A4300080793C7031208079CC703120807FBC7BD
:101A5300031208071FC803120807DEC8031208078A
:101A6300EBC803120807FCC803120807D3E40312E8
:101A73000807F0E403120807C77A00120807257C59
:101A830000120807327C00120807457C0012080781
:101A9300647C001208077A7C001208078E7C00120F
:101AA3000807037D00120807687D00120807F07D10
:101AB30000120807797E001208074E7F00120807FC
:101AC3005E7F001208076D7F0012080760E20312B1
:101AD300080784E203120807ACE203120807D4E202
:101AE300031208072AC90312080751C9031208077A
:101AF30072C903120807D7C90312080790CB031250
:101B03000807A9CB03120807B5CB03120807C9CBF3
:101B130003120807E7CB03120807F1CB03120807E8
:101B2300FBCB031208070ECC0312080761CC031288
:101B330008079ACC03120807C9CC0312080717CD6C
:101B43000312080766CD0312080781CD03120807A5
:101B53008BCD031208079CCD03120807E2CD0312B5
:101B6300080794E303120807E5E303120807FBF5EC
:101B73000212080725F60212080741F602120807A7
:101B830054F6021208076AF602120807C7F6021291
:101B93000807FAF60212080736FB021208075CFC74
:101BA300021208078FFC02120807DBFC0212080767
:101BB30007FE021208072FFE0212080744FE021254
:101BC300080754FE0212080798FE02120807F9FEDE
:101BD3000212080709FF02120807E4DA03120807D2
:101BE300FFDA0312080728DB0312080742DB03129C
:101BF300080767DB0312080786DB031208079EDB6F
:101C030003120807CCDB03120807E6DB03120807FD
:101C1300A7E103120807EBE1031208076CC00312E4
:101C2300080773C0031208077FC103120807AFC177
:101C330003120807D5C103120807F8C103120807E6
:101C43001AC20312080754C203120807BAC20312C6
:101C53000807F3C2031208073FC3031208076CC344
:101C6300031208078CC3031208072ADD03120807AF
:101C730042DD0312080730DE0312080733DE0312C6
:101C8300080717DC0312080789DC03120807C7DCFF
:101C93000312080708DD031208076CB503120807CF
:101CA3008BB503120807DAB503120807F6B503125A
:101CB300080727B60312080737B60312080744B606
:101CC3000312080751B6031208073DB703120807AA
:101CD3007BB70312080785B70312080795B80312E9
:101CE3000807A0B803120807B2B803120807BBB865
:101CF30003120807C5B803120807F5A7031208075C
:101D03003AAC0312080748AC031208070FE50312A5
:101D130008075FD80212080728D7021208077CD6E3
:101D230002120807C2D40212080772D2021208076D
:101D3300F9D102120807A0D10212080730D102120A
:101D4300080707D102120807E7CE02120807B3CE2D
:101D53000212080780CE0212080764CE0212080797
:101D63007DCD0212080735CD0212080780CB02127F
:101D7300080700CB02120807FDCA02120807FEC9B2
:101D830002120807CCC90212080709C90212080780
:101D930034C702120807C5C60212080795E30212E8
:101DA3000807F2E202120807A5E10212080750DF52
:101DB30002120807E6DE0212080797C60212080796
:101DC30094C60212080781C6021208072CC6021223
:101DD30008079EDE021208071BC6021208070DC57C
:101DE30002120807D7C40212080785C402120807A3
:101DF30010DE021208074CF60112080726C402126D
:101E03000807F5C302120807BDC0021208077DC008
:101E13000212080771C002120807D1BF0212080795
:101E230011BF0212080793BC0212080724BA021258
:101E33000807E2B902120807B6B8021208076BB81E
:101E430002120807AAB702120807EDB60212080722
:101E5300BDB60212080703DE0212080783B6021298
:101E6300080788940300000080FBE4730001363602
:101E73000101000102010001030100010401060642
:101E830005020000070100340801000F09040101E5
:101E93000D0100FF0E08000017020000190100FFEA
:101EA3001A0100011B0100FE1C0100081D020000B5
:101EB3001F01000120010001210200002301000F86
:101EC300240200002601000127010008280200FF68
:101ED3002A0100072B0102402C0100002D01000103
:101EE3002E0100012F0100FF30010B1C31080000FF
:101EF3003A0100083B01000F2F01000003027102A9
:101F03003001600211027002010202020202800229
:101F1300100261023A00410063027302720262021C
:101F230043020002130238000002000204021202FC
:101F3300000200020002000204020402370037001C
:101F43003C02440200023900000200026502000262
:101F530035028102000205028202830200020300AD
:101F63007100300160001100700031022003500441
:101F73008000100061000000140063007300720011
:101F8300620043000000130006000000000004008C
:101F930012000000000000000000040004003700ED
:101FA30037003C0244000000000000000000650010
:101FB30000003500810000000500000083000000E0
:101FC3000304710402046004110470040204020493
:101FD3000104020410046104000414046304730480
:101FE300720462044304000413040604000400049E
:101FF30004041204000400040004000451046400F7
:102003000004000400044404000400040004000469
:10201300650400043504810464000504000483049A
:10202300000401037103010301030103010301031D
:102033002203020301031003000300030003000350
:102043000003000300034203000324030603000309
:1020530000030403120325032303250323030403BB
:1020630004030003000300034403000300032303EA
:102073000003650321003503810300030503000307
:1020830000030003010171010101010111010101BB
:102093003101010101018001100161013B001400C4
:1020A300630173017201620143010001130106011F
:1020B3003D0135000401120100010001000100018E
:1020C30004010401330133013C01440132013600B0
:1020D30000010001650100013500810100010501D6
:1020E30082018301000136000100060000000F0099
:1020F30000000000000000000000000003FFFF00DC
:10210300000403FFFF0000FFFF0FF4010005C404F8
:102113000320000100000B0000000000000000038A
:10212300010F00003E181300F61701003E180200CD
:10213300C0170300C6170400CC170500D21706000A
:10214300DE17FFFF000001E80D06120E080C0E0B50
:102153002A0E10640D02EE0D05000E07F40D0CCAD5
:102163000D0DDC0DFF000003EAF5E5D5D5C5B5A5DA
:10217300959585857575656555554545353525258C
:10218300151505081238120E1214123212261220D7
:10219300123E1244124A1256121A120212FC110073
:1021A300160F00000B150B020002220F320000066F
:1021B300FE1210131613D2111C13CC11D8110C11CB
:1021C3000611421148113C11F4106A1388138E133F
:1021D30070137C137613303016181920231A1C1E23
:1021E300300C0E020B040B0A0708000F00383C3EAC
:1021F300363B3B352B432C303017181921301B1D30
:102203001F30000119161816161523030000034981
:1022130048424D181725050252132213281334136D
:102223002E132C12501282135C126212020402014A
:10223300010101090218111E1112114E11000000B3
:102243000000002411361100BE040A0E001500041C
:10225300007F00E8030C00280000000000030810C2
:102263000C0A03080900040001FF1E1E0C05040FDD
:1022730008C082C0838A828B83E0D2E7F012172AD8
:10228300023328C082C0837900122740125691C0BE
:1022930082C083900334124417D083D082C3E09C5E
:1022A300A3E09D500C125D65FAA3E01222B7600112
:1022B30009023328FBEA75F00BA4FAA8F075F00BBA
:1022C300EBA428FB900336E02AF8A3E03B8882F5D1
:1022D30083E0540F2274F712036D8908122740120A
:1022E30027E6ACF075F00BE9A42CF9900336E0284F
:1022F300FEA3E039FF740165086006740265087087
:10230300208A828B831227D21237087402650870E1
:102313001B12269112281970138E828F83E4F0808A
:102323000BEA2403FCEB1227B41227C0EEFAEFFBEF
:10233300120AE802366574F412036D12668C790092
:102343008E828F83E06076890A890B8065E50A7542
:10235300F00BA4FAA8F075F00BE50B1222C470463B
:10236300E50A75F00BA4F8AAF075F00BE50B12273C
:10237300F88E828F83E08508828509831228DA85A7
:102383000882850983A3123708EE2403FCEF122782
:10239300BD1234E612510BAA08AB09120AE87901FF
:1023A300900334124B20E50A2401F50AE50B3400AF
:1023B300F50B122699E50A9AE50B9B40900238B279
:1023C30074F512036DEAFEEBFF740B120ACF12349D
:1023D300EB750A01EC4D602BEC1266A8ED125691D9
:1023E3001237007901120AF4E5084509606F850880
:1023F30082850983A31266967902AA08AB09120A99
:10240300F4805AE5084509602B125695123D5F1278
:1024130034E7122803700CEEFAEFFB120AFAE9F51F
:102423000A80CBEE2403FA12273B70317903EEFACC
:10243300EFFB80CA8E828F83A3E064FE7003A3E068
:10244300F4700BEE24030A0A0A12273B700CEEFA0F
:10245300EFFB120AFAE9F50A8003750A00A90A7F5D
:10246300030205E074F712036D900334123675EA24
:102473004B602FEA75F00BA4FAA8F075F00BEBA4F0
:1024830028FBEAFEEBFF12157490033612367590A3
:1024930003361249656012EEFCEFFD79001214D881
:1024A3008007900336E4F0A3F002366590033412FC
:1024B30040CFC3EE98EF9922C082C083EC4D6005F4
:1024C300121C9480097C087D0079001214D8023311
:1024D3002874F612036D7900EA4B601878008808B7
:1024E3001259D8EB125D6160047901780808E8C3DA
:1024F300940840EA02371174F712036D74F312085B
:10250300E9ECFEEDFF851882851983E4F004120AD5
:10251300CFEAF0A3EB124E917403120ACFAC82AD53
:1025230083EEFAEFFB120B0CEEFAEFFB120B120227
:10253300366074F712036D74F31208E9ECFEEDFFD5
:10254300851882851983E4F0EAFCEBFD7403120A13
:10255300CF1228D37401120ACF1236FC8E828F83D6
:1025630012370874FE68700374FF69600479018090
:1025730002790002366074F712036DEAFEEBFF1274
:1025830025D770141225E28E828F83E0F4F88A82B5
:102593008B83E058F0120AE8A90802366574F71233
:1025A300036DEAFEEBFF7508008E828F83E06022E5
:1025B3001225D7701D1225E28A828B83E08F838ECA
:1025C30082F8E058700CE0F88A828B83E048F012BE
:1025D3000AE880C4120AEEE9F508740165082212BC
:1025E30066A11227EA12272CFAA3E039FB2274F41E
:1025F30012036D8A088B097C007D00122691122735
:10260300C01227511266937900850882850983A336
:10261300E064FE7003A3E0F460717E007F008062DB
:10262300EEFAEF1222B76057EEFAEFFBEA75F00B02
:10263300A4FAA8F075F00BEBA428FB900336E02A6C
:10264300F50AA3E03BF50B850882850983A3124DA8
:10265300DF850A82850B83A3E06A7003A3E06B70B6
:102663001EE50A2403FAE50B12273C700AE50A2447
:1026730003FCE50B1227BD12274579011256A71259
:102683003030122699EE9AEF9B40950238B2EA2435
:10269300030A0A0AEB2290033412527EC32274F314
:1026A30012036D8A088B098A828B83A312669612A2
:1026B3002740126693750C0012269112273C705422
:1026C3007E007F00804912271EFAA3E0398A82F533
:1026D30083E0540F603612271EF50AA3E039F50B89
:1026E300E50A2403FCE50B1227C73400FB121C8EFA
:1026F300E964017017850A82850B83A312533FA3F4
:10270300123708122745750C011256A712303012E2
:1027130024AF40B2A90C7F050205E0EEF8EFF9E81B
:1027230075F00BA4F812272C22AAF075F00BE9A47C
:102733002AF9900336E02822EF122813221266A703
:10274300EB221227511256A2EEF0A3EFF022E50876
:102753001266A8E5092274F512036DEAFEEBFF8EFB
:10276300828F83A31266967C007D00EE24030A0AFF
:102773000AEF1227C0EEFAEFFB120AEEE9F50A742C
:1027830001650A70291266A11227E6AAF075F00BFB
:10279300E91227F8850882F5831227D212280370DD
:1027A3000DE5082403FCE5091227B41227C002240F
:1027B300603400FDEE2403FAEF221227C73400FB36
:1027C300120B0C223400FDE5082403FAE50922A3C9
:1027D3001227D7221227DB22E0F8A3E0F98E828F9B
:1027E30083A3221227EA223400F5831240D3E8752B
:1027F300F00BA4F822122732F508A3E039F50922D9
:10280300E8F0A3E9F0E5082403FAE5091228132206
:102813001228196401223400FB120B12E92274F30B
:1028230012036D74E61208E912668C750C017508C3
:1028330000750900750A00750B00851882851983D8
:10284300E4F0EE2403FCEF3400FD7403120ACF120C
:1028530028D3E964017023740B120ACF1237007472
:1028630001120ACF124DE37003A3E069605185188A
:1028730082851983858208858309740D120ACFE442
:102883001228DA740E120ACF123708740D120ACF07
:10289300AA82AB83120B30E96401700B740D120A28
:1028A300CF85820A85830B780A120840AC08AD09EC
:1028B300EEFAEFFB120B007402120888E9F50CEE36
:1028C300FAEFFB120B2AA90C741A120888022719B3
:1028D300122BA6120B36221236701240CF22C08260
:1028E300C0837800790080031229D1122699E89ACF
:1028F300E99B5029E8FAE9FBEA75F00BA4FAACF07E
:1029030075F00BEBA42CFB900336E02AFCA3E03B11
:102913008C82F583E0540F70CF7900800279010235
:102923003328C082C083902250124125EC75F012E7
:10293300A4FCA8F075F012EDA428FD79FF7AF67BCC
:10294300061214D802332874F712036DE9FEEAFF66
:102953007A007B00780079008028E8FCE9FDEC75BB
:10296300F012A4FC85F00875F012EDA42508122DD1
:10297300E6C39E400AE0FCEFC39C4003122F0512FE
:1029830029D1122DDA40D3023665C082C083780084
:10299300790080031229D11229C5501F122DEAF4A0
:1029A30070F2E875F012A4F8AAF075F012E9A42AFF
:1029B300F974F628FA740639FB80047A007B000266
:1029C3003328902250122E9BC3E89AE99B22E824D5
:1029D3000108E93400F92274F012036D74F312084C
:1029E300E98A0A8B0B8C0C8D0D8908EC450D60165A
:1029F300AA0CAB0D120B848A0E8B0FAE0EAF0FEE2B
:102A03004F6003022A98120B5A8A0E8B0FA80EA945
:102A13000FE8FEE9FFE849607C90225E122AFA6023
:102A2300227403650860067404650870167A0479D5
:102A330003120B5490225E122B1140077A007B0085
:102A4300022AF790225C122AFA601B74016508605F
:102A53000674026508700F7A027901120B549022F2
:102A63005C122B1150D68518828519837401F012DC
:102A73000ACF12510BAC0CAD0D7403120ACF122BFB
:102A83009F740B120ACF1234F3123AE8E41250F394
:102A930012104C8004EE4F604A780074FF2508C37F
:102AA3009404500278048E828F8312510B8E828F8E
:102AB30083A3A3A3A3E508F0E88E828F83A3A3A334
:102AC300A3A312511312021C122EB28E828F83A360
:102AD300A3A3A3A3A3A3F0122EA9120AAC12568B8D
:102AE300120AB8122AFF4005900C52E4F0120F2686
:102AF300EEFAEFFB0240D912522D49227A047900F3
:102B0300120B54902250125D47EA98EB9922122B34
:102B13002A758322758250E493C398F8A3E49399AA
:102B2300F9C3EA98EB9922E493F8740193F92274B8
:102B3300F212036D74F31208E98A088B09ECFEEDB7
:102B4300FF750A00EEFAEFFB120B848A0C8B0DA8BB
:102B53000CA90DE849603E88828983E0650870040A
:102B6300A3E06509602F88828983A3A3A3A3E0C39D
:102B7300940550211255398518828519837401F003
:102B8300120ACF12553DEEFCEFFD7403120ACF1269
:102B93002B9F750A01A90A740D024BD7122BA6129B
:102BA3000B4222AA82AB83120B0C851882851983F0
:102BB300AA82AB832274F612036D122BF4600FA367
:102BC300A3A3A3E014C39404500479018002790001
:102BD30002371174F612036D122BF4600FA3A3A333
:102BE300A3E014C3940250047901800279000237F0
:102BF30011120B7E8A828B83E58245832274F6123F
:102C0300036D122BF4600BA3A3A3A3E0700479015B
:102C130080027900023711C082C083EAFCEBFD7A9F
:102C2300007B00023325C082C0837C007D00023319
:102C33002574F412036D74F31208E9EAFEEBFF8CBA
:102C43000A8D0BC3EC94F8ED94FF4007EE4F70032D
:102C5300022CED750800750900802E8518828519F0
:102C6300837401F0123058120ACF12306660137465
:102C730003120ACFAC82AD83EEFAEFFB121C8EE98E
:102C83007049E5082401122E86902250E412523531
:102C9300E50898E509995052E50875F012A4F8AAD9
:102CA300F075F012E509A42AF9125D7A60D4EE4FAB
:102CB30070A974FF650A700474FF650B60C4123059
:102CC30048650A7004A3E0650B70B7E50875F01258
:102CD300A4F508A8F075F012E509A428F50974F61F
:102CE3002508FA74063509FB80047A007B00023854
:102CF300AD74F412036D74F31208E9750800120B36
:102D0300848A0A8B0BAE0AAF0BEE4F602A851882BA
:102D1300851983740112366AF8A3E0F9740B120A59
:102D2300CF12378B120B247C127D0079FFEEFAEF62
:102D3300FB1214D8750801122AFF5009900C527423
:102D430001F0120F26A9080238AD74F712036DE9DA
:102D5300FE74FE6A700374FF6B780079007005805F
:102D6300521229D1122DDA504AE8FCE9FDEC75F034
:102D730012A4FCAFF075F012EDA42F122DE6F4604F
:102D8300E0E8FCE9FDEC75F012A4FC75F012EDA48B
:102D93002FFD74F62CF58274063DF583E06A70030B
:102DA300A3E06B70BC8009122DEA14C3940440178E
:102DB3001229D11229C55018EE70EC122DEA6401C4
:102DC3006005E0640370E9123039FAA3E0FB800484
:102DD3007AFE7BFF023665902250124129C3E89C9C
:102DE300E99D22122F3A22E8FAE9FBEA75F012A4D0
:102DF300FAACF075F012EBA42CFB74FA2AF582748A
:102E0300063BF583E022120B96023328C082C0836F
:102E1300790180F274F012036D8A0A8B0B7A0479BC
:102E230001120B548A0C8B0DEA450D603EEAC33345
:102E3300FAEB33FB1215748A088B09AE08AF09EE5F
:102E43004F60237AFE7BFF120B9C74FE6A7003743F
:102E5300FF6B601B850882850983123675E508249C
:102E630002122E8680E1750C0080047E007F0085AF
:102E73000A82850B83E50CF0EEFAEFFB0240DEE5F8
:102E8300082407F508E5093400F5092290225012B9
:102E93004129C3EA9CEB9D22E493FA740193FB223C
:102EA3001214CC74032212569CE4F090803F22E863
:102EB3008E828F83A3A3A3A3A3A3A3A3122ED4744D
:102EC30001122ED4A3F0EE241012569FE4F0A3F0C7
:102ED30022123AF4A3A3A322C082C0837A007B0008
:102EE300800419122F05122E8F5010122F24C39411
:102EF3000550F0E970EC122F0E80047A007B00027B
:102F03003328EA24010AEB3400FB22EA75F012A409
:102F1300FA75F012EBA428FB74F62AFA74063BFB4D
:102F230022EAFCEBFDEC75F012A4FCA8F075F0129C
:102F3300EDA428122F3A22FD74FA2CF58274063D73
:102F4300F583E02274F712036D74F31208E97E002F
:102F53007F00022FECE50875F017A4F8A9F0125FC3
:102F6300DBFAA3E0FBEEF8EFF9E875F012A4F8AC96
:102F7300F075F012E9A42C1230476A7003A3E06BDA
:102F8300603FE50875F017A4F8AAF0EA125FDAF8D3
:102F9300A3E0F97401120ACFE0687003A3E069604B
:102FA30020E50875F017A4F8EAF9747228FC740890
:102FB30039FD7403120ACFAA82AB83121C8EE96017
:102FC30014E50875F017A4F8A9F0747028FA7408CA
:102FD30039FB1210580508902262E493F8E508C300
:102FE300985003022F581230309022501263215010
:102FF30039EEF8EFF9123039F47003A3E0F460E628
:103003008518828519837401F0EEF8EFF9E875F0FD
:1030130012A4F875F012E9A42AF9123058120ACF53
:1030230012306660C175080080AD023660EE24017F
:103033000EEF3400FF22E875F012A4F8AAF075F041
:1030430012E9A42AF912304C2274F628F582740688
:1030530039F583E02274F828F5827406391240CDDD
:10306300740B22E8F0A3E9123793120B3CE922C058
:1030730082C08390034174FAF0A3740DF0023328E5
:1030830074F712036DEAFEEBFF900377E0640860C8
:103093001BE0640460168E828F83E0540364017026
:1030A300481234E6123BDEE06406703D8E828F8365
:1030B300A3A3E064FE7003A3E0F4602D8E828F83EC
:1030C300A3A31236FC900368E0687003A3E0697061
:1030D3000BEE2415F582EF125D616008120EB4E960
:1030E300F5088008120EBA80F67508C2EEFAEFFBF7
:1030F30012157A02259B74F412036D8A088B098AD0
:10310300828B83E0F8A3E0FAE82AFAE43400FB12A6
:1031130015748A0A8B0BAE0AAF0BEE4F60638508FA
:1031230082850983E0FC7D0079001214D88E828F9A
:1031330083A3A3126696120EF68E828F83A3A3A394
:10314300A3123675850882850983E0F8EE28F8EF27
:103153003400123704850882850983A3E0C0E0EEBA
:10316300240D12568ED0E0F0120F08EE240E1256E4
:103173008EE9124D40E0C0E0EE241112568ED0E0ED
:10318300F0EEFAEFFB0238B274F412036D74EB1233
:1031930008E98A088B098C0A8D0BE9FE900377E016
:1031A30064046005E06408700479C2802EA3780883
:1031B300120A90EE90037E123366120A907405127F
:1031C3000ACFE9F07404120ACF7401F07407120AEB
:1031D300CFE4F090037774021232C374150238AF50
:1031E30074F612036D74EB1208E9EAFEEBFF124961
:1031F3006260030232877A077B00121574900339E9
:1032030012367512496260788E828F83120AAC90EF
:10321300033A123BE1120AB812655AC0E012329324
:10322300D0E0F0EE2405FAEF3400FB8A088B098A1C
:1032330082F583E0C0E012328ED0E01238A9E0C0FC
:10324300E012328EA3D0E01236E9120AAC8518825E
:10325300851983120AB888828983E0C0E074051255
:103263000ACFD0E0F0850882850983E0C0E07404CA
:10327300120ACFD0E0F07407120ACF1232C28006CE
:10328300791080027901741502370E123293A3224A
:10329300900339E0FAA3E0F5838A82A3A3A3A322D0
:1032A300C082C083124962600D90033912526C9040
:1032B3000339E4F0A3F0120E24120FF8023328E4CA
:1032C300123793121CC422C082C083900338E0706B
:1032D300031217F0120BDE804CC082C083900338B8
:1032E300E0900C517004E4F0802D7401F0900338E9
:1032F300E0F460237C41E0C394415002E0FCECF82D
:10330300E0C398F0EC75F0E8A4CCA8F075F003A442
:1033130028FD7A801241317A517B0C7941121CAC21
:103323008003120B8AD083D08202080474F4120340
:103333006D74EB1208E98A088B098C0A8D0B9003D4
:10334300777401123366120A907405120ACFE9F0FA
:103353007404120ACF7403F07407120ACF1232C234
:103363000231DE1236F478082274F712036D7C0101
:10337300120BF002366574F212036D74FC1208E945
:10338300E9851882851983F0EAFEEBFF8C0A900326
:1033930075124417120E188A088B09EA450970053D
:1033A30079CA0234E18A828B83A3A3A3A3A3A3A331
:1033B300E064FE7003A3E0F4700579C30234E19086
:1033C3000375124DDF12105E850882850983A3A35E
:1033D300A3A3A3A3A3A3A3A3E00490038812364447
:1033E3007402120ACF7402F014120ACFAA82AB83BA
:1033F300120F628A0C8B0DAE0CAF0DEE4F700302F1
:1034030034D81234E6123D537406F0A3A882A9837C
:103413009003621252A91240ACF0EE241312568E9E
:1034230074011250EB7440F0A3E4124D39A3A312BC
:1034330034F3123708EE241112568EE50AF0EEFA31
:10344300EFFB120BBAE9FE60030234DA90037774E0
:1034530009F0122E82AA08FB794B121CAC85088254
:1034630085098312363612370890036AE0F8851807
:1034730082851983E068600CE090036A12378F79C4
:10348300E1121CAC900C8D1236FC900C8FE068702E
:1034930003A3E069601A90033B123708900C8F1264
:1034A3004DDF120F20900C8F1244177A0112413115
:1034B3007A007B049003C2E0F9121634900C8F1249
:1034C30034EB740278081209B2AC08AD09FA7B0434
:1034D30012413380027E1090052DE4F0EEF974045E
:1034E300024BD7EE12569D22E0F508A3E0F5092220
:1034F3001234F7221227DBA32274F512036D74E250
:103503001208E9851882851983ECF0A3EDF0EAFE31
:10351300EBFF89087429120ACFE0F509742C120A0B
:10352300CFE0F50A900377E064046005E064087077
:103533000579C202362E742A120ACFE064FE7003A4
:10354300A3E0F4700579C302362E90037774031257
:10355300378F7950121CAC742A120ACFAA82AB831C
:10356300794B121CAC85188285198312363D1237AC
:1035730008E50890036AF0742A120ACF123636124D
:103583003708E50990036212364474CE5509448026
:10359300C0E07412120ACFD0E0F07401250A900340
:1035A30088F0740F120ACF7402F0742A120ACF1231
:1035B30036FC7407120ACFE8F0A3E912367B7410C5
:1035C300120ACF1237087405120ACFE508F0741BEC
:1035D300120ACFE4F090037D740FF07A7D7B0379B8
:1035E30054121CAC90037C740FF07A7C7B037947F4
:1035F300121CAC90037CE0C3940F50237405120A91
:10360300CFE0C0E07402120ACFD0E0F07404120AD3
:10361300CF7401F004120ACFAA82AB83121CD074B8
:1036230005120ACFAA82AB83121CB2741E12088839
:103633000224621240CF90036B221240CF90037595
:1036430022F0EEFCEFFD7A897B03121C942274F7BF
:1036530012036DEB90037FF0120E068005740D12BA
:1036630008887F010205E0123670A3E0221236E9D2
:10367300A322EAF0A3EBF0221236EFF8A3E0F9223B
:1036830074F712036D74F81208E9EAFEEBFF790090
:10369300900377E06408704485188285198374FD6C
:1036A300F0A374FFF0120EF07402120ACF123675F3
:1036B3007405120ACFE4123670E0C0E07404120AF3
:1036C300CFD0E01236E4C0E07406120ACFD0E0F0A7
:1036D3007407120ACFE412378F120F4474080236AC
:1036E300621236E9E022F08E828F83221236F4E0F2
:1036F30022F0851882851983221240CF22E0F8A395
:10370300E0F912569CE8F0A3E9F0221208887F0240
:103713000205E0C082C08390034974AAF0A3740C2D
:10372300F09003EF749EF0A3740FF090034D74E0D8
:10373300F0A3740CF090034F74AAF0A3740CF090F0
:10374300035174E6F0A3740CF002332874F41203EB
:103753006D74F91208E98A088B098C0A8D0B851898
:10376300828519837808120A907404120ACFE9F04B
:103773007405120ACFE4F07406120ACFE412378FED
:10378300120BCC74070238AFE8F0A3E91237932287
:103793001236F4AA82AB832274F412036D8A088B67
:1037A300098A828B831256AAEE4F70030238A790C0
:1037B300031212496560158A828B83A3A3E0F9EE95
:1037C300FAEFFB900313123BE1121E6D8E828F837F
:1037D300A3A3A3A3A3A3A3A3A3E0640270748E82F1
:1037E3008F83A3A3A3A3A3A3E05402700302387996
:1037F300850882850983A3A3E064E960798E828FBB
:1038030083A3A3A3A3A3A3A3A3A3A3E07014900CD4
:10381300A2E0048E828F83A3A3A3A3A3A3A3A3A342
:10382300A3F08E828F83A3A3A3A3A3A3A3A3A3A382
:10383300E0141238A9A3A3A37404F0900CA31250AC
:10384300E5E8F0A3E91261BE8B0BEA450B700312A6
:103853005B9C8E828F83A3A3A3A3A3A3A3A3A3E0B1
:10386300640260128E828F83A3A3A3A3A3A3A3A343
:10387300A3E06406702E8E828F83A3A3A3A3A3A3C6
:10388300E0A2E0501F850882850983A3A3E0F9EE37
:10389300FAEFFB121D548E828F83A3A3A3A3A3A3CA
:1038A300E054FEF08009123AF022740D1208887F6A
:1038B300040205E074EC12036D74DD1208E9EAFEFC
:1038C300EBFF8C088D097437120ACF780C120A7239
:1038D300750A007405120ACFAC82AD83121DAE7453
:1038E30012120ACFE070087415120ACFE060207438
:1038F30005120ACFE0A2E6501E8E828F83A3A3A3F4
:10390300A3A3A3A3A3A3124DDF120F7AE96008793F
:1039130003121C7C023AD67405120ACFE0540C64DD
:10392300047005750B018003750B00E0A2E55035AB
:10393300750A01E50BA2E0402C120EF68A108B11DA
:10394300A810A9111234E6E0687003A3E0696015BA
:103953007405120ACF12669D124DDB121D60E960D9
:1039630004790480AC7405120ACFE0A2E6502274F5
:1039730006120ACFE0540370187405120ACFE054FC
:103983000C640C600CE0540C640860057510018035
:10399300037510007405120ACFE05403F87402682B
:1039A300700C12669D124DDB121D9C023AD67401F7
:1039B30068703AE510A2E05003123ADE7405120A69
:1039C300CFA882A9837403120ACFE8F0A3E91240B7
:1039D300C3851882851983123AE8E0C0E0740212A5
:1039E3000ACFD0E012378F121E44023AD6E86003A2
:1039F300023AD690035FE0640170108E828F83A336
:103A0300A3A3A3A3A3E070030239647422120ACF11
:103A130074021240C3741A120ACF123708E510A2B7
:103A2300E050087405120ACF123ADEE50BA2E0500B
:103A33006AEE240FF582EF125D61C0E07417120A7B
:103A4300CFD0E0F09003141249657003023AD61206
:103A53000EF68A128B13A812A913741A120ACFE056
:103A6300687003A3E069706B780C120838780A1247
:103A730008447808120840A910740C120ACFAC82CB
:103A8300AD837421120ACFAA82AB83900314123B35
:103A9300DE121E6D74071208888038780C120838FD
:103AA300780A12084478081208409003751206AF8A
:103AB300EE2412F582EF125A8F7423120ACFAC82CE
:103AC300AD83740E120ACFAA82AB83121D48740908
:103AD300120888742312088802618912669D1252A3
:103AE3007A121DA822E8F0A3E9123AF022123AF45E
:103AF30022F08E828F83A3A3A3A3A3A32274F7121E
:103B0300036D1216E202366574F712036D1216F492
:103B1300023665C082C0831216EE02332874F71290
:103B2300036D1216FA02366574F712036D740912E7
:103B33000ACFE0F508780812084412170674010248
:103B43003662C082C083121712023328C082C08338
:103B530012171802332874F712036D12171E023658
:103B63006574F712036DEAFEEBFF890874016508BB
:103B730070147900120D2290226DE493FC7900EE0B
:103B8300FAEFFB120C9802366574F412036D74F9A4
:103B93001208E9E9FE8A088B098C0A8D0B7413124B
:103BA3000ACF124DDF9005791249656027EE85181B
:103BB30082851983F07401120ACF7808120A90EAF9
:103BC300F8EBF97405120ACF12378B900579123B83
:103BD300DE121E6D023786FB90034BE0F8A3E0F57F
:103BE3008388822274F712036D900C54E0F97E00EF
:103BF300800B125D4D540D64017001190E123DE1ED
:103C03005003E970ED02366574F712036D900C559D
:103C1300E0F97E00800B125D4D548D6481700119B3
:103C23000E123DE15003E970ED02366574F21203A2
:103C33006D890BE975F006A4240CF508E5F0122E46
:103C43008A8A0CE508250CFAE5093400FB12157481
:103C53008A0C8B0DAE0CAF0DEE4F6027AC08AD098F
:103C630079001214D81234E6E50BF0EE2508F8EFCC
:103C73003509F98E828F83A3A3A3A3A3A3A3A3A32D
:103C8300123708EEFAEFFB024BDA74F612036DEA11
:103C9300FEEBFF120C74900C53E0F8E9C398400953
:103CA300900345124DDF120C7AEE2402F8EF125303
:103CB300EF9003471252A9900347E004F0EEFAEFA6
:103CC300FB120C80850882850983E00258A5C08217
:103CD300C0837900900345800109124DDF8A828BEE
:103CE30083E582458370F202332874F712036DEA89
:103CF300FEEBFFEE4F6056900345124965604E8818
:103D03008289837A007B00EE65827003EF658360AE
:103D13000FAA82AB83123D53E5824583602F80E770
:103D2300900345123D5F687002EF698E828F837046
:103D3300081236FC900345800312619B123708EE8C
:103D4300FAEFFB121E14EEFAEFFB12157A02366538
:103D5300123D57221240D388828983221240CFEE2C
:103D630022C082C0839003458004888289831249DC
:103D730065600B88828983124417EC4D70EC8A824C
:103D83008B83E4F0A3F0E84960068882898380038B
:103D930090034512367502332874F712036D9003AE
:103DA3004580048A828B83123DDC4B60257E008034
:103DB300010E123DE150ECEE75F006A4FCADF0EA05
:103DC3002CFCEB3DFDEC2410F582ED123E3170E14D
:103DD30080047A007B0002366512527EEA22123E8C
:103DE3003AEEC3982274F712036D7D0080010D1221
:103DF3003E36EDC3985034ED75F006A4FEA8F0E806
:103E0300FFEA2EFEEB3FFFEE2410F582EF123E3168
:103E130070DCED75F006A4FEE8FFEA2EFAEB3FFB3B
:103E2300EA2411F582EB125D614CF0023665125DF6
:103E33006D6922123E3A221266A7EB3400F583E045
:103E4300F82274F612036D120D9A7A007B00802516
:103E5300EAF8EBF9E875F006A4F8ACF075F006E9BA
:103E6300A42C125253126568A3E4125349F0A3120F
:103E7300656E1266E5902258122B0940D37A007BB7
:103E830000801C8A088B09740378081209B2124D4A
:103E930007A374FEF0A304125129A3E41266E5906C
:103EA3002261123EE440DC7A007B00801D8A088B8D
:103EB30009740378081209B274981259D9740B1251
:103EC300622074FEF0A3041266E5902267123EE4BA
:103ED30040DB90226BE493900353F0123EEE0237E3
:103EE30011E493F8C3EA98EB9400227CE87D037A0B
:103EF300107B009003C2E0F912162E2274F0120315
:103F03006D74F51208E98A088B09890A8C0BE9A2FA
:103F1300E050147508FC7509FFA2E15005D2E402D4
:103F23003FC1D2E3023FC1124BC67003A3E06970E5
:103F330005790002408EAC0A7902AA08AB09120D7A
:103F430076E960EDE50AF50C780C12084479027CF9
:103F5300FE7DFFAA08AB09124941120888E96003F4
:103F630002408CE50AC2E5F50A9003B5E07051E51D
:103F73000AA2E6404B7403120ACFAC82AD83AA08AF
:103F8300AB09120B18E970321242628A0C8B0DA82E
:103F93000CA90DE8FEE9FFE8496025EE24020A0AB0
:103FA300EF122819601AEE2402FCEF3400FD7403AB
:103FB300120ACFAA82AB83121C94E50AD2E5F50A52
:103FC300900348E0F50C900368E0F50EA3E0F50FCD
:103FD300780E1208407D017C00900348E0F9AA0E98
:103FE300AB0F120D2E7402120888E9F8900348E013
:103FF30004F0E8600302408CE50AA2E55004740E65
:1040030080027406C0E07401120ACFD0E01256BBDE
:104013008A0E8B0FAE0EAF0FEE4F60691240AC12DB
:1040230040C3888289837401F07478550AA31266A9
:10403300ADE50C1266ADA3E508F0E50912409BE47B
:10404300F0E50AA2E5500F7403120ACFAC82AD83E8
:10405300E824061240928E828F83A3A374FDF0A3FB
:1040630074FFF0E50B601590226EE493F8E50BC343
:10407300985009EE241312568EE50BF0EEFAEFFB7F
:10408300120BBA80067910800279C7740B8049FA43
:10409300E93400FB121C942288828983A3A3A3A37F
:1040A3001240A722125422A322EE241712569F7401
:1040B30001F0120EF0EE241A12569FEAF0A3EB223F
:1040C300F01266A134001240CD22F5831240D322B0
:1040D300E0F8A3E0F922740D1208887F080205E0D6
:1040E30074F612036D7A007B10125BA960089003CB
:1040F300D47401F08029900618E06401900CA0703C
:1041030006E0FC79018004E0FC79037A007B00126D
:104113000C989022561241257A007B1012413302EB
:10412300371112412922E493FC740193FD227B0091
:104133009003C2E0F91216282274EC12036D8A0868
:104143008B098C0C8D0D890E7414120ACF124B201F
:104153007416120ACFE0F510A3E0F511120F7AE9F5
:1041630060077AFF7BFF02425F900C9FE06402606E
:10417300030242527900AA08AB09120D7CA90E1260
:104183000D708A128B13AE12AF13EE4F70030242FF
:104193003A8E828F83A3A3A3A3A3E064018E828FAD
:1041A30083A3A37069124DDF8E828F83A3A3A3A37E
:1041B300A3A3E05418604390226CE4938E828F8310
:1041C300A3A3A3A3F0EA650C7003EB650D6014EAE7
:1041D300650A7003EB650B600AEA65107003EB6513
:1041E30011701F7810120840AC0AAD0BAA0CAB0D6E
:1041F30012107674021208888008900367125B938A
:10420300A3F074FE6A700374FF6B601D804EA3A35A
:10421300A3E0640360298E828F83A3A3A3A3A3E0F7
:10422300640470057AFE0241678E828F83A3A3A381
:10423300A3A3E0640270089003B4E0640270101258
:1042430042628B0BEA450B6006AA08AB09800DAAF4
:1042530008AB09900349123BDE121E6D026189907F
:10426300037512494712103A2274F712036DEAFEDE
:10427300EBFF120B6CE9700AEEFAEFFB120B78E915
:104283006006EEFAEFFB80047AFE7BFF023665746C
:10429300F012036D8A0A8B0B8C0E8D0F890975083A
:1042A30000120F7AE979006003024409AA0AAB0BF2
:1042B300120D7CA909120D708A0C8B0DAE0CAF0D7B
:1042C300EE4F60198E828F83A3A3A3A3A3E064029E
:1042D30070559003B4E064027003024407AA0AAB6A
:1042E3000B90034F123BDE121E6D120B7E8A0C8B5A
:1042F3000DA80CA90DE8497003024407888289833D
:10430300A3A3A3A3A3E0A2E04003024407750C0107
:10431300A2E150687901AC0AAD0BAA0EAB0F120CE7
:10432300C8E970640244078E828F83A3A3A3A3A367
:10433300E064037005750C0280528E828F83A3A301
:10434300A3A3A3E06401600302440790037512442E
:10435300178E828F8312476C8A0C8B0DA80CA90DC4
:10436300E84960D1902265E493FA88828983E0C3A7
:104373009A50C2A3E0600302440780B9888289830C
:10438300A3A3A3A3A3D2E1F0EE4F603A8E828F835F
:10439300A3A3A3A3A3A3E05418602B7508018E82E3
:1043A3008F83A3A31206AF750CFE750DFF780C1255
:1043B30008407900AC0AAD0BAA0EAB0F120D8E7438
:1043C30004120888803E900368E0650E7004A3E041
:1043D300650F701490226DE493FCA909AA0AAB0B34
:1043E300120C98750801801CA90CAC0AAD0BAA0E1F
:1043F300AB0F120CC8E9700C750801A909AA0AAB26
:104403000B120D22A9080240DEE50C2415F582E506
:104413000D1256A21250FF2274EA12036D74F012A9
:1044230008E98A0C8B0D8C088D097426120ACFE0DB
:10443300F514A3E0F5157512069003F512496560AE
:1044430023900375124417AA08AB091210648A104B
:104453008B11EA4511600D8A828B83A3E070057985
:1044630000024754E50C241DF50EE50D3400F50F4D
:10447300850E82124951F51388828983A3A3A3E091
:10448300FA88828983A3A3A3A3E0F9EA2400FEE4C4
:1044930039FFAA08AB09120D28850E82850F8312F6
:1044A300478FE029F50BE50AA2E5500375120E7458
:1044B30087550A70177418550A6418600FE50C24A1
:1044C30017F582E50D125D61651260077901121C13
:1044D3007C808C530A78C3EE94F8EF94FF501D79D7
:1044E30000EEFAEFFB12475E601288828983A3A372
:1044F300A3A3A3A3E054186003024462780812083C
:10450300407D00124782120888E9F874036870033B
:10451300024462E860030245CD7418550A70030231
:104523004682E50AD2E0F50AA2E45004D2E1F50A94
:10453300A90A124DD812475E605388828983A3A3C8
:10454300A3A3A3A3E05418604488828983A3A3A3ED
:10455300A3A3E064017036E5104511603090037544
:104563001244178882898312476C8A0E8B0FA80E18
:10457300A90FE849601788828983A3E0600F85103B
:1045830082851183A31258B05003024462E50AF5F1
:104593000E780E120844124775120888E9702B7CB6
:1045A300007D0085148285158374FFF0A3F0850CCC
:1045B30082850D83A3A3A3A3A3A3A3A3E0600312F4
:1045C300440CA90B124DD812170C85148285158340
:1045D300E0F47003A3E0F460399003B4E064027084
:1045E30003024462124B11E0FAA3E0123BDA121EFB
:1045F3006DEA65087003EB65096003024462EEFA35
:10460300EF123BDA121E6D851482851583EAF0A33F
:10461300EBF078081208407D01124782120888A93E
:104623000AEEFAEFFB120D7C8A088B09A808A90988
:10463300900368E0687003A3E0696003024745EEF6
:10464300FAEFFB120B7E8A088B09A808A909E8492F
:10465300606E88828983A3A3A3A3E06401600D88AD
:10466300828983A3A3A3A3E064027054851882857F
:104673001983AC82AD83EEFAEFFB120B18805590D1
:104683000361E0600FE50AF50E780E120844124745
:1046930075120888E50AF50E780E12084479027C33
:1046A300FE7DFFEEFAEFFB124941120888E9600331
:1046B3000245CD85148285158374FFF0A302461449
:1046C300120EF0EAFCEBFD851882851983AA82ABF2
:1046D30083121C94850C82850D83A3A3A3A3A3A398
:1046E300A3A3E06401700F12440C7408120ACFAA4A
:1046F30082AB83121C9412491B1255274430F508D0
:1047030078081208447401120ACF85820885830948
:104713007808120840740B120ACF85820885830932
:104723007808120840E513F5087808120844790060
:10473300EEFCEFFD124DD8120CC27406120888026B
:10474300446212491B12569112478FE50BF0120F68
:104753000874101208887F0E0205E0120D708A0E8D
:104763008B0FA80EA90FE84922A3A312527E1210A1
:1047730064227901AC08AD0912527312494122AC8B
:104783000BA913125273120D2E74022212552FA36A
:10479300A3A3A32274F012036D74F01208E98A0C28
:1047A3008B0DECFAEDFB750F089003F5124965606C
:1047B300141258A98A828B83E58245836007A3E09C
:1047C300700302491612491B3400124951F50B8834
:1047D300828983124924E0FBEC2400FEE43BFF883A
:1047E300828983A3A3124924A3A3E0FBECF508E485
:1047F3003BF50988828983A3A3A3A3A3A3A3E0F51D
:104803000EE50AA2E45003750F10A2E550067408E2
:10481300250FF50F748F550A700FE50C2417F582D9
:10482300E50D125D61650F60087901121C7C024978
:1048330016530A707800E50AA2E4502212491B12AB
:104843005D612408FCA3E03400FD7408120ACFAABA
:1048530082AB83121C947808E50AC2E4F50AE50AE0
:10486300A2E5502812491B125D6128F8A3E0340029
:10487300F9E82408FCE93400FD851882851983AA28
:1048830082AB83121C94E50AC2E5F50AAC0EA90BB0
:10489300EEFAEFFB120D34E9F874036860759003C8
:1048A30068E06E7003A3E06F605EE87054E50AF59C
:1048B3000F780F120844124932120888E9705478AD
:1048C3000A1208447401120ACF85820C85830D787D
:1048D3000C120840740B120ACF85820C85830D7865
:1048E3000C120840E50BF50A780A120844A90EAC2D
:1048F30008AD09EEFAEFFB120CC2740612088880A9
:1049030012740468700D80B7780A12084412493291
:1049130012088874100240DBE50C241DF582E50DB6
:1049230022A3A3A3E0FC88828983A3A3A3A3227960
:1049330001124B181256A212494712494122120C76
:10494300EC740122E0FCA3E0FDAA08AB0922F58385
:10495300123D57A3E0F50A88828983A3A3E022903E
:1049630003391252DA2274E812036D74F51208E95E
:10497300EAFEEBFF8C088D0989147423120ACFE039
:10498300F50F7424120ACFE0F512A3E0F513742691
:10499300120ACFE0F516A3E0F5177428120ACFE048
:1049A300F50EA90F120D3A8A108B117401120ACF5A
:1049B3007408F0E50EA2E450037410F0E50EA2E5CE
:1049C3005004E02408F0851882851983AA82AB83FA
:1049D300120F628A0C8B0DEA450D7003024AF8EA46
:1049E3002417F582EB124B0A120EF0E50C241AF58C
:1049F30082E50D1256911236757403120ACFAC82FA
:104A0300AD83AA10AB11120B18E9601D124B02748F
:104A130003120ACFA882A983E50C2418F582E50DB9
:104A2300125691E8F0A3E98024E50EA2E4501FE5B5
:104A3300106E7003E5116F7015124B02E50C24180C
:104A4300F582E50D125691E512F0A3E513F0124B32
:104A530011124B20850A82F5837402F0A3E50E122E
:104A63004B28E50FF0EE850A82850B83A3A3A3F001
:104A7300EF850A82850B83A3A3A3A3124B28A3A3C9
:104A8300A3E508F0E509850A82850B83A3A3A3A305
:104A9300A3A3F0AA10AB11120D28E92514850A82ED
:104AA300850B83A3A3A3A3A3A3A3F0750800E50E1B
:104AB300A2E45011AC12AD13E50A2408FAE50B1277
:104AC3004094750808E50EA2E55014AC16AD17E541
:104AD3000A2508F8E50B3400F9E82408124092850A
:104AE3000C82850D83A3A3E510F0A3E511F0AA0CB6
:104AF300AB0D120BBA740B1208887F100205E0E5A8
:104B03000C2416F582E50D1256A27401F022124B05
:104B1300181256A222E50C1266A8E50D22E0F50A4A
:104B2300A3E0F50B22F0850A82850B83A3A32274ED
:104B3300F212036D8A088B09ECFEEDFF890A7900F6
:104B4300124BC67003A3E069700479018073750B7F
:104B530001900368E065087004A3E06509601F75B0
:104B63000B00780B120844A90AEEFCEFFDAA08AB70
:104B730009120FB67401120888E9F50B8041790018
:104B8300EEFAEFFB120D70EA4B602B8A828B83A344
:104B9300A3A3A3A3A3E05418601C7508FE7509FF23
:104BA30078081208408A828B83A3A31206AF12648B
:104BB300BD12088880097901EEFAEFFB120C50A9A7
:104BC3000B8014120D7C8A0C8B0DA80CA90D90037D
:104BD30068E068221208887F060205E074F4120375
:104BE3006D7508E07509097A101261C58B0BEA45EA
:104BF3000B7003123EEE900353E014F0700C9022FE
:104C03006BE493900353F0120D887E007F00806C59
:104C1300850882850983A3A3A3A3E06059F46056A2
:104C2300E5082404F582E509125B8D704985088245
:104C3300850983A3A3A3A3A3E06403701979028561
:104C43000882850983124417850882850983A3A3F3
:104C5300124DDF120CC8850882850983A3A3A3A381
:104C6300A3E06401601085088285098374FEF0A3C4
:104C730004124D39E4F0123030122E8290225A126F
:104C83006321408C7E007F008039120E968E088F40
:104C930009740378081209B274582508FC740B359B
:104CA30009FD7AD47B0C120E84EA4B70DD8E088FDB
:104CB30009740378081209B2124D07126568E4F00B
:104CC300123030902261E493F8C3EE98EF940050D1
:104CD3001B8E088F09740378081209B2124D0FE86E
:104CE3002407F582E9125B8D70D680A17E007F00D8
:104CF300800A124D1A600214F012303012631E4003
:104D0300F10238B2124D0F88828983227458250824
:104D1300F8740B3509F922EEF8EFF9E875F006A4FB
:104D2300F8AAF075F006E9A42AF974F828F5827454
:104D33000A39F583E022124D40A3A3A322F085088C
:104D430082850983A3A32274F712036D74E1120809
:104D5300E9ECFEEDFF750800EE4F60728A828B83EB
:104D6300E0241C125BBE12496560638A828B831246
:104D73004DDF851882851983AC82AD83EA241BF548
:104D830082EB125A8FEA241CF582EB124DDB120ED2
:104D9300D8740B120ACF124DE37003A3E069702E8F
:104DA3007402120ACFE064017024741D120ACF1238
:104DB3003BDEE064017017741D120ACF123BE0A3BF
:104DC300A3E0F88E828F83E0687003750801A90859
:104DD300741F023662124B183400F58312527E227E
:104DE3001227D7E0682274F412036DE97024790066
:104DF30090034D123BDE121E6D8A0A8B0BAE0AAF77
:104E03000B74FE6E700374FF6F701A902268E49344
:104E13006013790190034D123BDE121E6D8A0A8BDB
:104E23000BAE0AAF0B120F2602318474F612036D18
:104E330074F31208E91214E48A088B09AE08AF0967
:104E4300900368E06E7003A3E06F60E9120EFCEA62
:104E53006E7002EB6F60DEEEFAEFFB120F7AE97011
:104E6300D4EE4F60D0851882851983E4F004120ACA
:104E7300CFEEF0A3EF124E91E970BA74FE6E700399
:104E830074FF6F60B0EEFAEFFB740D02370E12374A
:104E930093120B3022C082C083120F260233287F65
:104EA3000A0205E074F212036DEAFEEBFF8C0A8D31
:104EB3000B8908740E120ACFE0F50974FC6E7003B7
:104EC30074FF6F70057900024BDA7900120D7C8A4A
:104ED3000C8B0DAE0CAF0D900368E06E7003A3E076
:104EE3006F7006E509A2E650DCA9091263AB706195
:104EF30079007AFE7BFF1263AB7056741855097004
:104F030003024FDE7800790080031229D190225AE0
:104F13001229C84003024FDEE8FAE9FBEA75F007FD
:104F2300A4FAACF075F007EBA42CFB74E62AF58227
:104F330074093BF583E0541870D0E875F007A4F8C2
:104F4300AAF075F007E9A42AF974E028F87409397E
:104F5300F988828983A3A3A3A3A3A3E054186009B8
:104F6300741855097003024EC888828983EEF0A332
:104F7300EFF074FE650A700474FF650B6003125151
:104F83000588828983A3A3A3A3A3A3E509F0A2E0D1
:104F9300500D88828983A3A3A3A3A3A3D2E2F074B1
:104FA30001650888828983A3A3A3A3A3703874012E
:104FB300125129E05418602890226CE49388828966
:104FC30083A3A3A3A31250F31210648B0DEA450D20
:104FD3006003024EC87800790080397902024ECA14
:104FE300900367E080D7E064017003024EC88882B3
:104FF3008983A3A3A3A3A3A3E05418600790226CFF
:10500300E4938004900366E012409BE508F0024EAF
:10501300C81229D1902262E493FAC3E89AE9940072
:105023004003024EC87A007B00804BEAFCEBFDECA8
:1050330075F007A4FCAEF075F007EDA42EFD74E245
:105043002CF58274093DF5831256AAE8FCE9FDECC0
:1050530075F017A4FC85F00975F017EDA42509FD7B
:1050630074702CF58274083DF583E06E7003A3E041
:105073006F609E122F0590225A122E9240AD12415C
:1050830025EC6A7002ED6B7088E875F017A4F8AA36
:10509300F075F017E9A42AF9747028FE740839FF33
:1050A3007C177D007900EEFAEFFB1214D88E828F05
:1050B3008312510B9003751250E5A3A3A3A3A3A3DB
:1050C300E8F0A3E91250EB7401F0EE240E12568EB1
:1050D300740112511312021CEE240D12568EE802B3
:1050E30050101234F7A3A322F0EE240F12569F227E
:1050F300F01250FCAA0AAB0B22900375E0FCA3E06C
:10510300FD2288828983A3A3E50AF0A3E50BF0229D
:10511300F012511822902265E4932401F8E434003C
:10512300F97A027B00221240A7A32274ED12036DC9
:105133008A088B09890E12525C4005790502522AAE
:10514300121754AA08AB0912532E90225812522D4B
:10515300650A7003E9650B70077AFE7BFF12532E15
:10516300902258E4125235E50A98E50B9940030260
:1051730052281252396012E50A75F006A4F875F048
:1051830006E50B12528412157AE50E6018E50A75CE
:10519300F006A4F8AAF075F006E50B1252B0701AE7
:1051A300790102522AE50A75F006A4F8AAF075F00F
:1051B30006E50B125291E4F0A3F0E50A75F006A49C
:1051C300F8AAF075F006E50B125251A312553D886B
:1051D300828983A3AA82AB8312529F8A828B83E044
:1051E300603F125239603A8E108F11751200781099
:1051F30012083CE50EC333FCE433FDE50A75F00603
:10520300A4F50AA8F075F006E50BA428F50B74FCC9
:10521300250AF582740A350B124DDD122EA31208EE
:10522300887900800279070263C1122B2AE8229051
:105233002250125D4822E50A75F006A4F8AAF0751B
:10524300F006E50B12528CF8A3E0F9E84922A42AF0
:105253001253E588828983A322ECFEEDFF9022633B
:10526300E493F8E9C39822F58312527E12157A2249
:10527300E50C1266A8E50D3400F583E0FAA3E0FB24
:105283002212528CFAA3E0FB22125291E022A42AAA
:10529300F974FC28F582740A39F58322E50EF0903F
:1052A3000CA11252A922E088828983F022125409A8
:1052B300F50CE93400F50DE50EC333FAE433FB12C4
:1052C3001574850C82850D83EAF0A3EBF0850C82BF
:1052D300850D831252DA221240D3E8492274F41264
:1052E300036DECFEEDFF740C120ACF1236FC880836
:1052F300890912532EAC0AAD0BECF8EDF990225844
:105303001253365021E875F006A4F8AAF075F0069A
:10531300E9125251E08E828F8312534912533F1286
:1053230037087900800279040238B2120CFE8A0A27
:105333008B0B22122E9BC3EC9AED9B221240CF853E
:1053430008828509832212541E2274F612036D7E8D
:10535300007F008028EEF8EFF9E875F006A4F8ACBA
:10536300F075F006E9A42CF974FA28F582740A1290
:105373005FCC6A7003A3E06B605712303012631E78
:1053830040D31263197002E96F704674FE6A7003AA
:1053930074FF6B703C7E007F008003123030126319
:1053A3001E502E124D1A70F3EEF8EFF9E875F00661
:1053B300A4F81253DB12541060171253F7F8E912D2
:1053C30053EF888212526A850882850983E4F0A329
:1053D300F0EEFAEFFB02371175F006E91253E32200
:1053E300A42AF974F828F8740A39F9223400F988E0
:1053F30008890922EEF8EFF9E875F006A4F875F0CC
:1054030006E9125409221253E3E8240422A3A374E5
:10541300FE12541B1252DA22F0A30412542222F079
:1054230088828983A3A3A3A32274F612036DEA24BB
:105433001DF582EB125527F9604BEA241DF582EB2B
:10544300125D612402FCA3E03400FD1252604003AC
:1054530002551A780080298C828D83E0F508A3E039
:10546300FFE5082400E43FF509E833FEE433FF7465
:10547300402EF582740B3FF58312553D12551D08DE
:10548300E8C39940D28A828B83A3A3A3A3A3A3A334
:10549300A3A3124417900368E06C7003A3E06D703C
:1054A3000F7C407D0B122740124DDB120CF28067FC
:1054B300EA2411F582EB125D61605CFC74FF2CF051
:1054C300750801780812084475084075090B7808B7
:1054D300120840E9F5087808120844EA2412F58214
:1054E300EB125D61F5087808120844EA2415F58289
:1054F300EB1256911206AFECF91227401244148AAC
:10550300828B83A3A3A3A3A3A3A3A3A3124DDF12FD
:105513000D0A7407120888023711EC24020C0CEDF3
:105523003400FD221256A212552FE022E0F8A3E028
:10553300F5838882A32288828983E508F0A3E5099D
:10554300F02274EA12036D74FD1208E98A148B15B4
:105553008C0E8D0F890D7419120ACF1256AA741B63
:10556300120ACFE0F511741C120ACFE0F50C741D7A
:10557300120ACF124B20741F120ACFE0F5106008F5
:10558300E50CC333240480027402C0E07401120AE0
:10559300CFD0E01256BB8A088B09EA450970030293
:1055A30056868A828B83A3A3E514F0A3E5151261C3
:1055B300B4E50EF0A3E50FF0EA2413F582EB1256DF
:1055C30091E50DF0EA2414F582EB125691E511F002
:1055D300EA2417F582EB125D6164017040120EF646
:1055E3008A0E8B0FA80EA90F850882850983A3A3B2
:1055F300A3A3E0687003A3E0696022EE4F6011E5A6
:1056030008241AF582E509125691EEF0A3EF800CF7
:10561300E5082417F582E509125691E4F012569530
:105623001256AA8E828F837405F0A3E5107004E5E9
:105633000C80487401250C1256B47A008028850A20
:1056430082850B83E01256B0850A82850B83A3E023
:105653008E828F83F0E50A2402F50AE50B3400F508
:105663000BA30EAF830AEAC3950C40D2120EF6EADF
:105673001256B0120EF6EB8E828F83F0AA08AB0996
:10568300120BBA7403024756EE240CF582EF12563E
:10569300A2221227511256A222EE240BF582EF34D6
:1056A30000F58322900334E0FEA3E0FF228E828F75
:1056B30083F0A3AE82AF8322123793120F6222C00C
:1056C30082C083E9C333FCE433FDEA2CFAEB3DFBF0
:1056D300EA24FEF582EB34FF124DDD02332874F227
:1056E30012036D89098A0A12525C400479008040D2
:1056F30075080080020508E508C39509502AE508E6
:10570300C333F8E433F9EE28F582EF39F583C08229
:10571300C083120EF68A0C8B0DD083D082E0650C09
:105723007004A3E0650D70CDE50A650870BE7901CC
:10573300024BDA74F012036D74F31208E98A088BD2
:10574300098C0A8D0B890C750D00120F7AE979000B
:105753006003025838AA08AB09120D7CA90C120D7C
:10576300708A0E8B0FAE0EAF0FEE4F7003025836DA
:105773008E828F83A3A3A3A3A3A3E0A2E240030289
:105783005836120EF6EA650A7003EB650B70117852
:105793000D120844E4F50EF50F780E12084080440C
:1057A300AA0AAB0B120B72E9640170688518828533
:1057B30019837404F07401120ACF12510B851882F5
:1057C300851983AA82AB83120B30E9640170457596
:1057D3000D01780D120844E4F50EF50F780E12084A
:1057E30040750D00780D120844780D1208447408B2
:1057F300120ACF85820E85830F780E1208409022FD
:105803006EE493F9AC0AAD0BAA08AB09120D0A7446
:10581300071208888E828F83A3A3A3A3A3A3E0A266
:10582300E1400D8E828F83A3A3A3A3A3A3C2E2F0BF
:10583300750D01A90D0240D974F612036DE9FE79C5
:1058430000120D7CEEF9120D708A088B09A808A9C5
:1058530009E84960061266EFF980027904023711FC
:1058630074F612036D7E0790035CE070341258A93E
:105873008A088B09A808A909E8496025900361E013
:10588300640188828983A3A3700B1258B08882892C
:10589300835001A3A3E0F9121082E9FEEE70027EA9
:1058A30007EEF90237111250FC12106422E0FA8855
:1058B300828983A3E0C39A2274EE12036DEAFEEB9E
:1058C300FF890A8C0C8D0B7412120ACF1234EB125F
:1058D30059851252635051890E750F007403780E67
:1058E3001209B2745E250EF582740B350FF583E051
:1058F300F8E50CC398502DE50B6024751100740373
:1059030078101209B274582510F8740B3511F98800
:10591300828983A3A3A3A3A3A3E50C12598FF079D0
:1059230000024EA2790380F979007AFE7BFF1259B7
:1059330085E49365107004790280E6E50B60E089E5
:105943000E750F007403780E1209B27458250EF801
:10595300740B350FF988828983A3EEF0A3EF1259F4
:105963008F125129E50C1240A374FF12656EE50AEC
:10597300F0900366E088828983A3A3A3A3A3A3A3D0
:10598300809C120D6AE9F510902261221266B1A380
:10599300E508F0A3E5092274F612036DECFF120D7E
:1059A3006A902261125263502789087509007403B3
:1059B30078081209B2745D1259D9740B126220E08F
:1059C300F8EFC3985006EFF0790080067903800260
:1059D3007904023711EA2508F5822274F412036D63
:1059E300EAFEEBFF120D6AE9F50A90226112526397
:1059F3005019750B007403780A1209B2745B250AF7
:105A0300F582740B350B124DDD801890034B124950
:105A130065600CEEFAEFFB123BE1121E6D80047A17
:105A2300FE7BFF0238B274F612036D8A828B83A366
:105A3300A3A3A3A3E4F0F8800108902267E493F9F9
:105A4300E8C399501E8808125A878C828D83A3A3BA
:105A5300A3A3A3A3A3A3E06970DFECFAEDFB120EEB
:105A63009C801EE4936870198C828D83A3A3A3A3E7
:105A7300A3A3A3A3A37406F07A008C828D83125B85
:105A8300B202371174E02508F582740B125D6DF9CB
:105A93002274F412036DEAFEEBFF8E828F83A3A3BD
:105AA300E014125BC9A3E0F9120E788A088B09EAA5
:105AB30045097003025B8A8E828F83A3A3E070354E
:105AC3008A828B83A3A3A3A3A3A3A3A3A3E06402B8
:105AD3008A828B83A3A3A3A3A3A3A3A3A36010740A
:105AE30006F07AF08508828B83125BB2025B8A74BC
:105AF30006F0025B8A8E828F83A3A3A3A3A3A3E0F2
:105B030060738E828F83A3A3A3A3E0607AEE240342
:105B1300F582EF125B8D706F900355125B93125BEE
:105B2300C9E0141261ABE06403705C8E828F83A3BF
:105B3300A3A3A3E0700DAC08AD09EEFAEFFB120DC1
